{"abi":[{"type":"constructor","inputs":[{"name":"configFilePath","type":"string","internalType":"string"},{"name":"writeToFile","type":"bool","internalType":"bool"}],"stateMutability":"nonpayable"},{"type":"function","name":"get","inputs":[{"name":"key","type":"string","internalType":"string"}],"outputs":[{"name":"","type":"tuple","internalType":"struct Variable","components":[{"name":"ty","type":"tuple","internalType":"struct Type","components":[{"name":"kind","type":"uint8","internalType":"enum TypeKind"},{"name":"isArray","type":"bool","internalType":"bool"}]},{"name":"data","type":"bytes","internalType":"bytes"}]}],"stateMutability":"view"},{"type":"function","name":"get","inputs":[{"name":"chain_id","type":"uint256","internalType":"uint256"},{"name":"key","type":"string","internalType":"string"}],"outputs":[{"name":"","type":"tuple","internalType":"struct Variable","components":[{"name":"ty","type":"tuple","internalType":"struct Type","components":[{"name":"kind","type":"uint8","internalType":"enum TypeKind"},{"name":"isArray","type":"bool","internalType":"bool"}]},{"name":"data","type":"bytes","internalType":"bytes"}]}],"stateMutability":"view"},{"type":"function","name":"getChainIds","inputs":[],"outputs":[{"name":"","type":"uint256[]","internalType":"uint256[]"}],"stateMutability":"view"},{"type":"function","name":"getRpcUrl","inputs":[],"outputs":[{"name":"","type":"string","internalType":"string"}],"stateMutability":"view"},{"type":"function","name":"getRpcUrl","inputs":[{"name":"chainId","type":"uint256","internalType":"uint256"}],"outputs":[{"name":"","type":"string","internalType":"string"}],"stateMutability":"view"},{"type":"function","name":"resolveChainId","inputs":[{"name":"aliasOrId","type":"string","internalType":"string"}],"outputs":[{"name":"","type":"uint256","internalType":"uint256"}],"stateMutability":"view"},{"type":"function","name":"set","inputs":[{"name":"chainId","type":"uint256","internalType":"uint256"},{"name":"key","type":"string","internalType":"string"},{"name":"value","type":"int256","internalType":"int256"}],"outputs":[],"stateMutability":"nonpayable"},{"type":"function","name":"set","inputs":[{"name":"chainId","type":"uint256","internalType":"uint256"},{"name":"key","type":"string","internalType":"string"},{"name":"value","type":"bytes32[]","internalType":"bytes32[]"}],"outputs":[],"stateMutability":"nonpayable"},{"type":"function","name":"set","inputs":[{"name":"chainId","type":"uint256","internalType":"uint256"},{"name":"key","type":"string","internalType":"string"},{"name":"value","type":"uint256","internalType":"uint256"}],"outputs":[],"stateMutability":"nonpayable"},{"type":"function","name":"set","inputs":[{"name":"key","type":"string","internalType":"string"},{"name":"value","type":"bytes","internalType":"bytes"}],"outputs":[],"stateMutability":"nonpayable"},{"type":"function","name":"set","inputs":[{"name":"key","type":"string","internalType":"string"},{"name":"value","type":"bytes32","internalType":"bytes32"}],"outputs":[],"stateMutability":"nonpayable"},{"type":"function","name":"set","inputs":[{"name":"key","type":"string","internalType":"string"},{"name":"value","type":"int256","internalType":"int256"}],"outputs":[],"stateMutability":"nonpayable"},{"type":"function","name":"set","inputs":[{"name":"chainId","type":"uint256","internalType":"uint256"},{"name":"key","type":"string","internalType":"string"},{"name":"value","type":"bytes","internalType":"bytes"}],"outputs":[],"stateMutability":"nonpayable"},{"type":"function","name":"set","inputs":[{"name":"key","type":"string","internalType":"string"},{"name":"value","type":"string[]","internalType":"string[]"}],"outputs":[],"stateMutability":"nonpayable"},{"type":"function","name":"set","inputs":[{"name":"chainId","type":"uint256","internalType":"uint256"},{"name":"key","type":"string","internalType":"string"},{"name":"value","type":"address","internalType":"address"}],"outputs":[],"stateMutability":"nonpayable"},{"type":"function","name":"set","inputs":[{"name":"chainId","type":"uint256","internalType":"uint256"},{"name":"key","type":"string","internalType":"string"},{"name":"value","type":"address[]","internalType":"address[]"}],"outputs":[],"stateMutability":"nonpayable"},{"type":"function","name":"set","inputs":[{"name":"chainId","type":"uint256","internalType":"uint256"},{"name":"key","type":"string","internalType":"string"},{"name":"value","type":"string","internalType":"string"}],"outputs":[],"stateMutability":"nonpayable"},{"type":"function","name":"set","inputs":[{"name":"key","type":"string","internalType":"string"},{"name":"value","type":"uint256[]","internalType":"uint256[]"}],"outputs":[],"stateMutability":"nonpayable"},{"type":"function","name":"set","inputs":[{"name":"key","type":"string","internalType":"string"},{"name":"value","type":"address[]","internalType":"address[]"}],"outputs":[],"stateMutability":"nonpayable"},{"type":"function","name":"set","inputs":[{"name":"key","type":"string","internalType":"string"},{"name":"value","type":"uint256","internalType":"uint256"}],"outputs":[],"stateMutability":"nonpayable"},{"type":"function","name":"set","inputs":[{"name":"chainId","type":"uint256","internalType":"uint256"},{"name":"key","type":"string","internalType":"string"},{"name":"value","type":"int256[]","internalType":"int256[]"}],"outputs":[],"stateMutability":"nonpayable"},{"type":"function","name":"set","inputs":[{"name":"chainId","type":"uint256","internalType":"uint256"},{"name":"key","type":"string","internalType":"string"},{"name":"value","type":"bytes[]","internalType":"bytes[]"}],"outputs":[],"stateMutability":"nonpayable"},{"type":"function","name":"set","inputs":[{"name":"key","type":"string","internalType":"string"},{"name":"value","type":"address","internalType":"address"}],"outputs":[],"stateMutability":"nonpayable"},{"type":"function","name":"set","inputs":[{"name":"chainId","type":"uint256","internalType":"uint256"},{"name":"key","type":"string","internalType":"string"},{"name":"value","type":"bool","internalType":"bool"}],"outputs":[],"stateMutability":"nonpayable"},{"type":"function","name":"set","inputs":[{"name":"key","type":"string","internalType":"string"},{"name":"value","type":"bool","internalType":"bool"}],"outputs":[],"stateMutability":"nonpayable"},{"type":"function","name":"set","inputs":[{"name":"key","type":"string","internalType":"string"},{"name":"value","type":"bytes[]","internalType":"bytes[]"}],"outputs":[],"stateMutability":"nonpayable"},{"type":"function","name":"set","inputs":[{"name":"chainId","type":"uint256","internalType":"uint256"},{"name":"key","type":"string","internalType":"string"},{"name":"value","type":"bytes32","internalType":"bytes32"}],"outputs":[],"stateMutability":"nonpayable"},{"type":"function","name":"set","inputs":[{"name":"chainId","type":"uint256","internalType":"uint256"},{"name":"key","type":"string","internalType":"string"},{"name":"value","type":"string[]","internalType":"string[]"}],"outputs":[],"stateMutability":"nonpayable"},{"type":"function","name":"set","inputs":[{"name":"chainId","type":"uint256","internalType":"uint256"},{"name":"key","type":"string","internalType":"string"},{"name":"value","type":"uint256[]","internalType":"uint256[]"}],"outputs":[],"stateMutability":"nonpayable"},{"type":"function","name":"set","inputs":[{"name":"key","type":"string","internalType":"string"},{"name":"value","type":"int256[]","internalType":"int256[]"}],"outputs":[],"stateMutability":"nonpayable"},{"type":"function","name":"set","inputs":[{"name":"chainId","type":"uint256","internalType":"uint256"},{"name":"key","type":"string","internalType":"string"},{"name":"value","type":"bool[]","internalType":"bool[]"}],"outputs":[],"stateMutability":"nonpayable"},{"type":"function","name":"set","inputs":[{"name":"key","type":"string","internalType":"string"},{"name":"value","type":"bytes32[]","internalType":"bytes32[]"}],"outputs":[],"stateMutability":"nonpayable"},{"type":"function","name":"set","inputs":[{"name":"key","type":"string","internalType":"string"},{"name":"value","type":"string","internalType":"string"}],"outputs":[],"stateMutability":"nonpayable"},{"type":"function","name":"set","inputs":[{"name":"key","type":"string","internalType":"string"},{"name":"value","type":"bool[]","internalType":"bool[]"}],"outputs":[],"stateMutability":"nonpayable"},{"type":"function","name":"writeUpdatesBackToFile","inputs":[{"name":"enabled","type":"bool","internalType":"bool"}],"outputs":[],"stateMutability":"nonpayable"},{"type":"error","name":"AlreadyInitialized","inputs":[{"name":"key","type":"string","internalType":"string"}]},{"type":"error","name":"ChainNotInitialized","inputs":[{"name":"chainId","type":"uint256","internalType":"uint256"}]},{"type":"error","name":"InvalidChainKey","inputs":[{"name":"aliasOrId","type":"string","internalType":"string"}]},{"type":"error","name":"TypeMismatch","inputs":[{"name":"expected","type":"string","internalType":"string"},{"name":"actual","type":"string","internalType":"string"}]},{"type":"error","name":"UnableToParseVariable","inputs":[{"name":"key","type":"string","internalType":"string"}]},{"type":"error","name":"WriteToFileInForbiddenCtxt","inputs":[]}],"bytecode":{"object":"0x608060405234801561000f575f5ffd5b5060405161688a38038061688a83398101604081905261002e916118c2565b8080156100a757506040516364af255d60e01b81525f51602061686a5f395f51905f52906364af255d90610066906004908101611920565b602060405180830381865afa158015610081573d5f5f3e3d5ffd5b505050506040513d601f19601f820116820180604052508101906100a59190611946565b155b156100c5576040516305d79a4360e31b815260040160405180910390fd5b5f6100d083826119ea565b506005805460ff19168215151790556040516360f9bb1160e01b81525f905f51602061686a5f395f51905f529063ddd2128d9082906360f9bb1190610119908890600401611ad2565b5f60405180830381865afa158015610133573d5f5f3e3d5ffd5b505050506040513d5f823e601f3d908101601f1916820160405261015a9190810190611ae4565b6040518263ffffffff1660e01b81526004016101769190611ad2565b5f604051808303815f875af1158015610191573d5f5f3e3d5ffd5b505050506040513d5f823e601f3d908101601f191682016040526101b89190810190611ae4565b604051634095225960e11b81529091505f905f51602061686a5f395f51905f529063812a44b2906101ed908590600401611b1d565b5f60405180830381865afa158015610207573d5f5f3e3d5ffd5b505050506040513d5f823e601f3d908101601f1916820160405261022e9190810190611b74565b90505f5b815181101561074d575f82828151811061024e5761024e611c28565b602002602001015190507f885cb69240a935d632d79c317109709ecfa91a80626ff3989d68f67f5b1dd12d5f1c6001600160a01b031663812a44b2858360405160200161029b9190611c53565b6040516020818303038152906040526040518363ffffffff1660e01b81526004016102c7929190611c69565b5f60405180830381865afa1580156102e1573d5f5f3e3d5ffd5b505050506040513d5f823e601f3d908101601f191682016040526103089190810190611b74565b515f036103155750610745565b5f61031f82610757565b6001805480820182555f919091529091507fb10e2d527612073b26eecdfd717e6a320cf44b4afac2b0732d9fcbe2b7fa0cf60161035c83826119ea565b506040515f51602061686a5f395f51905f5290638bb8dd43908790610385908690602001611c96565b6040516020818303038152906040526040518363ffffffff1660e01b81526004016103b1929190611c69565b5f60405180830381865afa9250505080156103ed57506040513d5f823e601f3d908101601f191682016040526103ea9190810190611ae4565b60015b6104e65760405163975a6ce960e01b81525f51602061686a5f395f51905f529063ddd2128d90829063975a6ce990610429908790600401611ad2565b5f60405180830381865afa158015610443573d5f5f3e3d5ffd5b505050506040513d5f823e601f3d908101601f1916820160405261046a9190810190611ae4565b6040518263ffffffff1660e01b81526004016104869190611ad2565b5f604051808303815f875af11580156104a1573d5f5f3e3d5ffd5b505050506040513d5f823e601f3d908101601f191682016040526104c89190810190611ae4565b5f828152600260205260409020906104e090826119ea565b50610573565b60405163ddd2128d60e01b81525f51602061686a5f395f51905f529063ddd2128d90610516908490600401611ad2565b5f604051808303815f875af1158015610531573d5f5f3e3d5ffd5b505050506040513d5f823e601f3d908101601f191682016040526105589190810190611ae4565b5f8381526002602052604090209061057090826119ea565b50505b60015b600760ff821611610741575f8160ff1660078111156105975761059761190c565b90505f846105b58360078111156105b0576105b061190c565b610866565b6040516020016105c6929190611cc9565b60408051601f1981840301815290829052634095225960e11b825291505f51602061686a5f395f51905f529063812a44b290610608908b908590600401611c69565b5f60405180830381865afa92505050801561064457506040513d5f823e601f3d908101601f191682016040526106419190810190611b74565b60015b1561072c575f5b8151811015610729575f82828151811061066757610667611c28565b602002602001015190505f60078111156106835761068361190c565b5f8881526004602052604090819020905161069f908490611cf3565b9081526040519081900360200190205460ff1660078111156106c3576106c361190c565b036106fc576106f78b85836040516020016106df929190611cfe565b60408051601f19818403018152919052898489610a1f565b610720565b8060405163038a07f760e51b81526004016107179190611ad2565b60405180910390fd5b5060010161064b565b50505b5050808061073990611d09565b915050610576565b5050505b600101610232565b5050505050612204565b60405163fa91454d60e01b81525f905f51602061686a5f395f51905f529063fa91454d90610789908590600401611ad2565b602060405180830381865afa9250505080156107c2575060408051601f3d908101601f191682019092526107bf91810190611d33565b60015b61085b57604051634cc1c2bb60e01b81525f51602061686a5f395f51905f5290634cc1c2bb906107f6908590600401611ad2565b5f60405180830381865afa92505050801561083257506040513d5f823e601f3d908101601f1916820160405261082f9190810190611d4a565b60015b61085157816040516397aa94df60e01b81526004016107179190611ad2565b6020015192915050565b92915050565b919050565b6060600182600781111561087c5761087c61190c565b036108a1575050604080518082019091526004815263189bdbdb60e21b602082015290565b60028260078111156108b5576108b561190c565b036108dd5750506040805180820190915260078152666164647265737360c81b602082015290565b60038260078111156108f1576108f161190c565b03610919575050604080518082019091526007815266313cba32b9999960c91b602082015290565b600482600781111561092d5761092d61190c565b036109525750506040805180820190915260048152631d5a5b9d60e21b602082015290565b60058260078111156109665761096661190c565b0361098a5750506040805180820190915260038152621a5b9d60ea1b602082015290565b600682600781111561099e5761099e61190c565b036109c5575050604080518082019091526006815265737472696e6760d01b602082015290565b60078260078111156109d9576109d961190c565b036109ff575050604080518082019091526005815264627974657360d81b602082015290565b50506040805180820190915260048152636e6f6e6560e01b602082015290565b5f6001826007811115610a3457610a3461190c565b03610c8257604051636986e76b60e11b81525f51602061686a5f395f51905f529063d30dced690610a6b9089908990600401611c69565b602060405180830381865afa925050508015610aa4575060408051601f3d908101601f19168201909252610aa191810190611946565b60015b610bfc5760405163093e7f4d60e11b81525f51602061686a5f395f51905f529063127cfe9a90610ada9089908990600401611c69565b5f60405180830381865afa925050508015610b1657506040513d5f823e601f3d908101601f19168201604052610b139190810190611e12565b60015b15610bf75780604051602001610b2c9190611ea9565b60408051601f198184030181528282525f8881526003602052919091209091610b56908790611cf3565b90815260200160405180910390209081610b7091906119ea565b50604080518082019091528060015b815260016020918201525f87815260049091526040908190209051610ba5908790611cf3565b90815260405190819003602001902081518154829060ff19166001836007811115610bd257610bd261190c565b02179055506020919091015181549015156101000261ff001990911617905550600190505b6117ae565b6040805182151560208201520160408051601f198184030181528282525f8881526003602052919091209091610c33908790611cf3565b90815260200160405180910390209081610c4d91906119ea565b50604080518082019091528060015b81525f602091820181905287815260049091526040908190209051610ba5908790611cf3565b6002826007811115610c9657610c9661190c565b03610e5057604051631979f21160e21b81525f51602061686a5f395f51905f52906365e7c84490610ccd9089908990600401611c69565b602060405180830381865afa925050508015610d06575060408051601f3d908101601f19168201909252610d0391810190611f03565b60015b610de5576040516365c428e760e01b81525f51602061686a5f395f51905f52906365c428e790610d3c9089908990600401611c69565b5f60405180830381865afa925050508015610d7857506040513d5f823e601f3d908101601f19168201604052610d759190810190611f1c565b60015b15610bf75780604051602001610d8e9190611fa9565b60408051601f198184030181528282525f8881526003602052919091209091610db8908790611cf3565b90815260200160405180910390209081610dd291906119ea565b5060408051808201909152806002610b7f565b604080516001600160a01b03831660208201520160408051601f198184030181528282525f8881526003602052919091209091610e23908790611cf3565b90815260200160405180910390209081610e3d91906119ea565b5060408051808201909152806002610c5c565b6003826007811115610e6457610e6461190c565b03611016576040516308e2148160e41b81525f51602061686a5f395f51905f5290638e21481090610e9b9089908990600401611c69565b602060405180830381865afa925050508015610ed4575060408051601f3d908101601f19168201909252610ed191810190611d33565b60015b610fb357604051633e716f8160e01b81525f51602061686a5f395f51905f5290633e716f8190610f0a9089908990600401611c69565b5f60405180830381865afa925050508015610f4657506040513d5f823e601f3d908101601f19168201604052610f439190810190611fe9565b60015b15610bf75780604051602001610f5c919061206f565b60408051601f198184030181528282525f8881526003602052919091209091610f86908790611cf3565b90815260200160405180910390209081610fa091906119ea565b5060408051808201909152806003610b7f565b60408051602081018390520160408051601f198184030181528282525f8881526003602052919091209091610fe9908790611cf3565b9081526020016040518091039020908161100391906119ea565b5060408051808201909152806003610c5c565b600482600781111561102a5761102a61190c565b036111dc5760405163cc7b048760e01b81525f51602061686a5f395f51905f529063cc7b0487906110619089908990600401611c69565b602060405180830381865afa92505050801561109a575060408051601f3d908101601f1916820190925261109791810190611d33565b60015b611179576040516316bbe4f960e31b81525f51602061686a5f395f51905f529063b5df27c8906110d09089908990600401611c69565b5f60405180830381865afa92505050801561110c57506040513d5f823e601f3d908101601f191682016040526111099190810190611fe9565b60015b15610bf75780604051602001611122919061206f565b60408051601f198184030181528282525f888152600360205291909120909161114c908790611cf3565b9081526020016040518091039020908161116691906119ea565b5060408051808201909152806004610b7f565b60408051602081018390520160408051601f198184030181528282525f88815260036020529190912090916111af908790611cf3565b908152602001604051809103902090816111c991906119ea565b5060408051808201909152806004610c5c565b60058260078111156111f0576111f061190c565b036113a25760405163c135073960e01b81525f51602061686a5f395f51905f529063c1350739906112279089908990600401611c69565b602060405180830381865afa925050508015611260575060408051601f3d908101601f1916820190925261125d91810190611d33565b60015b61133f576040516369a9157360e11b81525f51602061686a5f395f51905f529063d3522ae6906112969089908990600401611c69565b5f60405180830381865afa9250505080156112d257506040513d5f823e601f3d908101601f191682016040526112cf9190810190611fe9565b60015b15610bf757806040516020016112e8919061206f565b60408051601f198184030181528282525f8881526003602052919091209091611312908790611cf3565b9081526020016040518091039020908161132c91906119ea565b5060408051808201909152806005610b7f565b60408051602081018390520160408051601f198184030181528282525f8881526003602052919091209091611375908790611cf3565b9081526020016040518091039020908161138f91906119ea565b5060408051808201909152806005610c5c565b60078260078111156113b6576113b661190c565b036115705760405163d77bfdb960e01b81525f51602061686a5f395f51905f529063d77bfdb9906113ed9089908990600401611c69565b5f60405180830381865afa92505050801561142957506040513d5f823e601f3d908101601f191682016040526114269190810190611ae4565b60015b6115085760405163b197c24760e01b81525f51602061686a5f395f51905f529063b197c2479061145f9089908990600401611c69565b5f60405180830381865afa92505050801561149b57506040513d5f823e601f3d908101601f1916820160405261149891908101906120a6565b60015b15610bf757806040516020016114b1919061214a565b60408051601f198184030181528282525f88815260036020529190912090916114db908790611cf3565b908152602001604051809103902090816114f591906119ea565b5060408051808201909152806007610b7f565b806040516020016115199190611ad2565b60408051601f198184030181528282525f8881526003602052919091209091611543908790611cf3565b9081526020016040518091039020908161155d91906119ea565b5060408051808201909152806007610c5c565b60068260078111156115845761158461190c565b036117ae57604051638bb8dd4360e01b81525f51602061686a5f395f51905f5290638bb8dd43906115bb9089908990600401611c69565b5f60405180830381865afa9250505080156115f757506040513d5f823e601f3d908101601f191682016040526115f49190810190611ae4565b60015b6116d657604051639f62928160e01b81525f51602061686a5f395f51905f5290639f6292819061162d9089908990600401611c69565b5f60405180830381865afa92505050801561166957506040513d5f823e601f3d908101601f191682016040526116669190810190611b74565b60015b15610bf7578060405160200161167f91906121ad565b60408051601f198184030181528282525f88815260036020529190912090916116a9908790611cf3565b908152602001604051809103902090816116c391906119ea565b5060408051808201909152806006610b7f565b806040516020016116e79190611ad2565b60408051601f198184030181528282525f8881526003602052919091209091611711908790611cf3565b9081526020016040518091039020908161172b91906119ea565b50604080518082018252600681525f602080830182905288825260049052829020915190919061175c908790611cf3565b90815260405190819003602001902081518154829060ff191660018360078111156117895761178961190c565b02179055506020919091015181549015156101000261ff001990911617905550600190505b806117ce578260405163ea00fa1360e01b81526004016107179190611ad2565b505050505050565b634e487b7160e01b5f52604160045260245ffd5b604051608081016001600160401b038111828210171561180c5761180c6117d6565b60405290565b604051601f8201601f191681016001600160401b038111828210171561183a5761183a6117d6565b604052919050565b5f82601f830112611851575f5ffd5b8151602083015f806001600160401b03841115611870576118706117d6565b50601f8301601f191660200161188581611812565b915050828152858383011115611899575f5ffd5b8282602083015e5f92810160200192909252509392505050565b80518015158114610861575f5ffd5b5f5f604083850312156118d3575f5ffd5b82516001600160401b038111156118e8575f5ffd5b6118f485828601611842565b925050611903602084016118b3565b90509250929050565b634e487b7160e01b5f52602160045260245ffd5b602081016009831061194057634e487b7160e01b5f52602160045260245ffd5b91905290565b5f60208284031215611956575f5ffd5b61195f826118b3565b9392505050565b600181811c9082168061197a57607f821691505b60208210810361199857634e487b7160e01b5f52602260045260245ffd5b50919050565b601f8211156119e557805f5260205f20601f840160051c810160208510156119c35750805b601f840160051c820191505b818110156119e2575f81556001016119cf565b50505b505050565b81516001600160401b03811115611a0357611a036117d6565b611a1781611a118454611966565b8461199e565b6020601f821160018114611a49575f8315611a325750848201515b5f19600385901b1c1916600184901b1784556119e2565b5f84815260208120601f198516915b82811015611a785787850151825560209485019460019092019101611a58565b5084821015611a9557868401515f19600387901b60f8161c191681555b50505050600190811b01905550565b5f81518084528060208401602086015e5f602082860101526020601f19601f83011685010191505092915050565b602081525f61195f6020830184611aa4565b5f60208284031215611af4575f5ffd5b81516001600160401b03811115611b09575f5ffd5b611b1584828501611842565b949350505050565b604081525f611b2f6040830184611aa4565b828103602084015260018152600960fa1b60208201526040810191505092915050565b5f6001600160401b03821115611b6a57611b6a6117d6565b5060051b60200190565b5f60208284031215611b84575f5ffd5b81516001600160401b03811115611b99575f5ffd5b8201601f81018413611ba9575f5ffd5b8051611bbc611bb782611b52565b611812565b8082825260208201915060208360051b850101925086831115611bdd575f5ffd5b602084015b83811015611c1d5780516001600160401b03811115611bff575f5ffd5b611c0e89602083890101611842565b84525060209283019201611be2565b509695505050505050565b634e487b7160e01b5f52603260045260245ffd5b5f81518060208401855e5f93019283525090919050565b61121760f11b81525f61195f6002830184611c3c565b604081525f611c7b6040830185611aa4565b8281036020840152611c8d8185611aa4565b95945050505050565b61121760f11b81525f611cac6002830184611c3c565b6c0b995b991c1bda5b9d17dd5c9b609a1b8152600d019392505050565b61121760f11b81525f611cdf6002830185611c3c565b601760f91b8152611c8d6001820185611c3c565b5f61195f8284611c3c565b5f611cdf8285611c3c565b5f60ff821660ff8103611d2a57634e487b7160e01b5f52601160045260245ffd5b60010192915050565b5f60208284031215611d43575f5ffd5b5051919050565b5f60208284031215611d5a575f5ffd5b81516001600160401b03811115611d6f575f5ffd5b820160808185031215611d80575f5ffd5b611d886117ea565b81516001600160401b03811115611d9d575f5ffd5b611da986828501611842565b8252506020828101519082015260408201516001600160401b03811115611dce575f5ffd5b611dda86828501611842565b60408301525060608201516001600160401b03811115611df8575f5ffd5b611e0486828501611842565b606083015250949350505050565b5f60208284031215611e22575f5ffd5b81516001600160401b03811115611e37575f5ffd5b8201601f81018413611e47575f5ffd5b8051611e55611bb782611b52565b8082825260208201915060208360051b850101925086831115611e76575f5ffd5b6020840193505b82841015611e9f57611e8e846118b3565b825260209384019390910190611e7d565b9695505050505050565b602080825282518282018190525f918401906040840190835b81811015611ee25783511515835260209384019390920191600101611ec2565b509095945050505050565b80516001600160a01b0381168114610861575f5ffd5b5f60208284031215611f13575f5ffd5b61195f82611eed565b5f60208284031215611f2c575f5ffd5b81516001600160401b03811115611f41575f5ffd5b8201601f81018413611f51575f5ffd5b8051611f5f611bb782611b52565b8082825260208201915060208360051b850101925086831115611f80575f5ffd5b6020840193505b82841015611e9f57611f9884611eed565b825260209384019390910190611f87565b602080825282518282018190525f918401906040840190835b81811015611ee25783516001600160a01b0316835260209384019390920191600101611fc2565b5f60208284031215611ff9575f5ffd5b81516001600160401b0381111561200e575f5ffd5b8201601f8101841361201e575f5ffd5b805161202c611bb782611b52565b8082825260208201915060208360051b85010192508683111561204d575f5ffd5b6020840193505b82841015611e9f578351825260209384019390910190612054565b602080825282518282018190525f918401906040840190835b81811015611ee2578351835260209384019390920191600101612088565b5f602082840312156120b6575f5ffd5b81516001600160401b038111156120cb575f5ffd5b8201601f810184136120db575f5ffd5b80516120e9611bb782611b52565b8082825260208201915060208360051b85010192508683111561210a575f5ffd5b602084015b83811015611c1d5780516001600160401b0381111561212c575f5ffd5b61213b89602083890101611842565b8452506020928301920161210f565b5f602082016020835280845180835260408501915060408160051b8601019250602086015f5b828110156121a157603f1987860301845261218c858351611aa4565b94506020938401939190910190600101612170565b50929695505050505050565b5f602082016020835280845180835260408501915060408160051b8601019250602086015f5b828110156121a157603f198786030184526121ef858351611aa4565b945060209384019391909101906001016121d3565b614659806122115f395ff3fe608060405234801561000f575f5ffd5b5060043610610235575f3560e01c8063805da4ad1161013d578063cf1cfa99116100b8578063de0fc9b311610088578063e60532501161006e578063e6053250146104c3578063e942b516146104d6578063fa3c074a146104e9575f5ffd5b8063de0fc9b31461049d578063e298d00b146104b0575f5ffd5b8063cf1cfa9914610451578063cf72a2f314610464578063d6698dc414610477578063db0075df1461048a575f5ffd5b806393dbe6e01161010d578063b3a64001116100f3578063b3a6400114610418578063ba0ff22c1461042b578063c91ca7ba1461043e575f5ffd5b806393dbe6e0146103f2578063a815ff1514610405575f5ffd5b8063805da4ad146103a657806388c63d45146103b95780638a42ebe9146103cc5780638be19924146103df575f5ffd5b806343ec8b6a116101cd57806361141c971161019d578063693ec85e11610183578063693ec85e146103605780637b8fed81146103805780637df3ef1214610393575f5ffd5b806361141c971461033a578063655609501461034d575f5ffd5b806343ec8b6a146102ec5780634d85ce801461030157806359b39526146103145780635eba0df014610327575f5ffd5b80632b29c0fa116102085780632b29c0fa146102925780632e3196a5146102a55780632ef8ba74146102b85780633f3a7588146102cb575f5ffd5b806307d79d9a1461023957806308f7b4b21461024e5780631d7763231461026157806322dc48fd1461027f575b5f5ffd5b61024c6102473660046134e3565b6104fc565b005b61024c61025c3660046135b8565b61066f565b6102696108da565b6040516102769190613625565b60405180910390f35b61024c61028d3660046134e3565b610a4c565b61024c6102a0366004613667565b610b54565b61024c6102b33660046136cc565b610bf1565b61024c6102c63660046136cc565b610c8a565b6102de6102d936600461370e565b610d23565b604051908152602001610276565b6102f4610ed0565b6040516102769190613794565b61024c61030f3660046137a6565b610ffd565b61024c610322366004613888565b61110d565b61024c610335366004613906565b6111a6565b61024c6103483660046139bb565b6112dc565b61024c61035b3660046137a6565b6114b0565b61037361036e36600461370e565b611574565b6040516102769190613a4b565b61024c61038e366004613a90565b611630565b6102f46103a1366004613aeb565b6116c9565b6103736103b4366004613b02565b611768565b61024c6103c7366004613b30565b6118cc565b61024c6103da3660046136cc565b611965565b61024c6103ed3660046135b8565b6119fe565b61024c610400366004613b8b565b611c14565b61024c610413366004613bee565b611dcc565b61024c610426366004613c49565b611e65565b61024c610439366004613ca0565b611f6f565b61024c61044c366004613888565b612008565b61024c61045f3660046134e3565b6120a1565b61024c610472366004613b8b565b6121ad565b61024c610485366004613cef565b612310565b61024c6104983660046135b8565b612411565b61024c6104ab366004613a90565b612627565b61024c6104be366004613d6e565b6126c0565b61024c6104d1366004613a90565b6128d7565b61024c6104e4366004613667565b612970565b61024c6104f7366004613dd1565b612a09565b60408051808201909152600581525f602082015261051b848483612aa2565b604080516020810184905201604080517fffffffffffffffffffffffffffffffffffffffffffffffffffffffffffffffe08184030181528282525f878152600360205291909120909161056f908690613e43565b908152602001604051809103902090816105899190613ee2565b5060055460ff161561066957610669846105b6835f015160078111156105b1576105b1613a1e565b612be1565b6040517fa322c40e000000000000000000000000000000000000000000000000000000008152600481018690528690737109709ecfa91a80626ff3989d68f67f5b1dd12d9063a322c40e906024015b5f60405180830381865afa15801561061f573d5f5f3e3d5ffd5b505050506040513d5f823e601f3d9081017fffffffffffffffffffffffffffffffffffffffffffffffffffffffffffffffe01682016040526106649190810190614046565b612e5a565b50505050565b60408051808201909152600381526001602082015261068f848483612aa2565b816040516020016106a09190613625565b604080517fffffffffffffffffffffffffffffffffffffffffffffffffffffffffffffffe08184030181528282525f87815260036020529190912090916106e8908690613e43565b908152602001604051809103902090816107029190613ee2565b5060055460ff16156106695760408051808201909152600181527f5b0000000000000000000000000000000000000000000000000000000000000060208201525f5b835181101561088d578161082b7f885cb69240a935d632d79c317109709ecfa91a80626ff3989d68f67f5b1dd12d5f1c73ffffffffffffffffffffffffffffffffffffffff1663b11a19e88785815181106107a1576107a1614078565b60200260200101516040518263ffffffff1660e01b81526004016107c791815260200190565b5f60405180830381865afa1580156107e1573d5f5f3e3d5ffd5b505050506040513d5f823e601f3d9081017fffffffffffffffffffffffffffffffffffffffffffffffffffffffffffffffe01682016040526108269190810190614046565b612f33565b60405160200161083c9291906140a5565b60405160208183030381529060405291506001845161085b91906140b9565b811015610885578160405160200161087391906140f1565b60405160208183030381529060405291505b600101610744565b508060405160200161089f9190614129565b60405160208183030381529060405290506108d3856108cc845f015160078111156105b1576105b1613a1e565b8684612e5a565b5050505050565b60605f6001805480602002602001604051908101604052809291908181526020015f905b828210156109a6578382905f5260205f2001805461091b90613e4e565b80601f016020809104026020016040519081016040528092919081815260200182805461094790613e4e565b80156109925780601f1061096957610100808354040283529160200191610992565b820191905f5260205f20905b81548152906001019060200180831161097557829003601f168201915b5050505050815260200190600101906108fe565b5050505090505f815167ffffffffffffffff8111156109c7576109c76133a5565b6040519080825280602002602001820160405280156109f0578160200160208202803683370190505b5090505f5b8251811015610a4557610a20838281518110610a1357610a13614078565b6020026020010151610d23565b828281518110610a3257610a32614078565b60209081029190910101526001016109f5565b5092915050565b60408051808201909152600481525f6020820152610a6b848483612aa2565b604080516020810184905201604080517fffffffffffffffffffffffffffffffffffffffffffffffffffffffffffffffe08184030181528282525f8781526003602052919091209091610abf908690613e43565b90815260200160405180910390209081610ad99190613ee2565b5060055460ff16156106695761066984610b01835f015160078111156105b1576105b1613a1e565b6040517f6900a3ae000000000000000000000000000000000000000000000000000000008152600481018690528690737109709ecfa91a80626ff3989d68f67f5b1dd12d90636900a3ae90602401610605565b610bed7f885cb69240a935d632d79c317109709ecfa91a80626ff3989d68f67f5b1dd12d5f1c73ffffffffffffffffffffffffffffffffffffffff16633408e4706040518163ffffffff1660e01b8152600401602060405180830381865afa158015610bc2573d5f5f3e3d5ffd5b505050506040513d601f19601f82011682018060405250810190610be69190614161565b8383610ffd565b5050565b610bed7f885cb69240a935d632d79c317109709ecfa91a80626ff3989d68f67f5b1dd12d5f1c73ffffffffffffffffffffffffffffffffffffffff16633408e4706040518163ffffffff1660e01b8152600401602060405180830381865afa158015610c5f573d5f5f3e3d5ffd5b505050506040513d601f19601f82011682018060405250810190610c839190614161565b83836120a1565b610bed7f885cb69240a935d632d79c317109709ecfa91a80626ff3989d68f67f5b1dd12d5f1c73ffffffffffffffffffffffffffffffffffffffff16633408e4706040518163ffffffff1660e01b8152600401602060405180830381865afa158015610cf8573d5f5f3e3d5ffd5b505050506040513d601f19601f82011682018060405250810190610d1c9190614161565b83836104fc565b6040517ffa91454d0000000000000000000000000000000000000000000000000000000081525f90737109709ecfa91a80626ff3989d68f67f5b1dd12d9063fa91454d90610d75908590600401613794565b602060405180830381865afa925050508015610dcc575060408051601f3d9081017fffffffffffffffffffffffffffffffffffffffffffffffffffffffffffffffe0168201909252610dc991810190614161565b60015b610ec5576040517f4cc1c2bb000000000000000000000000000000000000000000000000000000008152737109709ecfa91a80626ff3989d68f67f5b1dd12d90634cc1c2bb90610e20908590600401613794565b5f60405180830381865afa925050508015610e7a57506040513d5f823e601f3d9081017fffffffffffffffffffffffffffffffffffffffffffffffffffffffffffffffe0168201604052610e779190810190614178565b60015b610ebb57816040517f97aa94df000000000000000000000000000000000000000000000000000000008152600401610eb29190613794565b60405180910390fd5b6020015192915050565b92915050565b919050565b606060025f7f885cb69240a935d632d79c317109709ecfa91a80626ff3989d68f67f5b1dd12d5f1c73ffffffffffffffffffffffffffffffffffffffff16633408e4706040518163ffffffff1660e01b8152600401602060405180830381865afa158015610f40573d5f5f3e3d5ffd5b505050506040513d601f19601f82011682018060405250810190610f649190614161565b81526020019081526020015f208054610f7c90613e4e565b80601f0160208091040260200160405190810160405280929190818152602001828054610fa890613e4e565b8015610ff35780601f10610fca57610100808354040283529160200191610ff3565b820191905f5260205f20905b815481529060010190602001808311610fd657829003601f168201915b5050505050905090565b60408051808201909152600781525f602082015261101c848483612aa2565b8160405160200161102d9190613794565b604080517fffffffffffffffffffffffffffffffffffffffffffffffffffffffffffffffe08184030181528282525f8781526003602052919091209091611075908690613e43565b9081526020016040518091039020908161108f9190613ee2565b5060055460ff161561066957610669846110b7835f015160078111156105b1576105b1613a1e565b6040517f71aad10d000000000000000000000000000000000000000000000000000000008152869061066490737109709ecfa91a80626ff3989d68f67f5b1dd12d906371aad10d906107c7908a90600401613794565b610bed7f885cb69240a935d632d79c317109709ecfa91a80626ff3989d68f67f5b1dd12d5f1c73ffffffffffffffffffffffffffffffffffffffff16633408e4706040518163ffffffff1660e01b8152600401602060405180830381865afa15801561117b573d5f5f3e3d5ffd5b505050506040513d601f19601f8201168201806040525081019061119f9190614161565b83836121ad565b60408051808201909152600281525f60208201526111c5848483612aa2565b6040805173ffffffffffffffffffffffffffffffffffffffff8416602082015201604080517fffffffffffffffffffffffffffffffffffffffffffffffffffffffffffffffe08184030181528282525f878152600360205291909120909161122e908690613e43565b908152602001604051809103902090816112489190613ee2565b5060055460ff16156106695761066984611270835f015160078111156105b1576105b1613a1e565b6040517f56ca623e00000000000000000000000000000000000000000000000000000000815273ffffffffffffffffffffffffffffffffffffffff86166004820152869061066490737109709ecfa91a80626ff3989d68f67f5b1dd12d906356ca623e906024016107c7565b6040805180820190915260028152600160208201526112fc848483612aa2565b8160405160200161130d9190614244565b604080517fffffffffffffffffffffffffffffffffffffffffffffffffffffffffffffffe08184030181528282525f8781526003602052919091209091611355908690613e43565b9081526020016040518091039020908161136f9190613ee2565b5060055460ff16156106695760408051808201909152600181527f5b0000000000000000000000000000000000000000000000000000000000000060208201525f5b835181101561088d578161144e7f885cb69240a935d632d79c317109709ecfa91a80626ff3989d68f67f5b1dd12d5f1c73ffffffffffffffffffffffffffffffffffffffff166356ca623e87858151811061140e5761140e614078565b60200260200101516040518263ffffffff1660e01b81526004016107c7919073ffffffffffffffffffffffffffffffffffffffff91909116815260200190565b60405160200161145f9291906140a5565b60405160208183030381529060405291506001845161147e91906140b9565b8110156114a8578160405160200161149691906140f1565b60405160208183030381529060405291505b6001016113b1565b60408051808201909152600681525f60208201526114cf848483612aa2565b816040516020016114e09190613794565b604080517fffffffffffffffffffffffffffffffffffffffffffffffffffffffffffffffe08184030181528282525f8781526003602052919091209091611528908690613e43565b908152602001604051809103902090816115429190613ee2565b5060055460ff1615610669576106698461156a835f015160078111156105b1576105b1613a1e565b8561066486612f33565b604080516080810182525f91810182815260608083019390935281526020810191909152610ec57f885cb69240a935d632d79c317109709ecfa91a80626ff3989d68f67f5b1dd12d5f1c73ffffffffffffffffffffffffffffffffffffffff16633408e4706040518163ffffffff1660e01b8152600401602060405180830381865afa158015611606573d5f5f3e3d5ffd5b505050506040513d601f19601f8201168201806040525081019061162a9190614161565b83611768565b610bed7f885cb69240a935d632d79c317109709ecfa91a80626ff3989d68f67f5b1dd12d5f1c73ffffffffffffffffffffffffffffffffffffffff16633408e4706040518163ffffffff1660e01b8152600401602060405180830381865afa15801561169e573d5f5f3e3d5ffd5b505050506040513d601f19601f820116820180604052508101906116c29190614161565b8383612411565b5f8181526002602052604090208054606091906116e590613e4e565b80601f016020809104026020016040519081016040528092919081815260200182805461171190613e4e565b801561175c5780601f106117335761010080835404028352916020019161175c565b820191905f5260205f20905b81548152906001019060200180831161173f57829003601f168201915b50505050509050919050565b604080516080810182525f91810182815260608083019390935281526020810191909152604051806040016040528060045f8681526020019081526020015f20846040516117b69190613e43565b908152604080519182900360200182208282019091528054829060ff1660078111156117e4576117e4613a1e565b60078111156117f5576117f5613a1e565b81529054610100900460ff1615156020918201529082525f868152600382526040908190209051929091019161182c908690613e43565b9081526020016040518091039020805461184590613e4e565b80601f016020809104026020016040519081016040528092919081815260200182805461187190613e4e565b80156118bc5780601f10611893576101008083540402835291602001916118bc565b820191905f5260205f20905b81548152906001019060200180831161189f57829003601f168201915b5050505050815250905092915050565b610bed7f885cb69240a935d632d79c317109709ecfa91a80626ff3989d68f67f5b1dd12d5f1c73ffffffffffffffffffffffffffffffffffffffff16633408e4706040518163ffffffff1660e01b8152600401602060405180830381865afa15801561193a573d5f5f3e3d5ffd5b505050506040513d601f19601f8201168201806040525081019061195e9190614161565b83836112dc565b610bed7f885cb69240a935d632d79c317109709ecfa91a80626ff3989d68f67f5b1dd12d5f1c73ffffffffffffffffffffffffffffffffffffffff16633408e4706040518163ffffffff1660e01b8152600401602060405180830381865afa1580156119d3573d5f5f3e3d5ffd5b505050506040513d601f19601f820116820180604052508101906119f79190614161565b8383610a4c565b604080518082019091526005815260016020820152611a1e848483612aa2565b81604051602001611a2f9190613625565b604080517fffffffffffffffffffffffffffffffffffffffffffffffffffffffffffffffe08184030181528282525f8781526003602052919091209091611a77908690613e43565b90815260200160405180910390209081611a919190613ee2565b5060055460ff16156106695760408051808201909152600181527f5b0000000000000000000000000000000000000000000000000000000000000060208201525f5b835181101561088d57817f885cb69240a935d632d79c317109709ecfa91a80626ff3989d68f67f5b1dd12d5f1c73ffffffffffffffffffffffffffffffffffffffff1663a322c40e868481518110611b2d57611b2d614078565b60200260200101516040518263ffffffff1660e01b8152600401611b5391815260200190565b5f60405180830381865afa158015611b6d573d5f5f3e3d5ffd5b505050506040513d5f823e601f3d9081017fffffffffffffffffffffffffffffffffffffffffffffffffffffffffffffffe0168201604052611bb29190810190614046565b604051602001611bc39291906140a5565b604051602081830303815290604052915060018451611be291906140b9565b811015611c0c5781604051602001611bfa91906140f1565b60405160208183030381529060405291505b600101611ad3565b604080518082019091526007815260016020820152611c34848483612aa2565b81604051602001611c459190614291565b604080517fffffffffffffffffffffffffffffffffffffffffffffffffffffffffffffffe08184030181528282525f8781526003602052919091209091611c8d908690613e43565b90815260200160405180910390209081611ca79190613ee2565b5060055460ff16156106695760408051808201909152600181527f5b0000000000000000000000000000000000000000000000000000000000000060208201525f5b835181101561088d5781611d6a7f885cb69240a935d632d79c317109709ecfa91a80626ff3989d68f67f5b1dd12d5f1c73ffffffffffffffffffffffffffffffffffffffff166371aad10d878581518110611d4657611d46614078565b60200260200101516040518263ffffffff1660e01b81526004016107c79190613794565b604051602001611d7b9291906140a5565b604051602081830303815290604052915060018451611d9a91906140b9565b811015611dc45781604051602001611db291906140f1565b60405160208183030381529060405291505b600101611ce9565b610bed7f885cb69240a935d632d79c317109709ecfa91a80626ff3989d68f67f5b1dd12d5f1c73ffffffffffffffffffffffffffffffffffffffff16633408e4706040518163ffffffff1660e01b8152600401602060405180830381865afa158015611e3a573d5f5f3e3d5ffd5b505050506040513d601f19601f82011682018060405250810190611e5e9190614161565b83836111a6565b60408051808201909152600181525f6020820152611e84848483612aa2565b60408051831515602082015201604080517fffffffffffffffffffffffffffffffffffffffffffffffffffffffffffffffe08184030181528282525f8781526003602052919091209091611ed9908690613e43565b90815260200160405180910390209081611ef39190613ee2565b5060055460ff16156106695761066984611f1b835f015160078111156105b1576105b1613a1e565b6040517f71dce7da00000000000000000000000000000000000000000000000000000000815285151560048201528690737109709ecfa91a80626ff3989d68f67f5b1dd12d906371dce7da90602401610605565b610bed7f885cb69240a935d632d79c317109709ecfa91a80626ff3989d68f67f5b1dd12d5f1c73ffffffffffffffffffffffffffffffffffffffff16633408e4706040518163ffffffff1660e01b8152600401602060405180830381865afa158015611fdd573d5f5f3e3d5ffd5b505050506040513d601f19601f820116820180604052508101906120019190614161565b8383611e65565b610bed7f885cb69240a935d632d79c317109709ecfa91a80626ff3989d68f67f5b1dd12d5f1c73ffffffffffffffffffffffffffffffffffffffff16633408e4706040518163ffffffff1660e01b8152600401602060405180830381865afa158015612076573d5f5f3e3d5ffd5b505050506040513d601f19601f8201168201806040525081019061209a9190614161565b8383611c14565b60408051808201909152600381525f60208201526120c0848483612aa2565b604080516020810184905201604080517fffffffffffffffffffffffffffffffffffffffffffffffffffffffffffffffe08184030181528282525f8781526003602052919091209091612114908690613e43565b9081526020016040518091039020908161212e9190613ee2565b5060055460ff16156106695761066984612156835f015160078111156105b1576105b1613a1e565b6040517fb11a19e800000000000000000000000000000000000000000000000000000000815260048101869052869061066490737109709ecfa91a80626ff3989d68f67f5b1dd12d9063b11a19e8906024016107c7565b6040805180820190915260068152600160208201526121cd848483612aa2565b816040516020016121de9190614312565b604080517fffffffffffffffffffffffffffffffffffffffffffffffffffffffffffffffe08184030181528282525f8781526003602052919091209091612226908690613e43565b908152602001604051809103902090816122409190613ee2565b5060055460ff16156106695760408051808201909152600181527f5b0000000000000000000000000000000000000000000000000000000000000060208201525f5b835181101561088d57816122ae8583815181106122a1576122a1614078565b6020026020010151612f33565b6040516020016122bf9291906140a5565b6040516020818303038152906040529150600184516122de91906140b9565b81101561230857816040516020016122f691906140f1565b60405160208183030381529060405291505b600101612282565b8080156123a957506040517f64af255d000000000000000000000000000000000000000000000000000000008152737109709ecfa91a80626ff3989d68f67f5b1dd12d906364af255d90612368906004908101614387565b602060405180830381865afa158015612383573d5f5f3e3d5ffd5b505050506040513d601f19601f820116820180604052508101906123a791906143a1565b155b156123e0576040517f2ebcd21800000000000000000000000000000000000000000000000000000000815260040160405180910390fd5b600580547fffffffffffffffffffffffffffffffffffffffffffffffffffffffffffffff0016911515919091179055565b604080518082019091526004815260016020820152612431848483612aa2565b816040516020016124429190613625565b604080517fffffffffffffffffffffffffffffffffffffffffffffffffffffffffffffffe08184030181528282525f878152600360205291909120909161248a908690613e43565b908152602001604051809103902090816124a49190613ee2565b5060055460ff16156106695760408051808201909152600181527f5b0000000000000000000000000000000000000000000000000000000000000060208201525f5b835181101561088d57817f885cb69240a935d632d79c317109709ecfa91a80626ff3989d68f67f5b1dd12d5f1c73ffffffffffffffffffffffffffffffffffffffff16636900a3ae86848151811061254057612540614078565b60200260200101516040518263ffffffff1660e01b815260040161256691815260200190565b5f60405180830381865afa158015612580573d5f5f3e3d5ffd5b505050506040513d5f823e601f3d9081017fffffffffffffffffffffffffffffffffffffffffffffffffffffffffffffffe01682016040526125c59190810190614046565b6040516020016125d69291906140a5565b6040516020818303038152906040529150600184516125f591906140b9565b81101561261f578160405160200161260d91906140f1565b60405160208183030381529060405291505b6001016124e6565b610bed7f885cb69240a935d632d79c317109709ecfa91a80626ff3989d68f67f5b1dd12d5f1c73ffffffffffffffffffffffffffffffffffffffff16633408e4706040518163ffffffff1660e01b8152600401602060405180830381865afa158015612695573d5f5f3e3d5ffd5b505050506040513d601f19601f820116820180604052508101906126b99190614161565b83836119fe565b60408051808201909152600180825260208201526126df848483612aa2565b816040516020016126f091906143bc565b604080517fffffffffffffffffffffffffffffffffffffffffffffffffffffffffffffffe08184030181528282525f8781526003602052919091209091612738908690613e43565b908152602001604051809103902090816127529190613ee2565b5060055460ff16156106695760408051808201909152600181527f5b0000000000000000000000000000000000000000000000000000000000000060208201525f5b835181101561088d57817f885cb69240a935d632d79c317109709ecfa91a80626ff3989d68f67f5b1dd12d5f1c73ffffffffffffffffffffffffffffffffffffffff166371dce7da8684815181106127ee576127ee614078565b60200260200101516040518263ffffffff1660e01b8152600401612816911515815260200190565b5f60405180830381865afa158015612830573d5f5f3e3d5ffd5b505050506040513d5f823e601f3d9081017fffffffffffffffffffffffffffffffffffffffffffffffffffffffffffffffe01682016040526128759190810190614046565b6040516020016128869291906140a5565b6040516020818303038152906040529150600184516128a591906140b9565b8110156128cf57816040516020016128bd91906140f1565b60405160208183030381529060405291505b600101612794565b610bed7f885cb69240a935d632d79c317109709ecfa91a80626ff3989d68f67f5b1dd12d5f1c73ffffffffffffffffffffffffffffffffffffffff16633408e4706040518163ffffffff1660e01b8152600401602060405180830381865afa158015612945573d5f5f3e3d5ffd5b505050506040513d601f19601f820116820180604052508101906129699190614161565b838361066f565b610bed7f885cb69240a935d632d79c317109709ecfa91a80626ff3989d68f67f5b1dd12d5f1c73ffffffffffffffffffffffffffffffffffffffff16633408e4706040518163ffffffff1660e01b8152600401602060405180830381865afa1580156129de573d5f5f3e3d5ffd5b505050506040513d601f19601f82011682018060405250810190612a029190614161565b83836114b0565b610bed7f885cb69240a935d632d79c317109709ecfa91a80626ff3989d68f67f5b1dd12d5f1c73ffffffffffffffffffffffffffffffffffffffff16633408e4706040518163ffffffff1660e01b8152600401602060405180830381865afa158015612a77573d5f5f3e3d5ffd5b505050506040513d601f19601f82011682018060405250810190612a9b9190614161565b83836126c0565b5f838152600460205260408082209051612abd908590613e43565b908152604080519182900360200182208282019091528054829060ff166007811115612aeb57612aeb613a1e565b6007811115612afc57612afc613a1e565b81529054610100900460ff16151560209091015290505f81516007811115612b2657612b26613a1e565b03612bd7578160045f8681526020019081526020015f2084604051612b4b9190613e43565b9081526040519081900360200190208151815482907fffffffffffffffffffffffffffffffffffffffffffffffffffffffffffffff00166001836007811115612b9657612b96613a1e565b0217905550602091909101518154901515610100027fffffffffffffffffffffffffffffffffffffffffffffffffffffffffffff00ff909116179055610669565b6106698183612f5c565b60606001826007811115612bf757612bf7613a1e565b03612c3557505060408051808201909152600481527f626f6f6c00000000000000000000000000000000000000000000000000000000602082015290565b6002826007811115612c4957612c49613a1e565b03612c8757505060408051808201909152600781527f6164647265737300000000000000000000000000000000000000000000000000602082015290565b6003826007811115612c9b57612c9b613a1e565b03612cd957505060408051808201909152600781527f6279746573333200000000000000000000000000000000000000000000000000602082015290565b6004826007811115612ced57612ced613a1e565b03612d2b57505060408051808201909152600481527f75696e7400000000000000000000000000000000000000000000000000000000602082015290565b6005826007811115612d3f57612d3f613a1e565b03612d7d57505060408051808201909152600381527f696e740000000000000000000000000000000000000000000000000000000000602082015290565b6006826007811115612d9157612d91613a1e565b03612dcf57505060408051808201909152600681527f737472696e670000000000000000000000000000000000000000000000000000602082015290565b6007826007811115612de357612de3613a1e565b03612e2157505060408051808201909152600581527f6279746573000000000000000000000000000000000000000000000000000000602082015290565b505060408051808201909152600481527f6e6f6e6500000000000000000000000000000000000000000000000000000000602082015290565b5f612e6485612fb0565b90505f818585604051602001612e7c939291906143f5565b604080517fffffffffffffffffffffffffffffffffffffffffffffffffffffffffffffffe0818403018152908290527f51ac6a330000000000000000000000000000000000000000000000000000000082529150737109709ecfa91a80626ff3989d68f67f5b1dd12d906351ac6a3390612efe9086905f908690600401614492565b5f604051808303815f87803b158015612f15575f5ffd5b505af1158015612f27573d5f5f3e3d5ffd5b50505050505050505050565b606081604051602001612f469190614560565b6040516020818303038152906040529050919050565b612f668282613156565b610bed57612f738161319d565b612f7c8361319d565b6040517fb02cf71d000000000000000000000000000000000000000000000000000000008152600401610eb29291906145be565b60605f5b600154811015613120578261306960018381548110612fd557612fd5614078565b905f5260205f20018054612fe890613e4e565b80601f016020809104026020016040519081016040528092919081815260200182805461301490613e4e565b801561305f5780601f106130365761010080835404028352916020019161305f565b820191905f5260205f20905b81548152906001019060200180831161304257829003601f168201915b5050505050610d23565b03613118576001818154811061308157613081614078565b905f5260205f2001805461309490613e4e565b80601f01602080910402602001604051908101604052809291908181526020018280546130c090613e4e565b801561310b5780601f106130e25761010080835404028352916020019161310b565b820191905f5260205f20905b8154815290600101906020018083116130ee57829003601f168201915b5050505050915050919050565b600101612fb4565b506040517f3ff29f0600000000000000000000000000000000000000000000000000000000815260048101839052602401610eb2565b80515f90600781111561316b5761316b613a1e565b8351600781111561317e5761317e613a1e565b14801561319657508160200151151583602001511515145b9392505050565b60605f6131ac835f0151613209565b9050826020015115806131d057505f835160078111156131ce576131ce613a1e565b145b156131db5792915050565b806040516020016131ec91906145eb565b604051602081830303815290604052915050919050565b50919050565b6060600182600781111561321f5761321f613a1e565b0361325d57505060408051808201909152600481527f626f6f6c00000000000000000000000000000000000000000000000000000000602082015290565b600282600781111561327157613271613a1e565b036132af57505060408051808201909152600781527f6164647265737300000000000000000000000000000000000000000000000000602082015290565b60038260078111156132c3576132c3613a1e565b0361330157505060408051808201909152600781527f6279746573333200000000000000000000000000000000000000000000000000602082015290565b600482600781111561331557613315613a1e565b0361335357505060408051808201909152600781527f75696e7432353600000000000000000000000000000000000000000000000000602082015290565b600582600781111561336757613367613a1e565b03612d7d57505060408051808201909152600681527f696e743235360000000000000000000000000000000000000000000000000000602082015290565b7f4e487b71000000000000000000000000000000000000000000000000000000005f52604160045260245ffd5b6040516080810167ffffffffffffffff811182821017156133f5576133f56133a5565b60405290565b604051601f82017fffffffffffffffffffffffffffffffffffffffffffffffffffffffffffffffe016810167ffffffffffffffff81118282101715613442576134426133a5565b604052919050565b5f67ffffffffffffffff821115613463576134636133a5565b50601f017fffffffffffffffffffffffffffffffffffffffffffffffffffffffffffffffe01660200190565b5f82601f83011261349e575f5ffd5b8135602083015f6134b66134b18461344a565b6133fb565b90508281528583830111156134c9575f5ffd5b828260208301375f92810160200192909252509392505050565b5f5f5f606084860312156134f5575f5ffd5b83359250602084013567ffffffffffffffff811115613512575f5ffd5b61351e8682870161348f565b93969395505050506040919091013590565b5f67ffffffffffffffff821115613549576135496133a5565b5060051b60200190565b5f82601f830112613562575f5ffd5b81356135706134b182613530565b8082825260208201915060208360051b860101925085831115613591575f5ffd5b602085015b838110156135ae578035835260209283019201613596565b5095945050505050565b5f5f5f606084860312156135ca575f5ffd5b83359250602084013567ffffffffffffffff8111156135e7575f5ffd5b6135f38682870161348f565b925050604084013567ffffffffffffffff81111561360f575f5ffd5b61361b86828701613553565b9150509250925092565b602080825282518282018190525f918401906040840190835b8181101561365c57835183526020938401939092019160010161363e565b509095945050505050565b5f5f60408385031215613678575f5ffd5b823567ffffffffffffffff81111561368e575f5ffd5b61369a8582860161348f565b925050602083013567ffffffffffffffff8111156136b6575f5ffd5b6136c28582860161348f565b9150509250929050565b5f5f604083850312156136dd575f5ffd5b823567ffffffffffffffff8111156136f3575f5ffd5b6136ff8582860161348f565b95602094909401359450505050565b5f6020828403121561371e575f5ffd5b813567ffffffffffffffff811115613734575f5ffd5b6137408482850161348f565b949350505050565b5f81518084528060208401602086015e5f6020828601015260207fffffffffffffffffffffffffffffffffffffffffffffffffffffffffffffffe0601f83011685010191505092915050565b602081525f6131966020830184613748565b5f5f5f606084860312156137b8575f5ffd5b83359250602084013567ffffffffffffffff8111156137d5575f5ffd5b6137e18682870161348f565b925050604084013567ffffffffffffffff8111156137fd575f5ffd5b61361b8682870161348f565b5f82601f830112613818575f5ffd5b81356138266134b182613530565b8082825260208201915060208360051b860101925085831115613847575f5ffd5b602085015b838110156135ae57803567ffffffffffffffff81111561386a575f5ffd5b613879886020838a010161348f565b8452506020928301920161384c565b5f5f60408385031215613899575f5ffd5b823567ffffffffffffffff8111156138af575f5ffd5b6138bb8582860161348f565b925050602083013567ffffffffffffffff8111156138d7575f5ffd5b6136c285828601613809565b803573ffffffffffffffffffffffffffffffffffffffff81168114610ecb575f5ffd5b5f5f5f60608486031215613918575f5ffd5b83359250602084013567ffffffffffffffff811115613935575f5ffd5b6139418682870161348f565b925050613950604085016138e3565b90509250925092565b5f82601f830112613968575f5ffd5b81356139766134b182613530565b8082825260208201915060208360051b860101925085831115613997575f5ffd5b602085015b838110156135ae576139ad816138e3565b83526020928301920161399c565b5f5f5f606084860312156139cd575f5ffd5b83359250602084013567ffffffffffffffff8111156139ea575f5ffd5b6139f68682870161348f565b925050604084013567ffffffffffffffff811115613a12575f5ffd5b61361b86828701613959565b7f4e487b71000000000000000000000000000000000000000000000000000000005f52602160045260245ffd5b602081525f8251805160088110613a6457613a64613a1e565b806020850152506020810151151560408401525060208301516060808401526137406080840182613748565b5f5f60408385031215613aa1575f5ffd5b823567ffffffffffffffff811115613ab7575f5ffd5b613ac38582860161348f565b925050602083013567ffffffffffffffff811115613adf575f5ffd5b6136c285828601613553565b5f60208284031215613afb575f5ffd5b5035919050565b5f5f60408385031215613b13575f5ffd5b82359150602083013567ffffffffffffffff8111156136b6575f5ffd5b5f5f60408385031215613b41575f5ffd5b823567ffffffffffffffff811115613b57575f5ffd5b613b638582860161348f565b925050602083013567ffffffffffffffff811115613b7f575f5ffd5b6136c285828601613959565b5f5f5f60608486031215613b9d575f5ffd5b83359250602084013567ffffffffffffffff811115613bba575f5ffd5b613bc68682870161348f565b925050604084013567ffffffffffffffff811115613be2575f5ffd5b61361b86828701613809565b5f5f60408385031215613bff575f5ffd5b823567ffffffffffffffff811115613c15575f5ffd5b613c218582860161348f565b925050613c30602084016138e3565b90509250929050565b8015158114613c46575f5ffd5b50565b5f5f5f60608486031215613c5b575f5ffd5b83359250602084013567ffffffffffffffff811115613c78575f5ffd5b613c848682870161348f565b9250506040840135613c9581613c39565b809150509250925092565b5f5f60408385031215613cb1575f5ffd5b823567ffffffffffffffff811115613cc7575f5ffd5b613cd38582860161348f565b9250506020830135613ce481613c39565b809150509250929050565b5f60208284031215613cff575f5ffd5b813561319681613c39565b5f82601f830112613d19575f5ffd5b8135613d276134b182613530565b8082825260208201915060208360051b860101925085831115613d48575f5ffd5b602085015b838110156135ae578035613d6081613c39565b835260209283019201613d4d565b5f5f5f60608486031215613d80575f5ffd5b83359250602084013567ffffffffffffffff811115613d9d575f5ffd5b613da98682870161348f565b925050604084013567ffffffffffffffff811115613dc5575f5ffd5b61361b86828701613d0a565b5f5f60408385031215613de2575f5ffd5b823567ffffffffffffffff811115613df8575f5ffd5b613e048582860161348f565b925050602083013567ffffffffffffffff811115613e20575f5ffd5b6136c285828601613d0a565b5f81518060208401855e5f93019283525090919050565b5f6131968284613e2c565b600181811c90821680613e6257607f821691505b602082108103613203577f4e487b71000000000000000000000000000000000000000000000000000000005f52602260045260245ffd5b601f821115613edd57805f5260205f20601f840160051c81016020851015613ebe5750805b601f840160051c820191505b818110156108d3575f8155600101613eca565b505050565b815167ffffffffffffffff811115613efc57613efc6133a5565b613f1081613f0a8454613e4e565b84613e99565b6020601f821160018114613f61575f8315613f2b5750848201515b7fffffffffffffffffffffffffffffffffffffffffffffffffffffffffffffffff600385901b1c1916600184901b1784556108d3565b5f848152602081207fffffffffffffffffffffffffffffffffffffffffffffffffffffffffffffffe08516915b82811015613fae5787850151825560209485019460019092019101613f8e565b5084821015613fea57868401517fffffffffffffffffffffffffffffffffffffffffffffffffffffffffffffffff600387901b60f8161c191681555b50505050600190811b01905550565b5f82601f830112614008575f5ffd5b81516140166134b18261344a565b81815284602083860101111561402a575f5ffd5b8160208501602083015e5f918101602001919091529392505050565b5f60208284031215614056575f5ffd5b815167ffffffffffffffff81111561406c575f5ffd5b61374084828501613ff9565b7f4e487b71000000000000000000000000000000000000000000000000000000005f52603260045260245ffd5b5f6137406140b38386613e2c565b84613e2c565b81810381811115610ec5577f4e487b71000000000000000000000000000000000000000000000000000000005f52601160045260245ffd5b5f6140fc8284613e2c565b7f2c0000000000000000000000000000000000000000000000000000000000000081526001019392505050565b5f6141348284613e2c565b7f5d0000000000000000000000000000000000000000000000000000000000000081526001019392505050565b5f60208284031215614171575f5ffd5b5051919050565b5f60208284031215614188575f5ffd5b815167ffffffffffffffff81111561419e575f5ffd5b8201608081850312156141af575f5ffd5b6141b76133d2565b815167ffffffffffffffff8111156141cd575f5ffd5b6141d986828501613ff9565b82525060208281015190820152604082015167ffffffffffffffff8111156141ff575f5ffd5b61420b86828501613ff9565b604083015250606082015167ffffffffffffffff81111561422a575f5ffd5b61423686828501613ff9565b606083015250949350505050565b602080825282518282018190525f918401906040840190835b8181101561365c57835173ffffffffffffffffffffffffffffffffffffffff1683526020938401939092019160010161425d565b5f602082016020835280845180835260408501915060408160051b8601019250602086015f5b82811015614306577fffffffffffffffffffffffffffffffffffffffffffffffffffffffffffffffc08786030184526142f1858351613748565b945060209384019391909101906001016142b7565b50929695505050505050565b5f602082016020835280845180835260408501915060408160051b8601019250602086015f5b82811015614306577fffffffffffffffffffffffffffffffffffffffffffffffffffffffffffffffc0878603018452614372858351613748565b94506020938401939190910190600101614338565b602081016009831061439b5761439b613a1e565b91905290565b5f602082840312156143b1575f5ffd5b815161319681613c39565b602080825282518282018190525f918401906040840190835b8181101561365c57835115158352602093840193909201916001016143d5565b7f242e00000000000000000000000000000000000000000000000000000000000081525f6144266002830186613e2c565b7f2e0000000000000000000000000000000000000000000000000000000000000081526144566001820186613e2c565b90507f2e0000000000000000000000000000000000000000000000000000000000000081526144886001820185613e2c565b9695505050505050565b606081525f6144a46060830186613748565b82810360208401525f85546144b881613e4e565b8084526001821680156144d2576001811461450c57614540565b7fffffffffffffffffffffffffffffffffffffffffffffffffffffffffffffff0083166020860152602082151560051b8601019350614540565b885f5260205f205f5b8381101561453757815460208289010152600182019150602081019050614515565b86016020019450505b50505083810360408501526145558186613748565b979650505050505050565b7f220000000000000000000000000000000000000000000000000000000000000081525f6145916001830184613e2c565b7f220000000000000000000000000000000000000000000000000000000000000081526001019392505050565b604081525f6145d06040830185613748565b82810360208401526145e28185613748565b95945050505050565b5f6145f68284613e2c565b7f5b5d0000000000000000000000000000000000000000000000000000000000008152600201939250505056fea2646970667358221220d30f82626edb0e9e3d9cff1bc28782832cd9e8cdd4c2af035da72186db4f247664736f6c634300081e00330000000000000000000000007109709ecfa91a80626ff3989d68f67f5b1dd12d","linkReferences":{}},"methodIdentifiers":{"get(string)":"693ec85e","get(uint256,string)":"805da4ad","getChainIds()":"1d776323","getRpcUrl()":"43ec8b6a","getRpcUrl(uint256)":"7df3ef12","resolveChainId(string)":"3f3a7588","set(string,address)":"a815ff15","set(string,address[])":"88c63d45","set(string,bool)":"ba0ff22c","set(string,bool[])":"fa3c074a","set(string,bytes)":"2b29c0fa","set(string,bytes32)":"2e3196a5","set(string,bytes32[])":"e6053250","set(string,bytes[])":"c91ca7ba","set(string,int256)":"2ef8ba74","set(string,int256[])":"de0fc9b3","set(string,string)":"e942b516","set(string,string[])":"59b39526","set(string,uint256)":"8a42ebe9","set(string,uint256[])":"7b8fed81","set(uint256,string,address)":"5eba0df0","set(uint256,string,address[])":"61141c97","set(uint256,string,bool)":"b3a64001","set(uint256,string,bool[])":"e298d00b","set(uint256,string,bytes)":"4d85ce80","set(uint256,string,bytes32)":"cf1cfa99","set(uint256,string,bytes32[])":"08f7b4b2","set(uint256,string,bytes[])":"93dbe6e0","set(uint256,string,int256)":"07d79d9a","set(uint256,string,int256[])":"8be19924","set(uint256,string,string)":"65560950","set(uint256,string,string[])":"cf72a2f3","set(uint256,string,uint256)":"22dc48fd","set(uint256,string,uint256[])":"db0075df","writeUpdatesBackToFile(bool)":"d6698dc4"},"id":67}