{"abi":[{"type":"constructor","inputs":[{"name":"_token","type":"address","internalType":"address"},{"name":"_lzEndpoint","type":"address","internalType":"address"},{"name":"_owner","type":"address","internalType":"address"}],"stateMutability":"nonpayable"},{"type":"function","name":"SEND","inputs":[],"outputs":[{"name":"","type":"uint16","internalType":"uint16"}],"stateMutability":"view"},{"type":"function","name":"SEND_AND_CALL","inputs":[],"outputs":[{"name":"","type":"uint16","internalType":"uint16"}],"stateMutability":"view"},{"type":"function","name":"allowInitializePath","inputs":[{"name":"origin","type":"tuple","internalType":"struct Origin","components":[{"name":"srcEid","type":"uint32","internalType":"uint32"},{"name":"sender","type":"bytes32","internalType":"bytes32"},{"name":"nonce","type":"uint64","internalType":"uint64"}]}],"outputs":[{"name":"","type":"bool","internalType":"bool"}],"stateMutability":"view"},{"type":"function","name":"approvalRequired","inputs":[],"outputs":[{"name":"","type":"bool","internalType":"bool"}],"stateMutability":"pure"},{"type":"function","name":"combineOptions","inputs":[{"name":"_eid","type":"uint32","internalType":"uint32"},{"name":"_msgType","type":"uint16","internalType":"uint16"},{"name":"_extraOptions","type":"bytes","internalType":"bytes"}],"outputs":[{"name":"","type":"bytes","internalType":"bytes"}],"stateMutability":"view"},{"type":"function","name":"decimalConversionRate","inputs":[],"outputs":[{"name":"","type":"uint256","internalType":"uint256"}],"stateMutability":"view"},{"type":"function","name":"endpoint","inputs":[],"outputs":[{"name":"","type":"address","internalType":"contract ILayerZeroEndpointV2"}],"stateMutability":"view"},{"type":"function","name":"enforcedOptions","inputs":[{"name":"eid","type":"uint32","internalType":"uint32"},{"name":"msgType","type":"uint16","internalType":"uint16"}],"outputs":[{"name":"enforcedOption","type":"bytes","internalType":"bytes"}],"stateMutability":"view"},{"type":"function","name":"isComposeMsgSender","inputs":[{"name":"","type":"tuple","internalType":"struct Origin","components":[{"name":"srcEid","type":"uint32","internalType":"uint32"},{"name":"sender","type":"bytes32","internalType":"bytes32"},{"name":"nonce","type":"uint64","internalType":"uint64"}]},{"name":"","type":"bytes","internalType":"bytes"},{"name":"_sender","type":"address","internalType":"address"}],"outputs":[{"name":"","type":"bool","internalType":"bool"}],"stateMutability":"view"},{"type":"function","name":"isPeer","inputs":[{"name":"_eid","type":"uint32","internalType":"uint32"},{"name":"_peer","type":"bytes32","internalType":"bytes32"}],"outputs":[{"name":"","type":"bool","internalType":"bool"}],"stateMutability":"view"},{"type":"function","name":"lzReceive","inputs":[{"name":"_origin","type":"tuple","internalType":"struct Origin","components":[{"name":"srcEid","type":"uint32","internalType":"uint32"},{"name":"sender","type":"bytes32","internalType":"bytes32"},{"name":"nonce","type":"uint64","internalType":"uint64"}]},{"name":"_guid","type":"bytes32","internalType":"bytes32"},{"name":"_message","type":"bytes","internalType":"bytes"},{"name":"_executor","type":"address","internalType":"address"},{"name":"_extraData","type":"bytes","internalType":"bytes"}],"outputs":[],"stateMutability":"payable"},{"type":"function","name":"lzReceiveAndRevert","inputs":[{"name":"_packets","type":"tuple[]","internalType":"struct InboundPacket[]","components":[{"name":"origin","type":"tuple","internalType":"struct Origin","components":[{"name":"srcEid","type":"uint32","internalType":"uint32"},{"name":"sender","type":"bytes32","internalType":"bytes32"},{"name":"nonce","type":"uint64","internalType":"uint64"}]},{"name":"dstEid","type":"uint32","internalType":"uint32"},{"name":"receiver","type":"address","internalType":"address"},{"name":"guid","type":"bytes32","internalType":"bytes32"},{"name":"value","type":"uint256","internalType":"uint256"},{"name":"executor","type":"address","internalType":"address"},{"name":"message","type":"bytes","internalType":"bytes"},{"name":"extraData","type":"bytes","internalType":"bytes"}]}],"outputs":[],"stateMutability":"payable"},{"type":"function","name":"lzReceiveSimulate","inputs":[{"name":"_origin","type":"tuple","internalType":"struct Origin","components":[{"name":"srcEid","type":"uint32","internalType":"uint32"},{"name":"sender","type":"bytes32","internalType":"bytes32"},{"name":"nonce","type":"uint64","internalType":"uint64"}]},{"name":"_guid","type":"bytes32","internalType":"bytes32"},{"name":"_message","type":"bytes","internalType":"bytes"},{"name":"_executor","type":"address","internalType":"address"},{"name":"_extraData","type":"bytes","internalType":"bytes"}],"outputs":[],"stateMutability":"payable"},{"type":"function","name":"msgInspector","inputs":[],"outputs":[{"name":"","type":"address","internalType":"address"}],"stateMutability":"view"},{"type":"function","name":"nextNonce","inputs":[{"name":"","type":"uint32","internalType":"uint32"},{"name":"","type":"bytes32","internalType":"bytes32"}],"outputs":[{"name":"nonce","type":"uint64","internalType":"uint64"}],"stateMutability":"view"},{"type":"function","name":"oApp","inputs":[],"outputs":[{"name":"","type":"address","internalType":"address"}],"stateMutability":"view"},{"type":"function","name":"oAppVersion","inputs":[],"outputs":[{"name":"senderVersion","type":"uint64","internalType":"uint64"},{"name":"receiverVersion","type":"uint64","internalType":"uint64"}],"stateMutability":"pure"},{"type":"function","name":"oftVersion","inputs":[],"outputs":[{"name":"interfaceId","type":"bytes4","internalType":"bytes4"},{"name":"version","type":"uint64","internalType":"uint64"}],"stateMutability":"pure"},{"type":"function","name":"owner","inputs":[],"outputs":[{"name":"","type":"address","internalType":"address"}],"stateMutability":"view"},{"type":"function","name":"peers","inputs":[{"name":"eid","type":"uint32","internalType":"uint32"}],"outputs":[{"name":"peer","type":"bytes32","internalType":"bytes32"}],"stateMutability":"view"},{"type":"function","name":"preCrime","inputs":[],"outputs":[{"name":"","type":"address","internalType":"address"}],"stateMutability":"view"},{"type":"function","name":"quoteOFT","inputs":[{"name":"_sendParam","type":"tuple","internalType":"struct SendParam","components":[{"name":"dstEid","type":"uint32","internalType":"uint32"},{"name":"to","type":"bytes32","internalType":"bytes32"},{"name":"amountLD","type":"uint256","internalType":"uint256"},{"name":"minAmountLD","type":"uint256","internalType":"uint256"},{"name":"extraOptions","type":"bytes","internalType":"bytes"},{"name":"composeMsg","type":"bytes","internalType":"bytes"},{"name":"oftCmd","type":"bytes","internalType":"bytes"}]}],"outputs":[{"name":"oftLimit","type":"tuple","internalType":"struct OFTLimit","components":[{"name":"minAmountLD","type":"uint256","internalType":"uint256"},{"name":"maxAmountLD","type":"uint256","internalType":"uint256"}]},{"name":"oftFeeDetails","type":"tuple[]","internalType":"struct OFTFeeDetail[]","components":[{"name":"feeAmountLD","type":"int256","internalType":"int256"},{"name":"description","type":"string","internalType":"string"}]},{"name":"oftReceipt","type":"tuple","internalType":"struct OFTReceipt","components":[{"name":"amountSentLD","type":"uint256","internalType":"uint256"},{"name":"amountReceivedLD","type":"uint256","internalType":"uint256"}]}],"stateMutability":"view"},{"type":"function","name":"quoteSend","inputs":[{"name":"_sendParam","type":"tuple","internalType":"struct SendParam","components":[{"name":"dstEid","type":"uint32","internalType":"uint32"},{"name":"to","type":"bytes32","internalType":"bytes32"},{"name":"amountLD","type":"uint256","internalType":"uint256"},{"name":"minAmountLD","type":"uint256","internalType":"uint256"},{"name":"extraOptions","type":"bytes","internalType":"bytes"},{"name":"composeMsg","type":"bytes","internalType":"bytes"},{"name":"oftCmd","type":"bytes","internalType":"bytes"}]},{"name":"_payInLzToken","type":"bool","internalType":"bool"}],"outputs":[{"name":"msgFee","type":"tuple","internalType":"struct MessagingFee","components":[{"name":"nativeFee","type":"uint256","internalType":"uint256"},{"name":"lzTokenFee","type":"uint256","internalType":"uint256"}]}],"stateMutability":"view"},{"type":"function","name":"renounceOwnership","inputs":[],"outputs":[],"stateMutability":"nonpayable"},{"type":"function","name":"send","inputs":[{"name":"_sendParam","type":"tuple","internalType":"struct SendParam","components":[{"name":"dstEid","type":"uint32","internalType":"uint32"},{"name":"to","type":"bytes32","internalType":"bytes32"},{"name":"amountLD","type":"uint256","internalType":"uint256"},{"name":"minAmountLD","type":"uint256","internalType":"uint256"},{"name":"extraOptions","type":"bytes","internalType":"bytes"},{"name":"composeMsg","type":"bytes","internalType":"bytes"},{"name":"oftCmd","type":"bytes","internalType":"bytes"}]},{"name":"_fee","type":"tuple","internalType":"struct MessagingFee","components":[{"name":"nativeFee","type":"uint256","internalType":"uint256"},{"name":"lzTokenFee","type":"uint256","internalType":"uint256"}]},{"name":"_refundAddress","type":"address","internalType":"address"}],"outputs":[{"name":"msgReceipt","type":"tuple","internalType":"struct MessagingReceipt","components":[{"name":"guid","type":"bytes32","internalType":"bytes32"},{"name":"nonce","type":"uint64","internalType":"uint64"},{"name":"fee","type":"tuple","internalType":"struct MessagingFee","components":[{"name":"nativeFee","type":"uint256","internalType":"uint256"},{"name":"lzTokenFee","type":"uint256","internalType":"uint256"}]}]},{"name":"oftReceipt","type":"tuple","internalType":"struct OFTReceipt","components":[{"name":"amountSentLD","type":"uint256","internalType":"uint256"},{"name":"amountReceivedLD","type":"uint256","internalType":"uint256"}]}],"stateMutability":"payable"},{"type":"function","name":"setDelegate","inputs":[{"name":"_delegate","type":"address","internalType":"address"}],"outputs":[],"stateMutability":"nonpayable"},{"type":"function","name":"setEnforcedOptions","inputs":[{"name":"_enforcedOptions","type":"tuple[]","internalType":"struct EnforcedOptionParam[]","components":[{"name":"eid","type":"uint32","internalType":"uint32"},{"name":"msgType","type":"uint16","internalType":"uint16"},{"name":"options","type":"bytes","internalType":"bytes"}]}],"outputs":[],"stateMutability":"nonpayable"},{"type":"function","name":"setMsgInspector","inputs":[{"name":"_msgInspector","type":"address","internalType":"address"}],"outputs":[],"stateMutability":"nonpayable"},{"type":"function","name":"setPeer","inputs":[{"name":"_eid","type":"uint32","internalType":"uint32"},{"name":"_peer","type":"bytes32","internalType":"bytes32"}],"outputs":[],"stateMutability":"nonpayable"},{"type":"function","name":"setPreCrime","inputs":[{"name":"_preCrime","type":"address","internalType":"address"}],"outputs":[],"stateMutability":"nonpayable"},{"type":"function","name":"sharedDecimals","inputs":[],"outputs":[{"name":"","type":"uint8","internalType":"uint8"}],"stateMutability":"view"},{"type":"function","name":"token","inputs":[],"outputs":[{"name":"","type":"address","internalType":"address"}],"stateMutability":"view"},{"type":"function","name":"transferOwnership","inputs":[{"name":"newOwner","type":"address","internalType":"address"}],"outputs":[],"stateMutability":"nonpayable"},{"type":"event","name":"EnforcedOptionSet","inputs":[{"name":"_enforcedOptions","type":"tuple[]","indexed":false,"internalType":"struct EnforcedOptionParam[]","components":[{"name":"eid","type":"uint32","internalType":"uint32"},{"name":"msgType","type":"uint16","internalType":"uint16"},{"name":"options","type":"bytes","internalType":"bytes"}]}],"anonymous":false},{"type":"event","name":"MsgInspectorSet","inputs":[{"name":"inspector","type":"address","indexed":false,"internalType":"address"}],"anonymous":false},{"type":"event","name":"OFTReceived","inputs":[{"name":"guid","type":"bytes32","indexed":true,"internalType":"bytes32"},{"name":"srcEid","type":"uint32","indexed":false,"internalType":"uint32"},{"name":"toAddress","type":"address","indexed":true,"internalType":"address"},{"name":"amountReceivedLD","type":"uint256","indexed":false,"internalType":"uint256"}],"anonymous":false},{"type":"event","name":"OFTSent","inputs":[{"name":"guid","type":"bytes32","indexed":true,"internalType":"bytes32"},{"name":"dstEid","type":"uint32","indexed":false,"internalType":"uint32"},{"name":"fromAddress","type":"address","indexed":true,"internalType":"address"},{"name":"amountSentLD","type":"uint256","indexed":false,"internalType":"uint256"},{"name":"amountReceivedLD","type":"uint256","indexed":false,"internalType":"uint256"}],"anonymous":false},{"type":"event","name":"OwnershipTransferred","inputs":[{"name":"previousOwner","type":"address","indexed":true,"internalType":"address"},{"name":"newOwner","type":"address","indexed":true,"internalType":"address"}],"anonymous":false},{"type":"event","name":"PeerSet","inputs":[{"name":"eid","type":"uint32","indexed":false,"internalType":"uint32"},{"name":"peer","type":"bytes32","indexed":false,"internalType":"bytes32"}],"anonymous":false},{"type":"event","name":"PreCrimeSet","inputs":[{"name":"preCrimeAddress","type":"address","indexed":false,"internalType":"address"}],"anonymous":false},{"type":"error","name":"AmountSDOverflowed","inputs":[{"name":"amountSD","type":"uint256","internalType":"uint256"}]},{"type":"error","name":"InvalidDelegate","inputs":[]},{"type":"error","name":"InvalidEndpointCall","inputs":[]},{"type":"error","name":"InvalidLocalDecimals","inputs":[]},{"type":"error","name":"InvalidOptions","inputs":[{"name":"options","type":"bytes","internalType":"bytes"}]},{"type":"error","name":"LzTokenUnavailable","inputs":[]},{"type":"error","name":"NoPeer","inputs":[{"name":"eid","type":"uint32","internalType":"uint32"}]},{"type":"error","name":"NotEnoughNative","inputs":[{"name":"msgValue","type":"uint256","internalType":"uint256"}]},{"type":"error","name":"OnlyEndpoint","inputs":[{"name":"addr","type":"address","internalType":"address"}]},{"type":"error","name":"OnlyPeer","inputs":[{"name":"eid","type":"uint32","internalType":"uint32"},{"name":"sender","type":"bytes32","internalType":"bytes32"}]},{"type":"error","name":"OnlySelf","inputs":[]},{"type":"error","name":"OwnableInvalidOwner","inputs":[{"name":"owner","type":"address","internalType":"address"}]},{"type":"error","name":"OwnableUnauthorizedAccount","inputs":[{"name":"account","type":"address","internalType":"address"}]},{"type":"error","name":"SafeERC20FailedOperation","inputs":[{"name":"token","type":"address","internalType":"address"}]},{"type":"error","name":"SimulationResult","inputs":[{"name":"result","type":"bytes","internalType":"bytes"}]},{"type":"error","name":"SlippageExceeded","inputs":[{"name":"amountLD","type":"uint256","internalType":"uint256"},{"name":"minAmountLD","type":"uint256","internalType":"uint256"}]}],"bytecode":{"object":"0x60e060405234801561000f575f5ffd5b506040516135ac3803806135ac83398101604081905261002e91610232565b828282826001600160a01b031663313ce5676040518163ffffffff1660e01b8152600401602060405180830381865afa15801561006d573d5f5f3e3d5ffd5b505050506040513d601f19601f820116820180604052508101906100919190610272565b8282818181818a6001600160a01b0381166100c557604051631e4fbdf760e01b81525f600482015260240160405180910390fd5b6100ce816101c3565b506001600160a01b0380831660805281166100fc57604051632d618d8160e21b815260040160405180910390fd5b60805160405163ca5eb5e160e01b81526001600160a01b0383811660048301529091169063ca5eb5e1906024015f604051808303815f87803b158015610140575f5ffd5b505af1158015610152573d5f5f3e3d5ffd5b505050505050505061016861021260201b60201c565b60ff168360ff16101561018e576040516301e9714b60e41b815260040160405180910390fd5b6101996006846102ad565b6101a490600a6103af565b60a0525050506001600160a01b0390921660c052506103bd9350505050565b5f80546001600160a01b038381166001600160a01b0319831681178455604051919092169283917f8be0079c531659141344cd1fd0a4f28419497f9722a3daafe3b4186f6b6457e09190a35050565b600690565b80516001600160a01b038116811461022d575f5ffd5b919050565b5f5f5f60608486031215610244575f5ffd5b61024d84610217565b925061025b60208501610217565b915061026960408501610217565b90509250925092565b5f60208284031215610282575f5ffd5b815160ff81168114610292575f5ffd5b9392505050565b634e487b7160e01b5f52601160045260245ffd5b60ff82811682821603908111156102c6576102c6610299565b92915050565b6001815b6001841115610307578085048111156102eb576102eb610299565b60018416156102f957908102905b60019390931c9280026102d0565b935093915050565b5f8261031d575060016102c6565b8161032957505f6102c6565b816001811461033f576002811461034957610365565b60019150506102c6565b60ff84111561035a5761035a610299565b50506001821b6102c6565b5060208310610133831016604e8410600b8410161715610388575081810a6102c6565b6103945f1984846102cc565b805f19048211156103a7576103a7610299565b029392505050565b5f61029260ff84168361030f565b60805160a05160c05161317161043b5f395f818161069e015281816119b70152611b9301525f8181610514015281816118f40152818161196d0152611a6901525f81816104110152818161088601528181610f70015281816112840152818161156901528181611bf501528181611ddc0152611ed301526131715ff3fe6080604052600436106101f5575f3560e01c806382413eac11610117578063bc70b354116100ac578063d045a0dc1161007c578063f2fde38b11610062578063f2fde38b14610671578063fc0c546a14610690578063ff7bd03d146106c2575f5ffd5b8063d045a0dc1461063f578063d424388514610652575f5ffd5b8063bc70b354146105cd578063bd815db0146105ec578063c7c7f5b3146105ff578063ca5eb5e114610620575f5ffd5b80639f68b964116100e75780639f68b96414610544578063b731ea0a14610557578063b98bd07014610583578063bb0b6a53146105a2575f5ffd5b806382413eac146104a0578063857749b0146104bf5780638da5cb5b146104da578063963efcaa14610503575f5ffd5b80633b6f743b1161018d5780635e280f111161015d5780635e280f11146104005780636fc1b31e14610433578063715018a6146104525780637d25a05e14610466575f5ffd5b80633b6f743b1461035157806352ae28791461037d5780635535d4611461038f5780635a0dfe4d146103bb575f5ffd5b8063156a0d0f116101c8578063156a0d0f146102bd57806317442b70146102fd5780631f5e13341461031e5780633400288b14610332575f5ffd5b80630d35b415146101f9578063111ecdad1461023057806313137d6514610281578063134d4f2514610296575b5f5ffd5b348015610204575f5ffd5b5061021861021336600461206a565b6106e1565b604051610227939291906120e8565b60405180910390f35b34801561023b575f5ffd5b5060045461025c9073ffffffffffffffffffffffffffffffffffffffff1681565b60405173ffffffffffffffffffffffffffffffffffffffff9091168152602001610227565b61029461028f366004612217565b610884565b005b3480156102a1575f5ffd5b506102aa600281565b60405161ffff9091168152602001610227565b3480156102c8575f5ffd5b50604080517f02e49c2c0000000000000000000000000000000000000000000000000000000081526001602082015201610227565b348015610308575f5ffd5b5060408051600181526002602082015201610227565b348015610329575f5ffd5b506102aa600181565b34801561033d575f5ffd5b5061029461034c3660046122cb565b610983565b34801561035c575f5ffd5b5061037061036b366004612300565b610999565b604051610227919061234f565b348015610388575f5ffd5b503061025c565b34801561039a575f5ffd5b506103ae6103a9366004612377565b6109ff565b60405161022791906123a8565b3480156103c6575f5ffd5b506103f06103d53660046122cb565b63ffffffff919091165f908152600160205260409020541490565b6040519015158152602001610227565b34801561040b575f5ffd5b5061025c7f000000000000000000000000000000000000000000000000000000000000000081565b34801561043e575f5ffd5b5061029461044d3660046123ba565b610aa1565b34801561045d575f5ffd5b50610294610b23565b348015610471575f5ffd5b506104876104803660046122cb565b5f92915050565b60405167ffffffffffffffff9091168152602001610227565b3480156104ab575f5ffd5b506103f06104ba3660046123d5565b610b36565b3480156104ca575f5ffd5b5060405160068152602001610227565b3480156104e5575f5ffd5b505f5473ffffffffffffffffffffffffffffffffffffffff1661025c565b34801561050e575f5ffd5b506105367f000000000000000000000000000000000000000000000000000000000000000081565b604051908152602001610227565b34801561054f575f5ffd5b5060016103f0565b348015610562575f5ffd5b5060025461025c9073ffffffffffffffffffffffffffffffffffffffff1681565b34801561058e575f5ffd5b5061029461059d366004612479565b610b58565b3480156105ad575f5ffd5b506105366105bc3660046124b8565b60016020525f908152604090205481565b3480156105d8575f5ffd5b506103ae6105e73660046124d1565b610b72565b6102946105fa366004612479565b610d2c565b61061261060d36600461252e565b610ef0565b6040516102279291906125b5565b34801561062b575f5ffd5b5061029461063a3660046123ba565b610f23565b61029461064d366004612217565b610fca565b34801561065d575f5ffd5b5061029461066c3660046123ba565b611012565b34801561067c575f5ffd5b5061029461068b3660046123ba565b61108d565b34801561069b575f5ffd5b507f000000000000000000000000000000000000000000000000000000000000000061025c565b3480156106cd575f5ffd5b506103f06106dc366004612607565b6110f0565b604080518082019091525f8082526020820152606061071160405180604001604052805f81526020015f81525090565b5f5f90505f3073ffffffffffffffffffffffffffffffffffffffff1663fc0c546a6040518163ffffffff1660e01b8152600401602060405180830381865afa15801561075f573d5f5f3e3d5ffd5b505050506040513d601f19601f820116820180604052508101906107839190612621565b73ffffffffffffffffffffffffffffffffffffffff166318160ddd6040518163ffffffff1660e01b8152600401602060405180830381865afa1580156107cb573d5f5f3e3d5ffd5b505050506040513d601f19601f820116820180604052508101906107ef919061263c565b604080518082018252848152602080820184905282515f80825291810190935290975091925090610842565b604080518082019091525f81526060602082015281526020019060019003908161081b5790505b5093505f80610866604089013560608a013561086160208c018c6124b8565b611124565b60408051808201909152918252602082015296989597505050505050565b7f000000000000000000000000000000000000000000000000000000000000000073ffffffffffffffffffffffffffffffffffffffff1633146108fa576040517f91ac5e4f0000000000000000000000000000000000000000000000000000000081523360048201526024015b60405180910390fd5b602087018035906109149061090f908a6124b8565b611178565b1461096b5761092660208801886124b8565b6040517fc26bebcc00000000000000000000000000000000000000000000000000000000815263ffffffff9091166004820152602088013560248201526044016108f1565b61097a878787878787876111cc565b50505050505050565b61098b61135d565b61099582826113af565b5050565b604080518082019091525f80825260208201525f6109c76040850135606086013561086160208801886124b8565b9150505f5f6109d68684611403565b90925090506109f36109eb60208801886124b8565b838388611554565b93505050505b92915050565b600360209081525f928352604080842090915290825290208054610a2290612680565b80601f0160208091040260200160405190810160405280929190818152602001828054610a4e90612680565b8015610a995780601f10610a7057610100808354040283529160200191610a99565b820191905f5260205f20905b815481529060010190602001808311610a7c57829003601f168201915b505050505081565b610aa961135d565b600480547fffffffffffffffffffffffff00000000000000000000000000000000000000001673ffffffffffffffffffffffffffffffffffffffff83169081179091556040519081527ff0be4f1e87349231d80c36b33f9e8639658eeaf474014dee15a3e6a4d4414197906020015b60405180910390a150565b610b2b61135d565b610b345f61163f565b565b73ffffffffffffffffffffffffffffffffffffffff811630145b949350505050565b610b6061135d565b610995610b6d82846127ab565b6116b3565b63ffffffff84165f90815260036020908152604080832061ffff87168452909152812080546060929190610ba590612680565b80601f0160208091040260200160405190810160405280929190818152602001828054610bd190612680565b8015610c1c5780601f10610bf357610100808354040283529160200191610c1c565b820191905f5260205f20905b815481529060010190602001808311610bff57829003601f168201915b5050505050905080515f03610c6a5783838080601f0160208091040260200160405190810160405280939291908181526020018383808284375f92019190915250929450610b509350505050565b5f839003610c79579050610b50565b60028310610cf657610cbf84848080601f0160208091040260200160405190810160405280939291908181526020018383808284375f920191909152506117b492505050565b80610ccd84600281886128cf565b604051602001610cdf9392919061290d565b604051602081830303815290604052915050610b50565b83836040517f9a6d49cd0000000000000000000000000000000000000000000000000000000081526004016108f1929190612972565b5f5b81811015610e2f5736838383818110610d4957610d49612985565b9050602002810190610d5b91906129b2565b9050610d8d610d6d60208301836124b8565b602083013563ffffffff919091165f908152600160205260409020541490565b610d975750610e27565b3063d045a0dc60c08301358360a0810135610db66101008301836129ee565b610dc7610100890160e08a016123ba565b610dd56101208a018a6129ee565b6040518963ffffffff1660e01b8152600401610df79796959493929190612a64565b5f604051808303818588803b158015610e0e575f5ffd5b505af1158015610e20573d5f5f3e3d5ffd5b5050505050505b600101610d2e565b503373ffffffffffffffffffffffffffffffffffffffff16638e9e70996040518163ffffffff1660e01b81526004015f60405180830381865afa158015610e78573d5f5f3e3d5ffd5b505050506040513d5f823e601f3d9081017fffffffffffffffffffffffffffffffffffffffffffffffffffffffffffffffe0168201604052610ebd9190810190612af7565b6040517f8351eea70000000000000000000000000000000000000000000000000000000081526004016108f191906123a8565b610ef8612013565b604080518082019091525f8082526020820152610f168585856117f9565b915091505b935093915050565b610f2b61135d565b6040517fca5eb5e100000000000000000000000000000000000000000000000000000000815273ffffffffffffffffffffffffffffffffffffffff82811660048301527f0000000000000000000000000000000000000000000000000000000000000000169063ca5eb5e1906024015f604051808303815f87803b158015610fb1575f5ffd5b505af1158015610fc3573d5f5f3e3d5ffd5b5050505050565b333014611003576040517f14d4a4e800000000000000000000000000000000000000000000000000000000815260040160405180910390fd5b61097a8787878787878761096b565b61101a61135d565b600280547fffffffffffffffffffffffff00000000000000000000000000000000000000001673ffffffffffffffffffffffffffffffffffffffff83169081179091556040519081527fd48d879cef83a1c0bdda516f27b13ddb1b3f8bbac1c9e1511bb2a659c242776090602001610b18565b61109561135d565b73ffffffffffffffffffffffffffffffffffffffff81166110e4576040517f1e4fbdf70000000000000000000000000000000000000000000000000000000081525f60048201526024016108f1565b6110ed8161163f565b50565b5f60208201803590600190839061110790866124b8565b63ffffffff16815260208101919091526040015f20541492915050565b5f5f61112f856118f1565b915081905083811015610f1b576040517f71c4efed00000000000000000000000000000000000000000000000000000000815260048101829052602481018590526044016108f1565b63ffffffff81165f90815260016020526040812054806109f9576040517ff6ff4fb700000000000000000000000000000000000000000000000000000000815263ffffffff841660048201526024016108f1565b5f6111dd6111da8787611927565b90565b90505f611208826111f66111f18a8a611945565b611967565b61120360208d018d6124b8565b61199c565b905060288611156112ee575f61124461122760608c0160408d01612b6c565b61123460208d018d6124b8565b8461123f8c8c6119e6565b611a30565b6040517f7cb5901200000000000000000000000000000000000000000000000000000000815290915073ffffffffffffffffffffffffffffffffffffffff7f00000000000000000000000000000000000000000000000000000000000000001690637cb59012906112bf9086908d905f908790600401612b87565b5f604051808303815f87803b1580156112d6575f5ffd5b505af11580156112e8573d5f5f3e3d5ffd5b50505050505b73ffffffffffffffffffffffffffffffffffffffff8216887fefed6d3500546b29533b128a29e3a94d70788727f0507505ac12eaf2e578fd9c61133460208d018d6124b8565b6040805163ffffffff9092168252602082018690520160405180910390a3505050505050505050565b5f5473ffffffffffffffffffffffffffffffffffffffff163314610b34576040517f118cdaa70000000000000000000000000000000000000000000000000000000081523360048201526024016108f1565b63ffffffff82165f81815260016020908152604091829020849055815192835282018390527f238399d427b947898edb290f5ff0f9109849b1c3ba196a42e35f00c50a54b98b910160405180910390a15050565b6060805f61145e856020013561141886611a62565b61142560a08901896129ee565b8080601f0160208091040260200160405190810160405280939291908181526020018383808284375f92019190915250611ad592505050565b90935090505f81611470576001611473565b60025b905061149361148560208801886124b8565b826105e760808a018a6129ee565b60045490935073ffffffffffffffffffffffffffffffffffffffff16801561154a576040517f043a78eb00000000000000000000000000000000000000000000000000000000815273ffffffffffffffffffffffffffffffffffffffff82169063043a78eb906115099088908890600401612bcf565b602060405180830381865afa158015611524573d5f5f3e3d5ffd5b505050506040513d601f19601f820116820180604052508101906115489190612bf3565b505b5050509250929050565b604080518082019091525f80825260208201527f000000000000000000000000000000000000000000000000000000000000000073ffffffffffffffffffffffffffffffffffffffff1663ddc28c586040518060a001604052808863ffffffff1681526020016115c389611178565b8152602001878152602001868152602001851515815250306040518363ffffffff1660e01b81526004016115f8929190612c0e565b6040805180830381865afa158015611612573d5f5f3e3d5ffd5b505050506040513d601f19601f820116820180604052508101906116369190612ce0565b95945050505050565b5f805473ffffffffffffffffffffffffffffffffffffffff8381167fffffffffffffffffffffffff0000000000000000000000000000000000000000831681178455604051919092169283917f8be0079c531659141344cd1fd0a4f28419497f9722a3daafe3b4186f6b6457e09190a35050565b5f5b8151811015611784576116e48282815181106116d3576116d3612985565b6020026020010151604001516117b4565b8181815181106116f6576116f6612985565b60200260200101516040015160035f84848151811061171757611717612985565b60200260200101515f015163ffffffff1663ffffffff1681526020019081526020015f205f84848151811061174e5761174e612985565b60200260200101516020015161ffff1661ffff1681526020019081526020015f20908161177b9190612d3e565b506001016116b5565b507fbe4864a8e820971c0247f5992e2da559595f7bf076a21cb5928d443d2a13b67481604051610b189190612e55565b600281015161ffff811660031461099557816040517f9a6d49cd0000000000000000000000000000000000000000000000000000000081526004016108f191906123a8565b611801612013565b604080518082019091525f80825260208201525f8061183633604089013560608a013561183160208c018c6124b8565b611b67565b915091505f5f6118468984611403565b909250905061187261185b60208b018b6124b8565b838361186c368d90038d018d612f01565b8b611bc4565b60408051808201909152858152602080820186905282519298509096503391907f85496b760a4b7f8d66384b9df21b381f5d1b1e79f229a47aaf4c232edc2fe59a906118c0908d018d6124b8565b6040805163ffffffff909216825260208201899052810187905260600160405180910390a350505050935093915050565b5f7f000000000000000000000000000000000000000000000000000000000000000061191d8184612f32565b6109f99190612f6a565b5f61193560208284866128cf565b61193e91612fa6565b9392505050565b5f6119546028602084866128cf565b61195d91612fe2565b60c01c9392505050565b5f6109f97f000000000000000000000000000000000000000000000000000000000000000067ffffffffffffffff8416612f6a565b5f6119de73ffffffffffffffffffffffffffffffffffffffff7f0000000000000000000000000000000000000000000000000000000000000000168585611cd7565b509092915050565b60606119f582602881866128cf565b8080601f0160208091040260200160405190810160405280939291908181526020018383808284375f92019190915250929695505050505050565b606084848484604051602001611a499493929190613048565b6040516020818303038152906040529050949350505050565b5f80611a8e7f000000000000000000000000000000000000000000000000000000000000000084612f32565b905067ffffffffffffffff8111156109f9576040517fe2ce9413000000000000000000000000000000000000000000000000000000008152600481018290526024016108f1565b8051606090151580611b36578484604051602001611b2292919091825260c01b7fffffffffffffffff00000000000000000000000000000000000000000000000016602082015260280190565b604051602081830303815290604052611b5d565b84843385604051602001611b4d94939291906130af565b6040516020818303038152906040525b9150935093915050565b5f5f611b74858585611124565b9092509050611bbb73ffffffffffffffffffffffffffffffffffffffff7f000000000000000000000000000000000000000000000000000000000000000016873085611d37565b94509492505050565b611bcc612013565b5f611bd9845f0151611d99565b602085015190915015611bf357611bf38460200151611dd9565b7f000000000000000000000000000000000000000000000000000000000000000073ffffffffffffffffffffffffffffffffffffffff16632637a450826040518060a001604052808b63ffffffff168152602001611c508c611178565b81526020018a81526020018981526020015f8960200151111515815250866040518463ffffffff1660e01b8152600401611c8b929190612c0e565b60806040518083038185885af1158015611ca7573d5f5f3e3d5ffd5b50505050506040513d601f19601f82011682018060405250810190611ccc91906130f1565b979650505050505050565b611ce48383836001611ef8565b611d32576040517f5274afe700000000000000000000000000000000000000000000000000000000815273ffffffffffffffffffffffffffffffffffffffff841660048201526024016108f1565b505050565b611d45848484846001611f80565b611d93576040517f5274afe700000000000000000000000000000000000000000000000000000000815273ffffffffffffffffffffffffffffffffffffffff851660048201526024016108f1565b50505050565b5f813414611dd5576040517f9f7041200000000000000000000000000000000000000000000000000000000081523460048201526024016108f1565b5090565b5f7f000000000000000000000000000000000000000000000000000000000000000073ffffffffffffffffffffffffffffffffffffffff1663e4fe1d946040518163ffffffff1660e01b8152600401602060405180830381865afa158015611e43573d5f5f3e3d5ffd5b505050506040513d601f19601f82011682018060405250810190611e679190612621565b905073ffffffffffffffffffffffffffffffffffffffff8116611eb6576040517f5373352a00000000000000000000000000000000000000000000000000000000815260040160405180910390fd5b61099573ffffffffffffffffffffffffffffffffffffffff8216337f000000000000000000000000000000000000000000000000000000000000000085611d37565b6040517fa9059cbb000000000000000000000000000000000000000000000000000000005f81815273ffffffffffffffffffffffffffffffffffffffff8616600452602485905291602083604481808b5af1925060015f51148316611f74578383151615611f68573d5f823e3d81fd5b5f873b113d1516831692505b60405250949350505050565b6040517f23b872dd000000000000000000000000000000000000000000000000000000005f81815273ffffffffffffffffffffffffffffffffffffffff8781166004528616602452604485905291602083606481808c5af1925060015f51148316612002578383151615611ff6573d5f823e3d81fd5b5f883b113d1516831692505b604052505f60605295945050505050565b60405180606001604052805f81526020015f67ffffffffffffffff16815260200161204f60405180604001604052805f81526020015f81525090565b905290565b5f60e08284031215612064575f5ffd5b50919050565b5f6020828403121561207a575f5ffd5b813567ffffffffffffffff811115612090575f5ffd5b610b5084828501612054565b5f81518084528060208401602086015e5f6020828601015260207fffffffffffffffffffffffffffffffffffffffffffffffffffffffffffffffe0601f83011685010191505092915050565b83518152602080850151908201525f60a0820160a0604084015280855180835260c08501915060c08160051b8601019250602087015f5b82811015612185577fffffffffffffffffffffffffffffffffffffffffffffffffffffffffffffff40878603018452815180518652602081015190506040602087015261216f604087018261209c565b955050602093840193919091019060010161211f565b5050855160608601525050602084015160808401529050610b50565b5f60608284031215612064575f5ffd5b5f5f83601f8401126121c1575f5ffd5b50813567ffffffffffffffff8111156121d8575f5ffd5b6020830191508360208285010111156121ef575f5ffd5b9250929050565b73ffffffffffffffffffffffffffffffffffffffff811681146110ed575f5ffd5b5f5f5f5f5f5f5f60e0888a03121561222d575f5ffd5b61223789896121a1565b965060608801359550608088013567ffffffffffffffff811115612259575f5ffd5b6122658a828b016121b1565b90965094505060a0880135612279816121f6565b925060c088013567ffffffffffffffff811115612294575f5ffd5b6122a08a828b016121b1565b989b979a50959850939692959293505050565b803563ffffffff811681146122c6575f5ffd5b919050565b5f5f604083850312156122dc575f5ffd5b6122e5836122b3565b946020939093013593505050565b80151581146110ed575f5ffd5b5f5f60408385031215612311575f5ffd5b823567ffffffffffffffff811115612327575f5ffd5b61233385828601612054565b9250506020830135612344816122f3565b809150509250929050565b8151815260208083015190820152604081016109f9565b803561ffff811681146122c6575f5ffd5b5f5f60408385031215612388575f5ffd5b612391836122b3565b915061239f60208401612366565b90509250929050565b602081525f61193e602083018461209c565b5f602082840312156123ca575f5ffd5b813561193e816121f6565b5f5f5f5f60a085870312156123e8575f5ffd5b6123f286866121a1565b9350606085013567ffffffffffffffff81111561240d575f5ffd5b612419878288016121b1565b909450925050608085013561242d816121f6565b939692955090935050565b5f5f83601f840112612448575f5ffd5b50813567ffffffffffffffff81111561245f575f5ffd5b6020830191508360208260051b85010111156121ef575f5ffd5b5f5f6020838503121561248a575f5ffd5b823567ffffffffffffffff8111156124a0575f5ffd5b6124ac85828601612438565b90969095509350505050565b5f602082840312156124c8575f5ffd5b61193e826122b3565b5f5f5f5f606085870312156124e4575f5ffd5b6124ed856122b3565b93506124fb60208601612366565b9250604085013567ffffffffffffffff811115612516575f5ffd5b612522878288016121b1565b95989497509550505050565b5f5f5f8385036080811215612541575f5ffd5b843567ffffffffffffffff811115612557575f5ffd5b61256387828801612054565b94505060407fffffffffffffffffffffffffffffffffffffffffffffffffffffffffffffffe082011215612595575f5ffd5b5060208401915060608401356125aa816121f6565b809150509250925092565b5f60c0820190508351825267ffffffffffffffff602085015116602083015260408401516125f0604084018280518252602090810151910152565b5082516080830152602083015160a083015261193e565b5f60608284031215612617575f5ffd5b61193e83836121a1565b5f60208284031215612631575f5ffd5b815161193e816121f6565b5f6020828403121561264c575f5ffd5b5051919050565b7f4e487b71000000000000000000000000000000000000000000000000000000005f52604160045260245ffd5b600181811c9082168061269457607f821691505b602082108103612064577f4e487b71000000000000000000000000000000000000000000000000000000005f52602260045260245ffd5b6040516060810167ffffffffffffffff811182821017156126ee576126ee612653565b60405290565b6040805190810167ffffffffffffffff811182821017156126ee576126ee612653565b604051601f82017fffffffffffffffffffffffffffffffffffffffffffffffffffffffffffffffe016810167ffffffffffffffff8111828210171561275e5761275e612653565b604052919050565b5f67ffffffffffffffff82111561277f5761277f612653565b50601f017fffffffffffffffffffffffffffffffffffffffffffffffffffffffffffffffe01660200190565b5f67ffffffffffffffff8311156127c4576127c4612653565b8260051b6127d460208201612717565b848152908301906020810190368311156127ec575f5ffd5b845b838110156128c557803567ffffffffffffffff81111561280c575f5ffd5b8601606036829003121561281e575f5ffd5b6128266126cb565b61282f826122b3565b815261283d60208301612366565b6020820152604082013567ffffffffffffffff81111561285b575f5ffd5b919091019036601f83011261286e575f5ffd5b813561288161287c82612766565b612717565b818152366020838601011115612895575f5ffd5b816020850160208301375f60208383010152806040840152505080855250506020830192506020810190506127ee565b5095945050505050565b5f5f858511156128dd575f5ffd5b838611156128e9575f5ffd5b5050820193919092039150565b5f81518060208401855e5f93019283525090919050565b5f61291882866128f6565b838582375f930192835250909392505050565b81835281816020850137505f602082840101525f60207fffffffffffffffffffffffffffffffffffffffffffffffffffffffffffffffe0601f840116840101905092915050565b602081525f610b5060208301848661292b565b7f4e487b71000000000000000000000000000000000000000000000000000000005f52603260045260245ffd5b5f82357ffffffffffffffffffffffffffffffffffffffffffffffffffffffffffffffec18336030181126129e4575f5ffd5b9190910192915050565b5f5f83357fffffffffffffffffffffffffffffffffffffffffffffffffffffffffffffffe1843603018112612a21575f5ffd5b83018035915067ffffffffffffffff821115612a3b575f5ffd5b6020019150368190038213156121ef575f5ffd5b67ffffffffffffffff811681146110ed575f5ffd5b63ffffffff612a72896122b3565b168152602088810135908201525f6040890135612a8e81612a4f565b67ffffffffffffffff811660408401525087606083015260e06080830152612aba60e08301878961292b565b73ffffffffffffffffffffffffffffffffffffffff861660a084015282810360c0840152612ae981858761292b565b9a9950505050505050505050565b5f60208284031215612b07575f5ffd5b815167ffffffffffffffff811115612b1d575f5ffd5b8201601f81018413612b2d575f5ffd5b8051612b3b61287c82612766565b818152856020838501011115612b4f575f5ffd5b8160208401602083015e5f91810160200191909152949350505050565b5f60208284031215612b7c575f5ffd5b813561193e81612a4f565b73ffffffffffffffffffffffffffffffffffffffff8516815283602082015261ffff83166040820152608060608201525f612bc5608083018461209c565b9695505050505050565b604081525f612be1604083018561209c565b8281036020840152611636818561209c565b5f60208284031215612c03575f5ffd5b815161193e816122f3565b6040815263ffffffff8351166040820152602083015160608201525f604084015160a06080840152612c4360e084018261209c565b905060608501517fffffffffffffffffffffffffffffffffffffffffffffffffffffffffffffffc08483030160a0850152612c7e828261209c565b60809690960151151560c085015250505073ffffffffffffffffffffffffffffffffffffffff9190911660209091015290565b5f60408284031215612cc1575f5ffd5b612cc96126f4565b825181526020928301519281019290925250919050565b5f60408284031215612cf0575f5ffd5b61193e8383612cb1565b601f821115611d3257805f5260205f20601f840160051c81016020851015612d1f5750805b601f840160051c820191505b81811015610fc3575f8155600101612d2b565b815167ffffffffffffffff811115612d5857612d58612653565b612d6c81612d668454612680565b84612cfa565b6020601f821160018114612dbd575f8315612d875750848201515b7fffffffffffffffffffffffffffffffffffffffffffffffffffffffffffffffff600385901b1c1916600184901b178455610fc3565b5f848152602081207fffffffffffffffffffffffffffffffffffffffffffffffffffffffffffffffe08516915b82811015612e0a5787850151825560209485019460019092019101612dea565b5084821015612e4657868401517fffffffffffffffffffffffffffffffffffffffffffffffffffffffffffffffff600387901b60f8161c191681555b50505050600190811b01905550565b5f602082016020835280845180835260408501915060408160051b8601019250602086015f5b82811015612ef5577fffffffffffffffffffffffffffffffffffffffffffffffffffffffffffffffc0878603018452815163ffffffff815116865261ffff60208201511660208701526040810151905060606040870152612edf606087018261209c565b9550506020938401939190910190600101612e7b565b50929695505050505050565b5f6040828403128015612f12575f5ffd5b50612f1b6126f4565b823581526020928301359281019290925250919050565b5f82612f65577f4e487b71000000000000000000000000000000000000000000000000000000005f52601260045260245ffd5b500490565b80820281158282048414176109f9577f4e487b71000000000000000000000000000000000000000000000000000000005f52601160045260245ffd5b803560208310156109f9577fffffffffffffffffffffffffffffffffffffffffffffffffffffffffffffffff602084900360031b1b1692915050565b80357fffffffffffffffff0000000000000000000000000000000000000000000000008116906008841015613041577fffffffffffffffff000000000000000000000000000000000000000000000000808560080360031b1b82161691505b5092915050565b7fffffffffffffffff0000000000000000000000000000000000000000000000008560c01b1681527fffffffff000000000000000000000000000000000000000000000000000000008460e01b16600882015282600c8201525f612bc5602c8301846128f6565b8481527fffffffffffffffff0000000000000000000000000000000000000000000000008460c01b1660208201528260288201525f612bc560488301846128f6565b5f6080828403128015613102575f5ffd5b5061310b6126cb565b82518152602083015161311d81612a4f565b602082015261312f8460408501612cb1565b6040820152939250505056fea264697066735822122014eb9bd34698bdc8b90f4625834f39ab314959e87d70465e77aa3087e332c28d64736f6c634300081e0033","linkReferences":{}},"methodIdentifiers":{"SEND()":"1f5e1334","SEND_AND_CALL()":"134d4f25","allowInitializePath((uint32,bytes32,uint64))":"ff7bd03d","approvalRequired()":"9f68b964","combineOptions(uint32,uint16,bytes)":"bc70b354","decimalConversionRate()":"963efcaa","endpoint()":"5e280f11","enforcedOptions(uint32,uint16)":"5535d461","isComposeMsgSender((uint32,bytes32,uint64),bytes,address)":"82413eac","isPeer(uint32,bytes32)":"5a0dfe4d","lzReceive((uint32,bytes32,uint64),bytes32,bytes,address,bytes)":"13137d65","lzReceiveAndRevert(((uint32,bytes32,uint64),uint32,address,bytes32,uint256,address,bytes,bytes)[])":"bd815db0","lzReceiveSimulate((uint32,bytes32,uint64),bytes32,bytes,address,bytes)":"d045a0dc","msgInspector()":"111ecdad","nextNonce(uint32,bytes32)":"7d25a05e","oApp()":"52ae2879","oAppVersion()":"17442b70","oftVersion()":"156a0d0f","owner()":"8da5cb5b","peers(uint32)":"bb0b6a53","preCrime()":"b731ea0a","quoteOFT((uint32,bytes32,uint256,uint256,bytes,bytes,bytes))":"0d35b415","quoteSend((uint32,bytes32,uint256,uint256,bytes,bytes,bytes),bool)":"3b6f743b","renounceOwnership()":"715018a6","send((uint32,bytes32,uint256,uint256,bytes,bytes,bytes),(uint256,uint256),address)":"c7c7f5b3","setDelegate(address)":"ca5eb5e1","setEnforcedOptions((uint32,uint16,bytes)[])":"b98bd070","setMsgInspector(address)":"6fc1b31e","setPeer(uint32,bytes32)":"3400288b","setPreCrime(address)":"d4243885","sharedDecimals()":"857749b0","token()":"fc0c546a","transferOwnership(address)":"f2fde38b"},"id":148}