{"abi":[{"type":"constructor","inputs":[{"name":"_eid","type":"uint32","internalType":"uint32"},{"name":"_owner","type":"address","internalType":"address"}],"stateMutability":"nonpayable"},{"type":"function","name":"EMPTY_PAYLOAD_HASH","inputs":[],"outputs":[{"name":"","type":"bytes32","internalType":"bytes32"}],"stateMutability":"view"},{"type":"function","name":"NIL_PAYLOAD_HASH","inputs":[],"outputs":[{"name":"","type":"bytes32","internalType":"bytes32"}],"stateMutability":"view"},{"type":"function","name":"blockedLibrary","inputs":[],"outputs":[{"name":"","type":"address","internalType":"address"}],"stateMutability":"view"},{"type":"function","name":"burn","inputs":[{"name":"_oapp","type":"address","internalType":"address"},{"name":"_srcEid","type":"uint32","internalType":"uint32"},{"name":"_sender","type":"bytes32","internalType":"bytes32"},{"name":"_nonce","type":"uint64","internalType":"uint64"},{"name":"_payloadHash","type":"bytes32","internalType":"bytes32"}],"outputs":[],"stateMutability":"nonpayable"},{"type":"function","name":"clear","inputs":[{"name":"_oapp","type":"address","internalType":"address"},{"name":"_origin","type":"tuple","internalType":"struct Origin","components":[{"name":"srcEid","type":"uint32","internalType":"uint32"},{"name":"sender","type":"bytes32","internalType":"bytes32"},{"name":"nonce","type":"uint64","internalType":"uint64"}]},{"name":"_guid","type":"bytes32","internalType":"bytes32"},{"name":"_message","type":"bytes","internalType":"bytes"}],"outputs":[],"stateMutability":"nonpayable"},{"type":"function","name":"composeQueue","inputs":[{"name":"from","type":"address","internalType":"address"},{"name":"to","type":"address","internalType":"address"},{"name":"guid","type":"bytes32","internalType":"bytes32"},{"name":"index","type":"uint16","internalType":"uint16"}],"outputs":[{"name":"messageHash","type":"bytes32","internalType":"bytes32"}],"stateMutability":"view"},{"type":"function","name":"defaultReceiveLibrary","inputs":[{"name":"srcEid","type":"uint32","internalType":"uint32"}],"outputs":[{"name":"lib","type":"address","internalType":"address"}],"stateMutability":"view"},{"type":"function","name":"defaultReceiveLibraryTimeout","inputs":[{"name":"srcEid","type":"uint32","internalType":"uint32"}],"outputs":[{"name":"lib","type":"address","internalType":"address"},{"name":"expiry","type":"uint256","internalType":"uint256"}],"stateMutability":"view"},{"type":"function","name":"defaultSendLibrary","inputs":[{"name":"dstEid","type":"uint32","internalType":"uint32"}],"outputs":[{"name":"lib","type":"address","internalType":"address"}],"stateMutability":"view"},{"type":"function","name":"delegates","inputs":[{"name":"oapp","type":"address","internalType":"address"}],"outputs":[{"name":"delegate","type":"address","internalType":"address"}],"stateMutability":"view"},{"type":"function","name":"eid","inputs":[],"outputs":[{"name":"","type":"uint32","internalType":"uint32"}],"stateMutability":"view"},{"type":"function","name":"getConfig","inputs":[{"name":"_oapp","type":"address","internalType":"address"},{"name":"_lib","type":"address","internalType":"address"},{"name":"_eid","type":"uint32","internalType":"uint32"},{"name":"_configType","type":"uint32","internalType":"uint32"}],"outputs":[{"name":"config","type":"bytes","internalType":"bytes"}],"stateMutability":"view"},{"type":"function","name":"getReceiveLibrary","inputs":[{"name":"_receiver","type":"address","internalType":"address"},{"name":"_srcEid","type":"uint32","internalType":"uint32"}],"outputs":[{"name":"lib","type":"address","internalType":"address"},{"name":"isDefault","type":"bool","internalType":"bool"}],"stateMutability":"view"},{"type":"function","name":"getRegisteredLibraries","inputs":[],"outputs":[{"name":"","type":"address[]","internalType":"address[]"}],"stateMutability":"view"},{"type":"function","name":"getSendContext","inputs":[],"outputs":[{"name":"","type":"uint32","internalType":"uint32"},{"name":"","type":"address","internalType":"address"}],"stateMutability":"view"},{"type":"function","name":"getSendLibrary","inputs":[{"name":"_sender","type":"address","internalType":"address"},{"name":"_dstEid","type":"uint32","internalType":"uint32"}],"outputs":[{"name":"lib","type":"address","internalType":"address"}],"stateMutability":"view"},{"type":"function","name":"inboundNonce","inputs":[{"name":"_receiver","type":"address","internalType":"address"},{"name":"_srcEid","type":"uint32","internalType":"uint32"},{"name":"_sender","type":"bytes32","internalType":"bytes32"}],"outputs":[{"name":"","type":"uint64","internalType":"uint64"}],"stateMutability":"view"},{"type":"function","name":"inboundPayloadHash","inputs":[{"name":"receiver","type":"address","internalType":"address"},{"name":"srcEid","type":"uint32","internalType":"uint32"},{"name":"sender","type":"bytes32","internalType":"bytes32"},{"name":"inboundNonce","type":"uint64","internalType":"uint64"}],"outputs":[{"name":"payloadHash","type":"bytes32","internalType":"bytes32"}],"stateMutability":"view"},{"type":"function","name":"initializable","inputs":[{"name":"_origin","type":"tuple","internalType":"struct Origin","components":[{"name":"srcEid","type":"uint32","internalType":"uint32"},{"name":"sender","type":"bytes32","internalType":"bytes32"},{"name":"nonce","type":"uint64","internalType":"uint64"}]},{"name":"_receiver","type":"address","internalType":"address"}],"outputs":[{"name":"","type":"bool","internalType":"bool"}],"stateMutability":"view"},{"type":"function","name":"isDefaultSendLibrary","inputs":[{"name":"_sender","type":"address","internalType":"address"},{"name":"_dstEid","type":"uint32","internalType":"uint32"}],"outputs":[{"name":"","type":"bool","internalType":"bool"}],"stateMutability":"view"},{"type":"function","name":"isRegisteredLibrary","inputs":[{"name":"lib","type":"address","internalType":"address"}],"outputs":[{"name":"","type":"bool","internalType":"bool"}],"stateMutability":"view"},{"type":"function","name":"isSendingMessage","inputs":[],"outputs":[{"name":"","type":"bool","internalType":"bool"}],"stateMutability":"view"},{"type":"function","name":"isSupportedEid","inputs":[{"name":"_eid","type":"uint32","internalType":"uint32"}],"outputs":[{"name":"","type":"bool","internalType":"bool"}],"stateMutability":"view"},{"type":"function","name":"isValidReceiveLibrary","inputs":[{"name":"_receiver","type":"address","internalType":"address"},{"name":"_srcEid","type":"uint32","internalType":"uint32"},{"name":"_actualReceiveLib","type":"address","internalType":"address"}],"outputs":[{"name":"","type":"bool","internalType":"bool"}],"stateMutability":"view"},{"type":"function","name":"lazyInboundNonce","inputs":[{"name":"receiver","type":"address","internalType":"address"},{"name":"srcEid","type":"uint32","internalType":"uint32"},{"name":"sender","type":"bytes32","internalType":"bytes32"}],"outputs":[{"name":"nonce","type":"uint64","internalType":"uint64"}],"stateMutability":"view"},{"type":"function","name":"lzCompose","inputs":[{"name":"_from","type":"address","internalType":"address"},{"name":"_to","type":"address","internalType":"address"},{"name":"_guid","type":"bytes32","internalType":"bytes32"},{"name":"_index","type":"uint16","internalType":"uint16"},{"name":"_message","type":"bytes","internalType":"bytes"},{"name":"_extraData","type":"bytes","internalType":"bytes"}],"outputs":[],"stateMutability":"payable"},{"type":"function","name":"lzComposeAlert","inputs":[{"name":"_from","type":"address","internalType":"address"},{"name":"_to","type":"address","internalType":"address"},{"name":"_guid","type":"bytes32","internalType":"bytes32"},{"name":"_index","type":"uint16","internalType":"uint16"},{"name":"_gas","type":"uint256","internalType":"uint256"},{"name":"_value","type":"uint256","internalType":"uint256"},{"name":"_message","type":"bytes","internalType":"bytes"},{"name":"_extraData","type":"bytes","internalType":"bytes"},{"name":"_reason","type":"bytes","internalType":"bytes"}],"outputs":[],"stateMutability":"nonpayable"},{"type":"function","name":"lzReceive","inputs":[{"name":"_origin","type":"tuple","internalType":"struct Origin","components":[{"name":"srcEid","type":"uint32","internalType":"uint32"},{"name":"sender","type":"bytes32","internalType":"bytes32"},{"name":"nonce","type":"uint64","internalType":"uint64"}]},{"name":"_receiver","type":"address","internalType":"address"},{"name":"_guid","type":"bytes32","internalType":"bytes32"},{"name":"_message","type":"bytes","internalType":"bytes"},{"name":"_extraData","type":"bytes","internalType":"bytes"}],"outputs":[],"stateMutability":"payable"},{"type":"function","name":"lzReceiveAlert","inputs":[{"name":"_origin","type":"tuple","internalType":"struct Origin","components":[{"name":"srcEid","type":"uint32","internalType":"uint32"},{"name":"sender","type":"bytes32","internalType":"bytes32"},{"name":"nonce","type":"uint64","internalType":"uint64"}]},{"name":"_receiver","type":"address","internalType":"address"},{"name":"_guid","type":"bytes32","internalType":"bytes32"},{"name":"_gas","type":"uint256","internalType":"uint256"},{"name":"_value","type":"uint256","internalType":"uint256"},{"name":"_message","type":"bytes","internalType":"bytes"},{"name":"_extraData","type":"bytes","internalType":"bytes"},{"name":"_reason","type":"bytes","internalType":"bytes"}],"outputs":[],"stateMutability":"nonpayable"},{"type":"function","name":"lzToken","inputs":[],"outputs":[{"name":"","type":"address","internalType":"address"}],"stateMutability":"view"},{"type":"function","name":"nativeToken","inputs":[],"outputs":[{"name":"","type":"address","internalType":"address"}],"stateMutability":"view"},{"type":"function","name":"nextGuid","inputs":[{"name":"_sender","type":"address","internalType":"address"},{"name":"_dstEid","type":"uint32","internalType":"uint32"},{"name":"_receiver","type":"bytes32","internalType":"bytes32"}],"outputs":[{"name":"","type":"bytes32","internalType":"bytes32"}],"stateMutability":"view"},{"type":"function","name":"nilify","inputs":[{"name":"_oapp","type":"address","internalType":"address"},{"name":"_srcEid","type":"uint32","internalType":"uint32"},{"name":"_sender","type":"bytes32","internalType":"bytes32"},{"name":"_nonce","type":"uint64","internalType":"uint64"},{"name":"_payloadHash","type":"bytes32","internalType":"bytes32"}],"outputs":[],"stateMutability":"nonpayable"},{"type":"function","name":"outboundNonce","inputs":[{"name":"sender","type":"address","internalType":"address"},{"name":"dstEid","type":"uint32","internalType":"uint32"},{"name":"receiver","type":"bytes32","internalType":"bytes32"}],"outputs":[{"name":"nonce","type":"uint64","internalType":"uint64"}],"stateMutability":"view"},{"type":"function","name":"owner","inputs":[],"outputs":[{"name":"","type":"address","internalType":"address"}],"stateMutability":"view"},{"type":"function","name":"quote","inputs":[{"name":"_params","type":"tuple","internalType":"struct MessagingParams","components":[{"name":"dstEid","type":"uint32","internalType":"uint32"},{"name":"receiver","type":"bytes32","internalType":"bytes32"},{"name":"message","type":"bytes","internalType":"bytes"},{"name":"options","type":"bytes","internalType":"bytes"},{"name":"payInLzToken","type":"bool","internalType":"bool"}]},{"name":"_sender","type":"address","internalType":"address"}],"outputs":[{"name":"","type":"tuple","internalType":"struct MessagingFee","components":[{"name":"nativeFee","type":"uint256","internalType":"uint256"},{"name":"lzTokenFee","type":"uint256","internalType":"uint256"}]}],"stateMutability":"view"},{"type":"function","name":"receiveLibraryTimeout","inputs":[{"name":"receiver","type":"address","internalType":"address"},{"name":"srcEid","type":"uint32","internalType":"uint32"}],"outputs":[{"name":"lib","type":"address","internalType":"address"},{"name":"expiry","type":"uint256","internalType":"uint256"}],"stateMutability":"view"},{"type":"function","name":"recoverToken","inputs":[{"name":"_token","type":"address","internalType":"address"},{"name":"_to","type":"address","internalType":"address"},{"name":"_amount","type":"uint256","internalType":"uint256"}],"outputs":[],"stateMutability":"nonpayable"},{"type":"function","name":"registerLibrary","inputs":[{"name":"_lib","type":"address","internalType":"address"}],"outputs":[],"stateMutability":"nonpayable"},{"type":"function","name":"renounceOwnership","inputs":[],"outputs":[],"stateMutability":"nonpayable"},{"type":"function","name":"send","inputs":[{"name":"_params","type":"tuple","internalType":"struct MessagingParams","components":[{"name":"dstEid","type":"uint32","internalType":"uint32"},{"name":"receiver","type":"bytes32","internalType":"bytes32"},{"name":"message","type":"bytes","internalType":"bytes"},{"name":"options","type":"bytes","internalType":"bytes"},{"name":"payInLzToken","type":"bool","internalType":"bool"}]},{"name":"_refundAddress","type":"address","internalType":"address"}],"outputs":[{"name":"","type":"tuple","internalType":"struct MessagingReceipt","components":[{"name":"guid","type":"bytes32","internalType":"bytes32"},{"name":"nonce","type":"uint64","internalType":"uint64"},{"name":"fee","type":"tuple","internalType":"struct MessagingFee","components":[{"name":"nativeFee","type":"uint256","internalType":"uint256"},{"name":"lzTokenFee","type":"uint256","internalType":"uint256"}]}]}],"stateMutability":"payable"},{"type":"function","name":"sendCompose","inputs":[{"name":"_to","type":"address","internalType":"address"},{"name":"_guid","type":"bytes32","internalType":"bytes32"},{"name":"_index","type":"uint16","internalType":"uint16"},{"name":"_message","type":"bytes","internalType":"bytes"}],"outputs":[],"stateMutability":"nonpayable"},{"type":"function","name":"setConfig","inputs":[{"name":"_oapp","type":"address","internalType":"address"},{"name":"_lib","type":"address","internalType":"address"},{"name":"_params","type":"tuple[]","internalType":"struct SetConfigParam[]","components":[{"name":"eid","type":"uint32","internalType":"uint32"},{"name":"configType","type":"uint32","internalType":"uint32"},{"name":"config","type":"bytes","internalType":"bytes"}]}],"outputs":[],"stateMutability":"nonpayable"},{"type":"function","name":"setDefaultReceiveLibrary","inputs":[{"name":"_eid","type":"uint32","internalType":"uint32"},{"name":"_newLib","type":"address","internalType":"address"},{"name":"_gracePeriod","type":"uint256","internalType":"uint256"}],"outputs":[],"stateMutability":"nonpayable"},{"type":"function","name":"setDefaultReceiveLibraryTimeout","inputs":[{"name":"_eid","type":"uint32","internalType":"uint32"},{"name":"_lib","type":"address","internalType":"address"},{"name":"_expiry","type":"uint256","internalType":"uint256"}],"outputs":[],"stateMutability":"nonpayable"},{"type":"function","name":"setDefaultSendLibrary","inputs":[{"name":"_eid","type":"uint32","internalType":"uint32"},{"name":"_newLib","type":"address","internalType":"address"}],"outputs":[],"stateMutability":"nonpayable"},{"type":"function","name":"setDelegate","inputs":[{"name":"_delegate","type":"address","internalType":"address"}],"outputs":[],"stateMutability":"nonpayable"},{"type":"function","name":"setLzToken","inputs":[{"name":"_lzToken","type":"address","internalType":"address"}],"outputs":[],"stateMutability":"nonpayable"},{"type":"function","name":"setReceiveLibrary","inputs":[{"name":"_oapp","type":"address","internalType":"address"},{"name":"_eid","type":"uint32","internalType":"uint32"},{"name":"_newLib","type":"address","internalType":"address"},{"name":"_gracePeriod","type":"uint256","internalType":"uint256"}],"outputs":[],"stateMutability":"nonpayable"},{"type":"function","name":"setReceiveLibraryTimeout","inputs":[{"name":"_oapp","type":"address","internalType":"address"},{"name":"_eid","type":"uint32","internalType":"uint32"},{"name":"_lib","type":"address","internalType":"address"},{"name":"_expiry","type":"uint256","internalType":"uint256"}],"outputs":[],"stateMutability":"nonpayable"},{"type":"function","name":"setSendLibrary","inputs":[{"name":"_oapp","type":"address","internalType":"address"},{"name":"_eid","type":"uint32","internalType":"uint32"},{"name":"_newLib","type":"address","internalType":"address"}],"outputs":[],"stateMutability":"nonpayable"},{"type":"function","name":"skip","inputs":[{"name":"_oapp","type":"address","internalType":"address"},{"name":"_srcEid","type":"uint32","internalType":"uint32"},{"name":"_sender","type":"bytes32","internalType":"bytes32"},{"name":"_nonce","type":"uint64","internalType":"uint64"}],"outputs":[],"stateMutability":"nonpayable"},{"type":"function","name":"transferOwnership","inputs":[{"name":"newOwner","type":"address","internalType":"address"}],"outputs":[],"stateMutability":"nonpayable"},{"type":"function","name":"verifiable","inputs":[{"name":"_origin","type":"tuple","internalType":"struct Origin","components":[{"name":"srcEid","type":"uint32","internalType":"uint32"},{"name":"sender","type":"bytes32","internalType":"bytes32"},{"name":"nonce","type":"uint64","internalType":"uint64"}]},{"name":"_receiver","type":"address","internalType":"address"}],"outputs":[{"name":"","type":"bool","internalType":"bool"}],"stateMutability":"view"},{"type":"function","name":"verify","inputs":[{"name":"_origin","type":"tuple","internalType":"struct Origin","components":[{"name":"srcEid","type":"uint32","internalType":"uint32"},{"name":"sender","type":"bytes32","internalType":"bytes32"},{"name":"nonce","type":"uint64","internalType":"uint64"}]},{"name":"_receiver","type":"address","internalType":"address"},{"name":"_payloadHash","type":"bytes32","internalType":"bytes32"}],"outputs":[],"stateMutability":"nonpayable"},{"type":"event","name":"ComposeDelivered","inputs":[{"name":"from","type":"address","indexed":false,"internalType":"address"},{"name":"to","type":"address","indexed":false,"internalType":"address"},{"name":"guid","type":"bytes32","indexed":false,"internalType":"bytes32"},{"name":"index","type":"uint16","indexed":false,"internalType":"uint16"}],"anonymous":false},{"type":"event","name":"ComposeSent","inputs":[{"name":"from","type":"address","indexed":false,"internalType":"address"},{"name":"to","type":"address","indexed":false,"internalType":"address"},{"name":"guid","type":"bytes32","indexed":false,"internalType":"bytes32"},{"name":"index","type":"uint16","indexed":false,"internalType":"uint16"},{"name":"message","type":"bytes","indexed":false,"internalType":"bytes"}],"anonymous":false},{"type":"event","name":"DefaultReceiveLibrarySet","inputs":[{"name":"eid","type":"uint32","indexed":false,"internalType":"uint32"},{"name":"newLib","type":"address","indexed":false,"internalType":"address"}],"anonymous":false},{"type":"event","name":"DefaultReceiveLibraryTimeoutSet","inputs":[{"name":"eid","type":"uint32","indexed":false,"internalType":"uint32"},{"name":"oldLib","type":"address","indexed":false,"internalType":"address"},{"name":"expiry","type":"uint256","indexed":false,"internalType":"uint256"}],"anonymous":false},{"type":"event","name":"DefaultSendLibrarySet","inputs":[{"name":"eid","type":"uint32","indexed":false,"internalType":"uint32"},{"name":"newLib","type":"address","indexed":false,"internalType":"address"}],"anonymous":false},{"type":"event","name":"DelegateSet","inputs":[{"name":"sender","type":"address","indexed":false,"internalType":"address"},{"name":"delegate","type":"address","indexed":false,"internalType":"address"}],"anonymous":false},{"type":"event","name":"InboundNonceSkipped","inputs":[{"name":"srcEid","type":"uint32","indexed":false,"internalType":"uint32"},{"name":"sender","type":"bytes32","indexed":false,"internalType":"bytes32"},{"name":"receiver","type":"address","indexed":false,"internalType":"address"},{"name":"nonce","type":"uint64","indexed":false,"internalType":"uint64"}],"anonymous":false},{"type":"event","name":"LibraryRegistered","inputs":[{"name":"newLib","type":"address","indexed":false,"internalType":"address"}],"anonymous":false},{"type":"event","name":"LzComposeAlert","inputs":[{"name":"from","type":"address","indexed":true,"internalType":"address"},{"name":"to","type":"address","indexed":true,"internalType":"address"},{"name":"executor","type":"address","indexed":true,"internalType":"address"},{"name":"guid","type":"bytes32","indexed":false,"internalType":"bytes32"},{"name":"index","type":"uint16","indexed":false,"internalType":"uint16"},{"name":"gas","type":"uint256","indexed":false,"internalType":"uint256"},{"name":"value","type":"uint256","indexed":false,"internalType":"uint256"},{"name":"message","type":"bytes","indexed":false,"internalType":"bytes"},{"name":"extraData","type":"bytes","indexed":false,"internalType":"bytes"},{"name":"reason","type":"bytes","indexed":false,"internalType":"bytes"}],"anonymous":false},{"type":"event","name":"LzReceiveAlert","inputs":[{"name":"receiver","type":"address","indexed":true,"internalType":"address"},{"name":"executor","type":"address","indexed":true,"internalType":"address"},{"name":"origin","type":"tuple","indexed":false,"internalType":"struct Origin","components":[{"name":"srcEid","type":"uint32","internalType":"uint32"},{"name":"sender","type":"bytes32","internalType":"bytes32"},{"name":"nonce","type":"uint64","internalType":"uint64"}]},{"name":"guid","type":"bytes32","indexed":false,"internalType":"bytes32"},{"name":"gas","type":"uint256","indexed":false,"internalType":"uint256"},{"name":"value","type":"uint256","indexed":false,"internalType":"uint256"},{"name":"message","type":"bytes","indexed":false,"internalType":"bytes"},{"name":"extraData","type":"bytes","indexed":false,"internalType":"bytes"},{"name":"reason","type":"bytes","indexed":false,"internalType":"bytes"}],"anonymous":false},{"type":"event","name":"LzTokenSet","inputs":[{"name":"token","type":"address","indexed":false,"internalType":"address"}],"anonymous":false},{"type":"event","name":"OwnershipTransferred","inputs":[{"name":"previousOwner","type":"address","indexed":true,"internalType":"address"},{"name":"newOwner","type":"address","indexed":true,"internalType":"address"}],"anonymous":false},{"type":"event","name":"PacketBurnt","inputs":[{"name":"srcEid","type":"uint32","indexed":false,"internalType":"uint32"},{"name":"sender","type":"bytes32","indexed":false,"internalType":"bytes32"},{"name":"receiver","type":"address","indexed":false,"internalType":"address"},{"name":"nonce","type":"uint64","indexed":false,"internalType":"uint64"},{"name":"payloadHash","type":"bytes32","indexed":false,"internalType":"bytes32"}],"anonymous":false},{"type":"event","name":"PacketDelivered","inputs":[{"name":"origin","type":"tuple","indexed":false,"internalType":"struct Origin","components":[{"name":"srcEid","type":"uint32","internalType":"uint32"},{"name":"sender","type":"bytes32","internalType":"bytes32"},{"name":"nonce","type":"uint64","internalType":"uint64"}]},{"name":"receiver","type":"address","indexed":false,"internalType":"address"}],"anonymous":false},{"type":"event","name":"PacketNilified","inputs":[{"name":"srcEid","type":"uint32","indexed":false,"internalType":"uint32"},{"name":"sender","type":"bytes32","indexed":false,"internalType":"bytes32"},{"name":"receiver","type":"address","indexed":false,"internalType":"address"},{"name":"nonce","type":"uint64","indexed":false,"internalType":"uint64"},{"name":"payloadHash","type":"bytes32","indexed":false,"internalType":"bytes32"}],"anonymous":false},{"type":"event","name":"PacketSent","inputs":[{"name":"encodedPayload","type":"bytes","indexed":false,"internalType":"bytes"},{"name":"options","type":"bytes","indexed":false,"internalType":"bytes"},{"name":"sendLibrary","type":"address","indexed":false,"internalType":"address"}],"anonymous":false},{"type":"event","name":"PacketVerified","inputs":[{"name":"origin","type":"tuple","indexed":false,"internalType":"struct Origin","components":[{"name":"srcEid","type":"uint32","internalType":"uint32"},{"name":"sender","type":"bytes32","internalType":"bytes32"},{"name":"nonce","type":"uint64","internalType":"uint64"}]},{"name":"receiver","type":"address","indexed":false,"internalType":"address"},{"name":"payloadHash","type":"bytes32","indexed":false,"internalType":"bytes32"}],"anonymous":false},{"type":"event","name":"ReceiveLibrarySet","inputs":[{"name":"receiver","type":"address","indexed":false,"internalType":"address"},{"name":"eid","type":"uint32","indexed":false,"internalType":"uint32"},{"name":"newLib","type":"address","indexed":false,"internalType":"address"}],"anonymous":false},{"type":"event","name":"ReceiveLibraryTimeoutSet","inputs":[{"name":"receiver","type":"address","indexed":false,"internalType":"address"},{"name":"eid","type":"uint32","indexed":false,"internalType":"uint32"},{"name":"oldLib","type":"address","indexed":false,"internalType":"address"},{"name":"timeout","type":"uint256","indexed":false,"internalType":"uint256"}],"anonymous":false},{"type":"event","name":"SendLibrarySet","inputs":[{"name":"sender","type":"address","indexed":false,"internalType":"address"},{"name":"eid","type":"uint32","indexed":false,"internalType":"uint32"},{"name":"newLib","type":"address","indexed":false,"internalType":"address"}],"anonymous":false},{"type":"error","name":"LZ_AlreadyRegistered","inputs":[]},{"type":"error","name":"LZ_ComposeExists","inputs":[]},{"type":"error","name":"LZ_ComposeNotFound","inputs":[{"name":"expected","type":"bytes32","internalType":"bytes32"},{"name":"actual","type":"bytes32","internalType":"bytes32"}]},{"type":"error","name":"LZ_DefaultReceiveLibUnavailable","inputs":[]},{"type":"error","name":"LZ_DefaultSendLibUnavailable","inputs":[]},{"type":"error","name":"LZ_InsufficientFee","inputs":[{"name":"requiredNative","type":"uint256","internalType":"uint256"},{"name":"suppliedNative","type":"uint256","internalType":"uint256"},{"name":"requiredLzToken","type":"uint256","internalType":"uint256"},{"name":"suppliedLzToken","type":"uint256","internalType":"uint256"}]},{"type":"error","name":"LZ_InvalidExpiry","inputs":[]},{"type":"error","name":"LZ_InvalidNonce","inputs":[{"name":"nonce","type":"uint64","internalType":"uint64"}]},{"type":"error","name":"LZ_InvalidPayloadHash","inputs":[]},{"type":"error","name":"LZ_InvalidReceiveLibrary","inputs":[]},{"type":"error","name":"LZ_LzTokenUnavailable","inputs":[]},{"type":"error","name":"LZ_OnlyNonDefaultLib","inputs":[]},{"type":"error","name":"LZ_OnlyReceiveLib","inputs":[]},{"type":"error","name":"LZ_OnlyRegisteredLib","inputs":[]},{"type":"error","name":"LZ_OnlyRegisteredOrDefaultLib","inputs":[]},{"type":"error","name":"LZ_OnlySendLib","inputs":[]},{"type":"error","name":"LZ_PathNotInitializable","inputs":[]},{"type":"error","name":"LZ_PathNotVerifiable","inputs":[]},{"type":"error","name":"LZ_PayloadHashNotFound","inputs":[{"name":"expected","type":"bytes32","internalType":"bytes32"},{"name":"actual","type":"bytes32","internalType":"bytes32"}]},{"type":"error","name":"LZ_SameValue","inputs":[]},{"type":"error","name":"LZ_SendReentrancy","inputs":[]},{"type":"error","name":"LZ_Unauthorized","inputs":[]},{"type":"error","name":"LZ_UnsupportedEid","inputs":[]},{"type":"error","name":"LZ_UnsupportedInterface","inputs":[]},{"type":"error","name":"LZ_ZeroLzTokenFee","inputs":[]},{"type":"error","name":"OwnableInvalidOwner","inputs":[{"name":"owner","type":"address","internalType":"address"}]},{"type":"error","name":"OwnableUnauthorizedAccount","inputs":[{"name":"account","type":"address","internalType":"address"}]},{"type":"error","name":"SafeERC20FailedOperation","inputs":[{"name":"token","type":"address","internalType":"address"}]},{"type":"error","name":"Transfer_NativeFailed","inputs":[{"name":"_to","type":"address","internalType":"address"},{"name":"_value","type":"uint256","internalType":"uint256"}]},{"type":"error","name":"Transfer_ToAddressIsZero","inputs":[]}],"bytecode":{"object":"0x60c06040526001600d55348015610014575f5ffd5b5060405161675e38038061675e833981016040819052610033916102aa565b81816001600160a01b03811661006357604051631e4fbdf760e01b81525f60048201526024015b60405180910390fd5b61006c816100ba565b5063ffffffff166080526040516100829061029d565b604051809103905ff08015801561009b573d5f5f3e3d5ffd5b506001600160a01b031660a08190526100b390610109565b505061031b565b5f80546001600160a01b038381166001600160a01b0319831681178455604051919092169283917f8be0079c531659141344cd1fd0a4f28419497f9722a3daafe3b4186f6b6457e09190a35050565b61011161026f565b6040516301ffc9a760e01b81526325fc096160e21b60048201526001600160a01b038216906301ffc9a790602401602060405180830381865afa15801561015a573d5f5f3e3d5ffd5b505050506040513d601f19601f8201168201806040525081019061017e91906102f5565b61019b5760405163eb64f35d60e01b815260040160405180910390fd5b6001600160a01b0381165f9081526005602052604090205460ff16156101d45760405163457517f360e11b815260040160405180910390fd5b6001600160a01b0381165f818152600560209081526040808320805460ff191660019081179091556004805491820181559093527f8a35acfbc15ff81a39ae7d344fd709f28e8600b4aa8c65c6b64bfe7fe36bd19b90920180546001600160a01b0319168417905590519182527f6b374d56679ca9463f27c85c6311e2bb7fde69bf201d3da39d53f10bd9d78af5910160405180910390a150565b5f546001600160a01b0316331461029b5760405163118cdaa760e01b815233600482015260240161005a565b565b610280806164de83390190565b5f5f604083850312156102bb575f5ffd5b825163ffffffff811681146102ce575f5ffd5b60208401519092506001600160a01b03811681146102ea575f5ffd5b809150509250929050565b5f60208284031215610305575f5ffd5b81518015158114610314575f5ffd5b9392505050565b60805160a05161617f61035f5f395f6107e101525f818161055d0152818161320901528181613d3f01528181613db2015281816145d7015261464a015261617f5ff3fe608060405260043610610350575f3560e01c80639132e5c3116101bd578063c9fc7bcd116100f2578063ddc28c5811610092578063e8964e811161006d578063e8964e8114610bf5578063ef667aa114610c14578063f2fde38b14610c6a578063f64be4c714610c89575f5ffd5b8063ddc28c5814610b8b578063e1758bd814610bb7578063e4fe1d9414610bc9575f5ffd5b8063d4b4ec8f116100cd578063d4b4ec8f14610ac8578063d70b890214610ae7578063dc706a6214610b06578063dc93c8a214610b34575f5ffd5b8063c9fc7bcd14610a51578063ca5eb5e114610a96578063cb5026b914610ab5575f5ffd5b8063a7229fd91161015d578063aafea31211610138578063aafea312146109d5578063b96a277f146109f4578063c28e0eed14610a13578063c9a54a9914610a32575f5ffd5b8063a7229fd914610978578063a825d74714610997578063aafe5e07146109b6575f5ffd5b80639c6d7340116101985780639c6d7340146108d55780639d7f97751461091b578063a0dd43fc1461093a578063a718531b14610959575f5ffd5b80639132e5c31461088257806391d20fa1146108a35780639535ff30146108b6575f5ffd5b80635b17bb70116102935780636f50a8031161023357806379624ca91161020e57806379624ca9146108035780637cb590121461081b578063861e1ca51461083a5780638da5cb5b14610859575f5ffd5b80636f50a8031461077b578063715018a6146107bc57806373318091146107d0575f5ffd5b80636a14d7151161026e5780636a14d715146106a75780636bf73fa3146106c65780636dbd9f90146106e55780636e83f5bb14610704575f5ffd5b80635b17bb70146105fa5780636750cd4c14610659578063697fe6b614610688575f5ffd5b80632baf0be7116102fe578063402f8468116102d9578063402f8468146104e257806340f806831461052d578063416ecebf1461054c578063587cde1e14610594575f5ffd5b80632baf0be71461043d5780632e80fbf31461047e57806335d330b01461049d575f5ffd5b80632637a4501161032e5780632637a450146103d25780632a56c1b0146103f25780632b3197b914610411575f5ffd5b80630c0c389e1461035457806314f651a914610369578063183c834f146103b3575b5f5ffd5b610367610362366004614fa7565b610cca565b005b348015610374575f5ffd5b5061037d610dea565b6040805163ffffffff909316835273ffffffffffffffffffffffffffffffffffffffff9091166020830152015b60405180910390f35b3480156103be575f5ffd5b506103676103cd366004615054565b610e1a565b6103e56103e036600461509c565b611203565b6040516103aa91906150eb565b3480156103fd575f5ffd5b5061036761040c36600461512d565b611390565b34801561041c575f5ffd5b5061043061042b366004615198565b61144d565b6040516103aa9190615235565b348015610448575f5ffd5b506104707fffffffffffffffffffffffffffffffffffffffffffffffffffffffffffffffff81565b6040519081526020016103aa565b348015610489575f5ffd5b5061036761049836600461525e565b61157d565b3480156104a8575f5ffd5b506104706104b73660046152c0565b600c60209081525f948552604080862082529385528385208152918452828420909152825290205481565b3480156104ed575f5ffd5b506105016104fc3660046152ff565b611778565b6040805173ffffffffffffffffffffffffffffffffffffffff90931683529015156020830152016103aa565b348015610538575f5ffd5b5061036761054736600461525e565b611827565b348015610557575f5ffd5b5061057f7f000000000000000000000000000000000000000000000000000000000000000081565b60405163ffffffff90911681526020016103aa565b34801561059f575f5ffd5b506105d56105ae366004615327565b600f6020525f908152604090205473ffffffffffffffffffffffffffffffffffffffff1681565b60405173ffffffffffffffffffffffffffffffffffffffff90911681526020016103aa565b348015610605575f5ffd5b50610640610614366004615340565b600160209081525f938452604080852082529284528284209052825290205467ffffffffffffffff1681565b60405167ffffffffffffffff90911681526020016103aa565b348015610664575f5ffd5b5061067861067336600461537a565b6119fb565b60405190151581526020016103aa565b348015610693575f5ffd5b506103676106a2366004615393565b611a63565b3480156106b2575f5ffd5b506103676106c1366004615054565b611aff565b3480156106d1575f5ffd5b506103676106e0366004615487565b6120aa565b3480156106f0575f5ffd5b506103676106ff366004615568565b61212e565b34801561070f575f5ffd5b5061074f61071e36600461537a565b600b6020525f90815260409020805460019091015473ffffffffffffffffffffffffffffffffffffffff9091169082565b6040805173ffffffffffffffffffffffffffffffffffffffff90931683526020830191909152016103aa565b348015610786575f5ffd5b506105d561079536600461537a565b600a6020525f908152604090205473ffffffffffffffffffffffffffffffffffffffff1681565b3480156107c7575f5ffd5b50610367612216565b3480156107db575f5ffd5b506105d57f000000000000000000000000000000000000000000000000000000000000000081565b34801561080e575f5ffd5b50600d5460011415610678565b348015610826575f5ffd5b506103676108353660046155f5565b612229565b348015610845575f5ffd5b50610678610854366004615642565b612346565b348015610864575f5ffd5b505f5473ffffffffffffffffffffffffffffffffffffffff166105d5565b34801561088d575f5ffd5b506108966123be565b6040516103aa919061566b565b6103676108b13660046156c3565b61242b565b3480156108c1575f5ffd5b506103676108d036600461576c565b61260e565b3480156108e0575f5ffd5b506106406108ef366004615340565b600360209081525f938452604080852082529284528284209052825290205467ffffffffffffffff1681565b348015610926575f5ffd5b5061067861093536600461576c565b612968565b348015610945575f5ffd5b50610640610954366004615340565b612a70565b348015610964575f5ffd5b506103676109733660046157ac565b612b21565b348015610983575f5ffd5b506103676109923660046157d5565b612fa2565b3480156109a2575f5ffd5b506103676109b13660046157f0565b612fba565b3480156109c1575f5ffd5b506104706109d0366004615340565b61315d565b3480156109e0575f5ffd5b506103676109ef36600461582b565b613285565b3480156109ff575f5ffd5b506105d5610a0e3660046152ff565b613597565b348015610a1e575f5ffd5b50610367610a2d366004615327565b613637565b348015610a3d575f5ffd5b50610678610a4c366004615642565b6136b9565b348015610a5c575f5ffd5b50610470610a6b366004615845565b600260209081525f948552604080862082529385528385208152918452828420909152825290205481565b348015610aa1575f5ffd5b50610367610ab0366004615327565b61372a565b348015610ac0575f5ffd5b506104705f81565b348015610ad3575f5ffd5b50610367610ae23660046157ac565b6137ae565b348015610af2575f5ffd5b50610367610b01366004615845565b613b04565b348015610b11575f5ffd5b50610678610b20366004615327565b60056020525f908152604090205460ff1681565b348015610b3f575f5ffd5b50610678610b4e3660046152ff565b73ffffffffffffffffffffffffffffffffffffffff9182165f90815260066020908152604080832063ffffffff9490941683529290522054161590565b348015610b96575f5ffd5b50610baa610ba536600461509c565b613c33565b6040516103aa9190615884565b348015610bc2575f5ffd5b505f6105d5565b348015610bd4575f5ffd5b50600e546105d59073ffffffffffffffffffffffffffffffffffffffff1681565b348015610c00575f5ffd5b50610367610c0f366004615327565b613f95565b348015610c1f575f5ffd5b5061074f610c2e3660046152ff565b600860209081525f92835260408084209091529082529020805460019091015473ffffffffffffffffffffffffffffffffffffffff9091169082565b348015610c75575f5ffd5b50610367610c84366004615327565b6141b6565b348015610c94575f5ffd5b506105d5610ca336600461537a565b60096020525f908152604090205473ffffffffffffffffffffffffffffffffffffffff1681565b610d1986610cdb60208a018a61537a565b60208a0135610cf060608c0160408d0161589b565b898989604051602001610d05939291906158b4565b604051602081830303815290604052614219565b506040517f13137d6500000000000000000000000000000000000000000000000000000000815273ffffffffffffffffffffffffffffffffffffffff8716906313137d65903490610d7a908b908a908a908a9033908b908b9060040161594e565b5f604051808303818588803b158015610d91575f5ffd5b505af1158015610da3573d5f5f3e3d5ffd5b50505050507f3cd5e48f9730b129dc7550f0fcea9c767b7be37837cd10e55eb35f734f4bca048787604051610dd99291906159b1565b60405180910390a150505050505050565b5f5f610df9600d546001141590565b610e04575f5f610e12565b610e12600d5460a081901c91565b915091509091565b73ffffffffffffffffffffffffffffffffffffffff82165f90815260056020526040902054829060ff16610e7a576040517f378b1de600000000000000000000000000000000000000000000000000000000815260040160405180910390fd5b8273ffffffffffffffffffffffffffffffffffffffff811615610f4d575f8173ffffffffffffffffffffffffffffffffffffffff16631881d94d6040518163ffffffff1660e01b8152600401602060405180830381865afa158015610ee1573d5f5f3e3d5ffd5b505050506040513d601f19601f82011682018060405250810190610f059190615a0f565b6002811115610f1657610f166159e2565b03610f4d576040517f84ead63600000000000000000000000000000000000000000000000000000000815260040160405180910390fd5b838573ffffffffffffffffffffffffffffffffffffffff821615611033576040517f6750cd4c00000000000000000000000000000000000000000000000000000000815263ffffffff8216600482015273ffffffffffffffffffffffffffffffffffffffff831690636750cd4c90602401602060405180830381865afa158015610fd9573d5f5f3e3d5ffd5b505050506040513d601f19601f82011682018060405250810190610ffd9190615a3a565b611033576040517f391daaa400000000000000000000000000000000000000000000000000000000815260040160405180910390fd5b61103c88614498565b5f6110478989611778565b9150508015611082576040517f3c075f7500000000000000000000000000000000000000000000000000000000815260040160405180910390fd5b855f036110ed5773ffffffffffffffffffffffffffffffffffffffff89165f90815260086020908152604080832063ffffffff8c168452909152812080547fffffffffffffffffffffffff000000000000000000000000000000000000000016815560010155611190565b438611611126576040517f05df9f2200000000000000000000000000000000000000000000000000000000815260040160405180910390fd5b73ffffffffffffffffffffffffffffffffffffffff8981165f90815260086020908152604080832063ffffffff8d168452909152902080547fffffffffffffffffffffffff0000000000000000000000000000000000000000169189169190911781556001018690555b6040805173ffffffffffffffffffffffffffffffffffffffff808c16825263ffffffff8b166020830152891691810191909152606081018790527f4e0a5bbfa0c11a64effb1ada324b5437a17272e1aed9320398715ef71bb20928906080015b60405180910390a1505050505050505050565b61120b614eef565b611218602084018461537a565b336001600d5414611255576040517fee120b0900000000000000000000000000000000000000000000000000000000815260040160405180910390fd5b77ffffffff000000000000000000000000000000000000000060a083811b9190911673ffffffffffffffffffffffffffffffffffffffff831617600d556112a190860160808701615a55565b80156112c35750600e5473ffffffffffffffffffffffffffffffffffffffff16155b156112fa576040517f5af6d2aa00000000000000000000000000000000000000000000000000000000815260040160405180910390fd5b5f5f611306338861451b565b915091505f6113123490565b90505f61132d61132860a08b0160808c01615a55565b61481a565b905061133e846040015183836148f1565b600e5460408501516020015161136d9173ffffffffffffffffffffffffffffffffffffffff169083868c614958565b60408401515161137f9083858b614985565b50506001600d555095945050505050565b61139985614498565b5f8383836040516020016113af939291906158b4565b604080517fffffffffffffffffffffffffffffffffffffffffffffffffffffffffffffffe0818403018152919052905061140b866113f0602088018861537a565b602088013561140560608a0160408b0161589b565b85614219565b507f3cd5e48f9730b129dc7550f0fcea9c767b7be37837cd10e55eb35f734f4bca04858760405161143d9291906159b1565b60405180910390a1505050505050565b73ffffffffffffffffffffffffffffffffffffffff83165f90815260056020526040902054606090849060ff166114b0576040517f378b1de600000000000000000000000000000000000000000000000000000000815260040160405180910390fd5b6040517f9c33abf700000000000000000000000000000000000000000000000000000000815263ffffffff808616600483015273ffffffffffffffffffffffffffffffffffffffff88811660248401529085166044830152861690639c33abf7906064015f60405180830381865afa15801561152e573d5f5f3e3d5ffd5b505050506040513d5f823e601f3d9081017fffffffffffffffffffffffffffffffffffffffffffffffffffffffffffffffe01682016040526115739190810190615b46565b9695505050505050565b61158685614498565b73ffffffffffffffffffffffffffffffffffffffff85165f90815260026020908152604080832063ffffffff881684528252808320868452825280832067ffffffffffffffff8616845290915290205481811461161e576040517f7182306f00000000000000000000000000000000000000000000000000000000815260048101829052602481018390526044015b60405180910390fd5b73ffffffffffffffffffffffffffffffffffffffff86165f90815260016020908152604080832063ffffffff89168452825280832087845290915290205467ffffffffffffffff90811690841611801590611677575080155b156116ba576040517fc09b635000000000000000000000000000000000000000000000000000000000815267ffffffffffffffff84166004820152602401611615565b73ffffffffffffffffffffffffffffffffffffffff86165f81815260026020908152604080832063ffffffff8a16808552908352818420898552835281842067ffffffffffffffff8916808652908452938290207fffffffffffffffffffffffffffffffffffffffffffffffffffffffffffffffff905581519081529182018890528101929092526060820152608081018390527faf0450c392c4f702515a457a362328c8aa21916048ca6d0419e248b30cb552929060a00161143d565b73ffffffffffffffffffffffffffffffffffffffff8083165f90815260076020908152604080832063ffffffff8616845290915281205490911690816118205763ffffffff83165f908152600a602052604090205473ffffffffffffffffffffffffffffffffffffffff1691508161181c576040517f78e84d0600000000000000000000000000000000000000000000000000000000815260040160405180910390fd5b5060015b9250929050565b61183085614498565b73ffffffffffffffffffffffffffffffffffffffff85165f90815260026020908152604080832063ffffffff881684528252808320868452825280832067ffffffffffffffff861684529091529020548181146118c3576040517f7182306f0000000000000000000000000000000000000000000000000000000081526004810182905260248101839052604401611615565b80158061191a575073ffffffffffffffffffffffffffffffffffffffff86165f90815260016020908152604080832063ffffffff89168452825280832087845290915290205467ffffffffffffffff908116908416115b1561195d576040517fc09b635000000000000000000000000000000000000000000000000000000000815267ffffffffffffffff84166004820152602401611615565b73ffffffffffffffffffffffffffffffffffffffff86165f81815260026020908152604080832063ffffffff8a16808552908352818420898552835281842067ffffffffffffffff89168086529084528285209490945581519081529182018890528101929092526060820152608081018390527f7f68a37a6e69a0de35024a234558f9efe4b33b58657753d21eaaa82d51c3510e9060a00161143d565b63ffffffff81165f9081526009602052604081205473ffffffffffffffffffffffffffffffffffffffff1615801590611a5d575063ffffffff82165f908152600a602052604090205473ffffffffffffffffffffffffffffffffffffffff1615155b92915050565b3373ffffffffffffffffffffffffffffffffffffffff168b73ffffffffffffffffffffffffffffffffffffffff168d73ffffffffffffffffffffffffffffffffffffffff167f8a0b1dce321c5c5fb42349bce46d18087c04140de520917661fb923e44a904b98d8d8d8d8d8d8d8d8d8d604051611ae99a99989796959493929190615b78565b60405180910390a4505050505050505050505050565b73ffffffffffffffffffffffffffffffffffffffff82165f90815260056020526040902054829060ff16158015611b4b575073ffffffffffffffffffffffffffffffffffffffff811615155b15611b82576040517fa4ff2ec300000000000000000000000000000000000000000000000000000000815260040160405180910390fd5b8273ffffffffffffffffffffffffffffffffffffffff811615611c55575f8173ffffffffffffffffffffffffffffffffffffffff16631881d94d6040518163ffffffff1660e01b8152600401602060405180830381865afa158015611be9573d5f5f3e3d5ffd5b505050506040513d601f19601f82011682018060405250810190611c0d9190615a0f565b6002811115611c1e57611c1e6159e2565b03611c55576040517f84ead63600000000000000000000000000000000000000000000000000000000815260040160405180910390fd5b838573ffffffffffffffffffffffffffffffffffffffff821615611d3b576040517f6750cd4c00000000000000000000000000000000000000000000000000000000815263ffffffff8216600482015273ffffffffffffffffffffffffffffffffffffffff831690636750cd4c90602401602060405180830381865afa158015611ce1573d5f5f3e3d5ffd5b505050506040513d601f19601f82011682018060405250810190611d059190615a3a565b611d3b576040517f391daaa400000000000000000000000000000000000000000000000000000000815260040160405180910390fd5b611d4488614498565b73ffffffffffffffffffffffffffffffffffffffff8089165f90815260076020908152604080832063ffffffff8c16845290915290205481169087168103611db8576040517fd0ecb66b00000000000000000000000000000000000000000000000000000000815260040160405180910390fd5b73ffffffffffffffffffffffffffffffffffffffff8981165f81815260076020908152604080832063ffffffff8e168085529083529281902080547fffffffffffffffffffffffff000000000000000000000000000000000000000016958d1695861790558051938452908301919091528101919091527fcd6f92f5ac6185a5acfa02c92090746cec64d777269cbcd0ed031e396657a1c29060600160405180910390a18515611ff35773ffffffffffffffffffffffffffffffffffffffff81161580611e99575073ffffffffffffffffffffffffffffffffffffffff8716155b15611ed0576040517f3c075f7500000000000000000000000000000000000000000000000000000000815260040160405180910390fd5b5f60405180604001604052808373ffffffffffffffffffffffffffffffffffffffff1681526020018843611f049190615c0d565b905273ffffffffffffffffffffffffffffffffffffffff808c165f90815260086020908152604080832063ffffffff8f1684528252918290208451815494167fffffffffffffffffffffffff00000000000000000000000000000000000000009094169390931783558301516001909201829055519192507f4e0a5bbfa0c11a64effb1ada324b5437a17272e1aed9320398715ef71bb2092891611fe5918d918d91879173ffffffffffffffffffffffffffffffffffffffff948516815263ffffffff93909316602084015292166040820152606081019190915260800190565b60405180910390a15061209f565b73ffffffffffffffffffffffffffffffffffffffff8981165f81815260086020908152604080832063ffffffff8e1680855290835281842080547fffffffffffffffffffffffff00000000000000000000000000000000000000001681556001018490558151948552918401919091529284169282019290925260608101919091527f4e0a5bbfa0c11a64effb1ada324b5437a17272e1aed9320398715ef71bb20928906080016111f0565b505050505050505050565b3373ffffffffffffffffffffffffffffffffffffffff168a73ffffffffffffffffffffffffffffffffffffffff167f7edfa10fe10193301ad8a8bea7e968c7bcabcc64981f368e3aeada40ce26ae2c8d8c8c8c8c8c8c8c8c8c6040516121199a99989796959493929190615c20565b60405180910390a35050505050505050505050565b73ffffffffffffffffffffffffffffffffffffffff83165f90815260056020526040902054839060ff1661218e576040517f378b1de600000000000000000000000000000000000000000000000000000000815260040160405180910390fd5b61219785614498565b6040517f20efd72200000000000000000000000000000000000000000000000000000000815273ffffffffffffffffffffffffffffffffffffffff8516906320efd722906121ed90889087908790600401615c7d565b5f604051808303815f87803b158015612204575f5ffd5b505af115801561209f573d5f5f3e3d5ffd5b61221e6149af565b6122275f614a01565b565b335f908152600c6020908152604080832073ffffffffffffffffffffffffffffffffffffffff891684528252808320878452825280832061ffff87168452909152902054156122a4576040517f1508219400000000000000000000000000000000000000000000000000000000815260040160405180910390fd5b81816040516122b4929190615de0565b60408051918290038220335f818152600c602090815284822073ffffffffffffffffffffffffffffffffffffffff8c16835281528482208a8352815284822061ffff8a168352905292909220557f3d52ff888d033fd3dd1d8057da59e850c91d91a72c41dfa445b247dfedeb6dc191612337919088908890889088908890615def565b60405180910390a15050505050565b73ffffffffffffffffffffffffffffffffffffffff81165f90815260016020908152604082206123b7918591859185906123829085018561537a565b63ffffffff16815260208082019290925260409081015f90812089840135825290925290205467ffffffffffffffff16614a75565b9392505050565b6060600480548060200260200160405190810160405280929190818152602001828054801561242157602002820191905f5260205f20905b815473ffffffffffffffffffffffffffffffffffffffff1681526001909101906020018083116123f6575b5050505050905090565b73ffffffffffffffffffffffffffffffffffffffff8089165f908152600c60209081526040808320938b168352928152828220898352815282822061ffff8916835290528181205491516124829087908790615de0565b604051809103902090508082146124cf576040517f35ca595f0000000000000000000000000000000000000000000000000000000081526004810183905260248101829052604401611615565b73ffffffffffffffffffffffffffffffffffffffff808b165f908152600c60209081526040808320938d168084529382528083208c8452825280832061ffff8c1684529091529081902060019055517fd0a1026000000000000000000000000000000000000000000000000000000000815263d0a10260903490612563908e908d908c908c9033908d908d90600401615e56565b5f604051808303818588803b15801561257a575f5ffd5b505af115801561258c573d5f5f3e3d5ffd5b50505050507e36c98efcf9e6641dfbc9051f66f405253e8e0c2ab4a24dccda15595b7378c88a8a8a8a6040516125fa949392919073ffffffffffffffffffffffffffffffffffffffff9485168152929093166020830152604082015261ffff91909116606082015260800190565b60405180910390a150505050505050505050565b73ffffffffffffffffffffffffffffffffffffffff81165f90815260056020526040902054819060ff1615801561265a575073ffffffffffffffffffffffffffffffffffffffff811615155b15612691576040517fa4ff2ec300000000000000000000000000000000000000000000000000000000815260040160405180910390fd5b8173ffffffffffffffffffffffffffffffffffffffff8116156127655760018173ffffffffffffffffffffffffffffffffffffffff16631881d94d6040518163ffffffff1660e01b8152600401602060405180830381865afa1580156126f9573d5f5f3e3d5ffd5b505050506040513d601f19601f8201168201806040525081019061271d9190615a0f565b600281111561272e5761272e6159e2565b03612765576040517f7a01ede200000000000000000000000000000000000000000000000000000000815260040160405180910390fd5b828473ffffffffffffffffffffffffffffffffffffffff82161561284b576040517f6750cd4c00000000000000000000000000000000000000000000000000000000815263ffffffff8216600482015273ffffffffffffffffffffffffffffffffffffffff831690636750cd4c90602401602060405180830381865afa1580156127f1573d5f5f3e3d5ffd5b505050506040513d601f19601f820116820180604052508101906128159190615a3a565b61284b576040517f391daaa400000000000000000000000000000000000000000000000000000000815260040160405180910390fd5b61285487614498565b73ffffffffffffffffffffffffffffffffffffffff8781165f90815260066020908152604080832063ffffffff8b1684529091529020548187169116036128c7576040517fd0ecb66b00000000000000000000000000000000000000000000000000000000815260040160405180910390fd5b73ffffffffffffffffffffffffffffffffffffffff8781165f81815260066020908152604080832063ffffffff8c168085529083529281902080547fffffffffffffffffffffffff000000000000000000000000000000000000000016958b1695861790558051938452908301919091528101919091527f4cff966ebee29a156dcb34cf72c1d06231fb1777f6bdf6e8089819232f002b1c90606001610dd9565b5f5f5f6129758686611778565b915091508173ffffffffffffffffffffffffffffffffffffffff168473ffffffffffffffffffffffffffffffffffffffff16036129b7576001925050506123b7565b5f816129f75773ffffffffffffffffffffffffffffffffffffffff87165f90815260086020908152604080832063ffffffff8a1684529091529020612a0c565b63ffffffff86165f908152600b602052604090205b60408051808201909152815473ffffffffffffffffffffffffffffffffffffffff90811680835260019093015460208301529092508616148015612a535750438160200151115b15612a6457600193505050506123b7565b505f9695505050505050565b73ffffffffffffffffffffffffffffffffffffffff83165f90815260016020908152604080832063ffffffff86168452825280832084845290915281205467ffffffffffffffff165b73ffffffffffffffffffffffffffffffffffffffff85165f90815260026020908152604080832063ffffffff881684528252808320868452825280832067ffffffffffffffff6001860116845290915290205415612b1957600101612ab9565b949350505050565b612b296149af565b73ffffffffffffffffffffffffffffffffffffffff82165f90815260056020526040902054829060ff16612b89576040517f378b1de600000000000000000000000000000000000000000000000000000000815260040160405180910390fd5b8273ffffffffffffffffffffffffffffffffffffffff811615612c5c575f8173ffffffffffffffffffffffffffffffffffffffff16631881d94d6040518163ffffffff1660e01b8152600401602060405180830381865afa158015612bf0573d5f5f3e3d5ffd5b505050506040513d601f19601f82011682018060405250810190612c149190615a0f565b6002811115612c2557612c256159e2565b03612c5c576040517f84ead63600000000000000000000000000000000000000000000000000000000815260040160405180910390fd5b838573ffffffffffffffffffffffffffffffffffffffff821615612d42576040517f6750cd4c00000000000000000000000000000000000000000000000000000000815263ffffffff8216600482015273ffffffffffffffffffffffffffffffffffffffff831690636750cd4c90602401602060405180830381865afa158015612ce8573d5f5f3e3d5ffd5b505050506040513d601f19601f82011682018060405250810190612d0c9190615a3a565b612d42576040517f391daaa400000000000000000000000000000000000000000000000000000000815260040160405180910390fd5b63ffffffff87165f908152600a602052604090205473ffffffffffffffffffffffffffffffffffffffff9081169087168103612daa576040517fd0ecb66b00000000000000000000000000000000000000000000000000000000815260040160405180910390fd5b63ffffffff88165f818152600a602090815260409182902080547fffffffffffffffffffffffff00000000000000000000000000000000000000001673ffffffffffffffffffffffffffffffffffffffff8c169081179091558251938452908301527fc16891855cffb4a5ac51ac11864a3f3c96ba816cc45fe686c987ae36277de5ec910160405180910390a18515612f015763ffffffff88165f908152600b6020526040902080547fffffffffffffffffffffffff00000000000000000000000000000000000000001673ffffffffffffffffffffffffffffffffffffffff8316178155612e998743615c0d565b600182018190556040805163ffffffff8c16815273ffffffffffffffffffffffffffffffffffffffff8516602082015280820192909252517f55b28633cdb29709386f555dfc54418592ad475ce7a65a78ac5928af60ffb8f89181900360600190a150612f98565b63ffffffff88165f818152600b6020908152604080832080547fffffffffffffffffffffffff0000000000000000000000000000000000000000168155600101839055805193845273ffffffffffffffffffffffffffffffffffffffff8516918401919091528201527f55b28633cdb29709386f555dfc54418592ad475ce7a65a78ac5928af60ffb8f89060600160405180910390a15b5050505050505050565b612faa6149af565b612fb5838383614b1a565b505050565b612fd182612fcb602086018661537a565b33612968565b613007576040517f4fa6ecac00000000000000000000000000000000000000000000000000000000815260040160405180910390fd5b73ffffffffffffffffffffffffffffffffffffffff82165f908152600160209081526040822090829061303c9087018761537a565b63ffffffff16815260208082019290925260409081015f90812087840135825290925290205467ffffffffffffffff169050613079848483614a75565b6130af576040517f751cb20f00000000000000000000000000000000000000000000000000000000815260040160405180910390fd5b6130ba848483614b4a565b6130f0576040517f0177e1ca00000000000000000000000000000000000000000000000000000000815260040160405180910390fd5b61311c83613101602087018761537a565b60208701356131166060890160408a0161589b565b86614c10565b7f0d87345f3d1c929caba93e1c3821b54ff3512e12b66aa3cfe54b6bcbc17e59b484848460405161314f93929190615eba565b60405180910390a150505050565b73ffffffffffffffffffffffffffffffffffffffff83165f90815260036020908152604080832063ffffffff86168452825280832084845290915281205481906131b29067ffffffffffffffff166001615eef565b604080517fffffffffffffffff00000000000000000000000000000000000000000000000060c084901b166020808301919091527fffffffff000000000000000000000000000000000000000000000000000000007f000000000000000000000000000000000000000000000000000000000000000060e090811b8216602885015273ffffffffffffffffffffffffffffffffffffffff8b16602c85015289901b16604c830152605080830188905283518084039091018152607090920190925280519101209091505b95945050505050565b61328d6149af565b73ffffffffffffffffffffffffffffffffffffffff81165f90815260056020526040902054819060ff166132ed576040517f378b1de600000000000000000000000000000000000000000000000000000000815260040160405180910390fd5b8173ffffffffffffffffffffffffffffffffffffffff8116156133c15760018173ffffffffffffffffffffffffffffffffffffffff16631881d94d6040518163ffffffff1660e01b8152600401602060405180830381865afa158015613355573d5f5f3e3d5ffd5b505050506040513d601f19601f820116820180604052508101906133799190615a0f565b600281111561338a5761338a6159e2565b036133c1576040517f7a01ede200000000000000000000000000000000000000000000000000000000815260040160405180910390fd5b828473ffffffffffffffffffffffffffffffffffffffff8216156134a7576040517f6750cd4c00000000000000000000000000000000000000000000000000000000815263ffffffff8216600482015273ffffffffffffffffffffffffffffffffffffffff831690636750cd4c90602401602060405180830381865afa15801561344d573d5f5f3e3d5ffd5b505050506040513d601f19601f820116820180604052508101906134719190615a3a565b6134a7576040517f391daaa400000000000000000000000000000000000000000000000000000000815260040160405180910390fd5b63ffffffff86165f9081526009602052604090205473ffffffffffffffffffffffffffffffffffffffff80871691160361350d576040517fd0ecb66b00000000000000000000000000000000000000000000000000000000815260040160405180910390fd5b63ffffffff86165f8181526009602090815260409182902080547fffffffffffffffffffffffff00000000000000000000000000000000000000001673ffffffffffffffffffffffffffffffffffffffff8a169081179091558251938452908301527f16aa0f528038ab41019e95bae5b418a50ba8532c5800e3b7ea2f517d3fa625f5910161143d565b73ffffffffffffffffffffffffffffffffffffffff8083165f90815260066020908152604080832063ffffffff861684529091529020541680611a5d575063ffffffff81165f9081526009602052604090205473ffffffffffffffffffffffffffffffffffffffff1680611a5d576040517f6c1ccdb500000000000000000000000000000000000000000000000000000000815260040160405180910390fd5b61363f6149af565b600e80547fffffffffffffffffffffffff00000000000000000000000000000000000000001673ffffffffffffffffffffffffffffffffffffffff83169081179091556040519081527fd476ec5ec1ac11cec3714d41e7ea49419471aceb9bd0dff1becfc3e363a62396906020015b60405180910390a150565b73ffffffffffffffffffffffffffffffffffffffff81165f90815260016020908152604082206123b7918591859185906136f59085018561537a565b63ffffffff16815260208082019290925260409081015f90812089840135825290925290205467ffffffffffffffff16614b4a565b335f818152600f602090815260409182902080547fffffffffffffffffffffffff00000000000000000000000000000000000000001673ffffffffffffffffffffffffffffffffffffffff86169081179091558251938452908301527f6ee10e9ed4d6ce9742703a498707862f4b00f1396a87195eb93267b3d798398191016136ae565b73ffffffffffffffffffffffffffffffffffffffff82165f90815260056020526040902054829060ff1661380e576040517f378b1de600000000000000000000000000000000000000000000000000000000815260040160405180910390fd5b8273ffffffffffffffffffffffffffffffffffffffff8116156138e1575f8173ffffffffffffffffffffffffffffffffffffffff16631881d94d6040518163ffffffff1660e01b8152600401602060405180830381865afa158015613875573d5f5f3e3d5ffd5b505050506040513d601f19601f820116820180604052508101906138999190615a0f565b60028111156138aa576138aa6159e2565b036138e1576040517f84ead63600000000000000000000000000000000000000000000000000000000815260040160405180910390fd5b838573ffffffffffffffffffffffffffffffffffffffff8216156139c7576040517f6750cd4c00000000000000000000000000000000000000000000000000000000815263ffffffff8216600482015273ffffffffffffffffffffffffffffffffffffffff831690636750cd4c90602401602060405180830381865afa15801561396d573d5f5f3e3d5ffd5b505050506040513d601f19601f820116820180604052508101906139919190615a3a565b6139c7576040517f391daaa400000000000000000000000000000000000000000000000000000000815260040160405180910390fd5b6139cf6149af565b845f03613a195763ffffffff87165f908152600b6020526040812080547fffffffffffffffffffffffff000000000000000000000000000000000000000016815560010155613aab565b438511613a52576040517f05df9f2200000000000000000000000000000000000000000000000000000000815260040160405180910390fd5b63ffffffff87165f908152600b6020526040902080547fffffffffffffffffffffffff00000000000000000000000000000000000000001673ffffffffffffffffffffffffffffffffffffffff88161781556001018590555b6040805163ffffffff8916815273ffffffffffffffffffffffffffffffffffffffff881660208201529081018690527f55b28633cdb29709386f555dfc54418592ad475ce7a65a78ac5928af60ffb8f890606001610dd9565b613b0d84614498565b613b18848484612a70565b613b23906001615eef565b67ffffffffffffffff168167ffffffffffffffff1614613b7b576040517fc09b635000000000000000000000000000000000000000000000000000000000815267ffffffffffffffff82166004820152602401611615565b73ffffffffffffffffffffffffffffffffffffffff84165f81815260016020908152604080832063ffffffff881680855290835281842087855283529281902080547fffffffffffffffffffffffffffffffffffffffffffffffff00000000000000001667ffffffffffffffff8716908117909155815193845291830186905282019290925260608101919091527f28f40053783033ef755556a0c3315379141f51a33aed8334174ffbadd90bde489060800161314f565b604080518082019091525f8082526020820152613c5660a0840160808501615a55565b8015613c785750600e5473ffffffffffffffffffffffffffffffffffffffff16155b15613caf576040517f5af6d2aa00000000000000000000000000000000000000000000000000000000815260040160405180910390fd5b73ffffffffffffffffffffffffffffffffffffffff82165f9081526003602090815260408220908290613ce49087018761537a565b63ffffffff16815260208082019290925260409081015f908120878401358252909252902054613d1f9067ffffffffffffffff166001615eef565b90505f6040518060e001604052808367ffffffffffffffff1681526020017f000000000000000000000000000000000000000000000000000000000000000063ffffffff1681526020018573ffffffffffffffffffffffffffffffffffffffff168152602001865f016020810190613d97919061537a565b63ffffffff16815260200186602001358152602001613e9e847f0000000000000000000000000000000000000000000000000000000000000000888a5f016020810190613de4919061537a565b8b602001355f858573ffffffffffffffffffffffffffffffffffffffff861660405160c09390931b7fffffffffffffffff00000000000000000000000000000000000000000000000016602084015260e091821b7fffffffff000000000000000000000000000000000000000000000000000000009081166028850152602c8401919091529085901b16604c8201526050810183905260700160405160208183030381529060405280519060200120905095945050505050565b8152602001613eb06040880188615f0f565b8080601f0160208091040260200160405190810160405280939291908181526020018383808284375f92018290525093909452509293509150613efc905085610a0e602089018961537a565b905073ffffffffffffffffffffffffffffffffffffffff811663d80e9bd983613f2860608a018a615f0f565b613f3860a08c0160808d01615a55565b6040518563ffffffff1660e01b8152600401613f579493929190615f70565b6040805180830381865afa158015613f71573d5f5f3e3d5ffd5b505050506040513d601f19601f820116820180604052508101906115739190616071565b613f9d6149af565b6040517f01ffc9a70000000000000000000000000000000000000000000000000000000081527f97f0258400000000000000000000000000000000000000000000000000000000600482015273ffffffffffffffffffffffffffffffffffffffff8216906301ffc9a790602401602060405180830381865afa158015614025573d5f5f3e3d5ffd5b505050506040513d601f19601f820116820180604052508101906140499190615a3a565b61407f576040517feb64f35d00000000000000000000000000000000000000000000000000000000815260040160405180910390fd5b73ffffffffffffffffffffffffffffffffffffffff81165f9081526005602052604090205460ff16156140de576040517f8aea2fe600000000000000000000000000000000000000000000000000000000815260040160405180910390fd5b73ffffffffffffffffffffffffffffffffffffffff81165f81815260056020908152604080832080547fffffffffffffffffffffffffffffffffffffffffffffffffffffffffffffff001660019081179091556004805491820181559093527f8a35acfbc15ff81a39ae7d344fd709f28e8600b4aa8c65c6b64bfe7fe36bd19b90920180547fffffffffffffffffffffffff0000000000000000000000000000000000000000168417905590519182527f6b374d56679ca9463f27c85c6311e2bb7fde69bf201d3da39d53f10bd9d78af591016136ae565b6141be6149af565b73ffffffffffffffffffffffffffffffffffffffff811661420d576040517f1e4fbdf70000000000000000000000000000000000000000000000000000000081525f6004820152602401611615565b61421681614a01565b50565b73ffffffffffffffffffffffffffffffffffffffff85165f90815260016020908152604080832063ffffffff88168452825280832086845290915281205467ffffffffffffffff90811690841681101561439857600181015b8467ffffffffffffffff168167ffffffffffffffff16116143275773ffffffffffffffffffffffffffffffffffffffff88165f90815260026020908152604080832063ffffffff8b1684528252808320898452825280832067ffffffffffffffff8516845290915290205461431f576040517fc09b635000000000000000000000000000000000000000000000000000000000815267ffffffffffffffff82166004820152602401611615565b600101614272565b5073ffffffffffffffffffffffffffffffffffffffff87165f90815260016020908152604080832063ffffffff8a1684528252808320888452909152902080547fffffffffffffffffffffffffffffffffffffffffffffffff00000000000000001667ffffffffffffffff86161790555b825160208085019190912073ffffffffffffffffffffffffffffffffffffffff89165f90815260028352604080822063ffffffff8b1683528452808220898352845280822067ffffffffffffffff891683529093529190912054909250808314614438576040517f7182306f0000000000000000000000000000000000000000000000000000000081526004810182905260248101849052604401611615565b505073ffffffffffffffffffffffffffffffffffffffff9095165f90815260026020908152604080832063ffffffff909716835295815285822094825293845284812067ffffffffffffffff909316815291909252918220919091555090565b3373ffffffffffffffffffffffffffffffffffffffff8216148015906144e4575073ffffffffffffffffffffffffffffffffffffffff8181165f908152600f6020526040902054163314155b15614216576040517fc4c5259300000000000000000000000000000000000000000000000000000000815260040160405180910390fd5b614523614eef565b5f806145b785614536602087018761537a565b73ffffffffffffffffffffffffffffffffffffffff919091165f90815260036020908152604080832063ffffffff94909416835292815282822081890135835290522080547fffffffffffffffffffffffffffffffffffffffffffffffff00000000000000008116600167ffffffffffffffff928316019182161790915590565b90505f6040518060e001604052808367ffffffffffffffff1681526020017f000000000000000000000000000000000000000000000000000000000000000063ffffffff1681526020018773ffffffffffffffffffffffffffffffffffffffff168152602001865f01602081019061462f919061537a565b63ffffffff1681526020018660200135815260200161467c847f00000000000000000000000000000000000000000000000000000000000000008a8a5f016020810190613de4919061537a565b815260200161468e6040880188615f0f565b8080601f0160208091040260200160405190810160405280939291908181526020018383808284375f920182905250939094525092935091506146da905087610a0e602089018961537a565b90505f8073ffffffffffffffffffffffffffffffffffffffff8316634389e58f8561470860608c018c615f0f565b61471860a08e0160808f01615a55565b6040518563ffffffff1660e01b81526004016147379493929190615f70565b5f604051808303815f875af1158015614752573d5f5f3e3d5ffd5b505050506040513d5f823e601f3d9081017fffffffffffffffffffffffffffffffffffffffffffffffffffffffffffffffe0168201604052614797919081019061608b565b90925090507f1ab700d4ced0c005b164c0f789fd09fcbb0156d4c2041b8a3bfbcd961cd1567f816147cb60608b018b615f0f565b866040516147dc94939291906160d7565b60405180910390a1506040805160608101825260a090940151845267ffffffffffffffff909416602084015292820192909252925090509250929050565b5f81156148ec57600e546040517f70a0823100000000000000000000000000000000000000000000000000000000815230600482015273ffffffffffffffffffffffffffffffffffffffff909116906370a0823190602401602060405180830381865afa15801561488d573d5f5f3e3d5ffd5b505050506040513d601f19601f820116820180604052508101906148b19190616124565b9050805f036148ec576040517f1775123700000000000000000000000000000000000000000000000000000000815260040160405180910390fd5b919050565b82518210806149035750808360200151115b15612fb557825160208401516040517f4f3ec0d3000000000000000000000000000000000000000000000000000000008152600481019290925260248201849052604482015260648101829052608401611615565b831561496957614969858386614c9c565b8284101561497e5761497e8582868603614c9c565b5050505050565b8315614995576149958285614d0a565b828410156149a9576149a981858503614d0a565b50505050565b5f5473ffffffffffffffffffffffffffffffffffffffff163314612227576040517f118cdaa7000000000000000000000000000000000000000000000000000000008152336004820152602401611615565b5f805473ffffffffffffffffffffffffffffffffffffffff8381167fffffffffffffffffffffffff0000000000000000000000000000000000000000831681178455604051919092169283917f8be0079c531659141344cd1fd0a4f28419497f9722a3daafe3b4186f6b6457e09190a35050565b5f5f8267ffffffffffffffff161180612b1957506040517fff7bd03d00000000000000000000000000000000000000000000000000000000815273ffffffffffffffffffffffffffffffffffffffff84169063ff7bd03d90614adb90879060040161613b565b602060405180830381865afa158015614af6573d5f5f3e3d5ffd5b505050506040513d601f19601f82011682018060405250810190612b199190615a3a565b73ffffffffffffffffffffffffffffffffffffffff8316614b3f57612fb58282614d0a565b612fb5838383614c9c565b5f67ffffffffffffffff8216614b66606086016040870161589b565b67ffffffffffffffff161180612b19575073ffffffffffffffffffffffffffffffffffffffff83165f9081526002602090815260408220908290614bac9088018861537a565b63ffffffff1663ffffffff1681526020019081526020015f205f866020013581526020019081526020015f205f866040016020810190614bec919061589b565b67ffffffffffffffff16815260208101919091526040015f20541415949350505050565b80614c47576040517f09beffb600000000000000000000000000000000000000000000000000000000815260040160405180910390fd5b73ffffffffffffffffffffffffffffffffffffffff9094165f90815260026020908152604080832063ffffffff909616835294815284822093825292835283812067ffffffffffffffff909216815291522055565b73ffffffffffffffffffffffffffffffffffffffff8216614ce9576040517f6b7a931000000000000000000000000000000000000000000000000000000000815260040160405180910390fd5b612fb573ffffffffffffffffffffffffffffffffffffffff84168383614e0c565b73ffffffffffffffffffffffffffffffffffffffff8216614d57576040517f6b7a931000000000000000000000000000000000000000000000000000000000815260040160405180910390fd5b5f8273ffffffffffffffffffffffffffffffffffffffff16826040515f6040518083038185875af1925050503d805f8114614dad576040519150601f19603f3d011682016040523d82523d5f602084013e614db2565b606091505b5050905080612fb5576040517f465bc83400000000000000000000000000000000000000000000000000000000815273ffffffffffffffffffffffffffffffffffffffff8416600482015260248101839052604401611615565b614e198383836001614e67565b612fb5576040517f5274afe700000000000000000000000000000000000000000000000000000000815273ffffffffffffffffffffffffffffffffffffffff84166004820152602401611615565b6040517fa9059cbb000000000000000000000000000000000000000000000000000000005f81815273ffffffffffffffffffffffffffffffffffffffff8616600452602485905291602083604481808b5af1925060015f51148316614ee3578383151615614ed7573d5f823e3d81fd5b5f873b113d1516831692505b60405250949350505050565b60405180606001604052805f81526020015f67ffffffffffffffff168152602001614f2b60405180604001604052805f81526020015f81525090565b905290565b5f60608284031215614f40575f5ffd5b50919050565b803573ffffffffffffffffffffffffffffffffffffffff811681146148ec575f5ffd5b5f5f83601f840112614f79575f5ffd5b50813567ffffffffffffffff811115614f90575f5ffd5b602083019150836020828501011115611820575f5ffd5b5f5f5f5f5f5f5f60e0888a031215614fbd575f5ffd5b614fc78989614f30565b9650614fd560608901614f46565b95506080880135945060a088013567ffffffffffffffff811115614ff7575f5ffd5b6150038a828b01614f69565b90955093505060c088013567ffffffffffffffff811115615022575f5ffd5b61502e8a828b01614f69565b989b979a50959850939692959293505050565b803563ffffffff811681146148ec575f5ffd5b5f5f5f5f60808587031215615067575f5ffd5b61507085614f46565b935061507e60208601615041565b925061508c60408601614f46565b9396929550929360600135925050565b5f5f604083850312156150ad575f5ffd5b823567ffffffffffffffff8111156150c3575f5ffd5b830160a081860312156150d4575f5ffd5b91506150e260208401614f46565b90509250929050565b5f6080820190508251825267ffffffffffffffff60208401511660208301526040830151615126604084018280518252602090810151910152565b5092915050565b5f5f5f5f5f60c08688031215615141575f5ffd5b61514a86614f46565b94506151598760208801614f30565b93506080860135925060a086013567ffffffffffffffff81111561517b575f5ffd5b61518788828901614f69565b969995985093965092949392505050565b5f5f5f5f608085870312156151ab575f5ffd5b6151b485614f46565b93506151c260208601614f46565b92506151d060408601615041565b91506151de60608601615041565b905092959194509250565b5f81518084528060208401602086015e5f6020828601015260207fffffffffffffffffffffffffffffffffffffffffffffffffffffffffffffffe0601f83011685010191505092915050565b602081525f6123b760208301846151e9565b803567ffffffffffffffff811681146148ec575f5ffd5b5f5f5f5f5f60a08688031215615272575f5ffd5b61527b86614f46565b945061528960208701615041565b93506040860135925061529e60608701615247565b949793965091946080013592915050565b803561ffff811681146148ec575f5ffd5b5f5f5f5f608085870312156152d3575f5ffd5b6152dc85614f46565b93506152ea60208601614f46565b9250604085013591506151de606086016152af565b5f5f60408385031215615310575f5ffd5b61531983614f46565b91506150e260208401615041565b5f60208284031215615337575f5ffd5b6123b782614f46565b5f5f5f60608486031215615352575f5ffd5b61535b84614f46565b925061536960208501615041565b929592945050506040919091013590565b5f6020828403121561538a575f5ffd5b6123b782615041565b5f5f5f5f5f5f5f5f5f5f5f5f6101208d8f0312156153af575f5ffd5b6153b88d614f46565b9b506153c660208e01614f46565b9a5060408d013599506153db60608e016152af565b985060808d0135975060a08d0135965067ffffffffffffffff60c08e01351115615403575f5ffd5b6154138e60c08f01358f01614f69565b909650945067ffffffffffffffff60e08e01351115615430575f5ffd5b6154408e60e08f01358f01614f69565b909450925067ffffffffffffffff6101008e0135111561545e575f5ffd5b61546f8e6101008f01358f01614f69565b81935080925050509295989b509295989b509295989b565b5f5f5f5f5f5f5f5f5f5f5f6101408c8e0312156154a2575f5ffd5b6154ac8d8d614f30565b9a506154ba60608d01614f46565b995060808c0135985060a08c0135975060c08c0135965060e08c013567ffffffffffffffff8111156154ea575f5ffd5b6154f68e828f01614f69565b9097509550506101008c013567ffffffffffffffff811115615516575f5ffd5b6155228e828f01614f69565b9095509350506101208c013567ffffffffffffffff811115615542575f5ffd5b61554e8e828f01614f69565b915080935050809150509295989b509295989b9093969950565b5f5f5f5f6060858703121561557b575f5ffd5b61558485614f46565b935061559260208601614f46565b9250604085013567ffffffffffffffff8111156155ad575f5ffd5b8501601f810187136155bd575f5ffd5b803567ffffffffffffffff8111156155d3575f5ffd5b8760208260051b84010111156155e7575f5ffd5b949793965060200194505050565b5f5f5f5f5f60808688031215615609575f5ffd5b61561286614f46565b945060208601359350615627604087016152af565b9250606086013567ffffffffffffffff81111561517b575f5ffd5b5f5f60808385031215615653575f5ffd5b61565d8484614f30565b91506150e260608401614f46565b602080825282518282018190525f918401906040840190835b818110156156b857835173ffffffffffffffffffffffffffffffffffffffff16835260209384019390920191600101615684565b509095945050505050565b5f5f5f5f5f5f5f5f60c0898b0312156156da575f5ffd5b6156e389614f46565b97506156f160208a01614f46565b96506040890135955061570660608a016152af565b9450608089013567ffffffffffffffff811115615721575f5ffd5b61572d8b828c01614f69565b90955093505060a089013567ffffffffffffffff81111561574c575f5ffd5b6157588b828c01614f69565b999c989b5096995094979396929594505050565b5f5f5f6060848603121561577e575f5ffd5b61578784614f46565b925061579560208501615041565b91506157a360408501614f46565b90509250925092565b5f5f5f606084860312156157be575f5ffd5b6157c784615041565b925061536960208501614f46565b5f5f5f606084860312156157e7575f5ffd5b6157c784614f46565b5f5f5f60a08486031215615802575f5ffd5b61580c8585614f30565b925061581a60608501614f46565b929592945050506080919091013590565b5f5f6040838503121561583c575f5ffd5b6150d483615041565b5f5f5f5f60808587031215615858575f5ffd5b61586185614f46565b935061586f60208601615041565b9250604085013591506151de60608601615247565b815181526020808301519082015260408101611a5d565b5f602082840312156158ab575f5ffd5b6123b782615247565b838152818360208301375f910160200190815292915050565b63ffffffff6158db82615041565b1682526020818101359083015267ffffffffffffffff6158fd60408301615247565b1660408301525050565b81835281816020850137505f602082840101525f60207fffffffffffffffffffffffffffffffffffffffffffffffffffffffffffffffe0601f840116840101905092915050565b61595881896158cd565b86606082015260e060808201525f61597460e083018789615907565b73ffffffffffffffffffffffffffffffffffffffff861660a084015282810360c08401526159a3818587615907565b9a9950505050505050505050565b608081016159bf82856158cd565b73ffffffffffffffffffffffffffffffffffffffff831660608301529392505050565b7f4e487b71000000000000000000000000000000000000000000000000000000005f52602160045260245ffd5b5f60208284031215615a1f575f5ffd5b8151600381106123b7575f5ffd5b8015158114614216575f5ffd5b5f60208284031215615a4a575f5ffd5b81516123b781615a2d565b5f60208284031215615a65575f5ffd5b81356123b781615a2d565b7f4e487b71000000000000000000000000000000000000000000000000000000005f52604160045260245ffd5b5f82601f830112615aac575f5ffd5b815167ffffffffffffffff811115615ac657615ac6615a70565b604051601f82017fffffffffffffffffffffffffffffffffffffffffffffffffffffffffffffffe0908116603f0116810167ffffffffffffffff81118282101715615b1357615b13615a70565b604052818152838201602001851015615b2a575f5ffd5b8160208501602083015e5f918101602001919091529392505050565b5f60208284031215615b56575f5ffd5b815167ffffffffffffffff811115615b6c575f5ffd5b612b1984828501615a9d565b8a815261ffff8a16602082015288604082015287606082015260e060808201525f615ba760e08301888a615907565b82810360a0840152615bba818789615907565b905082810360c0840152615bcf818587615907565b9d9c50505050505050505050505050565b7f4e487b71000000000000000000000000000000000000000000000000000000005f52601160045260245ffd5b80820180821115611a5d57611a5d615be0565b615c2a818c6158cd565b8960608201528860808201528760a082015261012060c08201525f615c546101208301888a615907565b82810360e0840152615c67818789615907565b9050828103610100840152615bcf818587615907565b5f6040820173ffffffffffffffffffffffffffffffffffffffff86168352604060208401528084825260608401905060608560051b8501019150855f7fffffffffffffffffffffffffffffffffffffffffffffffffffffffffffffffa1883603015b87821015615dd2577fffffffffffffffffffffffffffffffffffffffffffffffffffffffffffffffa08786030184528235818112615d1b575f5ffd5b890163ffffffff615d2b82615041565b16865263ffffffff615d3f60208301615041565b16602087015260408101357fffffffffffffffffffffffffffffffffffffffffffffffffffffffffffffffe1823603018112615d79575f5ffd5b0160208101903567ffffffffffffffff811115615d94575f5ffd5b803603821315615da2575f5ffd5b60606040880152615db7606088018284615907565b96505050602083019250602084019350600182019150615cdf565b509298975050505050505050565b818382375f9101908152919050565b73ffffffffffffffffffffffffffffffffffffffff8716815273ffffffffffffffffffffffffffffffffffffffff8616602082015284604082015261ffff8416606082015260a060808201525f615e4a60a083018486615907565b98975050505050505050565b73ffffffffffffffffffffffffffffffffffffffff8816815286602082015260a060408201525f615e8b60a083018789615907565b73ffffffffffffffffffffffffffffffffffffffff8616606084015282810360808401526159a3818587615907565b60a08101615ec882866158cd565b73ffffffffffffffffffffffffffffffffffffffff93909316606082015260800152919050565b67ffffffffffffffff8181168382160190811115611a5d57611a5d615be0565b5f5f83357fffffffffffffffffffffffffffffffffffffffffffffffffffffffffffffffe1843603018112615f42575f5ffd5b83018035915067ffffffffffffffff821115615f5c575f5ffd5b602001915036819003821315611820575f5ffd5b6060815267ffffffffffffffff855116606082015263ffffffff602086015116608082015273ffffffffffffffffffffffffffffffffffffffff60408601511660a08201525f6060860151615fcd60c084018263ffffffff169052565b50608086015160e083015260a086015161010083015260c086015160e0610120840152615ffe6101408401826151e9565b90508281036020840152616013818688615907565b91505061327c604083018415159052565b5f60408284031215616034575f5ffd5b6040805190810167ffffffffffffffff8111828210171561605757616057615a70565b604052825181526020928301519281019290925250919050565b5f60408284031215616081575f5ffd5b6123b78383616024565b5f5f6060838503121561609c575f5ffd5b6160a68484616024565b9150604083015167ffffffffffffffff8111156160c1575f5ffd5b6160cd85828601615a9d565b9150509250929050565b606081525f6160e960608301876151e9565b82810360208401526160fc818688615907565b91505073ffffffffffffffffffffffffffffffffffffffff8316604083015295945050505050565b5f60208284031215616134575f5ffd5b5051919050565b60608101611a5d82846158cd56fea26469706673582212201eae4ee4d98c060ebce9ef5fb3d657b798dba8f0b5d4842f8adbbc224b1b9ee164736f6c634300081e00336080604052348015600e575f5ffd5b506102648061001c5f395ff3fe608060405234801561000f575f5ffd5b506004361061004a575f3560e01c806301ffc9a71461007c5780631881d94d146100a457806354fd4d50146100b35780636750cd4c146100da575b6040517f2657b6c300000000000000000000000000000000000000000000000000000000815260040160405180910390fd5b61008f61008a366004610186565b6100ee565b60405190151581526020015b60405180910390f35b600260405161009b91906101cc565b6040805167ffffffffffffffff815260ff602082015260029181019190915260600161009b565b61008f6100e836600461020b565b50600190565b5f7fffffffff0000000000000000000000000000000000000000000000000000000082167f97f0258400000000000000000000000000000000000000000000000000000000148061018057507f01ffc9a7000000000000000000000000000000000000000000000000000000007fffffffff000000000000000000000000000000000000000000000000000000008316145b92915050565b5f60208284031215610196575f5ffd5b81357fffffffff00000000000000000000000000000000000000000000000000000000811681146101c5575f5ffd5b9392505050565b6020810160038310610205577f4e487b71000000000000000000000000000000000000000000000000000000005f52602160045260245ffd5b91905290565b5f6020828403121561021b575f5ffd5b813563ffffffff811681146101c5575f5ffdfea26469706673582212208ddc081306730fec3cbfbad24b6405c105b609743a41e6b93a31135451793d4564736f6c634300081e0033","linkReferences":{}},"methodIdentifiers":{"EMPTY_PAYLOAD_HASH()":"cb5026b9","NIL_PAYLOAD_HASH()":"2baf0be7","blockedLibrary()":"73318091","burn(address,uint32,bytes32,uint64,bytes32)":"40f80683","clear(address,(uint32,bytes32,uint64),bytes32,bytes)":"2a56c1b0","composeQueue(address,address,bytes32,uint16)":"35d330b0","defaultReceiveLibrary(uint32)":"6f50a803","defaultReceiveLibraryTimeout(uint32)":"6e83f5bb","defaultSendLibrary(uint32)":"f64be4c7","delegates(address)":"587cde1e","eid()":"416ecebf","getConfig(address,address,uint32,uint32)":"2b3197b9","getReceiveLibrary(address,uint32)":"402f8468","getRegisteredLibraries()":"9132e5c3","getSendContext()":"14f651a9","getSendLibrary(address,uint32)":"b96a277f","inboundNonce(address,uint32,bytes32)":"a0dd43fc","inboundPayloadHash(address,uint32,bytes32,uint64)":"c9fc7bcd","initializable((uint32,bytes32,uint64),address)":"861e1ca5","isDefaultSendLibrary(address,uint32)":"dc93c8a2","isRegisteredLibrary(address)":"dc706a62","isSendingMessage()":"79624ca9","isSupportedEid(uint32)":"6750cd4c","isValidReceiveLibrary(address,uint32,address)":"9d7f9775","lazyInboundNonce(address,uint32,bytes32)":"5b17bb70","lzCompose(address,address,bytes32,uint16,bytes,bytes)":"91d20fa1","lzComposeAlert(address,address,bytes32,uint16,uint256,uint256,bytes,bytes,bytes)":"697fe6b6","lzReceive((uint32,bytes32,uint64),address,bytes32,bytes,bytes)":"0c0c389e","lzReceiveAlert((uint32,bytes32,uint64),address,bytes32,uint256,uint256,bytes,bytes,bytes)":"6bf73fa3","lzToken()":"e4fe1d94","nativeToken()":"e1758bd8","nextGuid(address,uint32,bytes32)":"aafe5e07","nilify(address,uint32,bytes32,uint64,bytes32)":"2e80fbf3","outboundNonce(address,uint32,bytes32)":"9c6d7340","owner()":"8da5cb5b","quote((uint32,bytes32,bytes,bytes,bool),address)":"ddc28c58","receiveLibraryTimeout(address,uint32)":"ef667aa1","recoverToken(address,address,uint256)":"a7229fd9","registerLibrary(address)":"e8964e81","renounceOwnership()":"715018a6","send((uint32,bytes32,bytes,bytes,bool),address)":"2637a450","sendCompose(address,bytes32,uint16,bytes)":"7cb59012","setConfig(address,address,(uint32,uint32,bytes)[])":"6dbd9f90","setDefaultReceiveLibrary(uint32,address,uint256)":"a718531b","setDefaultReceiveLibraryTimeout(uint32,address,uint256)":"d4b4ec8f","setDefaultSendLibrary(uint32,address)":"aafea312","setDelegate(address)":"ca5eb5e1","setLzToken(address)":"c28e0eed","setReceiveLibrary(address,uint32,address,uint256)":"6a14d715","setReceiveLibraryTimeout(address,uint32,address,uint256)":"183c834f","setSendLibrary(address,uint32,address)":"9535ff30","skip(address,uint32,bytes32,uint64)":"d70b8902","transferOwnership(address)":"f2fde38b","verifiable((uint32,bytes32,uint64),address)":"c9a54a99","verify((uint32,bytes32,uint64),address,bytes32)":"a825d747"},"id":59}