{"abi":[{"type":"constructor","inputs":[{"name":"name","type":"string","internalType":"string"},{"name":"symbol","type":"string","internalType":"string"},{"name":"decimals_","type":"uint8","internalType":"uint8"}],"stateMutability":"nonpayable"},{"type":"function","name":"DOMAIN_SEPARATOR","inputs":[],"outputs":[{"name":"","type":"bytes32","internalType":"bytes32"}],"stateMutability":"view"},{"type":"function","name":"allowance","inputs":[{"name":"owner","type":"address","internalType":"address"},{"name":"spender","type":"address","internalType":"address"}],"outputs":[{"name":"","type":"uint256","internalType":"uint256"}],"stateMutability":"view"},{"type":"function","name":"approve","inputs":[{"name":"spender","type":"address","internalType":"address"},{"name":"value","type":"uint256","internalType":"uint256"}],"outputs":[{"name":"","type":"bool","internalType":"bool"}],"stateMutability":"nonpayable"},{"type":"function","name":"balanceOf","inputs":[{"name":"account","type":"address","internalType":"address"}],"outputs":[{"name":"","type":"uint256","internalType":"uint256"}],"stateMutability":"view"},{"type":"function","name":"burn","inputs":[{"name":"account","type":"address","internalType":"address"},{"name":"amount","type":"uint256","internalType":"uint256"}],"outputs":[],"stateMutability":"nonpayable"},{"type":"function","name":"decimals","inputs":[],"outputs":[{"name":"","type":"uint8","internalType":"uint8"}],"stateMutability":"view"},{"type":"function","name":"eip712Domain","inputs":[],"outputs":[{"name":"fields","type":"bytes1","internalType":"bytes1"},{"name":"name","type":"string","internalType":"string"},{"name":"version","type":"string","internalType":"string"},{"name":"chainId","type":"uint256","internalType":"uint256"},{"name":"verifyingContract","type":"address","internalType":"address"},{"name":"salt","type":"bytes32","internalType":"bytes32"},{"name":"extensions","type":"uint256[]","internalType":"uint256[]"}],"stateMutability":"view"},{"type":"function","name":"mint","inputs":[{"name":"account","type":"address","internalType":"address"},{"name":"amount","type":"uint256","internalType":"uint256"}],"outputs":[],"stateMutability":"nonpayable"},{"type":"function","name":"name","inputs":[],"outputs":[{"name":"","type":"string","internalType":"string"}],"stateMutability":"view"},{"type":"function","name":"nonces","inputs":[{"name":"owner","type":"address","internalType":"address"}],"outputs":[{"name":"","type":"uint256","internalType":"uint256"}],"stateMutability":"view"},{"type":"function","name":"permit","inputs":[{"name":"owner","type":"address","internalType":"address"},{"name":"spender","type":"address","internalType":"address"},{"name":"value","type":"uint256","internalType":"uint256"},{"name":"deadline","type":"uint256","internalType":"uint256"},{"name":"v","type":"uint8","internalType":"uint8"},{"name":"r","type":"bytes32","internalType":"bytes32"},{"name":"s","type":"bytes32","internalType":"bytes32"}],"outputs":[],"stateMutability":"nonpayable"},{"type":"function","name":"symbol","inputs":[],"outputs":[{"name":"","type":"string","internalType":"string"}],"stateMutability":"view"},{"type":"function","name":"test","inputs":[],"outputs":[],"stateMutability":"nonpayable"},{"type":"function","name":"totalSupply","inputs":[],"outputs":[{"name":"","type":"uint256","internalType":"uint256"}],"stateMutability":"view"},{"type":"function","name":"transfer","inputs":[{"name":"to","type":"address","internalType":"address"},{"name":"value","type":"uint256","internalType":"uint256"}],"outputs":[{"name":"","type":"bool","internalType":"bool"}],"stateMutability":"nonpayable"},{"type":"function","name":"transferFrom","inputs":[{"name":"from","type":"address","internalType":"address"},{"name":"to","type":"address","internalType":"address"},{"name":"value","type":"uint256","internalType":"uint256"}],"outputs":[{"name":"","type":"bool","internalType":"bool"}],"stateMutability":"nonpayable"},{"type":"event","name":"Approval","inputs":[{"name":"owner","type":"address","indexed":true,"internalType":"address"},{"name":"spender","type":"address","indexed":true,"internalType":"address"},{"name":"value","type":"uint256","indexed":false,"internalType":"uint256"}],"anonymous":false},{"type":"event","name":"EIP712DomainChanged","inputs":[],"anonymous":false},{"type":"event","name":"Transfer","inputs":[{"name":"from","type":"address","indexed":true,"internalType":"address"},{"name":"to","type":"address","indexed":true,"internalType":"address"},{"name":"value","type":"uint256","indexed":false,"internalType":"uint256"}],"anonymous":false},{"type":"error","name":"ECDSAInvalidSignature","inputs":[]},{"type":"error","name":"ECDSAInvalidSignatureLength","inputs":[{"name":"length","type":"uint256","internalType":"uint256"}]},{"type":"error","name":"ECDSAInvalidSignatureS","inputs":[{"name":"s","type":"bytes32","internalType":"bytes32"}]},{"type":"error","name":"ERC20InsufficientAllowance","inputs":[{"name":"spender","type":"address","internalType":"address"},{"name":"allowance","type":"uint256","internalType":"uint256"},{"name":"needed","type":"uint256","internalType":"uint256"}]},{"type":"error","name":"ERC20InsufficientBalance","inputs":[{"name":"sender","type":"address","internalType":"address"},{"name":"balance","type":"uint256","internalType":"uint256"},{"name":"needed","type":"uint256","internalType":"uint256"}]},{"type":"error","name":"ERC20InvalidApprover","inputs":[{"name":"approver","type":"address","internalType":"address"}]},{"type":"error","name":"ERC20InvalidReceiver","inputs":[{"name":"receiver","type":"address","internalType":"address"}]},{"type":"error","name":"ERC20InvalidSender","inputs":[{"name":"sender","type":"address","internalType":"address"}]},{"type":"error","name":"ERC20InvalidSpender","inputs":[{"name":"spender","type":"address","internalType":"address"}]},{"type":"error","name":"ERC2612ExpiredSignature","inputs":[{"name":"deadline","type":"uint256","internalType":"uint256"}]},{"type":"error","name":"ERC2612InvalidSigner","inputs":[{"name":"signer","type":"address","internalType":"address"},{"name":"owner","type":"address","internalType":"address"}]},{"type":"error","name":"InvalidAccountNonce","inputs":[{"name":"account","type":"address","internalType":"address"},{"name":"currentNonce","type":"uint256","internalType":"uint256"}]},{"type":"error","name":"InvalidShortString","inputs":[]},{"type":"error","name":"StringTooLong","inputs":[{"name":"str","type":"string","internalType":"string"}]}],"bytecode":{"object":"0x610180604052348015610010575f5ffd5b5060405161182638038061182683398101604081905261002f9161023f565b6040805180820190915260018152603160f81b602082015283908190818560036100598382610340565b5060046100668282610340565b506100769150839050600561012a565b6101205261008581600661012a565b61014052815160208084019190912060e052815190820120610100524660a05261011160e05161010051604080517f8b73c3c69bb8fe3d512ecc4cf759cc79239f7b179b0ffacaa9a75d522b39400f60208201529081019290925260608201524660808201523060a08201525f9060c00160405160208183030381529060405280519060200120905090565b60805250503060c0525060ff1661016052506104529050565b5f6020835110156101455761013e8361015c565b9050610156565b816101508482610340565b5060ff90505b92915050565b5f5f829050601f8151111561018f578260405163305a27a960e01b815260040161018691906103fa565b60405180910390fd5b805161019a8261042f565b179392505050565b634e487b7160e01b5f52604160045260245ffd5b5f82601f8301126101c5575f5ffd5b81516001600160401b038111156101de576101de6101a2565b604051601f8201601f19908116603f011681016001600160401b038111828210171561020c5761020c6101a2565b604052818152838201602001851015610223575f5ffd5b8160208501602083015e5f918101602001919091529392505050565b5f5f5f60608486031215610251575f5ffd5b83516001600160401b03811115610266575f5ffd5b610272868287016101b6565b602086015190945090506001600160401b0381111561028f575f5ffd5b61029b868287016101b6565b925050604084015160ff811681146102b1575f5ffd5b809150509250925092565b600181811c908216806102d057607f821691505b6020821081036102ee57634e487b7160e01b5f52602260045260245ffd5b50919050565b601f82111561033b57805f5260205f20601f840160051c810160208510156103195750805b601f840160051c820191505b81811015610338575f8155600101610325565b50505b505050565b81516001600160401b03811115610359576103596101a2565b61036d8161036784546102bc565b846102f4565b6020601f82116001811461039f575f83156103885750848201515b5f19600385901b1c1916600184901b178455610338565b5f84815260208120601f198516915b828110156103ce57878501518255602094850194600190920191016103ae565b50848210156103eb57868401515f19600387901b60f8161c191681555b50505050600190811b01905550565b602081525f82518060208401528060208501604085015e5f604082850101526040601f19601f83011684010191505092915050565b805160208083015191908110156102ee575f1960209190910360031b1b16919050565b60805160a05160c05160e051610100516101205161014051610160516113796104ad5f395f61016c01525f61092d01525f61090001525f61084f01525f61082701525f61078201525f6107ac01525f6107d601526113795ff3fe608060405234801561000f575f5ffd5b50600436106100fb575f3560e01c80637ecebe0011610093578063a9059cbb11610063578063a9059cbb14610231578063d505accf14610244578063dd62ed3e14610257578063f8a8fd6d146101b1575f5ffd5b80637ecebe00146101e857806384b0196e146101fb57806395d89b41146102165780639dc29fac1461021e575f5ffd5b8063313ce567116100ce578063313ce567146101655780633644e5151461019657806340c10f191461019e57806370a08231146101b3575f5ffd5b806306fdde03146100ff578063095ea7b31461011d57806318160ddd1461014057806323b872dd14610152575b5f5ffd5b61010761029c565b6040516101149190611074565b60405180910390f35b61013061012b3660046110b5565b61032c565b6040519015158152602001610114565b6002545b604051908152602001610114565b6101306101603660046110dd565b610345565b60405160ff7f0000000000000000000000000000000000000000000000000000000000000000168152602001610114565b610144610368565b6101b16101ac3660046110b5565b610376565b005b6101446101c1366004611117565b73ffffffffffffffffffffffffffffffffffffffff165f9081526020819052604090205490565b6101446101f6366004611117565b610384565b6102036103ae565b6040516101149796959493929190611130565b61010761040c565b6101b161022c3660046110b5565b61041b565b61013061023f3660046110b5565b610425565b6101b16102523660046111ef565b610432565b61014461026536600461125c565b73ffffffffffffffffffffffffffffffffffffffff9182165f90815260016020908152604080832093909416825291909152205490565b6060600380546102ab9061128d565b80601f01602080910402602001604051908101604052809291908181526020018280546102d79061128d565b80156103225780601f106102f957610100808354040283529160200191610322565b820191905f5260205f20905b81548152906001019060200180831161030557829003601f168201915b5050505050905090565b5f336103398185856105e0565b60019150505b92915050565b5f336103528582856105f2565b61035d8585856106c0565b506001949350505050565b5f610371610769565b905090565b610380828261089f565b5050565b73ffffffffffffffffffffffffffffffffffffffff81165f9081526007602052604081205461033f565b5f6060805f5f5f60606103bf6108f9565b6103c7610926565b604080515f808252602082019092527f0f000000000000000000000000000000000000000000000000000000000000009b939a50919850469750309650945092509050565b6060600480546102ab9061128d565b6103808282610953565b5f336103398185856106c0565b83421115610474576040517f62791302000000000000000000000000000000000000000000000000000000008152600481018590526024015b60405180910390fd5b5f7f6e71edae12b1b97f4d1f60370fef10105fa2faae0126114a169c64845d6126c98888886104cc8c73ffffffffffffffffffffffffffffffffffffffff165f90815260076020526040902080546001810190915590565b60408051602081019690965273ffffffffffffffffffffffffffffffffffffffff94851690860152929091166060840152608083015260a082015260c0810186905260e0016040516020818303038152906040528051906020012090505f610533826109ad565b90505f610542828787876109f4565b90508973ffffffffffffffffffffffffffffffffffffffff168173ffffffffffffffffffffffffffffffffffffffff16146105c9576040517f4b800e4600000000000000000000000000000000000000000000000000000000815273ffffffffffffffffffffffffffffffffffffffff80831660048301528b16602482015260440161046b565b6105d48a8a8a6105e0565b50505050505050505050565b6105ed8383836001610a20565b505050565b73ffffffffffffffffffffffffffffffffffffffff8381165f908152600160209081526040808320938616835292905220547fffffffffffffffffffffffffffffffffffffffffffffffffffffffffffffffff8110156106ba57818110156106ac576040517ffb8f41b200000000000000000000000000000000000000000000000000000000815273ffffffffffffffffffffffffffffffffffffffff84166004820152602481018290526044810183905260640161046b565b6106ba84848484035f610a20565b50505050565b73ffffffffffffffffffffffffffffffffffffffff831661070f576040517f96c6fd1e0000000000000000000000000000000000000000000000000000000081525f600482015260240161046b565b73ffffffffffffffffffffffffffffffffffffffff821661075e576040517fec442f050000000000000000000000000000000000000000000000000000000081525f600482015260240161046b565b6105ed838383610b65565b5f3073ffffffffffffffffffffffffffffffffffffffff7f0000000000000000000000000000000000000000000000000000000000000000161480156107ce57507f000000000000000000000000000000000000000000000000000000000000000046145b156107f857507f000000000000000000000000000000000000000000000000000000000000000090565b610371604080517f8b73c3c69bb8fe3d512ecc4cf759cc79239f7b179b0ffacaa9a75d522b39400f60208201527f0000000000000000000000000000000000000000000000000000000000000000918101919091527f000000000000000000000000000000000000000000000000000000000000000060608201524660808201523060a08201525f9060c00160405160208183030381529060405280519060200120905090565b73ffffffffffffffffffffffffffffffffffffffff82166108ee576040517fec442f050000000000000000000000000000000000000000000000000000000081525f600482015260240161046b565b6103805f8383610b65565b60606103717f00000000000000000000000000000000000000000000000000000000000000006005610d0c565b60606103717f00000000000000000000000000000000000000000000000000000000000000006006610d0c565b73ffffffffffffffffffffffffffffffffffffffff82166109a2576040517f96c6fd1e0000000000000000000000000000000000000000000000000000000081525f600482015260240161046b565b610380825f83610b65565b5f61033f6109b9610769565b836040517f19010000000000000000000000000000000000000000000000000000000000008152600281019290925260228201526042902090565b5f5f5f5f610a0488888888610db5565b925092509250610a148282610ea8565b50909695505050505050565b73ffffffffffffffffffffffffffffffffffffffff8416610a6f576040517fe602df050000000000000000000000000000000000000000000000000000000081525f600482015260240161046b565b73ffffffffffffffffffffffffffffffffffffffff8316610abe576040517f94280d620000000000000000000000000000000000000000000000000000000081525f600482015260240161046b565b73ffffffffffffffffffffffffffffffffffffffff8085165f90815260016020908152604080832093871683529290522082905580156106ba578273ffffffffffffffffffffffffffffffffffffffff168473ffffffffffffffffffffffffffffffffffffffff167f8c5be1e5ebec7d5bd14f71427d1e84f3dd0314c0f7b2291e5b200ac8c7c3b92584604051610b5791815260200190565b60405180910390a350505050565b73ffffffffffffffffffffffffffffffffffffffff8316610b9c578060025f828254610b9191906112de565b90915550610c4c9050565b73ffffffffffffffffffffffffffffffffffffffff83165f9081526020819052604090205481811015610c21576040517fe450d38c00000000000000000000000000000000000000000000000000000000815273ffffffffffffffffffffffffffffffffffffffff85166004820152602481018290526044810183905260640161046b565b73ffffffffffffffffffffffffffffffffffffffff84165f9081526020819052604090209082900390555b73ffffffffffffffffffffffffffffffffffffffff8216610c7557600280548290039055610ca0565b73ffffffffffffffffffffffffffffffffffffffff82165f9081526020819052604090208054820190555b8173ffffffffffffffffffffffffffffffffffffffff168373ffffffffffffffffffffffffffffffffffffffff167fddf252ad1be2c89b69c2b068fc378daa952ba7f163c4a11628f55a4df523b3ef83604051610cff91815260200190565b60405180910390a3505050565b606060ff8314610d2657610d1f83610fab565b905061033f565b818054610d329061128d565b80601f0160208091040260200160405190810160405280929190818152602001828054610d5e9061128d565b8015610da95780601f10610d8057610100808354040283529160200191610da9565b820191905f5260205f20905b815481529060010190602001808311610d8c57829003601f168201915b5050505050905061033f565b5f80807f7fffffffffffffffffffffffffffffff5d576e7357a4501ddfe92f46681b20a0841115610dee57505f91506003905082610e9e565b604080515f808252602082018084528a905260ff891692820192909252606081018790526080810186905260019060a0016020604051602081039080840390855afa158015610e3f573d5f5f3e3d5ffd5b50506040517fffffffffffffffffffffffffffffffffffffffffffffffffffffffffffffffe0015191505073ffffffffffffffffffffffffffffffffffffffff8116610e9557505f925060019150829050610e9e565b92505f91508190505b9450945094915050565b5f826003811115610ebb57610ebb611316565b03610ec4575050565b6001826003811115610ed857610ed8611316565b03610f0f576040517ff645eedf00000000000000000000000000000000000000000000000000000000815260040160405180910390fd5b6002826003811115610f2357610f23611316565b03610f5d576040517ffce698f70000000000000000000000000000000000000000000000000000000081526004810182905260240161046b565b6003826003811115610f7157610f71611316565b03610380576040517fd78bce0c0000000000000000000000000000000000000000000000000000000081526004810182905260240161046b565b60605f610fb783610fe8565b6040805160208082528183019092529192505f91906020820181803683375050509182525060208101929092525090565b5f60ff8216601f81111561033f576040517fb3512b0c00000000000000000000000000000000000000000000000000000000815260040160405180910390fd5b5f81518084528060208401602086015e5f6020828601015260207fffffffffffffffffffffffffffffffffffffffffffffffffffffffffffffffe0601f83011685010191505092915050565b602081525f6110866020830184611028565b9392505050565b803573ffffffffffffffffffffffffffffffffffffffff811681146110b0575f5ffd5b919050565b5f5f604083850312156110c6575f5ffd5b6110cf8361108d565b946020939093013593505050565b5f5f5f606084860312156110ef575f5ffd5b6110f88461108d565b92506111066020850161108d565b929592945050506040919091013590565b5f60208284031215611127575f5ffd5b6110868261108d565b7fff000000000000000000000000000000000000000000000000000000000000008816815260e060208201525f61116a60e0830189611028565b828103604084015261117c8189611028565b6060840188905273ffffffffffffffffffffffffffffffffffffffff8716608085015260a0840186905283810360c0850152845180825260208087019350909101905f5b818110156111de5783518352602093840193909201916001016111c0565b50909b9a5050505050505050505050565b5f5f5f5f5f5f5f60e0888a031215611205575f5ffd5b61120e8861108d565b965061121c6020890161108d565b95506040880135945060608801359350608088013560ff8116811461123f575f5ffd5b9699959850939692959460a0840135945060c09093013592915050565b5f5f6040838503121561126d575f5ffd5b6112768361108d565b91506112846020840161108d565b90509250929050565b600181811c908216806112a157607f821691505b6020821081036112d8577f4e487b71000000000000000000000000000000000000000000000000000000005f52602260045260245ffd5b50919050565b8082018082111561033f577f4e487b71000000000000000000000000000000000000000000000000000000005f52601160045260245ffd5b7f4e487b71000000000000000000000000000000000000000000000000000000005f52602160045260245ffdfea264697066735822122064011f6a03087d52d9bc6e67afab241cab6f4b77d32f85abf7bb854fe98fa10564736f6c634300081e0033","linkReferences":{}},"methodIdentifiers":{"DOMAIN_SEPARATOR()":"3644e515","allowance(address,address)":"dd62ed3e","approve(address,uint256)":"095ea7b3","balanceOf(address)":"70a08231","burn(address,uint256)":"9dc29fac","decimals()":"313ce567","eip712Domain()":"84b0196e","mint(address,uint256)":"40c10f19","name()":"06fdde03","nonces(address)":"7ecebe00","permit(address,address,uint256,uint256,uint8,bytes32,bytes32)":"d505accf","symbol()":"95d89b41","test()":"f8a8fd6d","totalSupply()":"18160ddd","transfer(address,uint256)":"a9059cbb","transferFrom(address,address,uint256)":"23b872dd"},"id":196}