{"abi":[{"type":"function","name":"DEFAULT_ADMIN_ROLE","inputs":[],"outputs":[{"name":"","type":"bytes32","internalType":"bytes32"}],"stateMutability":"view"},{"type":"function","name":"UPGRADE_INTERFACE_VERSION","inputs":[],"outputs":[{"name":"","type":"string","internalType":"string"}],"stateMutability":"view"},{"type":"function","name":"deposit","inputs":[{"name":"","type":"address","internalType":"address"},{"name":"","type":"uint256","internalType":"uint256"}],"outputs":[],"stateMutability":"pure"},{"type":"function","name":"getRevenue","inputs":[{"name":"","type":"address","internalType":"address"}],"outputs":[{"name":"","type":"uint256","internalType":"uint256"}],"stateMutability":"pure"},{"type":"function","name":"getRoleAdmin","inputs":[{"name":"role","type":"bytes32","internalType":"bytes32"}],"outputs":[{"name":"","type":"bytes32","internalType":"bytes32"}],"stateMutability":"view"},{"type":"function","name":"grantRole","inputs":[{"name":"role","type":"bytes32","internalType":"bytes32"},{"name":"account","type":"address","internalType":"address"}],"outputs":[],"stateMutability":"nonpayable"},{"type":"function","name":"hasRole","inputs":[{"name":"role","type":"bytes32","internalType":"bytes32"},{"name":"account","type":"address","internalType":"address"}],"outputs":[{"name":"","type":"bool","internalType":"bool"}],"stateMutability":"view"},{"type":"function","name":"proxiableUUID","inputs":[],"outputs":[{"name":"","type":"bytes32","internalType":"bytes32"}],"stateMutability":"view"},{"type":"function","name":"rebalance","inputs":[{"name":"","type":"address","internalType":"address"},{"name":"","type":"uint256","internalType":"uint256"}],"outputs":[],"stateMutability":"pure"},{"type":"function","name":"renounceRole","inputs":[{"name":"role","type":"bytes32","internalType":"bytes32"},{"name":"callerConfirmation","type":"address","internalType":"address"}],"outputs":[],"stateMutability":"nonpayable"},{"type":"function","name":"revokeRole","inputs":[{"name":"role","type":"bytes32","internalType":"bytes32"},{"name":"account","type":"address","internalType":"address"}],"outputs":[],"stateMutability":"nonpayable"},{"type":"function","name":"setSwapCap","inputs":[{"name":"","type":"address","internalType":"address"},{"name":"","type":"uint256","internalType":"uint256"}],"outputs":[],"stateMutability":"pure"},{"type":"function","name":"setSwapTolerance","inputs":[{"name":"","type":"address","internalType":"address"},{"name":"","type":"address","internalType":"address"},{"name":"","type":"uint256","internalType":"uint256"}],"outputs":[],"stateMutability":"pure"},{"type":"function","name":"supportsInterface","inputs":[{"name":"interfaceId","type":"bytes4","internalType":"bytes4"}],"outputs":[{"name":"","type":"bool","internalType":"bool"}],"stateMutability":"view"},{"type":"function","name":"swap","inputs":[{"name":"","type":"bytes","internalType":"bytes"},{"name":"","type":"bytes","internalType":"bytes"}],"outputs":[],"stateMutability":"pure"},{"type":"function","name":"test","inputs":[],"outputs":[],"stateMutability":"nonpayable"},{"type":"function","name":"upgradeToAndCall","inputs":[{"name":"newImplementation","type":"address","internalType":"address"},{"name":"data","type":"bytes","internalType":"bytes"}],"outputs":[],"stateMutability":"payable"},{"type":"function","name":"withdraw","inputs":[{"name":"","type":"address","internalType":"address"},{"name":"","type":"uint256","internalType":"uint256"}],"outputs":[],"stateMutability":"pure"},{"type":"function","name":"withdrawRevenue","inputs":[{"name":"","type":"address","internalType":"address"},{"name":"","type":"uint256","internalType":"uint256"}],"outputs":[],"stateMutability":"pure"},{"type":"event","name":"CollateralAdded","inputs":[{"name":"token","type":"address","indexed":true,"internalType":"address"},{"name":"vault","type":"address","indexed":true,"internalType":"address"}],"anonymous":false},{"type":"event","name":"ControllerUpdated","inputs":[{"name":"controller","type":"address","indexed":true,"internalType":"address"}],"anonymous":false},{"type":"event","name":"Deposit","inputs":[{"name":"collateral","type":"address","indexed":true,"internalType":"address"},{"name":"amount","type":"uint256","indexed":false,"internalType":"uint256"}],"anonymous":false},{"type":"event","name":"Initialized","inputs":[{"name":"version","type":"uint64","indexed":false,"internalType":"uint64"}],"anonymous":false},{"type":"event","name":"PauseStatusChanged","inputs":[{"name":"status","type":"uint8","indexed":false,"internalType":"enum ICollateralManager.ManagerPauseStatus"}],"anonymous":false},{"type":"event","name":"Rebalance","inputs":[{"name":"collateral","type":"address","indexed":true,"internalType":"address"},{"name":"amount","type":"uint256","indexed":false,"internalType":"uint256"}],"anonymous":false},{"type":"event","name":"RebalanceCapChanged","inputs":[{"name":"collateral","type":"address","indexed":true,"internalType":"address"},{"name":"amount","type":"uint256","indexed":false,"internalType":"uint256"}],"anonymous":false},{"type":"event","name":"RevenueWithdraw","inputs":[{"name":"collateral","type":"address","indexed":true,"internalType":"address"},{"name":"amount","type":"uint256","indexed":false,"internalType":"uint256"}],"anonymous":false},{"type":"event","name":"RoleAdminChanged","inputs":[{"name":"role","type":"bytes32","indexed":true,"internalType":"bytes32"},{"name":"previousAdminRole","type":"bytes32","indexed":true,"internalType":"bytes32"},{"name":"newAdminRole","type":"bytes32","indexed":true,"internalType":"bytes32"}],"anonymous":false},{"type":"event","name":"RoleGranted","inputs":[{"name":"role","type":"bytes32","indexed":true,"internalType":"bytes32"},{"name":"account","type":"address","indexed":true,"internalType":"address"},{"name":"sender","type":"address","indexed":true,"internalType":"address"}],"anonymous":false},{"type":"event","name":"RoleRevoked","inputs":[{"name":"role","type":"bytes32","indexed":true,"internalType":"bytes32"},{"name":"account","type":"address","indexed":true,"internalType":"address"},{"name":"sender","type":"address","indexed":true,"internalType":"address"}],"anonymous":false},{"type":"event","name":"Swap","inputs":[{"name":"srcToken","type":"address","indexed":true,"internalType":"address"},{"name":"dstToken","type":"address","indexed":true,"internalType":"address"},{"name":"srcAmount","type":"uint256","indexed":false,"internalType":"uint256"},{"name":"dstAmount","type":"uint256","indexed":false,"internalType":"uint256"}],"anonymous":false},{"type":"event","name":"SwapCapUpdated","inputs":[{"name":"collateral","type":"address","indexed":false,"internalType":"address"},{"name":"newSwapCap","type":"uint256","indexed":false,"internalType":"uint256"}],"anonymous":false},{"type":"event","name":"SwapModuleUpdated","inputs":[{"name":"swapModule","type":"address","indexed":true,"internalType":"address"}],"anonymous":false},{"type":"event","name":"SwapToleranceUpdated","inputs":[{"name":"tokenIn","type":"address","indexed":true,"internalType":"address"},{"name":"tokenOut","type":"address","indexed":true,"internalType":"address"},{"name":"tolerance","type":"uint256","indexed":false,"internalType":"uint256"}],"anonymous":false},{"type":"event","name":"Upgraded","inputs":[{"name":"implementation","type":"address","indexed":true,"internalType":"address"}],"anonymous":false},{"type":"event","name":"Withdraw","inputs":[{"name":"collateral","type":"address","indexed":true,"internalType":"address"},{"name":"amount","type":"uint256","indexed":false,"internalType":"uint256"}],"anonymous":false},{"type":"error","name":"AccessControlBadConfirmation","inputs":[]},{"type":"error","name":"AccessControlUnauthorizedAccount","inputs":[{"name":"account","type":"address","internalType":"address"},{"name":"neededRole","type":"bytes32","internalType":"bytes32"}]},{"type":"error","name":"AddressEmptyCode","inputs":[{"name":"target","type":"address","internalType":"address"}]},{"type":"error","name":"CollateralAlreadySupported","inputs":[]},{"type":"error","name":"CollateralNotSupported","inputs":[]},{"type":"error","name":"ContractPaused","inputs":[]},{"type":"error","name":"ERC1967InvalidImplementation","inputs":[{"name":"implementation","type":"address","internalType":"address"}]},{"type":"error","name":"ERC1967NonPayable","inputs":[]},{"type":"error","name":"ExceedsPendingRevenue","inputs":[]},{"type":"error","name":"ExceedsRebalanceCap","inputs":[]},{"type":"error","name":"FMLPause","inputs":[]},{"type":"error","name":"FailedCall","inputs":[]},{"type":"error","name":"IncompatibleCollateralVault","inputs":[]},{"type":"error","name":"InsufficientAmountReceived","inputs":[]},{"type":"error","name":"InvalidInitialization","inputs":[]},{"type":"error","name":"InvalidSlippage","inputs":[]},{"type":"error","name":"InvalidSwapAmount","inputs":[]},{"type":"error","name":"NonZeroAddress","inputs":[]},{"type":"error","name":"NotInitializing","inputs":[]},{"type":"error","name":"RescueEtherFailed","inputs":[]},{"type":"error","name":"UUPSUnauthorizedCallContext","inputs":[]},{"type":"error","name":"UUPSUnsupportedProxiableUUID","inputs":[{"name":"slot","type":"bytes32","internalType":"bytes32"}]}],"bytecode":{"object":"0x60a0604052306080523480156012575f5ffd5b5060805161117d6100395f395f8181610807015281816108300152610a53015261117d5ff3fe60806040526004361061013d575f3560e01c806385b67095116100bb578063c46b30bc11610071578063ded873dd11610057578063ded873dd14610386578063f3fef3a314610210578063f8a8fd6d146103a0575f5ffd5b8063c46b30bc1461034d578063d547741f14610367575f5ffd5b806391d14854116100a157806391d1485414610275578063a217fddf146102e5578063ad3cb1cc146102f8575f5ffd5b806385b67095146102565780638b63c26714610210575f5ffd5b80633da9b9d0116101105780634f1ef286116100f65780634f1ef2861461022f57806352d1902d1461024257806364aa91d814610210575f5ffd5b80633da9b9d01461021057806347e7ef2414610210575f5ffd5b806301ffc9a714610141578063248a9ca3146101755780632f2ff15d146101d057806336568abe146101f1575b5f5ffd5b34801561014c575f5ffd5b5061016061015b366004610dd4565b6103ab565b60405190151581526020015b60405180910390f35b348015610180575f5ffd5b506101c261018f366004610e1a565b5f9081527f02dd7bc7dec4dceedda775e58dd541e08a116c6c53815c0bd028192f7b626800602052604090206001015490565b60405190815260200161016c565b3480156101db575f5ffd5b506101ef6101ea366004610e59565b610443565b005b3480156101fc575f5ffd5b506101ef61020b366004610e59565b61048c565b34801561021b575f5ffd5b506101ef61022a366004610e83565b6104ea565b6101ef61023d366004610ed8565b61051c565b34801561024d575f5ffd5b506101c261053b565b348015610261575f5ffd5b506101c2610270366004610fd9565b610569565b348015610280575f5ffd5b5061016061028f366004610e59565b5f9182527f02dd7bc7dec4dceedda775e58dd541e08a116c6c53815c0bd028192f7b6268006020908152604080842073ffffffffffffffffffffffffffffffffffffffff93909316845291905290205460ff1690565b3480156102f0575f5ffd5b506101c25f81565b348015610303575f5ffd5b506103406040518060400160405280600581526020017f352e302e3000000000000000000000000000000000000000000000000000000081525081565b60405161016c9190610ff2565b348015610358575f5ffd5b506101ef61022a36600461108a565b348015610372575f5ffd5b506101ef610381366004610e59565b61059c565b348015610391575f5ffd5b506101ef61022a3660046110f6565b3480156101ef575f5ffd5b5f7fffffffff0000000000000000000000000000000000000000000000000000000082167f7965db0b00000000000000000000000000000000000000000000000000000000148061043d57507f01ffc9a7000000000000000000000000000000000000000000000000000000007fffffffff000000000000000000000000000000000000000000000000000000008316145b92915050565b5f8281527f02dd7bc7dec4dceedda775e58dd541e08a116c6c53815c0bd028192f7b626800602052604090206001015461047c816105e1565b61048683836105ee565b50505050565b73ffffffffffffffffffffffffffffffffffffffff811633146104db576040517f6697b23200000000000000000000000000000000000000000000000000000000815260040160405180910390fd5b6104e58282610713565b505050565b6040517fab35696f00000000000000000000000000000000000000000000000000000000815260040160405180910390fd5b6105246107ef565b61052d826108f3565b61053782826108fd565b5050565b5f610544610a3b565b507f360894a13ba1a3210667c828492db98dca3e2076cc3735a920a3ca505d382bbc90565b5f6040517fab35696f00000000000000000000000000000000000000000000000000000000815260040160405180910390fd5b5f8281527f02dd7bc7dec4dceedda775e58dd541e08a116c6c53815c0bd028192f7b62680060205260409020600101546105d5816105e1565b6104868383610713565b565b6105eb8133610aaa565b50565b5f8281527f02dd7bc7dec4dceedda775e58dd541e08a116c6c53815c0bd028192f7b6268006020818152604080842073ffffffffffffffffffffffffffffffffffffffff8616855290915282205460ff16610703575f8481526020828152604080832073ffffffffffffffffffffffffffffffffffffffff87168452909152902080547fffffffffffffffffffffffffffffffffffffffffffffffffffffffffffffff0016600117905561069f3390565b73ffffffffffffffffffffffffffffffffffffffff168373ffffffffffffffffffffffffffffffffffffffff16857f2f8788117e7eff1d82e926ec794901d17c78024a50270940304540a733656f0d60405160405180910390a4600191505061043d565b5f91505061043d565b5092915050565b5f8281527f02dd7bc7dec4dceedda775e58dd541e08a116c6c53815c0bd028192f7b6268006020818152604080842073ffffffffffffffffffffffffffffffffffffffff8616855290915282205460ff1615610703575f8481526020828152604080832073ffffffffffffffffffffffffffffffffffffffff8716808552925280832080547fffffffffffffffffffffffffffffffffffffffffffffffffffffffffffffff0016905551339287917ff6391f5c32d9c69d2a47ea670b442974b53935d1edc7fd64eb21e047a839171b9190a4600191505061043d565b3073ffffffffffffffffffffffffffffffffffffffff7f00000000000000000000000000000000000000000000000000000000000000001614806108bc57507f000000000000000000000000000000000000000000000000000000000000000073ffffffffffffffffffffffffffffffffffffffff166108a37f360894a13ba1a3210667c828492db98dca3e2076cc3735a920a3ca505d382bbc5473ffffffffffffffffffffffffffffffffffffffff1690565b73ffffffffffffffffffffffffffffffffffffffff1614155b156105df576040517fe07c8dba00000000000000000000000000000000000000000000000000000000815260040160405180910390fd5b5f610537816105e1565b8173ffffffffffffffffffffffffffffffffffffffff166352d1902d6040518163ffffffff1660e01b8152600401602060405180830381865afa925050508015610982575060408051601f3d9081017fffffffffffffffffffffffffffffffffffffffffffffffffffffffffffffffe016820190925261097f91810190611130565b60015b6109d5576040517f4c9c8ce300000000000000000000000000000000000000000000000000000000815273ffffffffffffffffffffffffffffffffffffffff831660048201526024015b60405180910390fd5b7f360894a13ba1a3210667c828492db98dca3e2076cc3735a920a3ca505d382bbc8114610a31576040517faa1d49a4000000000000000000000000000000000000000000000000000000008152600481018290526024016109cc565b6104e58383610b50565b3073ffffffffffffffffffffffffffffffffffffffff7f000000000000000000000000000000000000000000000000000000000000000016146105df576040517fe07c8dba00000000000000000000000000000000000000000000000000000000815260040160405180910390fd5b5f8281527f02dd7bc7dec4dceedda775e58dd541e08a116c6c53815c0bd028192f7b6268006020908152604080832073ffffffffffffffffffffffffffffffffffffffff8516845290915290205460ff16610537576040517fe2517d3f00000000000000000000000000000000000000000000000000000000815273ffffffffffffffffffffffffffffffffffffffff82166004820152602481018390526044016109cc565b610b5982610bb2565b60405173ffffffffffffffffffffffffffffffffffffffff8316907fbc7cd75a20ee27fd9adebab32041f755214dbc6bffa90cc0225b39da2e5c2d3b905f90a2805115610baa576104e58282610c80565b610537610d65565b8073ffffffffffffffffffffffffffffffffffffffff163b5f03610c1a576040517f4c9c8ce300000000000000000000000000000000000000000000000000000000815273ffffffffffffffffffffffffffffffffffffffff821660048201526024016109cc565b7f360894a13ba1a3210667c828492db98dca3e2076cc3735a920a3ca505d382bbc80547fffffffffffffffffffffffff00000000000000000000000000000000000000001673ffffffffffffffffffffffffffffffffffffffff92909216919091179055565b60605f610c8d8484610d9d565b9050808015610cbb57505f3d1180610cbb57505f8473ffffffffffffffffffffffffffffffffffffffff163b115b15610cd057610cc8610db0565b91505061043d565b8015610d20576040517f9996b31500000000000000000000000000000000000000000000000000000000815273ffffffffffffffffffffffffffffffffffffffff851660048201526024016109cc565b3d15610d3357610d2e610dc9565b61070c565b6040517fd6bda27500000000000000000000000000000000000000000000000000000000815260040160405180910390fd5b34156105df576040517fb398979f00000000000000000000000000000000000000000000000000000000815260040160405180910390fd5b5f5f5f835160208501865af49392505050565b6040513d81523d5f602083013e3d602001810160405290565b6040513d5f823e3d81fd5b5f60208284031215610de4575f5ffd5b81357fffffffff0000000000000000000000000000000000000000000000000000000081168114610e13575f5ffd5b9392505050565b5f60208284031215610e2a575f5ffd5b5035919050565b803573ffffffffffffffffffffffffffffffffffffffff81168114610e54575f5ffd5b919050565b5f5f60408385031215610e6a575f5ffd5b82359150610e7a60208401610e31565b90509250929050565b5f5f60408385031215610e94575f5ffd5b610e9d83610e31565b946020939093013593505050565b7f4e487b71000000000000000000000000000000000000000000000000000000005f52604160045260245ffd5b5f5f60408385031215610ee9575f5ffd5b610ef283610e31565b9150602083013567ffffffffffffffff811115610f0d575f5ffd5b8301601f81018513610f1d575f5ffd5b803567ffffffffffffffff811115610f3757610f37610eab565b6040517fffffffffffffffffffffffffffffffffffffffffffffffffffffffffffffffe0603f7fffffffffffffffffffffffffffffffffffffffffffffffffffffffffffffffe0601f8501160116810181811067ffffffffffffffff82111715610fa357610fa3610eab565b604052818152828201602001871015610fba575f5ffd5b816020840160208301375f602083830101528093505050509250929050565b5f60208284031215610fe9575f5ffd5b610e1382610e31565b602081525f82518060208401528060208501604085015e5f6040828501015260407fffffffffffffffffffffffffffffffffffffffffffffffffffffffffffffffe0601f83011684010191505092915050565b5f5f83601f840112611055575f5ffd5b50813567ffffffffffffffff81111561106c575f5ffd5b602083019150836020828501011115611083575f5ffd5b9250929050565b5f5f5f5f6040858703121561109d575f5ffd5b843567ffffffffffffffff8111156110b3575f5ffd5b6110bf87828801611045565b909550935050602085013567ffffffffffffffff8111156110de575f5ffd5b6110ea87828801611045565b95989497509550505050565b5f5f5f60608486031215611108575f5ffd5b61111184610e31565b925061111f60208501610e31565b929592945050506040919091013590565b5f60208284031215611140575f5ffd5b505191905056fea264697066735822122047e599148a4dcf93a94d83b7ca5c5912e6fb2aa74cfae823f5607dbaf206451e64736f6c634300081e0033","linkReferences":{}},"methodIdentifiers":{"DEFAULT_ADMIN_ROLE()":"a217fddf","UPGRADE_INTERFACE_VERSION()":"ad3cb1cc","deposit(address,uint256)":"47e7ef24","getRevenue(address)":"85b67095","getRoleAdmin(bytes32)":"248a9ca3","grantRole(bytes32,address)":"2f2ff15d","hasRole(bytes32,address)":"91d14854","proxiableUUID()":"52d1902d","rebalance(address,uint256)":"3da9b9d0","renounceRole(bytes32,address)":"36568abe","revokeRole(bytes32,address)":"d547741f","setSwapCap(address,uint256)":"64aa91d8","setSwapTolerance(address,address,uint256)":"ded873dd","supportsInterface(bytes4)":"01ffc9a7","swap(bytes,bytes)":"c46b30bc","test()":"f8a8fd6d","upgradeToAndCall(address,bytes)":"4f1ef286","withdraw(address,uint256)":"f3fef3a3","withdrawRevenue(address,uint256)":"8b63c267"},"id":192}