{"abi":[{"type":"constructor","inputs":[{"name":"name","type":"string","internalType":"string"},{"name":"symbol","type":"string","internalType":"string"},{"name":"asset_","type":"address","internalType":"contract IERC20"}],"stateMutability":"nonpayable"},{"type":"function","name":"DOMAIN_SEPARATOR","inputs":[],"outputs":[{"name":"","type":"bytes32","internalType":"bytes32"}],"stateMutability":"view"},{"type":"function","name":"allowance","inputs":[{"name":"owner","type":"address","internalType":"address"},{"name":"spender","type":"address","internalType":"address"}],"outputs":[{"name":"","type":"uint256","internalType":"uint256"}],"stateMutability":"view"},{"type":"function","name":"approve","inputs":[{"name":"spender","type":"address","internalType":"address"},{"name":"value","type":"uint256","internalType":"uint256"}],"outputs":[{"name":"","type":"bool","internalType":"bool"}],"stateMutability":"nonpayable"},{"type":"function","name":"asset","inputs":[],"outputs":[{"name":"","type":"address","internalType":"address"}],"stateMutability":"view"},{"type":"function","name":"balanceOf","inputs":[{"name":"account","type":"address","internalType":"address"}],"outputs":[{"name":"","type":"uint256","internalType":"uint256"}],"stateMutability":"view"},{"type":"function","name":"convertToAssets","inputs":[{"name":"shares","type":"uint256","internalType":"uint256"}],"outputs":[{"name":"","type":"uint256","internalType":"uint256"}],"stateMutability":"view"},{"type":"function","name":"convertToShares","inputs":[{"name":"assets","type":"uint256","internalType":"uint256"}],"outputs":[{"name":"","type":"uint256","internalType":"uint256"}],"stateMutability":"view"},{"type":"function","name":"decimals","inputs":[],"outputs":[{"name":"","type":"uint8","internalType":"uint8"}],"stateMutability":"view"},{"type":"function","name":"deposit","inputs":[{"name":"assets","type":"uint256","internalType":"uint256"},{"name":"receiver","type":"address","internalType":"address"}],"outputs":[{"name":"","type":"uint256","internalType":"uint256"}],"stateMutability":"nonpayable"},{"type":"function","name":"eip712Domain","inputs":[],"outputs":[{"name":"fields","type":"bytes1","internalType":"bytes1"},{"name":"name","type":"string","internalType":"string"},{"name":"version","type":"string","internalType":"string"},{"name":"chainId","type":"uint256","internalType":"uint256"},{"name":"verifyingContract","type":"address","internalType":"address"},{"name":"salt","type":"bytes32","internalType":"bytes32"},{"name":"extensions","type":"uint256[]","internalType":"uint256[]"}],"stateMutability":"view"},{"type":"function","name":"maxDeposit","inputs":[{"name":"","type":"address","internalType":"address"}],"outputs":[{"name":"","type":"uint256","internalType":"uint256"}],"stateMutability":"view"},{"type":"function","name":"maxMint","inputs":[{"name":"","type":"address","internalType":"address"}],"outputs":[{"name":"","type":"uint256","internalType":"uint256"}],"stateMutability":"view"},{"type":"function","name":"maxRedeem","inputs":[{"name":"owner","type":"address","internalType":"address"}],"outputs":[{"name":"","type":"uint256","internalType":"uint256"}],"stateMutability":"view"},{"type":"function","name":"maxWithdraw","inputs":[{"name":"owner","type":"address","internalType":"address"}],"outputs":[{"name":"","type":"uint256","internalType":"uint256"}],"stateMutability":"view"},{"type":"function","name":"mint","inputs":[{"name":"shares","type":"uint256","internalType":"uint256"},{"name":"receiver","type":"address","internalType":"address"}],"outputs":[{"name":"","type":"uint256","internalType":"uint256"}],"stateMutability":"nonpayable"},{"type":"function","name":"name","inputs":[],"outputs":[{"name":"","type":"string","internalType":"string"}],"stateMutability":"view"},{"type":"function","name":"nonces","inputs":[{"name":"owner","type":"address","internalType":"address"}],"outputs":[{"name":"","type":"uint256","internalType":"uint256"}],"stateMutability":"view"},{"type":"function","name":"permit","inputs":[{"name":"owner","type":"address","internalType":"address"},{"name":"spender","type":"address","internalType":"address"},{"name":"value","type":"uint256","internalType":"uint256"},{"name":"deadline","type":"uint256","internalType":"uint256"},{"name":"v","type":"uint8","internalType":"uint8"},{"name":"r","type":"bytes32","internalType":"bytes32"},{"name":"s","type":"bytes32","internalType":"bytes32"}],"outputs":[],"stateMutability":"nonpayable"},{"type":"function","name":"previewDeposit","inputs":[{"name":"assets","type":"uint256","internalType":"uint256"}],"outputs":[{"name":"","type":"uint256","internalType":"uint256"}],"stateMutability":"view"},{"type":"function","name":"previewMint","inputs":[{"name":"shares","type":"uint256","internalType":"uint256"}],"outputs":[{"name":"","type":"uint256","internalType":"uint256"}],"stateMutability":"view"},{"type":"function","name":"previewRedeem","inputs":[{"name":"shares","type":"uint256","internalType":"uint256"}],"outputs":[{"name":"","type":"uint256","internalType":"uint256"}],"stateMutability":"view"},{"type":"function","name":"previewWithdraw","inputs":[{"name":"assets","type":"uint256","internalType":"uint256"}],"outputs":[{"name":"","type":"uint256","internalType":"uint256"}],"stateMutability":"view"},{"type":"function","name":"redeem","inputs":[{"name":"shares","type":"uint256","internalType":"uint256"},{"name":"receiver","type":"address","internalType":"address"},{"name":"owner","type":"address","internalType":"address"}],"outputs":[{"name":"","type":"uint256","internalType":"uint256"}],"stateMutability":"nonpayable"},{"type":"function","name":"symbol","inputs":[],"outputs":[{"name":"","type":"string","internalType":"string"}],"stateMutability":"view"},{"type":"function","name":"test","inputs":[],"outputs":[],"stateMutability":"nonpayable"},{"type":"function","name":"totalAssets","inputs":[],"outputs":[{"name":"","type":"uint256","internalType":"uint256"}],"stateMutability":"view"},{"type":"function","name":"totalSupply","inputs":[],"outputs":[{"name":"","type":"uint256","internalType":"uint256"}],"stateMutability":"view"},{"type":"function","name":"transfer","inputs":[{"name":"to","type":"address","internalType":"address"},{"name":"value","type":"uint256","internalType":"uint256"}],"outputs":[{"name":"","type":"bool","internalType":"bool"}],"stateMutability":"nonpayable"},{"type":"function","name":"transferFrom","inputs":[{"name":"from","type":"address","internalType":"address"},{"name":"to","type":"address","internalType":"address"},{"name":"value","type":"uint256","internalType":"uint256"}],"outputs":[{"name":"","type":"bool","internalType":"bool"}],"stateMutability":"nonpayable"},{"type":"function","name":"withdraw","inputs":[{"name":"assets","type":"uint256","internalType":"uint256"},{"name":"receiver","type":"address","internalType":"address"},{"name":"owner","type":"address","internalType":"address"}],"outputs":[{"name":"","type":"uint256","internalType":"uint256"}],"stateMutability":"nonpayable"},{"type":"event","name":"Approval","inputs":[{"name":"owner","type":"address","indexed":true,"internalType":"address"},{"name":"spender","type":"address","indexed":true,"internalType":"address"},{"name":"value","type":"uint256","indexed":false,"internalType":"uint256"}],"anonymous":false},{"type":"event","name":"Deposit","inputs":[{"name":"sender","type":"address","indexed":true,"internalType":"address"},{"name":"owner","type":"address","indexed":true,"internalType":"address"},{"name":"assets","type":"uint256","indexed":false,"internalType":"uint256"},{"name":"shares","type":"uint256","indexed":false,"internalType":"uint256"}],"anonymous":false},{"type":"event","name":"EIP712DomainChanged","inputs":[],"anonymous":false},{"type":"event","name":"Transfer","inputs":[{"name":"from","type":"address","indexed":true,"internalType":"address"},{"name":"to","type":"address","indexed":true,"internalType":"address"},{"name":"value","type":"uint256","indexed":false,"internalType":"uint256"}],"anonymous":false},{"type":"event","name":"Withdraw","inputs":[{"name":"sender","type":"address","indexed":true,"internalType":"address"},{"name":"receiver","type":"address","indexed":true,"internalType":"address"},{"name":"owner","type":"address","indexed":true,"internalType":"address"},{"name":"assets","type":"uint256","indexed":false,"internalType":"uint256"},{"name":"shares","type":"uint256","indexed":false,"internalType":"uint256"}],"anonymous":false},{"type":"error","name":"ECDSAInvalidSignature","inputs":[]},{"type":"error","name":"ECDSAInvalidSignatureLength","inputs":[{"name":"length","type":"uint256","internalType":"uint256"}]},{"type":"error","name":"ECDSAInvalidSignatureS","inputs":[{"name":"s","type":"bytes32","internalType":"bytes32"}]},{"type":"error","name":"ERC20InsufficientAllowance","inputs":[{"name":"spender","type":"address","internalType":"address"},{"name":"allowance","type":"uint256","internalType":"uint256"},{"name":"needed","type":"uint256","internalType":"uint256"}]},{"type":"error","name":"ERC20InsufficientBalance","inputs":[{"name":"sender","type":"address","internalType":"address"},{"name":"balance","type":"uint256","internalType":"uint256"},{"name":"needed","type":"uint256","internalType":"uint256"}]},{"type":"error","name":"ERC20InvalidApprover","inputs":[{"name":"approver","type":"address","internalType":"address"}]},{"type":"error","name":"ERC20InvalidReceiver","inputs":[{"name":"receiver","type":"address","internalType":"address"}]},{"type":"error","name":"ERC20InvalidSender","inputs":[{"name":"sender","type":"address","internalType":"address"}]},{"type":"error","name":"ERC20InvalidSpender","inputs":[{"name":"spender","type":"address","internalType":"address"}]},{"type":"error","name":"ERC2612ExpiredSignature","inputs":[{"name":"deadline","type":"uint256","internalType":"uint256"}]},{"type":"error","name":"ERC2612InvalidSigner","inputs":[{"name":"signer","type":"address","internalType":"address"},{"name":"owner","type":"address","internalType":"address"}]},{"type":"error","name":"ERC4626ExceededMaxDeposit","inputs":[{"name":"receiver","type":"address","internalType":"address"},{"name":"assets","type":"uint256","internalType":"uint256"},{"name":"max","type":"uint256","internalType":"uint256"}]},{"type":"error","name":"ERC4626ExceededMaxMint","inputs":[{"name":"receiver","type":"address","internalType":"address"},{"name":"shares","type":"uint256","internalType":"uint256"},{"name":"max","type":"uint256","internalType":"uint256"}]},{"type":"error","name":"ERC4626ExceededMaxRedeem","inputs":[{"name":"owner","type":"address","internalType":"address"},{"name":"shares","type":"uint256","internalType":"uint256"},{"name":"max","type":"uint256","internalType":"uint256"}]},{"type":"error","name":"ERC4626ExceededMaxWithdraw","inputs":[{"name":"owner","type":"address","internalType":"address"},{"name":"assets","type":"uint256","internalType":"uint256"},{"name":"max","type":"uint256","internalType":"uint256"}]},{"type":"error","name":"InvalidAccountNonce","inputs":[{"name":"account","type":"address","internalType":"address"},{"name":"currentNonce","type":"uint256","internalType":"uint256"}]},{"type":"error","name":"InvalidShortString","inputs":[]},{"type":"error","name":"SafeERC20FailedOperation","inputs":[{"name":"token","type":"address","internalType":"address"}]},{"type":"error","name":"StringTooLong","inputs":[{"name":"str","type":"string","internalType":"string"}]}],"bytecode":{"object":"0x6101a0604052348015610010575f5ffd5b5060405161257738038061257783398101604081905261002f91610324565b6040805180820190915260018152603160f81b602082015283908190838286600361005a838261042d565b506004610067828261042d565b5050505f5f61007b8361015d60201b60201c565b915091508161008b57601261008d565b805b60ff1660a05250506001600160a01b03166080526100ac8260056101ee565b610160526100bb8160066101ee565b61018052815160208084019190912061012052815190820120610140524660e0526101496101205161014051604080517f8b73c3c69bb8fe3d512ecc4cf759cc79239f7b179b0ffacaa9a75d522b39400f60208201529081019290925260608201524660808201523060a08201525f9060c00160405160208183030381529060405280519060200120905090565b60c052505030610100525061053f92505050565b5f808061016960405190565b6040805160048152602481019091526020810180516001600160e01b0390811663313ce56760e01b179091529192505f9182916101a99188919061022016565b5090925090506101b883604052565b8180156101c6575060203d10155b80156101d3575060ff8111155b6101de575f5f6101e2565b6001815b94509450505050915091565b5f6020835110156102095761020283610241565b905061021a565b81610214848261042d565b5060ff90505b92915050565b5f5f5f60405f855160208701885afa92505f51915060205190509250925092565b5f5f829050601f81511115610274578260405163305a27a960e01b815260040161026b91906104e7565b60405180910390fd5b805161027f8261051c565b179392505050565b634e487b7160e01b5f52604160045260245ffd5b5f82601f8301126102aa575f5ffd5b81516001600160401b038111156102c3576102c3610287565b604051601f8201601f19908116603f011681016001600160401b03811182821017156102f1576102f1610287565b604052818152838201602001851015610308575f5ffd5b8160208501602083015e5f918101602001919091529392505050565b5f5f5f60608486031215610336575f5ffd5b83516001600160401b0381111561034b575f5ffd5b6103578682870161029b565b602086015190945090506001600160401b03811115610374575f5ffd5b6103808682870161029b565b604086015190935090506001600160a01b038116811461039e575f5ffd5b809150509250925092565b600181811c908216806103bd57607f821691505b6020821081036103db57634e487b7160e01b5f52602260045260245ffd5b50919050565b601f82111561042857805f5260205f20601f840160051c810160208510156104065750805b601f840160051c820191505b81811015610425575f8155600101610412565b50505b505050565b81516001600160401b0381111561044657610446610287565b61045a8161045484546103a9565b846103e1565b6020601f82116001811461048c575f83156104755750848201515b5f19600385901b1c1916600184901b178455610425565b5f84815260208120601f198516915b828110156104bb578785015182556020948501946001909201910161049b565b50848210156104d857868401515f19600387901b60f8161c191681555b50505050600190811b01905550565b602081525f82518060208401528060208501604085015e5f604082850101526040601f19601f83011684010191505092915050565b805160208083015191908110156103db575f1960209190910360031b1b16919050565b60805160a05160c05160e0516101005161012051610140516101605161018051611fbe6105b95f395f610e6b01525f610e3e01525f610d5d01525f610d3501525f610c9001525f610cba01525f610ce401525f610c5301525f81816102a5015281816104750152818161130901526114960152611fbe5ff3fe608060405234801561000f575f5ffd5b50600436106101d1575f3560e01c806384b0196e116100fe578063c63d75b61161009e578063d905777e1161006e578063d905777e1461041a578063dd62ed3e1461042d578063ef8b30f7146103df578063f8a8fd6d14610418575f5ffd5b8063c63d75b6146102cf578063c6e6f592146103df578063ce96cb77146103f2578063d505accf14610405575f5ffd5b8063a9059cbb116100d9578063a9059cbb14610393578063b3d7f6b9146103a6578063b460af94146103b9578063ba087652146103cc575f5ffd5b806384b0196e1461035d57806394bf804d1461037857806395d89b411461038b575f5ffd5b8063313ce567116101745780634cdad506116101445780634cdad506146102055780636e553f651461030257806370a08231146103155780637ecebe001461034a575f5ffd5b8063313ce567146102695780633644e5151461028357806338d52e0f1461028b578063402d267d146102cf575f5ffd5b8063095ea7b3116101af578063095ea7b3146102185780630a28a4771461023b57806318160ddd1461024e57806323b872dd14610256575f5ffd5b806301e1d114146101d557806306fdde03146101f057806307a2d13a14610205575b5f5ffd5b6101dd610472565b6040519081526020015b60405180910390f35b6101f8610527565b6040516101e79190611a75565b6101dd610213366004611a87565b6105b7565b61022b610226366004611ac6565b6105c8565b60405190151581526020016101e7565b6101dd610249366004611a87565b6105df565b6002546101dd565b61022b610264366004611aee565b6105eb565b610271610610565b60405160ff90911681526020016101e7565b6101dd610619565b60405173ffffffffffffffffffffffffffffffffffffffff7f00000000000000000000000000000000000000000000000000000000000000001681526020016101e7565b6101dd6102dd366004611b28565b507fffffffffffffffffffffffffffffffffffffffffffffffffffffffffffffffff90565b6101dd610310366004611b41565b610622565b6101dd610323366004611b28565b73ffffffffffffffffffffffffffffffffffffffff165f9081526020819052604090205490565b6101dd610358366004611b28565b610672565b61036561069c565b6040516101e79796959493929190611b6b565b6101dd610386366004611b41565b6106fa565b6101f8610734565b61022b6103a1366004611ac6565b610743565b6101dd6103b4366004611a87565b610750565b6101dd6103c7366004611c2a565b61075c565b6101dd6103da366004611c2a565b6107eb565b6101dd6103ed366004611a87565b610871565b6101dd610400366004611b28565b61087c565b610418610413366004611c63565b610889565b005b6101dd610428366004611b28565b610a32565b6101dd61043b366004611cd0565b73ffffffffffffffffffffffffffffffffffffffff9182165f90815260016020908152604080832093909416825291909152205490565b5f7f00000000000000000000000000000000000000000000000000000000000000006040517f70a0823100000000000000000000000000000000000000000000000000000000815230600482015273ffffffffffffffffffffffffffffffffffffffff91909116906370a0823190602401602060405180830381865afa1580156104fe573d5f5f3e3d5ffd5b505050506040513d601f19601f820116820180604052508101906105229190611cf8565b905090565b60606003805461053690611d0f565b80601f016020809104026020016040519081016040528092919081815260200182805461056290611d0f565b80156105ad5780601f10610584576101008083540402835291602001916105ad565b820191905f5260205f20905b81548152906001019060200180831161059057829003601f168201915b5050505050905090565b5f6105c2825f610a5c565b92915050565b5f336105d5818585610a94565b5060019392505050565b5f6105c2826001610aa6565b5f336105f8858285610ad5565b610603858585610ba3565b60019150505b9392505050565b5f610522610c4c565b5f610522610c77565b5f7fffffffffffffffffffffffffffffffffffffffffffffffffffffffffffffffff610652565b60405180910390fd5b5f61065c85610871565b905061066a33858784610dad565b949350505050565b73ffffffffffffffffffffffffffffffffffffffff81165f908152600760205260408120546105c2565b5f6060805f5f5f60606106ad610e37565b6106b5610e64565b604080515f808252602082019092527f0f000000000000000000000000000000000000000000000000000000000000009b939a50919850469750309650945092509050565b5f7fffffffffffffffffffffffffffffffffffffffffffffffffffffffffffffffff5f61072685610750565b905061066a33858388610dad565b60606004805461053690611d0f565b5f336105d5818585610ba3565b5f6105c2826001610a5c565b5f5f6107678361087c565b9050808511156107c9576040517ffe9cceec00000000000000000000000000000000000000000000000000000000815273ffffffffffffffffffffffffffffffffffffffff841660048201526024810186905260448101829052606401610649565b5f6107d3866105df565b90506107e23386868985610e91565b95945050505050565b5f5f6107f683610a32565b905080851115610858576040517fb94abeec00000000000000000000000000000000000000000000000000000000815273ffffffffffffffffffffffffffffffffffffffff841660048201526024810186905260448101829052606401610649565b5f610862866105b7565b90506107e2338686848a610e91565b5f6105c2825f610aa6565b5f6105c261021383610a32565b834211156108c6576040517f6279130200000000000000000000000000000000000000000000000000000000815260048101859052602401610649565b5f7f6e71edae12b1b97f4d1f60370fef10105fa2faae0126114a169c64845d6126c988888861091e8c73ffffffffffffffffffffffffffffffffffffffff165f90815260076020526040902080546001810190915590565b60408051602081019690965273ffffffffffffffffffffffffffffffffffffffff94851690860152929091166060840152608083015260a082015260c0810186905260e0016040516020818303038152906040528051906020012090505f61098582610f71565b90505f61099482878787610fb8565b90508973ffffffffffffffffffffffffffffffffffffffff168173ffffffffffffffffffffffffffffffffffffffff1614610a1b576040517f4b800e4600000000000000000000000000000000000000000000000000000000815273ffffffffffffffffffffffffffffffffffffffff80831660048301528b166024820152604401610649565b610a268a8a8a610a94565b50505050505050505050565b73ffffffffffffffffffffffffffffffffffffffff81165f908152602081905260408120546105c2565b5f610609610a68610472565b610a73906001611d8d565b610a7e5f600a611ec1565b600254610a8b9190611d8d565b85919085610fe4565b610aa18383836001611026565b505050565b5f610609610ab582600a611ec1565b600254610ac29190611d8d565b610aca610472565b610a8b906001611d8d565b73ffffffffffffffffffffffffffffffffffffffff8381165f908152600160209081526040808320938616835292905220547fffffffffffffffffffffffffffffffffffffffffffffffffffffffffffffffff811015610b9d5781811015610b8f576040517ffb8f41b200000000000000000000000000000000000000000000000000000000815273ffffffffffffffffffffffffffffffffffffffff841660048201526024810182905260448101839052606401610649565b610b9d84848484035f611026565b50505050565b73ffffffffffffffffffffffffffffffffffffffff8316610bf2576040517f96c6fd1e0000000000000000000000000000000000000000000000000000000081525f6004820152602401610649565b73ffffffffffffffffffffffffffffffffffffffff8216610c41576040517fec442f050000000000000000000000000000000000000000000000000000000081525f6004820152602401610649565b610aa183838361115d565b5f610522817f0000000000000000000000000000000000000000000000000000000000000000611ecf565b5f3073ffffffffffffffffffffffffffffffffffffffff7f000000000000000000000000000000000000000000000000000000000000000016148015610cdc57507f000000000000000000000000000000000000000000000000000000000000000046145b15610d0657507f000000000000000000000000000000000000000000000000000000000000000090565b610522604080517f8b73c3c69bb8fe3d512ecc4cf759cc79239f7b179b0ffacaa9a75d522b39400f60208201527f0000000000000000000000000000000000000000000000000000000000000000918101919091527f000000000000000000000000000000000000000000000000000000000000000060608201524660808201523060a08201525f9060c00160405160208183030381529060405280519060200120905090565b610db78483611304565b610dc18382611334565b8273ffffffffffffffffffffffffffffffffffffffff168473ffffffffffffffffffffffffffffffffffffffff167fdcbc1c05240f31ff3ad067ef1ee35ce4997762752e3a095284754544f4c709d78484604051610e29929190918252602082015260400190565b60405180910390a350505050565b60606105227f0000000000000000000000000000000000000000000000000000000000000000600561138e565b60606105227f0000000000000000000000000000000000000000000000000000000000000000600661138e565b8273ffffffffffffffffffffffffffffffffffffffff168573ffffffffffffffffffffffffffffffffffffffff1614610ecf57610ecf838683610ad5565b610ed98382611437565b610ee38483611491565b8273ffffffffffffffffffffffffffffffffffffffff168473ffffffffffffffffffffffffffffffffffffffff168673ffffffffffffffffffffffffffffffffffffffff167ffbde797d201c681b91056529119e0b02407c7bb96a4a2c75c01fc9667232c8db8585604051610f62929190918252602082015260400190565b60405180910390a45050505050565b5f6105c2610f7d610c77565b836040517f19010000000000000000000000000000000000000000000000000000000000008152600281019290925260228201526042902090565b5f5f5f5f610fc8888888886114bc565b925092509250610fd882826115af565b50909695505050505050565b5f611011610ff1836116b2565b801561100c57505f848061100757611007611ee8565b868809115b151590565b61101c8686866116de565b6107e29190611d8d565b73ffffffffffffffffffffffffffffffffffffffff8416611075576040517fe602df050000000000000000000000000000000000000000000000000000000081525f6004820152602401610649565b73ffffffffffffffffffffffffffffffffffffffff83166110c4576040517f94280d620000000000000000000000000000000000000000000000000000000081525f6004820152602401610649565b73ffffffffffffffffffffffffffffffffffffffff8085165f9081526001602090815260408083209387168352929052208290558015610b9d578273ffffffffffffffffffffffffffffffffffffffff168473ffffffffffffffffffffffffffffffffffffffff167f8c5be1e5ebec7d5bd14f71427d1e84f3dd0314c0f7b2291e5b200ac8c7c3b92584604051610e2991815260200190565b73ffffffffffffffffffffffffffffffffffffffff8316611194578060025f8282546111899190611d8d565b909155506112449050565b73ffffffffffffffffffffffffffffffffffffffff83165f9081526020819052604090205481811015611219576040517fe450d38c00000000000000000000000000000000000000000000000000000000815273ffffffffffffffffffffffffffffffffffffffff851660048201526024810182905260448101839052606401610649565b73ffffffffffffffffffffffffffffffffffffffff84165f9081526020819052604090209082900390555b73ffffffffffffffffffffffffffffffffffffffff821661126d57600280548290039055611298565b73ffffffffffffffffffffffffffffffffffffffff82165f9081526020819052604090208054820190555b8173ffffffffffffffffffffffffffffffffffffffff168373ffffffffffffffffffffffffffffffffffffffff167fddf252ad1be2c89b69c2b068fc378daa952ba7f163c4a11628f55a4df523b3ef836040516112f791815260200190565b60405180910390a3505050565b6113307f000000000000000000000000000000000000000000000000000000000000000083308461178e565b5050565b73ffffffffffffffffffffffffffffffffffffffff8216611383576040517fec442f050000000000000000000000000000000000000000000000000000000081525f6004820152602401610649565b6113305f838361115d565b606060ff83146113a8576113a1836117ea565b90506105c2565b8180546113b490611d0f565b80601f01602080910402602001604051908101604052809291908181526020018280546113e090611d0f565b801561142b5780601f106114025761010080835404028352916020019161142b565b820191905f5260205f20905b81548152906001019060200180831161140e57829003601f168201915b505050505090506105c2565b73ffffffffffffffffffffffffffffffffffffffff8216611486576040517f96c6fd1e0000000000000000000000000000000000000000000000000000000081525f6004820152602401610649565b611330825f8361115d565b6113307f00000000000000000000000000000000000000000000000000000000000000008383611827565b5f80807f7fffffffffffffffffffffffffffffff5d576e7357a4501ddfe92f46681b20a08411156114f557505f915060039050826115a5565b604080515f808252602082018084528a905260ff891692820192909252606081018790526080810186905260019060a0016020604051602081039080840390855afa158015611546573d5f5f3e3d5ffd5b50506040517fffffffffffffffffffffffffffffffffffffffffffffffffffffffffffffffe0015191505073ffffffffffffffffffffffffffffffffffffffff811661159c57505f9250600191508290506115a5565b92505f91508190505b9450945094915050565b5f8260038111156115c2576115c2611f15565b036115cb575050565b60018260038111156115df576115df611f15565b03611616576040517ff645eedf00000000000000000000000000000000000000000000000000000000815260040160405180910390fd5b600282600381111561162a5761162a611f15565b03611664576040517ffce698f700000000000000000000000000000000000000000000000000000000815260048101829052602401610649565b600382600381111561167857611678611f15565b03611330576040517fd78bce0c00000000000000000000000000000000000000000000000000000000815260048101829052602401610649565b5f60028260038111156116c7576116c7611f15565b6116d19190611f42565b60ff166001149050919050565b5f5f5f6116eb8686611882565b91509150815f0361170f5783818161170557611705611ee8565b0492505050610609565b8184116117265761172660038515026011186118bd565b5f848688095f868103871696879004966002600389028118808a02820302808a02820302808a02820302808a02820302808a02820302808a02909103029181900381900460010185841190960395909502919093039390930492909217029150509392505050565b61179c8484848460016118ce565b610b9d576040517f5274afe700000000000000000000000000000000000000000000000000000000815273ffffffffffffffffffffffffffffffffffffffff85166004820152602401610649565b60605f6117f683611961565b6040805160208082528183019092529192505f91906020820181803683375050509182525060208101929092525090565b61183483838360016119a1565b610aa1576040517f5274afe700000000000000000000000000000000000000000000000000000000815273ffffffffffffffffffffffffffffffffffffffff84166004820152602401610649565b5f807fffffffffffffffffffffffffffffffffffffffffffffffffffffffffffffffff83850993909202808410938190039390930393915050565b634e487b715f52806020526024601cfd5b6040517f23b872dd000000000000000000000000000000000000000000000000000000005f81815273ffffffffffffffffffffffffffffffffffffffff8781166004528616602452604485905291602083606481808c5af1925060015f51148316611950578383151615611944573d5f823e3d81fd5b5f883b113d1516831692505b604052505f60605295945050505050565b5f60ff8216601f8111156105c2576040517fb3512b0c00000000000000000000000000000000000000000000000000000000815260040160405180910390fd5b6040517fa9059cbb000000000000000000000000000000000000000000000000000000005f81815273ffffffffffffffffffffffffffffffffffffffff8616600452602485905291602083604481808b5af1925060015f51148316611a1d578383151615611a11573d5f823e3d81fd5b5f873b113d1516831692505b60405250949350505050565b5f81518084528060208401602086015e5f6020828601015260207fffffffffffffffffffffffffffffffffffffffffffffffffffffffffffffffe0601f83011685010191505092915050565b602081525f6106096020830184611a29565b5f60208284031215611a97575f5ffd5b5035919050565b803573ffffffffffffffffffffffffffffffffffffffff81168114611ac1575f5ffd5b919050565b5f5f60408385031215611ad7575f5ffd5b611ae083611a9e565b946020939093013593505050565b5f5f5f60608486031215611b00575f5ffd5b611b0984611a9e565b9250611b1760208501611a9e565b929592945050506040919091013590565b5f60208284031215611b38575f5ffd5b61060982611a9e565b5f5f60408385031215611b52575f5ffd5b82359150611b6260208401611a9e565b90509250929050565b7fff000000000000000000000000000000000000000000000000000000000000008816815260e060208201525f611ba560e0830189611a29565b8281036040840152611bb78189611a29565b6060840188905273ffffffffffffffffffffffffffffffffffffffff8716608085015260a0840186905283810360c0850152845180825260208087019350909101905f5b81811015611c19578351835260209384019390920191600101611bfb565b50909b9a5050505050505050505050565b5f5f5f60608486031215611c3c575f5ffd5b83359250611c4c60208501611a9e565b9150611c5a60408501611a9e565b90509250925092565b5f5f5f5f5f5f5f60e0888a031215611c79575f5ffd5b611c8288611a9e565b9650611c9060208901611a9e565b95506040880135945060608801359350608088013560ff81168114611cb3575f5ffd5b9699959850939692959460a0840135945060c09093013592915050565b5f5f60408385031215611ce1575f5ffd5b611cea83611a9e565b9150611b6260208401611a9e565b5f60208284031215611d08575f5ffd5b5051919050565b600181811c90821680611d2357607f821691505b602082108103611d5a577f4e487b71000000000000000000000000000000000000000000000000000000005f52602260045260245ffd5b50919050565b7f4e487b71000000000000000000000000000000000000000000000000000000005f52601160045260245ffd5b808201808211156105c2576105c2611d60565b6001815b6001841115611ddb57808504811115611dbf57611dbf611d60565b6001841615611dcd57908102905b60019390931c928002611da4565b935093915050565b5f82611df1575060016105c2565b81611dfd57505f6105c2565b8160018114611e135760028114611e1d57611e39565b60019150506105c2565b60ff841115611e2e57611e2e611d60565b50506001821b6105c2565b5060208310610133831016604e8410600b8410161715611e5c575081810a6105c2565b611e877fffffffffffffffffffffffffffffffffffffffffffffffffffffffffffffffff8484611da0565b807fffffffffffffffffffffffffffffffffffffffffffffffffffffffffffffffff04821115611eb957611eb9611d60565b029392505050565b5f61060960ff841683611de3565b60ff81811683821601908111156105c2576105c2611d60565b7f4e487b71000000000000000000000000000000000000000000000000000000005f52601260045260245ffd5b7f4e487b71000000000000000000000000000000000000000000000000000000005f52602160045260245ffd5b5f60ff831680611f79577f4e487b71000000000000000000000000000000000000000000000000000000005f52601260045260245ffd5b8060ff8416069150509291505056fea26469706673582212203d3f1f830d6122133e33b78271f4a8653c4654c17216f16d2b487bb575c026e064736f6c634300081e0033","linkReferences":{}},"methodIdentifiers":{"DOMAIN_SEPARATOR()":"3644e515","allowance(address,address)":"dd62ed3e","approve(address,uint256)":"095ea7b3","asset()":"38d52e0f","balanceOf(address)":"70a08231","convertToAssets(uint256)":"07a2d13a","convertToShares(uint256)":"c6e6f592","decimals()":"313ce567","deposit(uint256,address)":"6e553f65","eip712Domain()":"84b0196e","maxDeposit(address)":"402d267d","maxMint(address)":"c63d75b6","maxRedeem(address)":"d905777e","maxWithdraw(address)":"ce96cb77","mint(uint256,address)":"94bf804d","name()":"06fdde03","nonces(address)":"7ecebe00","permit(address,address,uint256,uint256,uint8,bytes32,bytes32)":"d505accf","previewDeposit(uint256)":"ef8b30f7","previewMint(uint256)":"b3d7f6b9","previewRedeem(uint256)":"4cdad506","previewWithdraw(uint256)":"0a28a477","redeem(uint256,address,address)":"ba087652","symbol()":"95d89b41","test()":"f8a8fd6d","totalAssets()":"01e1d114","totalSupply()":"18160ddd","transfer(address,uint256)":"a9059cbb","transferFrom(address,address,uint256)":"23b872dd","withdraw(uint256,address,address)":"b460af94"},"id":197}