{"abi":[{"type":"function","name":"assertExists","inputs":[{"name":"self","type":"tuple","internalType":"struct Variable","components":[{"name":"ty","type":"tuple","internalType":"struct Type","components":[{"name":"kind","type":"TypeKind","internalType":"enum TypeKind"},{"name":"isArray","type":"bool","internalType":"bool"}]},{"name":"data","type":"bytes","internalType":"bytes"}]}],"outputs":[],"stateMutability":"pure"},{"type":"error","name":"NotInitialized","inputs":[]},{"type":"error","name":"TypeMismatch","inputs":[{"name":"expected","type":"string","internalType":"string"},{"name":"actual","type":"string","internalType":"string"}]},{"type":"error","name":"UnsafeCast","inputs":[{"name":"message","type":"string","internalType":"string"}]}],"bytecode":{"object":"0x6102b3610034600b8282823980515f1a607314602857634e487b7160e01b5f525f60045260245ffd5b305f52607381538281f3fe7300000000000000000000000000000000000000003014608060405260043610610034575f3560e01c806315af8fee14610038575b5f5ffd5b61004b61004636600461019b565b61004d565b005b5f815151600781111561006257610062610250565b03610099576040517f87138d5c00000000000000000000000000000000000000000000000000000000815260040160405180910390fd5b50565b7f4e487b71000000000000000000000000000000000000000000000000000000005f52604160045260245ffd5b6040805190810167ffffffffffffffff811182821017156100ec576100ec61009c565b60405290565b5f82601f830112610101575f5ffd5b813567ffffffffffffffff81111561011b5761011b61009c565b604051601f82017fffffffffffffffffffffffffffffffffffffffffffffffffffffffffffffffe0908116603f0116810167ffffffffffffffff811182821017156101685761016861009c565b60405281815283820160200185101561017f575f5ffd5b816020850160208301375f918101602001919091529392505050565b5f602082840312156101ab575f5ffd5b813567ffffffffffffffff8111156101c1575f5ffd5b820180840360608112156101d3575f5ffd5b6101db6100c9565b60408212156101e8575f5ffd5b6101f06100c9565b9150823560088110610200575f5ffd5b825260208301358015158114610214575f5ffd5b602083015290815260408201359067ffffffffffffffff821115610236575f5ffd5b610242868385016100f2565b602082015295945050505050565b7f4e487b71000000000000000000000000000000000000000000000000000000005f52602160045260245ffdfea2646970667358221220face7f04da25adab6a2019316f4a00e54245e14323b4e905646610edf794704664736f6c634300081e0033","linkReferences":{}},"methodIdentifiers":{"assertExists(Variable)":"15af8fee"},"id":62}