{"abi":[{"type":"constructor","inputs":[{"name":"owner_","type":"address","internalType":"address"}],"stateMutability":"nonpayable"},{"type":"function","name":"DEFAULT_ADMIN_ROLE","inputs":[],"outputs":[{"name":"","type":"bytes32","internalType":"bytes32"}],"stateMutability":"view"},{"type":"function","name":"getRoleAdmin","inputs":[{"name":"role","type":"bytes32","internalType":"bytes32"}],"outputs":[{"name":"","type":"bytes32","internalType":"bytes32"}],"stateMutability":"view"},{"type":"function","name":"grantRole","inputs":[{"name":"role","type":"bytes32","internalType":"bytes32"},{"name":"account","type":"address","internalType":"address"}],"outputs":[],"stateMutability":"nonpayable"},{"type":"function","name":"hasRole","inputs":[{"name":"role","type":"bytes32","internalType":"bytes32"},{"name":"account","type":"address","internalType":"address"}],"outputs":[{"name":"","type":"bool","internalType":"bool"}],"stateMutability":"view"},{"type":"function","name":"multicall","inputs":[{"name":"targets","type":"address[]","internalType":"address[]"},{"name":"data","type":"bytes[]","internalType":"bytes[]"}],"outputs":[],"stateMutability":"nonpayable"},{"type":"function","name":"renounceRole","inputs":[{"name":"role","type":"bytes32","internalType":"bytes32"},{"name":"callerConfirmation","type":"address","internalType":"address"}],"outputs":[],"stateMutability":"nonpayable"},{"type":"function","name":"revokeRole","inputs":[{"name":"role","type":"bytes32","internalType":"bytes32"},{"name":"account","type":"address","internalType":"address"}],"outputs":[],"stateMutability":"nonpayable"},{"type":"function","name":"supportsInterface","inputs":[{"name":"interfaceId","type":"bytes4","internalType":"bytes4"}],"outputs":[{"name":"","type":"bool","internalType":"bool"}],"stateMutability":"view"},{"type":"event","name":"RoleAdminChanged","inputs":[{"name":"role","type":"bytes32","indexed":true,"internalType":"bytes32"},{"name":"previousAdminRole","type":"bytes32","indexed":true,"internalType":"bytes32"},{"name":"newAdminRole","type":"bytes32","indexed":true,"internalType":"bytes32"}],"anonymous":false},{"type":"event","name":"RoleGranted","inputs":[{"name":"role","type":"bytes32","indexed":true,"internalType":"bytes32"},{"name":"account","type":"address","indexed":true,"internalType":"address"},{"name":"sender","type":"address","indexed":true,"internalType":"address"}],"anonymous":false},{"type":"event","name":"RoleRevoked","inputs":[{"name":"role","type":"bytes32","indexed":true,"internalType":"bytes32"},{"name":"account","type":"address","indexed":true,"internalType":"address"},{"name":"sender","type":"address","indexed":true,"internalType":"address"}],"anonymous":false},{"type":"error","name":"AccessControlBadConfirmation","inputs":[]},{"type":"error","name":"AccessControlUnauthorizedAccount","inputs":[{"name":"account","type":"address","internalType":"address"},{"name":"neededRole","type":"bytes32","internalType":"bytes32"}]}],"bytecode":{"object":"0x608060405234801561000f575f5ffd5b5060405161098138038061098183398101604081905261002e916100e8565b6100385f8261003f565b5050610115565b5f828152602081815260408083206001600160a01b038516845290915281205460ff166100df575f838152602081815260408083206001600160a01b03861684529091529020805460ff191660011790556100973390565b6001600160a01b0316826001600160a01b0316847f2f8788117e7eff1d82e926ec794901d17c78024a50270940304540a733656f0d60405160405180910390a45060016100e2565b505f5b92915050565b5f602082840312156100f8575f5ffd5b81516001600160a01b038116811461010e575f5ffd5b9392505050565b61085f806101225f395ff3fe608060405234801561000f575f5ffd5b5060043610610085575f3560e01c806363fb0b961161005857806363fb0b961461010957806391d148541461011c578063a217fddf1461015f578063d547741f14610166575f5ffd5b806301ffc9a714610089578063248a9ca3146100b15780632f2ff15d146100e157806336568abe146100f6575b5f5ffd5b61009c610097366004610610565b610179565b60405190151581526020015b60405180910390f35b6100d36100bf366004610656565b5f9081526020819052604090206001015490565b6040519081526020016100a8565b6100f46100ef366004610695565b610211565b005b6100f4610104366004610695565b61023b565b6100f4610117366004610707565b610299565b61009c61012a366004610695565b5f9182526020828152604080842073ffffffffffffffffffffffffffffffffffffffff93909316845291905290205460ff1690565b6100d35f81565b6100f4610174366004610695565b6103a0565b5f7fffffffff0000000000000000000000000000000000000000000000000000000082167f7965db0b00000000000000000000000000000000000000000000000000000000148061020b57507f01ffc9a7000000000000000000000000000000000000000000000000000000007fffffffff000000000000000000000000000000000000000000000000000000008316145b92915050565b5f8281526020819052604090206001015461022b816103c4565b61023583836103d1565b50505050565b73ffffffffffffffffffffffffffffffffffffffff8116331461028a576040517f6697b23200000000000000000000000000000000000000000000000000000000815260040160405180910390fd5b61029482826104ca565b505050565b7ffcb36dc1d729cdaeda2a1d65cca1e818e6dd2c2ea9a626349ca7ef7638b618246102c3816103c4565b5f5b82811015610398575f5f8787848181106102e1576102e1610773565b90506020020160208101906102f691906107a0565b73ffffffffffffffffffffffffffffffffffffffff1686868581811061031e5761031e610773565b905060200281019061033091906107b9565b60405161033e92919061081a565b5f604051808303815f865af19150503d805f8114610377576040519150601f19603f3d011682016040523d82523d5f602084013e61037c565b606091505b50915091508161038e57805181602001fd5b50506001016102c5565b505050505050565b5f828152602081905260409020600101546103ba816103c4565b61023583836104ca565b6103ce8133610583565b50565b5f8281526020818152604080832073ffffffffffffffffffffffffffffffffffffffff8516845290915281205460ff166104c3575f8381526020818152604080832073ffffffffffffffffffffffffffffffffffffffff86168452909152902080547fffffffffffffffffffffffffffffffffffffffffffffffffffffffffffffff001660011790556104613390565b73ffffffffffffffffffffffffffffffffffffffff168273ffffffffffffffffffffffffffffffffffffffff16847f2f8788117e7eff1d82e926ec794901d17c78024a50270940304540a733656f0d60405160405180910390a450600161020b565b505f61020b565b5f8281526020818152604080832073ffffffffffffffffffffffffffffffffffffffff8516845290915281205460ff16156104c3575f8381526020818152604080832073ffffffffffffffffffffffffffffffffffffffff8616808552925280832080547fffffffffffffffffffffffffffffffffffffffffffffffffffffffffffffff0016905551339286917ff6391f5c32d9c69d2a47ea670b442974b53935d1edc7fd64eb21e047a839171b9190a450600161020b565b5f8281526020818152604080832073ffffffffffffffffffffffffffffffffffffffff8516845290915290205460ff1661060c576040517fe2517d3f00000000000000000000000000000000000000000000000000000000815273ffffffffffffffffffffffffffffffffffffffff821660048201526024810183905260440160405180910390fd5b5050565b5f60208284031215610620575f5ffd5b81357fffffffff000000000000000000000000000000000000000000000000000000008116811461064f575f5ffd5b9392505050565b5f60208284031215610666575f5ffd5b5035919050565b803573ffffffffffffffffffffffffffffffffffffffff81168114610690575f5ffd5b919050565b5f5f604083850312156106a6575f5ffd5b823591506106b66020840161066d565b90509250929050565b5f5f83601f8401126106cf575f5ffd5b50813567ffffffffffffffff8111156106e6575f5ffd5b6020830191508360208260051b8501011115610700575f5ffd5b9250929050565b5f5f5f5f6040858703121561071a575f5ffd5b843567ffffffffffffffff811115610730575f5ffd5b61073c878288016106bf565b909550935050602085013567ffffffffffffffff81111561075b575f5ffd5b610767878288016106bf565b95989497509550505050565b7f4e487b71000000000000000000000000000000000000000000000000000000005f52603260045260245ffd5b5f602082840312156107b0575f5ffd5b61064f8261066d565b5f5f83357fffffffffffffffffffffffffffffffffffffffffffffffffffffffffffffffe18436030181126107ec575f5ffd5b83018035915067ffffffffffffffff821115610806575f5ffd5b602001915036819003821315610700575f5ffd5b818382375f910190815291905056fea26469706673582212208c06fabbbef1539a23dd189813e4d3f7d865928dabb266400f9f404b73e292ad64736f6c634300081e0033","linkReferences":{}},"methodIdentifiers":{"DEFAULT_ADMIN_ROLE()":"a217fddf","getRoleAdmin(bytes32)":"248a9ca3","grantRole(bytes32,address)":"2f2ff15d","hasRole(bytes32,address)":"91d14854","multicall(address[],bytes[])":"63fb0b96","renounceRole(bytes32,address)":"36568abe","revokeRole(bytes32,address)":"d547741f","supportsInterface(bytes4)":"01ffc9a7"},"id":142}