{"abi":[{"type":"constructor","inputs":[{"name":"name","type":"string","internalType":"string"},{"name":"symbol","type":"string","internalType":"string"},{"name":"decimals_","type":"uint8","internalType":"uint8"}],"stateMutability":"nonpayable"},{"type":"function","name":"allowance","inputs":[{"name":"owner","type":"address","internalType":"address"},{"name":"spender","type":"address","internalType":"address"}],"outputs":[{"name":"","type":"uint256","internalType":"uint256"}],"stateMutability":"view"},{"type":"function","name":"approve","inputs":[{"name":"spender","type":"address","internalType":"address"},{"name":"value","type":"uint256","internalType":"uint256"}],"outputs":[{"name":"","type":"bool","internalType":"bool"}],"stateMutability":"nonpayable"},{"type":"function","name":"balanceOf","inputs":[{"name":"account","type":"address","internalType":"address"}],"outputs":[{"name":"","type":"uint256","internalType":"uint256"}],"stateMutability":"view"},{"type":"function","name":"burn","inputs":[{"name":"account","type":"address","internalType":"address"},{"name":"amount","type":"uint256","internalType":"uint256"}],"outputs":[],"stateMutability":"nonpayable"},{"type":"function","name":"decimals","inputs":[],"outputs":[{"name":"","type":"uint8","internalType":"uint8"}],"stateMutability":"view"},{"type":"function","name":"mint","inputs":[{"name":"account","type":"address","internalType":"address"},{"name":"amount","type":"uint256","internalType":"uint256"}],"outputs":[],"stateMutability":"nonpayable"},{"type":"function","name":"name","inputs":[],"outputs":[{"name":"","type":"string","internalType":"string"}],"stateMutability":"view"},{"type":"function","name":"setTriggerReentrancy","inputs":[{"name":"newStatus","type":"bool","internalType":"bool"}],"outputs":[],"stateMutability":"nonpayable"},{"type":"function","name":"symbol","inputs":[],"outputs":[{"name":"","type":"string","internalType":"string"}],"stateMutability":"view"},{"type":"function","name":"totalSupply","inputs":[],"outputs":[{"name":"","type":"uint256","internalType":"uint256"}],"stateMutability":"view"},{"type":"function","name":"transfer","inputs":[{"name":"to","type":"address","internalType":"address"},{"name":"value","type":"uint256","internalType":"uint256"}],"outputs":[{"name":"","type":"bool","internalType":"bool"}],"stateMutability":"nonpayable"},{"type":"function","name":"transferFrom","inputs":[{"name":"from","type":"address","internalType":"address"},{"name":"to","type":"address","internalType":"address"},{"name":"value","type":"uint256","internalType":"uint256"}],"outputs":[{"name":"","type":"bool","internalType":"bool"}],"stateMutability":"nonpayable"},{"type":"event","name":"Approval","inputs":[{"name":"owner","type":"address","indexed":true,"internalType":"address"},{"name":"spender","type":"address","indexed":true,"internalType":"address"},{"name":"value","type":"uint256","indexed":false,"internalType":"uint256"}],"anonymous":false},{"type":"event","name":"Transfer","inputs":[{"name":"from","type":"address","indexed":true,"internalType":"address"},{"name":"to","type":"address","indexed":true,"internalType":"address"},{"name":"value","type":"uint256","indexed":false,"internalType":"uint256"}],"anonymous":false},{"type":"error","name":"ERC20InsufficientAllowance","inputs":[{"name":"spender","type":"address","internalType":"address"},{"name":"allowance","type":"uint256","internalType":"uint256"},{"name":"needed","type":"uint256","internalType":"uint256"}]},{"type":"error","name":"ERC20InsufficientBalance","inputs":[{"name":"sender","type":"address","internalType":"address"},{"name":"balance","type":"uint256","internalType":"uint256"},{"name":"needed","type":"uint256","internalType":"uint256"}]},{"type":"error","name":"ERC20InvalidApprover","inputs":[{"name":"approver","type":"address","internalType":"address"}]},{"type":"error","name":"ERC20InvalidReceiver","inputs":[{"name":"receiver","type":"address","internalType":"address"}]},{"type":"error","name":"ERC20InvalidSender","inputs":[{"name":"sender","type":"address","internalType":"address"}]},{"type":"error","name":"ERC20InvalidSpender","inputs":[{"name":"spender","type":"address","internalType":"address"}]}],"bytecode":{"object":"0x60a060405234801561000f575f5ffd5b50604051610df5380380610df583398101604081905261002e916100f7565b8282600361003c83826101f8565b50600461004982826101f8565b50505060ff16608052506102b29050565b634e487b7160e01b5f52604160045260245ffd5b5f82601f83011261007d575f5ffd5b81516001600160401b038111156100965761009661005a565b604051601f8201601f19908116603f011681016001600160401b03811182821017156100c4576100c461005a565b6040528181528382016020018510156100db575f5ffd5b8160208501602083015e5f918101602001919091529392505050565b5f5f5f60608486031215610109575f5ffd5b83516001600160401b0381111561011e575f5ffd5b61012a8682870161006e565b602086015190945090506001600160401b03811115610147575f5ffd5b6101538682870161006e565b925050604084015160ff81168114610169575f5ffd5b809150509250925092565b600181811c9082168061018857607f821691505b6020821081036101a657634e487b7160e01b5f52602260045260245ffd5b50919050565b601f8211156101f357805f5260205f20601f840160051c810160208510156101d15750805b601f840160051c820191505b818110156101f0575f81556001016101dd565b50505b505050565b81516001600160401b038111156102115761021161005a565b6102258161021f8454610174565b846101ac565b6020601f821160018114610257575f83156102405750848201515b5f19600385901b1c1916600184901b1784556101f0565b5f84815260208120601f198516915b828110156102865787850151825560209485019460019092019101610266565b50848210156102a357868401515f19600387901b60f8161c191681555b50505050600190811b01905550565b608051610b2b6102ca5f395f6101400152610b2b5ff3fe608060405234801561000f575f5ffd5b50600436106100cf575f3560e01c80635ac9427d1161007d5780639dc29fac116100585780639dc29fac146101fb578063a9059cbb1461020e578063dd62ed3e14610221575f5ffd5b80635ac9427d1461017f57806370a08231146101be57806395d89b41146101f3575f5ffd5b806323b872dd116100ad57806323b872dd14610126578063313ce5671461013957806340c10f191461016a575f5ffd5b806306fdde03146100d3578063095ea7b3146100f157806318160ddd14610114575b5f5ffd5b6100db610266565b6040516100e8919061091f565b60405180910390f35b6101046100ff36600461099a565b6102f6565b60405190151581526020016100e8565b6002545b6040519081526020016100e8565b6101046101343660046109c2565b61030f565b60405160ff7f00000000000000000000000000000000000000000000000000000000000000001681526020016100e8565b61017d61017836600461099a565b610332565b005b61017d61018d3660046109fc565b600580547fffffffffffffffffffffffffffffffffffffffffffffffffffffffffffffff0016911515919091179055565b6101186101cc366004610a22565b73ffffffffffffffffffffffffffffffffffffffff165f9081526020819052604090205490565b6100db610340565b61017d61020936600461099a565b61034f565b61010461021c36600461099a565b610359565b61011861022f366004610a3b565b73ffffffffffffffffffffffffffffffffffffffff9182165f90815260016020908152604080832093909416825291909152205490565b60606003805461027590610a6c565b80601f01602080910402602001604051908101604052809291908181526020018280546102a190610a6c565b80156102ec5780601f106102c3576101008083540402835291602001916102ec565b820191905f5260205f20905b8154815290600101906020018083116102cf57829003601f168201915b5050505050905090565b5f336103038185856103f1565b60019150505b92915050565b5f3361031c858285610403565b6103278585856104d6565b506001949350505050565b61033c828261057f565b5050565b60606004805461027590610a6c565b61033c82826105d9565b6005545f9060ff16156103da576040517f8b63c267000000000000000000000000000000000000000000000000000000008152600260048201526001602482015233908190638b63c267906044015f604051808303815f87803b1580156103be575f5ffd5b505af11580156103d0573d5f5f3e3d5ffd5b50505050506103e8565b336103e68185856104d6565b505b50600192915050565b6103fe8383836001610633565b505050565b73ffffffffffffffffffffffffffffffffffffffff8381165f908152600160209081526040808320938616835292905220547fffffffffffffffffffffffffffffffffffffffffffffffffffffffffffffffff8110156104d057818110156104c2576040517ffb8f41b200000000000000000000000000000000000000000000000000000000815273ffffffffffffffffffffffffffffffffffffffff8416600482015260248101829052604481018390526064015b60405180910390fd5b6104d084848484035f610633565b50505050565b73ffffffffffffffffffffffffffffffffffffffff8316610525576040517f96c6fd1e0000000000000000000000000000000000000000000000000000000081525f60048201526024016104b9565b73ffffffffffffffffffffffffffffffffffffffff8216610574576040517fec442f050000000000000000000000000000000000000000000000000000000081525f60048201526024016104b9565b6103fe838383610778565b73ffffffffffffffffffffffffffffffffffffffff82166105ce576040517fec442f050000000000000000000000000000000000000000000000000000000081525f60048201526024016104b9565b61033c5f8383610778565b73ffffffffffffffffffffffffffffffffffffffff8216610628576040517f96c6fd1e0000000000000000000000000000000000000000000000000000000081525f60048201526024016104b9565b61033c825f83610778565b73ffffffffffffffffffffffffffffffffffffffff8416610682576040517fe602df050000000000000000000000000000000000000000000000000000000081525f60048201526024016104b9565b73ffffffffffffffffffffffffffffffffffffffff83166106d1576040517f94280d620000000000000000000000000000000000000000000000000000000081525f60048201526024016104b9565b73ffffffffffffffffffffffffffffffffffffffff8085165f90815260016020908152604080832093871683529290522082905580156104d0578273ffffffffffffffffffffffffffffffffffffffff168473ffffffffffffffffffffffffffffffffffffffff167f8c5be1e5ebec7d5bd14f71427d1e84f3dd0314c0f7b2291e5b200ac8c7c3b9258460405161076a91815260200190565b60405180910390a350505050565b73ffffffffffffffffffffffffffffffffffffffff83166107af578060025f8282546107a49190610abd565b9091555061085f9050565b73ffffffffffffffffffffffffffffffffffffffff83165f9081526020819052604090205481811015610834576040517fe450d38c00000000000000000000000000000000000000000000000000000000815273ffffffffffffffffffffffffffffffffffffffff8516600482015260248101829052604481018390526064016104b9565b73ffffffffffffffffffffffffffffffffffffffff84165f9081526020819052604090209082900390555b73ffffffffffffffffffffffffffffffffffffffff8216610888576002805482900390556108b3565b73ffffffffffffffffffffffffffffffffffffffff82165f9081526020819052604090208054820190555b8173ffffffffffffffffffffffffffffffffffffffff168373ffffffffffffffffffffffffffffffffffffffff167fddf252ad1be2c89b69c2b068fc378daa952ba7f163c4a11628f55a4df523b3ef8360405161091291815260200190565b60405180910390a3505050565b602081525f82518060208401528060208501604085015e5f6040828501015260407fffffffffffffffffffffffffffffffffffffffffffffffffffffffffffffffe0601f83011684010191505092915050565b803573ffffffffffffffffffffffffffffffffffffffff81168114610995575f5ffd5b919050565b5f5f604083850312156109ab575f5ffd5b6109b483610972565b946020939093013593505050565b5f5f5f606084860312156109d4575f5ffd5b6109dd84610972565b92506109eb60208501610972565b929592945050506040919091013590565b5f60208284031215610a0c575f5ffd5b81358015158114610a1b575f5ffd5b9392505050565b5f60208284031215610a32575f5ffd5b610a1b82610972565b5f5f60408385031215610a4c575f5ffd5b610a5583610972565b9150610a6360208401610972565b90509250929050565b600181811c90821680610a8057607f821691505b602082108103610ab7577f4e487b71000000000000000000000000000000000000000000000000000000005f52602260045260245ffd5b50919050565b80820180821115610309577f4e487b71000000000000000000000000000000000000000000000000000000005f52601160045260245ffdfea2646970667358221220ddc70032444b2a00a89397324095ebe3d37903fe17a04fccd832d70f34f1841664736f6c634300081e0033","linkReferences":{}},"methodIdentifiers":{"allowance(address,address)":"dd62ed3e","approve(address,uint256)":"095ea7b3","balanceOf(address)":"70a08231","burn(address,uint256)":"9dc29fac","decimals()":"313ce567","mint(address,uint256)":"40c10f19","name()":"06fdde03","setTriggerReentrancy(bool)":"5ac9427d","symbol()":"95d89b41","totalSupply()":"18160ddd","transfer(address,uint256)":"a9059cbb","transferFrom(address,address,uint256)":"23b872dd"},"id":200}