{"abi":[{"type":"constructor","inputs":[{"name":"_owner","type":"address","internalType":"address"},{"name":"_token","type":"address","internalType":"address"},{"name":"_minterBurner","type":"address","internalType":"address"},{"name":"_lzEndpoint","type":"address","internalType":"address"},{"name":"_delegate","type":"address","internalType":"address"}],"stateMutability":"nonpayable"},{"type":"function","name":"SEND","inputs":[],"outputs":[{"name":"","type":"uint16","internalType":"uint16"}],"stateMutability":"view"},{"type":"function","name":"SEND_AND_CALL","inputs":[],"outputs":[{"name":"","type":"uint16","internalType":"uint16"}],"stateMutability":"view"},{"type":"function","name":"allowInitializePath","inputs":[{"name":"origin","type":"tuple","internalType":"struct Origin","components":[{"name":"srcEid","type":"uint32","internalType":"uint32"},{"name":"sender","type":"bytes32","internalType":"bytes32"},{"name":"nonce","type":"uint64","internalType":"uint64"}]}],"outputs":[{"name":"","type":"bool","internalType":"bool"}],"stateMutability":"view"},{"type":"function","name":"approvalRequired","inputs":[],"outputs":[{"name":"","type":"bool","internalType":"bool"}],"stateMutability":"pure"},{"type":"function","name":"combineOptions","inputs":[{"name":"_eid","type":"uint32","internalType":"uint32"},{"name":"_msgType","type":"uint16","internalType":"uint16"},{"name":"_extraOptions","type":"bytes","internalType":"bytes"}],"outputs":[{"name":"","type":"bytes","internalType":"bytes"}],"stateMutability":"view"},{"type":"function","name":"decimalConversionRate","inputs":[],"outputs":[{"name":"","type":"uint256","internalType":"uint256"}],"stateMutability":"view"},{"type":"function","name":"endpoint","inputs":[],"outputs":[{"name":"","type":"address","internalType":"contract ILayerZeroEndpointV2"}],"stateMutability":"view"},{"type":"function","name":"enforcedOptions","inputs":[{"name":"eid","type":"uint32","internalType":"uint32"},{"name":"msgType","type":"uint16","internalType":"uint16"}],"outputs":[{"name":"enforcedOption","type":"bytes","internalType":"bytes"}],"stateMutability":"view"},{"type":"function","name":"isComposeMsgSender","inputs":[{"name":"","type":"tuple","internalType":"struct Origin","components":[{"name":"srcEid","type":"uint32","internalType":"uint32"},{"name":"sender","type":"bytes32","internalType":"bytes32"},{"name":"nonce","type":"uint64","internalType":"uint64"}]},{"name":"","type":"bytes","internalType":"bytes"},{"name":"_sender","type":"address","internalType":"address"}],"outputs":[{"name":"","type":"bool","internalType":"bool"}],"stateMutability":"view"},{"type":"function","name":"isPeer","inputs":[{"name":"_eid","type":"uint32","internalType":"uint32"},{"name":"_peer","type":"bytes32","internalType":"bytes32"}],"outputs":[{"name":"","type":"bool","internalType":"bool"}],"stateMutability":"view"},{"type":"function","name":"lzReceive","inputs":[{"name":"_origin","type":"tuple","internalType":"struct Origin","components":[{"name":"srcEid","type":"uint32","internalType":"uint32"},{"name":"sender","type":"bytes32","internalType":"bytes32"},{"name":"nonce","type":"uint64","internalType":"uint64"}]},{"name":"_guid","type":"bytes32","internalType":"bytes32"},{"name":"_message","type":"bytes","internalType":"bytes"},{"name":"_executor","type":"address","internalType":"address"},{"name":"_extraData","type":"bytes","internalType":"bytes"}],"outputs":[],"stateMutability":"payable"},{"type":"function","name":"lzReceiveAndRevert","inputs":[{"name":"_packets","type":"tuple[]","internalType":"struct InboundPacket[]","components":[{"name":"origin","type":"tuple","internalType":"struct Origin","components":[{"name":"srcEid","type":"uint32","internalType":"uint32"},{"name":"sender","type":"bytes32","internalType":"bytes32"},{"name":"nonce","type":"uint64","internalType":"uint64"}]},{"name":"dstEid","type":"uint32","internalType":"uint32"},{"name":"receiver","type":"address","internalType":"address"},{"name":"guid","type":"bytes32","internalType":"bytes32"},{"name":"value","type":"uint256","internalType":"uint256"},{"name":"executor","type":"address","internalType":"address"},{"name":"message","type":"bytes","internalType":"bytes"},{"name":"extraData","type":"bytes","internalType":"bytes"}]}],"outputs":[],"stateMutability":"payable"},{"type":"function","name":"lzReceiveSimulate","inputs":[{"name":"_origin","type":"tuple","internalType":"struct Origin","components":[{"name":"srcEid","type":"uint32","internalType":"uint32"},{"name":"sender","type":"bytes32","internalType":"bytes32"},{"name":"nonce","type":"uint64","internalType":"uint64"}]},{"name":"_guid","type":"bytes32","internalType":"bytes32"},{"name":"_message","type":"bytes","internalType":"bytes"},{"name":"_executor","type":"address","internalType":"address"},{"name":"_extraData","type":"bytes","internalType":"bytes"}],"outputs":[],"stateMutability":"payable"},{"type":"function","name":"minterBurner","inputs":[],"outputs":[{"name":"","type":"address","internalType":"contract IMintableBurnable"}],"stateMutability":"view"},{"type":"function","name":"msgInspector","inputs":[],"outputs":[{"name":"","type":"address","internalType":"address"}],"stateMutability":"view"},{"type":"function","name":"nextNonce","inputs":[{"name":"","type":"uint32","internalType":"uint32"},{"name":"","type":"bytes32","internalType":"bytes32"}],"outputs":[{"name":"nonce","type":"uint64","internalType":"uint64"}],"stateMutability":"view"},{"type":"function","name":"oApp","inputs":[],"outputs":[{"name":"","type":"address","internalType":"address"}],"stateMutability":"view"},{"type":"function","name":"oAppVersion","inputs":[],"outputs":[{"name":"senderVersion","type":"uint64","internalType":"uint64"},{"name":"receiverVersion","type":"uint64","internalType":"uint64"}],"stateMutability":"pure"},{"type":"function","name":"oftVersion","inputs":[],"outputs":[{"name":"interfaceId","type":"bytes4","internalType":"bytes4"},{"name":"version","type":"uint64","internalType":"uint64"}],"stateMutability":"pure"},{"type":"function","name":"owner","inputs":[],"outputs":[{"name":"","type":"address","internalType":"address"}],"stateMutability":"view"},{"type":"function","name":"peers","inputs":[{"name":"eid","type":"uint32","internalType":"uint32"}],"outputs":[{"name":"peer","type":"bytes32","internalType":"bytes32"}],"stateMutability":"view"},{"type":"function","name":"preCrime","inputs":[],"outputs":[{"name":"","type":"address","internalType":"address"}],"stateMutability":"view"},{"type":"function","name":"quoteOFT","inputs":[{"name":"_sendParam","type":"tuple","internalType":"struct SendParam","components":[{"name":"dstEid","type":"uint32","internalType":"uint32"},{"name":"to","type":"bytes32","internalType":"bytes32"},{"name":"amountLD","type":"uint256","internalType":"uint256"},{"name":"minAmountLD","type":"uint256","internalType":"uint256"},{"name":"extraOptions","type":"bytes","internalType":"bytes"},{"name":"composeMsg","type":"bytes","internalType":"bytes"},{"name":"oftCmd","type":"bytes","internalType":"bytes"}]}],"outputs":[{"name":"oftLimit","type":"tuple","internalType":"struct OFTLimit","components":[{"name":"minAmountLD","type":"uint256","internalType":"uint256"},{"name":"maxAmountLD","type":"uint256","internalType":"uint256"}]},{"name":"oftFeeDetails","type":"tuple[]","internalType":"struct OFTFeeDetail[]","components":[{"name":"feeAmountLD","type":"int256","internalType":"int256"},{"name":"description","type":"string","internalType":"string"}]},{"name":"oftReceipt","type":"tuple","internalType":"struct OFTReceipt","components":[{"name":"amountSentLD","type":"uint256","internalType":"uint256"},{"name":"amountReceivedLD","type":"uint256","internalType":"uint256"}]}],"stateMutability":"view"},{"type":"function","name":"quoteSend","inputs":[{"name":"_sendParam","type":"tuple","internalType":"struct SendParam","components":[{"name":"dstEid","type":"uint32","internalType":"uint32"},{"name":"to","type":"bytes32","internalType":"bytes32"},{"name":"amountLD","type":"uint256","internalType":"uint256"},{"name":"minAmountLD","type":"uint256","internalType":"uint256"},{"name":"extraOptions","type":"bytes","internalType":"bytes"},{"name":"composeMsg","type":"bytes","internalType":"bytes"},{"name":"oftCmd","type":"bytes","internalType":"bytes"}]},{"name":"_payInLzToken","type":"bool","internalType":"bool"}],"outputs":[{"name":"msgFee","type":"tuple","internalType":"struct MessagingFee","components":[{"name":"nativeFee","type":"uint256","internalType":"uint256"},{"name":"lzTokenFee","type":"uint256","internalType":"uint256"}]}],"stateMutability":"view"},{"type":"function","name":"renounceOwnership","inputs":[],"outputs":[],"stateMutability":"nonpayable"},{"type":"function","name":"send","inputs":[{"name":"_sendParam","type":"tuple","internalType":"struct SendParam","components":[{"name":"dstEid","type":"uint32","internalType":"uint32"},{"name":"to","type":"bytes32","internalType":"bytes32"},{"name":"amountLD","type":"uint256","internalType":"uint256"},{"name":"minAmountLD","type":"uint256","internalType":"uint256"},{"name":"extraOptions","type":"bytes","internalType":"bytes"},{"name":"composeMsg","type":"bytes","internalType":"bytes"},{"name":"oftCmd","type":"bytes","internalType":"bytes"}]},{"name":"_fee","type":"tuple","internalType":"struct MessagingFee","components":[{"name":"nativeFee","type":"uint256","internalType":"uint256"},{"name":"lzTokenFee","type":"uint256","internalType":"uint256"}]},{"name":"_refundAddress","type":"address","internalType":"address"}],"outputs":[{"name":"msgReceipt","type":"tuple","internalType":"struct MessagingReceipt","components":[{"name":"guid","type":"bytes32","internalType":"bytes32"},{"name":"nonce","type":"uint64","internalType":"uint64"},{"name":"fee","type":"tuple","internalType":"struct MessagingFee","components":[{"name":"nativeFee","type":"uint256","internalType":"uint256"},{"name":"lzTokenFee","type":"uint256","internalType":"uint256"}]}]},{"name":"oftReceipt","type":"tuple","internalType":"struct OFTReceipt","components":[{"name":"amountSentLD","type":"uint256","internalType":"uint256"},{"name":"amountReceivedLD","type":"uint256","internalType":"uint256"}]}],"stateMutability":"payable"},{"type":"function","name":"setDelegate","inputs":[{"name":"_delegate","type":"address","internalType":"address"}],"outputs":[],"stateMutability":"nonpayable"},{"type":"function","name":"setEnforcedOptions","inputs":[{"name":"_enforcedOptions","type":"tuple[]","internalType":"struct EnforcedOptionParam[]","components":[{"name":"eid","type":"uint32","internalType":"uint32"},{"name":"msgType","type":"uint16","internalType":"uint16"},{"name":"options","type":"bytes","internalType":"bytes"}]}],"outputs":[],"stateMutability":"nonpayable"},{"type":"function","name":"setMsgInspector","inputs":[{"name":"_msgInspector","type":"address","internalType":"address"}],"outputs":[],"stateMutability":"nonpayable"},{"type":"function","name":"setPeer","inputs":[{"name":"_eid","type":"uint32","internalType":"uint32"},{"name":"_peer","type":"bytes32","internalType":"bytes32"}],"outputs":[],"stateMutability":"nonpayable"},{"type":"function","name":"setPreCrime","inputs":[{"name":"_preCrime","type":"address","internalType":"address"}],"outputs":[],"stateMutability":"nonpayable"},{"type":"function","name":"sharedDecimals","inputs":[],"outputs":[{"name":"","type":"uint8","internalType":"uint8"}],"stateMutability":"view"},{"type":"function","name":"token","inputs":[],"outputs":[{"name":"","type":"address","internalType":"address"}],"stateMutability":"view"},{"type":"function","name":"transferOwnership","inputs":[{"name":"newOwner","type":"address","internalType":"address"}],"outputs":[],"stateMutability":"nonpayable"},{"type":"event","name":"EnforcedOptionSet","inputs":[{"name":"_enforcedOptions","type":"tuple[]","indexed":false,"internalType":"struct EnforcedOptionParam[]","components":[{"name":"eid","type":"uint32","internalType":"uint32"},{"name":"msgType","type":"uint16","internalType":"uint16"},{"name":"options","type":"bytes","internalType":"bytes"}]}],"anonymous":false},{"type":"event","name":"MsgInspectorSet","inputs":[{"name":"inspector","type":"address","indexed":false,"internalType":"address"}],"anonymous":false},{"type":"event","name":"OFTReceived","inputs":[{"name":"guid","type":"bytes32","indexed":true,"internalType":"bytes32"},{"name":"srcEid","type":"uint32","indexed":false,"internalType":"uint32"},{"name":"toAddress","type":"address","indexed":true,"internalType":"address"},{"name":"amountReceivedLD","type":"uint256","indexed":false,"internalType":"uint256"}],"anonymous":false},{"type":"event","name":"OFTSent","inputs":[{"name":"guid","type":"bytes32","indexed":true,"internalType":"bytes32"},{"name":"dstEid","type":"uint32","indexed":false,"internalType":"uint32"},{"name":"fromAddress","type":"address","indexed":true,"internalType":"address"},{"name":"amountSentLD","type":"uint256","indexed":false,"internalType":"uint256"},{"name":"amountReceivedLD","type":"uint256","indexed":false,"internalType":"uint256"}],"anonymous":false},{"type":"event","name":"OwnershipTransferred","inputs":[{"name":"previousOwner","type":"address","indexed":true,"internalType":"address"},{"name":"newOwner","type":"address","indexed":true,"internalType":"address"}],"anonymous":false},{"type":"event","name":"PeerSet","inputs":[{"name":"eid","type":"uint32","indexed":false,"internalType":"uint32"},{"name":"peer","type":"bytes32","indexed":false,"internalType":"bytes32"}],"anonymous":false},{"type":"event","name":"PreCrimeSet","inputs":[{"name":"preCrimeAddress","type":"address","indexed":false,"internalType":"address"}],"anonymous":false},{"type":"error","name":"AmountSDOverflowed","inputs":[{"name":"amountSD","type":"uint256","internalType":"uint256"}]},{"type":"error","name":"InvalidDelegate","inputs":[]},{"type":"error","name":"InvalidEndpointCall","inputs":[]},{"type":"error","name":"InvalidLocalDecimals","inputs":[]},{"type":"error","name":"InvalidOptions","inputs":[{"name":"options","type":"bytes","internalType":"bytes"}]},{"type":"error","name":"LzTokenUnavailable","inputs":[]},{"type":"error","name":"NoPeer","inputs":[{"name":"eid","type":"uint32","internalType":"uint32"}]},{"type":"error","name":"NotEnoughNative","inputs":[{"name":"msgValue","type":"uint256","internalType":"uint256"}]},{"type":"error","name":"OnlyEndpoint","inputs":[{"name":"addr","type":"address","internalType":"address"}]},{"type":"error","name":"OnlyPeer","inputs":[{"name":"eid","type":"uint32","internalType":"uint32"},{"name":"sender","type":"bytes32","internalType":"bytes32"}]},{"type":"error","name":"OnlySelf","inputs":[]},{"type":"error","name":"OwnableInvalidOwner","inputs":[{"name":"owner","type":"address","internalType":"address"}]},{"type":"error","name":"OwnableUnauthorizedAccount","inputs":[{"name":"account","type":"address","internalType":"address"}]},{"type":"error","name":"SafeERC20FailedOperation","inputs":[{"name":"token","type":"address","internalType":"address"}]},{"type":"error","name":"SimulationResult","inputs":[{"name":"result","type":"bytes","internalType":"bytes"}]},{"type":"error","name":"SlippageExceeded","inputs":[{"name":"amountLD","type":"uint256","internalType":"uint256"},{"name":"minAmountLD","type":"uint256","internalType":"uint256"}]}],"bytecode":{"object":"0x610100604052348015610010575f5ffd5b5060405161365138038061365183398101604081905261002f9161023a565b83838383836001600160a01b031663313ce5676040518163ffffffff1660e01b8152600401602060405180830381865afa15801561006f573d5f5f3e3d5ffd5b505050506040513d601f19601f82011682018060405250810190610093919061029b565b8282818181818f6001600160a01b0381166100c757604051631e4fbdf760e01b81525f600482015260240160405180910390fd5b6100d0816101cb565b506001600160a01b0380831660805281166100fe57604051632d618d8160e21b815260040160405180910390fd5b60805160405163ca5eb5e160e01b81526001600160a01b0383811660048301529091169063ca5eb5e1906024015f604051808303815f87803b158015610142575f5ffd5b505af1158015610154573d5f5f3e3d5ffd5b505050505050505061016a61021a60201b60201c565b60ff168360ff161015610190576040516301e9714b60e41b815260040160405180910390fd5b61019b6006846102d6565b6101a690600a6103d8565b60a0525050506001600160a01b0393841660c05250501660e052506103e69350505050565b5f80546001600160a01b038381166001600160a01b0319831681178455604051919092169283917f8be0079c531659141344cd1fd0a4f28419497f9722a3daafe3b4186f6b6457e09190a35050565b600690565b80516001600160a01b0381168114610235575f5ffd5b919050565b5f5f5f5f5f60a0868803121561024e575f5ffd5b6102578661021f565b94506102656020870161021f565b93506102736040870161021f565b92506102816060870161021f565b915061028f6080870161021f565b90509295509295909350565b5f602082840312156102ab575f5ffd5b815160ff811681146102bb575f5ffd5b9392505050565b634e487b7160e01b5f52601160045260245ffd5b60ff82811682821603908111156102ef576102ef6102c2565b92915050565b6001815b600184111561033057808504811115610314576103146102c2565b600184161561032257908102905b60019390931c9280026102f9565b935093915050565b5f82610346575060016102ef565b8161035257505f6102ef565b816001811461036857600281146103725761038e565b60019150506102ef565b60ff841115610383576103836102c2565b50506001821b6102ef565b5060208310610133831016604e8410600b84101617156103b1575081810a6102ef565b6103bd5f1984846102f5565b805f19048211156103d0576103d06102c2565b029392505050565b5f6102bb60ff841683610338565b60805160a05160c05160e0516131e461046d5f395f818161035d01528181611a560152611ca901525f6106ea01525f818161056101528181611940015281816119b90152611b4c01525f818161045e015281816108d201528181610fbc015281816112d0015281816115b501528181611d5001528181611e750152611f6c01526131e45ff3fe60806040526004361061020f575f3560e01c806382413eac11610117578063bc70b354116100ac578063d045a0dc1161007c578063f2fde38b11610062578063f2fde38b146106bd578063fc0c546a146106dc578063ff7bd03d1461070e575f5ffd5b8063d045a0dc1461068b578063d42438851461069e575f5ffd5b8063bc70b35414610619578063bd815db014610638578063c7c7f5b31461064b578063ca5eb5e11461066c575f5ffd5b80639f68b964116100e75780639f68b96414610591578063b731ea0a146105a3578063b98bd070146105cf578063bb0b6a53146105ee575f5ffd5b806382413eac146104ed578063857749b01461050c5780638da5cb5b14610527578063963efcaa14610550575f5ffd5b80633400288b116101a75780635a0dfe4d116101775780636fc1b31e1161015d5780636fc1b31e14610480578063715018a61461049f5780637d25a05e146104b3575f5ffd5b80635a0dfe4d146104085780635e280f111461044d575f5ffd5b80633400288b1461037f5780633b6f743b1461039e57806352ae2879146103ca5780635535d461146103dc575f5ffd5b8063156a0d0f116101e2578063156a0d0f146102d757806317442b70146103175780631f5e1334146103385780632ef8c5a41461034c575f5ffd5b80630d35b41514610213578063111ecdad1461024a57806313137d651461029b578063134d4f25146102b0575b5f5ffd5b34801561021e575f5ffd5b5061023261022d3660046120d8565b61072d565b60405161024193929190612156565b60405180910390f35b348015610255575f5ffd5b506004546102769073ffffffffffffffffffffffffffffffffffffffff1681565b60405173ffffffffffffffffffffffffffffffffffffffff9091168152602001610241565b6102ae6102a9366004612285565b6108d0565b005b3480156102bb575f5ffd5b506102c4600281565b60405161ffff9091168152602001610241565b3480156102e2575f5ffd5b50604080517f02e49c2c0000000000000000000000000000000000000000000000000000000081526001602082015201610241565b348015610322575f5ffd5b5060408051600181526002602082015201610241565b348015610343575f5ffd5b506102c4600181565b348015610357575f5ffd5b506102767f000000000000000000000000000000000000000000000000000000000000000081565b34801561038a575f5ffd5b506102ae610399366004612339565b6109cf565b3480156103a9575f5ffd5b506103bd6103b836600461236e565b6109e5565b60405161024191906123bd565b3480156103d5575f5ffd5b5030610276565b3480156103e7575f5ffd5b506103fb6103f63660046123e5565b610a4b565b6040516102419190612416565b348015610413575f5ffd5b5061043d610422366004612339565b63ffffffff919091165f908152600160205260409020541490565b6040519015158152602001610241565b348015610458575f5ffd5b506102767f000000000000000000000000000000000000000000000000000000000000000081565b34801561048b575f5ffd5b506102ae61049a366004612428565b610aed565b3480156104aa575f5ffd5b506102ae610b6f565b3480156104be575f5ffd5b506104d46104cd366004612339565b5f92915050565b60405167ffffffffffffffff9091168152602001610241565b3480156104f8575f5ffd5b5061043d610507366004612443565b610b82565b348015610517575f5ffd5b5060405160068152602001610241565b348015610532575f5ffd5b505f5473ffffffffffffffffffffffffffffffffffffffff16610276565b34801561055b575f5ffd5b506105837f000000000000000000000000000000000000000000000000000000000000000081565b604051908152602001610241565b34801561059c575f5ffd5b505f61043d565b3480156105ae575f5ffd5b506002546102769073ffffffffffffffffffffffffffffffffffffffff1681565b3480156105da575f5ffd5b506102ae6105e93660046124e7565b610ba4565b3480156105f9575f5ffd5b50610583610608366004612526565b60016020525f908152604090205481565b348015610624575f5ffd5b506103fb61063336600461253f565b610bbe565b6102ae6106463660046124e7565b610d78565b61065e61065936600461259c565b610f3c565b604051610241929190612623565b348015610677575f5ffd5b506102ae610686366004612428565b610f6f565b6102ae610699366004612285565b611016565b3480156106a9575f5ffd5b506102ae6106b8366004612428565b61105e565b3480156106c8575f5ffd5b506102ae6106d7366004612428565b6110d9565b3480156106e7575f5ffd5b507f0000000000000000000000000000000000000000000000000000000000000000610276565b348015610719575f5ffd5b5061043d610728366004612675565b61113c565b604080518082019091525f8082526020820152606061075d60405180604001604052805f81526020015f81525090565b5f5f90505f3073ffffffffffffffffffffffffffffffffffffffff1663fc0c546a6040518163ffffffff1660e01b8152600401602060405180830381865afa1580156107ab573d5f5f3e3d5ffd5b505050506040513d601f19601f820116820180604052508101906107cf919061268f565b73ffffffffffffffffffffffffffffffffffffffff166318160ddd6040518163ffffffff1660e01b8152600401602060405180830381865afa158015610817573d5f5f3e3d5ffd5b505050506040513d601f19601f8201168201806040525081019061083b91906126aa565b604080518082018252848152602080820184905282515f8082529181019093529097509192509061088e565b604080518082019091525f8152606060208201528152602001906001900390816108675790505b5093505f806108b2604089013560608a01356108ad60208c018c612526565b611170565b60408051808201909152918252602082015296989597505050505050565b7f000000000000000000000000000000000000000000000000000000000000000073ffffffffffffffffffffffffffffffffffffffff163314610946576040517f91ac5e4f0000000000000000000000000000000000000000000000000000000081523360048201526024015b60405180910390fd5b602087018035906109609061095b908a612526565b6111c4565b146109b7576109726020880188612526565b6040517fc26bebcc00000000000000000000000000000000000000000000000000000000815263ffffffff90911660048201526020880135602482015260440161093d565b6109c687878787878787611218565b50505050505050565b6109d76113a9565b6109e182826113fb565b5050565b604080518082019091525f80825260208201525f610a13604085013560608601356108ad6020880188612526565b9150505f5f610a22868461144f565b9092509050610a3f610a376020880188612526565b8383886115a0565b93505050505b92915050565b600360209081525f928352604080842090915290825290208054610a6e906126ee565b80601f0160208091040260200160405190810160405280929190818152602001828054610a9a906126ee565b8015610ae55780601f10610abc57610100808354040283529160200191610ae5565b820191905f5260205f20905b815481529060010190602001808311610ac857829003601f168201915b505050505081565b610af56113a9565b600480547fffffffffffffffffffffffff00000000000000000000000000000000000000001673ffffffffffffffffffffffffffffffffffffffff83169081179091556040519081527ff0be4f1e87349231d80c36b33f9e8639658eeaf474014dee15a3e6a4d4414197906020015b60405180910390a150565b610b776113a9565b610b805f61168b565b565b73ffffffffffffffffffffffffffffffffffffffff811630145b949350505050565b610bac6113a9565b6109e1610bb98284612819565b6116ff565b63ffffffff84165f90815260036020908152604080832061ffff87168452909152812080546060929190610bf1906126ee565b80601f0160208091040260200160405190810160405280929190818152602001828054610c1d906126ee565b8015610c685780601f10610c3f57610100808354040283529160200191610c68565b820191905f5260205f20905b815481529060010190602001808311610c4b57829003601f168201915b5050505050905080515f03610cb65783838080601f0160208091040260200160405190810160405280939291908181526020018383808284375f92019190915250929450610b9c9350505050565b5f839003610cc5579050610b9c565b60028310610d4257610d0b84848080601f0160208091040260200160405190810160405280939291908181526020018383808284375f9201919091525061180092505050565b80610d19846002818861293d565b604051602001610d2b9392919061297b565b604051602081830303815290604052915050610b9c565b83836040517f9a6d49cd00000000000000000000000000000000000000000000000000000000815260040161093d9291906129e0565b5f5b81811015610e7b5736838383818110610d9557610d956129f3565b9050602002810190610da79190612a20565b9050610dd9610db96020830183612526565b602083013563ffffffff919091165f908152600160205260409020541490565b610de35750610e73565b3063d045a0dc60c08301358360a0810135610e02610100830183612a5c565b610e13610100890160e08a01612428565b610e216101208a018a612a5c565b6040518963ffffffff1660e01b8152600401610e439796959493929190612ad2565b5f604051808303818588803b158015610e5a575f5ffd5b505af1158015610e6c573d5f5f3e3d5ffd5b5050505050505b600101610d7a565b503373ffffffffffffffffffffffffffffffffffffffff16638e9e70996040518163ffffffff1660e01b81526004015f60405180830381865afa158015610ec4573d5f5f3e3d5ffd5b505050506040513d5f823e601f3d9081017fffffffffffffffffffffffffffffffffffffffffffffffffffffffffffffffe0168201604052610f099190810190612b65565b6040517f8351eea700000000000000000000000000000000000000000000000000000000815260040161093d9190612416565b610f44612081565b604080518082019091525f8082526020820152610f62858585611845565b915091505b935093915050565b610f776113a9565b6040517fca5eb5e100000000000000000000000000000000000000000000000000000000815273ffffffffffffffffffffffffffffffffffffffff82811660048301527f0000000000000000000000000000000000000000000000000000000000000000169063ca5eb5e1906024015f604051808303815f87803b158015610ffd575f5ffd5b505af115801561100f573d5f5f3e3d5ffd5b5050505050565b33301461104f576040517f14d4a4e800000000000000000000000000000000000000000000000000000000815260040160405180910390fd5b6109c6878787878787876109b7565b6110666113a9565b600280547fffffffffffffffffffffffff00000000000000000000000000000000000000001673ffffffffffffffffffffffffffffffffffffffff83169081179091556040519081527fd48d879cef83a1c0bdda516f27b13ddb1b3f8bbac1c9e1511bb2a659c242776090602001610b64565b6110e16113a9565b73ffffffffffffffffffffffffffffffffffffffff8116611130576040517f1e4fbdf70000000000000000000000000000000000000000000000000000000081525f600482015260240161093d565b6111398161168b565b50565b5f6020820180359060019083906111539086612526565b63ffffffff16815260208101919091526040015f20541492915050565b5f5f61117b8561193d565b915081905083811015610f67576040517f71c4efed000000000000000000000000000000000000000000000000000000008152600481018290526024810185905260440161093d565b63ffffffff81165f9081526001602052604081205480610a45576040517ff6ff4fb700000000000000000000000000000000000000000000000000000000815263ffffffff8416600482015260240161093d565b5f6112296112268787611973565b90565b90505f6112548261124261123d8a8a611991565b6119b3565b61124f60208d018d612526565b6119e8565b9050602886111561133a575f61129061127360608c0160408d01612bda565b61128060208d018d612526565b8461128b8c8c611ac9565b611b13565b6040517f7cb5901200000000000000000000000000000000000000000000000000000000815290915073ffffffffffffffffffffffffffffffffffffffff7f00000000000000000000000000000000000000000000000000000000000000001690637cb590129061130b9086908d905f908790600401612bf5565b5f604051808303815f87803b158015611322575f5ffd5b505af1158015611334573d5f5f3e3d5ffd5b50505050505b73ffffffffffffffffffffffffffffffffffffffff8216887fefed6d3500546b29533b128a29e3a94d70788727f0507505ac12eaf2e578fd9c61138060208d018d612526565b6040805163ffffffff9092168252602082018690520160405180910390a3505050505050505050565b5f5473ffffffffffffffffffffffffffffffffffffffff163314610b80576040517f118cdaa700000000000000000000000000000000000000000000000000000000815233600482015260240161093d565b63ffffffff82165f81815260016020908152604091829020849055815192835282018390527f238399d427b947898edb290f5ff0f9109849b1c3ba196a42e35f00c50a54b98b910160405180910390a15050565b6060805f6114aa856020013561146486611b45565b61147160a0890189612a5c565b8080601f0160208091040260200160405190810160405280939291908181526020018383808284375f92019190915250611bb892505050565b90935090505f816114bc5760016114bf565b60025b90506114df6114d16020880188612526565b8261063360808a018a612a5c565b60045490935073ffffffffffffffffffffffffffffffffffffffff168015611596576040517f043a78eb00000000000000000000000000000000000000000000000000000000815273ffffffffffffffffffffffffffffffffffffffff82169063043a78eb906115559088908890600401612c3d565b602060405180830381865afa158015611570573d5f5f3e3d5ffd5b505050506040513d601f19601f820116820180604052508101906115949190612c61565b505b5050509250929050565b604080518082019091525f80825260208201527f000000000000000000000000000000000000000000000000000000000000000073ffffffffffffffffffffffffffffffffffffffff1663ddc28c586040518060a001604052808863ffffffff16815260200161160f896111c4565b8152602001878152602001868152602001851515815250306040518363ffffffff1660e01b8152600401611644929190612c7c565b6040805180830381865afa15801561165e573d5f5f3e3d5ffd5b505050506040513d601f19601f820116820180604052508101906116829190612d4e565b95945050505050565b5f805473ffffffffffffffffffffffffffffffffffffffff8381167fffffffffffffffffffffffff0000000000000000000000000000000000000000831681178455604051919092169283917f8be0079c531659141344cd1fd0a4f28419497f9722a3daafe3b4186f6b6457e09190a35050565b5f5b81518110156117d05761173082828151811061171f5761171f6129f3565b602002602001015160400151611800565b818181518110611742576117426129f3565b60200260200101516040015160035f848481518110611763576117636129f3565b60200260200101515f015163ffffffff1663ffffffff1681526020019081526020015f205f84848151811061179a5761179a6129f3565b60200260200101516020015161ffff1661ffff1681526020019081526020015f2090816117c79190612db1565b50600101611701565b507fbe4864a8e820971c0247f5992e2da559595f7bf076a21cb5928d443d2a13b67481604051610b649190612ec8565b600281015161ffff81166003146109e157816040517f9a6d49cd00000000000000000000000000000000000000000000000000000000815260040161093d9190612416565b61184d612081565b604080518082019091525f80825260208201525f8061188233604089013560608a013561187d60208c018c612526565b611c4a565b915091505f5f611892898461144f565b90925090506118be6118a760208b018b612526565b83836118b8368d90038d018d612f74565b8b611d1f565b60408051808201909152858152602080820186905282519298509096503391907f85496b760a4b7f8d66384b9df21b381f5d1b1e79f229a47aaf4c232edc2fe59a9061190c908d018d612526565b6040805163ffffffff909216825260208201899052810187905260600160405180910390a350505050935093915050565b5f7f00000000000000000000000000000000000000000000000000000000000000006119698184612fa5565b610a459190612fdd565b5f611981602082848661293d565b61198a91613019565b9392505050565b5f6119a060286020848661293d565b6119a991613055565b60c01c9392505050565b5f610a457f000000000000000000000000000000000000000000000000000000000000000067ffffffffffffffff8416612fdd565b5f73ffffffffffffffffffffffffffffffffffffffff8416611a0a5761dead93505b6040517f40c10f1900000000000000000000000000000000000000000000000000000000815273ffffffffffffffffffffffffffffffffffffffff8581166004830152602482018590527f000000000000000000000000000000000000000000000000000000000000000016906340c10f19906044016020604051808303815f875af1158015611a9c573d5f5f3e3d5ffd5b505050506040513d601f19601f82011682018060405250810190611ac09190612c61565b50919392505050565b6060611ad8826028818661293d565b8080601f0160208091040260200160405190810160405280939291908181526020018383808284375f92019190915250929695505050505050565b606084848484604051602001611b2c94939291906130bb565b6040516020818303038152906040529050949350505050565b5f80611b717f000000000000000000000000000000000000000000000000000000000000000084612fa5565b905067ffffffffffffffff811115610a45576040517fe2ce94130000000000000000000000000000000000000000000000000000000081526004810182905260240161093d565b8051606090151580611c19578484604051602001611c0592919091825260c01b7fffffffffffffffff00000000000000000000000000000000000000000000000016602082015260280190565b604051602081830303815290604052611c40565b84843385604051602001611c309493929190613122565b6040516020818303038152906040525b9150935093915050565b5f5f611c57858585611170565b6040517f9dc29fac00000000000000000000000000000000000000000000000000000000815273ffffffffffffffffffffffffffffffffffffffff8981166004830152602482018490529294509092507f000000000000000000000000000000000000000000000000000000000000000090911690639dc29fac906044016020604051808303815f875af1158015611cf1573d5f5f3e3d5ffd5b505050506040513d601f19601f82011682018060405250810190611d159190612c61565b5094509492505050565b611d27612081565b5f611d34845f0151611e32565b602085015190915015611d4e57611d4e8460200151611e72565b7f000000000000000000000000000000000000000000000000000000000000000073ffffffffffffffffffffffffffffffffffffffff16632637a450826040518060a001604052808b63ffffffff168152602001611dab8c6111c4565b81526020018a81526020018981526020015f8960200151111515815250866040518463ffffffff1660e01b8152600401611de6929190612c7c565b60806040518083038185885af1158015611e02573d5f5f3e3d5ffd5b50505050506040513d601f19601f82011682018060405250810190611e279190613164565b979650505050505050565b5f813414611e6e576040517f9f70412000000000000000000000000000000000000000000000000000000000815234600482015260240161093d565b5090565b5f7f000000000000000000000000000000000000000000000000000000000000000073ffffffffffffffffffffffffffffffffffffffff1663e4fe1d946040518163ffffffff1660e01b8152600401602060405180830381865afa158015611edc573d5f5f3e3d5ffd5b505050506040513d601f19601f82011682018060405250810190611f00919061268f565b905073ffffffffffffffffffffffffffffffffffffffff8116611f4f576040517f5373352a00000000000000000000000000000000000000000000000000000000815260040160405180910390fd5b6109e173ffffffffffffffffffffffffffffffffffffffff8216337f000000000000000000000000000000000000000000000000000000000000000085611f9a848484846001611fee565b611fe8576040517f5274afe700000000000000000000000000000000000000000000000000000000815273ffffffffffffffffffffffffffffffffffffffff8516600482015260240161093d565b50505050565b6040517f23b872dd000000000000000000000000000000000000000000000000000000005f81815273ffffffffffffffffffffffffffffffffffffffff8781166004528616602452604485905291602083606481808c5af1925060015f51148316612070578383151615612064573d5f823e3d81fd5b5f883b113d1516831692505b604052505f60605295945050505050565b60405180606001604052805f81526020015f67ffffffffffffffff1681526020016120bd60405180604001604052805f81526020015f81525090565b905290565b5f60e082840312156120d2575f5ffd5b50919050565b5f602082840312156120e8575f5ffd5b813567ffffffffffffffff8111156120fe575f5ffd5b610b9c848285016120c2565b5f81518084528060208401602086015e5f6020828601015260207fffffffffffffffffffffffffffffffffffffffffffffffffffffffffffffffe0601f83011685010191505092915050565b83518152602080850151908201525f60a0820160a0604084015280855180835260c08501915060c08160051b8601019250602087015f5b828110156121f3577fffffffffffffffffffffffffffffffffffffffffffffffffffffffffffffff4087860301845281518051865260208101519050604060208701526121dd604087018261210a565b955050602093840193919091019060010161218d565b5050855160608601525050602084015160808401529050610b9c565b5f606082840312156120d2575f5ffd5b5f5f83601f84011261222f575f5ffd5b50813567ffffffffffffffff811115612246575f5ffd5b60208301915083602082850101111561225d575f5ffd5b9250929050565b73ffffffffffffffffffffffffffffffffffffffff81168114611139575f5ffd5b5f5f5f5f5f5f5f60e0888a03121561229b575f5ffd5b6122a5898961220f565b965060608801359550608088013567ffffffffffffffff8111156122c7575f5ffd5b6122d38a828b0161221f565b90965094505060a08801356122e781612264565b925060c088013567ffffffffffffffff811115612302575f5ffd5b61230e8a828b0161221f565b989b979a50959850939692959293505050565b803563ffffffff81168114612334575f5ffd5b919050565b5f5f6040838503121561234a575f5ffd5b61235383612321565b946020939093013593505050565b8015158114611139575f5ffd5b5f5f6040838503121561237f575f5ffd5b823567ffffffffffffffff811115612395575f5ffd5b6123a1858286016120c2565b92505060208301356123b281612361565b809150509250929050565b815181526020808301519082015260408101610a45565b803561ffff81168114612334575f5ffd5b5f5f604083850312156123f6575f5ffd5b6123ff83612321565b915061240d602084016123d4565b90509250929050565b602081525f61198a602083018461210a565b5f60208284031215612438575f5ffd5b813561198a81612264565b5f5f5f5f60a08587031215612456575f5ffd5b612460868661220f565b9350606085013567ffffffffffffffff81111561247b575f5ffd5b6124878782880161221f565b909450925050608085013561249b81612264565b939692955090935050565b5f5f83601f8401126124b6575f5ffd5b50813567ffffffffffffffff8111156124cd575f5ffd5b6020830191508360208260051b850101111561225d575f5ffd5b5f5f602083850312156124f8575f5ffd5b823567ffffffffffffffff81111561250e575f5ffd5b61251a858286016124a6565b90969095509350505050565b5f60208284031215612536575f5ffd5b61198a82612321565b5f5f5f5f60608587031215612552575f5ffd5b61255b85612321565b9350612569602086016123d4565b9250604085013567ffffffffffffffff811115612584575f5ffd5b6125908782880161221f565b95989497509550505050565b5f5f5f83850360808112156125af575f5ffd5b843567ffffffffffffffff8111156125c5575f5ffd5b6125d1878288016120c2565b94505060407fffffffffffffffffffffffffffffffffffffffffffffffffffffffffffffffe082011215612603575f5ffd5b50602084019150606084013561261881612264565b809150509250925092565b5f60c0820190508351825267ffffffffffffffff6020850151166020830152604084015161265e604084018280518252602090810151910152565b5082516080830152602083015160a083015261198a565b5f60608284031215612685575f5ffd5b61198a838361220f565b5f6020828403121561269f575f5ffd5b815161198a81612264565b5f602082840312156126ba575f5ffd5b5051919050565b7f4e487b71000000000000000000000000000000000000000000000000000000005f52604160045260245ffd5b600181811c9082168061270257607f821691505b6020821081036120d2577f4e487b71000000000000000000000000000000000000000000000000000000005f52602260045260245ffd5b6040516060810167ffffffffffffffff8111828210171561275c5761275c6126c1565b60405290565b6040805190810167ffffffffffffffff8111828210171561275c5761275c6126c1565b604051601f82017fffffffffffffffffffffffffffffffffffffffffffffffffffffffffffffffe016810167ffffffffffffffff811182821017156127cc576127cc6126c1565b604052919050565b5f67ffffffffffffffff8211156127ed576127ed6126c1565b50601f017fffffffffffffffffffffffffffffffffffffffffffffffffffffffffffffffe01660200190565b5f67ffffffffffffffff831115612832576128326126c1565b8260051b61284260208201612785565b8481529083019060208101903683111561285a575f5ffd5b845b8381101561293357803567ffffffffffffffff81111561287a575f5ffd5b8601606036829003121561288c575f5ffd5b612894612739565b61289d82612321565b81526128ab602083016123d4565b6020820152604082013567ffffffffffffffff8111156128c9575f5ffd5b919091019036601f8301126128dc575f5ffd5b81356128ef6128ea826127d4565b612785565b818152366020838601011115612903575f5ffd5b816020850160208301375f602083830101528060408401525050808552505060208301925060208101905061285c565b5095945050505050565b5f5f8585111561294b575f5ffd5b83861115612957575f5ffd5b5050820193919092039150565b5f81518060208401855e5f93019283525090919050565b5f6129868286612964565b838582375f930192835250909392505050565b81835281816020850137505f602082840101525f60207fffffffffffffffffffffffffffffffffffffffffffffffffffffffffffffffe0601f840116840101905092915050565b602081525f610b9c602083018486612999565b7f4e487b71000000000000000000000000000000000000000000000000000000005f52603260045260245ffd5b5f82357ffffffffffffffffffffffffffffffffffffffffffffffffffffffffffffffec1833603018112612a52575f5ffd5b9190910192915050565b5f5f83357fffffffffffffffffffffffffffffffffffffffffffffffffffffffffffffffe1843603018112612a8f575f5ffd5b83018035915067ffffffffffffffff821115612aa9575f5ffd5b60200191503681900382131561225d575f5ffd5b67ffffffffffffffff81168114611139575f5ffd5b63ffffffff612ae089612321565b168152602088810135908201525f6040890135612afc81612abd565b67ffffffffffffffff811660408401525087606083015260e06080830152612b2860e083018789612999565b73ffffffffffffffffffffffffffffffffffffffff861660a084015282810360c0840152612b57818587612999565b9a9950505050505050505050565b5f60208284031215612b75575f5ffd5b815167ffffffffffffffff811115612b8b575f5ffd5b8201601f81018413612b9b575f5ffd5b8051612ba96128ea826127d4565b818152856020838501011115612bbd575f5ffd5b8160208401602083015e5f91810160200191909152949350505050565b5f60208284031215612bea575f5ffd5b813561198a81612abd565b73ffffffffffffffffffffffffffffffffffffffff8516815283602082015261ffff83166040820152608060608201525f612c33608083018461210a565b9695505050505050565b604081525f612c4f604083018561210a565b8281036020840152611682818561210a565b5f60208284031215612c71575f5ffd5b815161198a81612361565b6040815263ffffffff8351166040820152602083015160608201525f604084015160a06080840152612cb160e084018261210a565b905060608501517fffffffffffffffffffffffffffffffffffffffffffffffffffffffffffffffc08483030160a0850152612cec828261210a565b60809690960151151560c085015250505073ffffffffffffffffffffffffffffffffffffffff9190911660209091015290565b5f60408284031215612d2f575f5ffd5b612d37612762565b825181526020928301519281019290925250919050565b5f60408284031215612d5e575f5ffd5b61198a8383612d1f565b601f821115612dac57805f5260205f20601f840160051c81016020851015612d8d5750805b601f840160051c820191505b8181101561100f575f8155600101612d99565b505050565b815167ffffffffffffffff811115612dcb57612dcb6126c1565b612ddf81612dd984546126ee565b84612d68565b6020601f821160018114612e30575f8315612dfa5750848201515b7fffffffffffffffffffffffffffffffffffffffffffffffffffffffffffffffff600385901b1c1916600184901b17845561100f565b5f848152602081207fffffffffffffffffffffffffffffffffffffffffffffffffffffffffffffffe08516915b82811015612e7d5787850151825560209485019460019092019101612e5d565b5084821015612eb957868401517fffffffffffffffffffffffffffffffffffffffffffffffffffffffffffffffff600387901b60f8161c191681555b50505050600190811b01905550565b5f602082016020835280845180835260408501915060408160051b8601019250602086015f5b82811015612f68577fffffffffffffffffffffffffffffffffffffffffffffffffffffffffffffffc0878603018452815163ffffffff815116865261ffff60208201511660208701526040810151905060606040870152612f52606087018261210a565b9550506020938401939190910190600101612eee565b50929695505050505050565b5f6040828403128015612f85575f5ffd5b50612f8e612762565b823581526020928301359281019290925250919050565b5f82612fd8577f4e487b71000000000000000000000000000000000000000000000000000000005f52601260045260245ffd5b500490565b8082028115828204841417610a45577f4e487b71000000000000000000000000000000000000000000000000000000005f52601160045260245ffd5b80356020831015610a45577fffffffffffffffffffffffffffffffffffffffffffffffffffffffffffffffff602084900360031b1b1692915050565b80357fffffffffffffffff00000000000000000000000000000000000000000000000081169060088410156130b4577fffffffffffffffff000000000000000000000000000000000000000000000000808560080360031b1b82161691505b5092915050565b7fffffffffffffffff0000000000000000000000000000000000000000000000008560c01b1681527fffffffff000000000000000000000000000000000000000000000000000000008460e01b16600882015282600c8201525f612c33602c830184612964565b8481527fffffffffffffffff0000000000000000000000000000000000000000000000008460c01b1660208201528260288201525f612c336048830184612964565b5f6080828403128015613175575f5ffd5b5061317e612739565b82518152602083015161319081612abd565b60208201526131a28460408501612d1f565b6040820152939250505056fea264697066735822122008998e205128e22dfb105b637b5f4783e0f5b3b36552104676c0edd693cd9e3764736f6c634300081e0033","linkReferences":{}},"methodIdentifiers":{"SEND()":"1f5e1334","SEND_AND_CALL()":"134d4f25","allowInitializePath((uint32,bytes32,uint64))":"ff7bd03d","approvalRequired()":"9f68b964","combineOptions(uint32,uint16,bytes)":"bc70b354","decimalConversionRate()":"963efcaa","endpoint()":"5e280f11","enforcedOptions(uint32,uint16)":"5535d461","isComposeMsgSender((uint32,bytes32,uint64),bytes,address)":"82413eac","isPeer(uint32,bytes32)":"5a0dfe4d","lzReceive((uint32,bytes32,uint64),bytes32,bytes,address,bytes)":"13137d65","lzReceiveAndRevert(((uint32,bytes32,uint64),uint32,address,bytes32,uint256,address,bytes,bytes)[])":"bd815db0","lzReceiveSimulate((uint32,bytes32,uint64),bytes32,bytes,address,bytes)":"d045a0dc","minterBurner()":"2ef8c5a4","msgInspector()":"111ecdad","nextNonce(uint32,bytes32)":"7d25a05e","oApp()":"52ae2879","oAppVersion()":"17442b70","oftVersion()":"156a0d0f","owner()":"8da5cb5b","peers(uint32)":"bb0b6a53","preCrime()":"b731ea0a","quoteOFT((uint32,bytes32,uint256,uint256,bytes,bytes,bytes))":"0d35b415","quoteSend((uint32,bytes32,uint256,uint256,bytes,bytes,bytes),bool)":"3b6f743b","renounceOwnership()":"715018a6","send((uint32,bytes32,uint256,uint256,bytes,bytes,bytes),(uint256,uint256),address)":"c7c7f5b3","setDelegate(address)":"ca5eb5e1","setEnforcedOptions((uint32,uint16,bytes)[])":"b98bd070","setMsgInspector(address)":"6fc1b31e","setPeer(uint32,bytes32)":"3400288b","setPreCrime(address)":"d4243885","sharedDecimals()":"857749b0","token()":"fc0c546a","transferOwnership(address)":"f2fde38b"},"id":147}