{"abi":[{"type":"constructor","inputs":[{"name":"_parentVault","type":"address","internalType":"address"},{"name":"_morphoVaultV1","type":"address","internalType":"address"}],"stateMutability":"nonpayable"},{"type":"function","name":"adapterId","inputs":[],"outputs":[{"name":"","type":"bytes32","internalType":"bytes32"}],"stateMutability":"view"},{"type":"function","name":"allocate","inputs":[{"name":"data","type":"bytes","internalType":"bytes"},{"name":"assets","type":"uint256","internalType":"uint256"},{"name":"","type":"bytes4","internalType":"bytes4"},{"name":"","type":"address","internalType":"address"}],"outputs":[{"name":"","type":"bytes32[]","internalType":"bytes32[]"},{"name":"","type":"int256","internalType":"int256"}],"stateMutability":"nonpayable"},{"type":"function","name":"allocation","inputs":[],"outputs":[{"name":"","type":"uint256","internalType":"uint256"}],"stateMutability":"view"},{"type":"function","name":"deallocate","inputs":[{"name":"data","type":"bytes","internalType":"bytes"},{"name":"assets","type":"uint256","internalType":"uint256"},{"name":"","type":"bytes4","internalType":"bytes4"},{"name":"","type":"address","internalType":"address"}],"outputs":[{"name":"","type":"bytes32[]","internalType":"bytes32[]"},{"name":"","type":"int256","internalType":"int256"}],"stateMutability":"nonpayable"},{"type":"function","name":"factory","inputs":[],"outputs":[{"name":"","type":"address","internalType":"address"}],"stateMutability":"view"},{"type":"function","name":"ids","inputs":[],"outputs":[{"name":"","type":"bytes32[]","internalType":"bytes32[]"}],"stateMutability":"view"},{"type":"function","name":"morphoVaultV1","inputs":[],"outputs":[{"name":"","type":"address","internalType":"address"}],"stateMutability":"view"},{"type":"function","name":"parentVault","inputs":[],"outputs":[{"name":"","type":"address","internalType":"address"}],"stateMutability":"view"},{"type":"function","name":"realAssets","inputs":[],"outputs":[{"name":"","type":"uint256","internalType":"uint256"}],"stateMutability":"view"},{"type":"function","name":"setSkimRecipient","inputs":[{"name":"newSkimRecipient","type":"address","internalType":"address"}],"outputs":[],"stateMutability":"nonpayable"},{"type":"function","name":"skim","inputs":[{"name":"token","type":"address","internalType":"address"}],"outputs":[],"stateMutability":"nonpayable"},{"type":"function","name":"skimRecipient","inputs":[],"outputs":[{"name":"","type":"address","internalType":"address"}],"stateMutability":"view"},{"type":"event","name":"SetSkimRecipient","inputs":[{"name":"newSkimRecipient","type":"address","indexed":true,"internalType":"address"}],"anonymous":false},{"type":"event","name":"Skim","inputs":[{"name":"token","type":"address","indexed":true,"internalType":"address"},{"name":"assets","type":"uint256","indexed":false,"internalType":"uint256"}],"anonymous":false},{"type":"error","name":"ApproveReturnedFalse","inputs":[]},{"type":"error","name":"ApproveReverted","inputs":[]},{"type":"error","name":"AssetMismatch","inputs":[]},{"type":"error","name":"CannotSkimMorphoVaultV1Shares","inputs":[]},{"type":"error","name":"InvalidData","inputs":[]},{"type":"error","name":"NoCode","inputs":[]},{"type":"error","name":"NotAuthorized","inputs":[]},{"type":"error","name":"TransferReturnedFalse","inputs":[]},{"type":"error","name":"TransferReverted","inputs":[]}],"bytecode":{"object":"0x610100604052348015610010575f5ffd5b5060405161149a38038061149a83398101604081905261002f916102ef565b336080526001600160a01b0382811660a052811660c0526040516100819030906020016040808252600490820152637468697360e01b60608201526001600160a01b0391909116602082015260800190565b60408051601f19818403018152828252805160209182012060e0526338d52e0f60e01b835290515f926001600160a01b038616926338d52e0f926004808401938290030181865afa1580156100d8573d5f5f3e3d5ffd5b505050506040513d601f19601f820116820180604052508101906100fc9190610320565b9050816001600160a01b03166338d52e0f6040518163ffffffff1660e01b8152600401602060405180830381865afa15801561013a573d5f5f3e3d5ffd5b505050506040513d601f19601f8201168201806040525081019061015e9190610320565b6001600160a01b0316816001600160a01b03161461018f576040516341e0808560e11b815260040160405180910390fd5b61019b81845f196101af565b6101a781835f196101af565b505050610375565b5f836001600160a01b03163b116101d957604051633c11a9c560e21b815260040160405180910390fd5b6040516001600160a01b038381166024830152604482018390525f91829186169060640160408051601f198184030181529181526020820180516001600160e01b031663095ea7b360e01b179052516102329190610340565b5f604051808303815f865af19150503d805f811461026b576040519150601f19603f3d011682016040523d82523d5f602084013e610270565b606091505b50915091508161029357604051637cceae2560e01b815260040160405180910390fd5b805115806102b05750808060200190518101906102b09190610356565b6102cd57604051631f55ddd960e21b815260040160405180910390fd5b5050505050565b80516001600160a01b03811681146102ea575f5ffd5b919050565b5f5f60408385031215610300575f5ffd5b610309836102d4565b9150610317602084016102d4565b90509250929050565b5f60208284031215610330575f5ffd5b610339826102d4565b9392505050565b5f82518060208501845e5f920191825250919050565b5f60208284031215610366575f5ffd5b81518015158114610339575f5ffd5b60805160a05160c05160e0516110a66103f45f395f81816101a7015281816108d30152610b4401525f81816102100152818161032e015281816104010152818161073d015281816107c3015261099101525f818160d80152818161029c015281816104f4015281816106a401526108fb01525f6101e901526110a65ff3fe608060405234801561000f575f5ffd5b50600436106100cf575f3560e01c80635fb86b011161007d578063c45a015511610058578063c45a0155146101e4578063e4baaddf1461020b578063e7657e1514610232575f5ffd5b80635fb86b01146101a257806388a17bde146101c9578063bc25cf77146101d1575f5ffd5b8063388af5b5116100ad578063388af5b51461015a5780634e45f1ff1461017957806356c075731461018c575f5ffd5b80630fe36536146100d35780631eadd778146101245780632b30997b14610145575b5f5ffd5b6100fa7f000000000000000000000000000000000000000000000000000000000000000081565b60405173ffffffffffffffffffffffffffffffffffffffff90911681526020015b60405180910390f35b610137610132366004610deb565b610247565b60405161011b929190610f3c565b610158610153366004610f5d565b6104f2565b005b5f546100fa9073ffffffffffffffffffffffffffffffffffffffff1681565b610137610187366004610deb565b61064f565b610194610781565b60405190815260200161011b565b6101947f000000000000000000000000000000000000000000000000000000000000000081565b6101946108ab565b6101586101df366004610f5d565b61093f565b6100fa7f000000000000000000000000000000000000000000000000000000000000000081565b6100fa7f000000000000000000000000000000000000000000000000000000000000000081565b61023a610b1d565b60405161011b9190610f7f565b60605f85515f14610284576040517f5cb045db00000000000000000000000000000000000000000000000000000000815260040160405180910390fd5b3373ffffffffffffffffffffffffffffffffffffffff7f000000000000000000000000000000000000000000000000000000000000000016146102f3576040517fea8e4eb500000000000000000000000000000000000000000000000000000000815260040160405180910390fd5b84156103b0576040517f6e553f65000000000000000000000000000000000000000000000000000000008152600481018690523060248201527f000000000000000000000000000000000000000000000000000000000000000073ffffffffffffffffffffffffffffffffffffffff1690636e553f65906044015b6020604051808303815f875af115801561038a573d5f5f3e3d5ffd5b505050506040513d601f19601f820116820180604052508101906103ae9190610f91565b505b5f6103b96108ab565b6040517f70a082310000000000000000000000000000000000000000000000000000000081523060048201529091505f9073ffffffffffffffffffffffffffffffffffffffff7f00000000000000000000000000000000000000000000000000000000000000001690634cdad5069082906370a0823190602401602060405180830381865afa15801561044e573d5f5f3e3d5ffd5b505050506040513d601f19601f820116820180604052508101906104729190610f91565b6040518263ffffffff1660e01b815260040161049091815260200190565b602060405180830381865afa1580156104ab573d5f5f3e3d5ffd5b505050506040513d601f19601f820116820180604052508101906104cf9190610f91565b90506104d9610b1d565b6104e38383610fa8565b93509350505094509492505050565b7f000000000000000000000000000000000000000000000000000000000000000073ffffffffffffffffffffffffffffffffffffffff16638da5cb5b6040518163ffffffff1660e01b8152600401602060405180830381865afa15801561055b573d5f5f3e3d5ffd5b505050506040513d601f19601f8201168201806040525081019061057f9190610ff3565b73ffffffffffffffffffffffffffffffffffffffff163373ffffffffffffffffffffffffffffffffffffffff16146105e3576040517fea8e4eb500000000000000000000000000000000000000000000000000000000815260040160405180910390fd5b5f80547fffffffffffffffffffffffff00000000000000000000000000000000000000001673ffffffffffffffffffffffffffffffffffffffff8316908117825560405190917f2e7908865670e21b9779422cadf5f1cba271a62bb95c71eaaf615c0a1c48ebee91a250565b60605f85515f1461068c576040517f5cb045db00000000000000000000000000000000000000000000000000000000815260040160405180910390fd5b3373ffffffffffffffffffffffffffffffffffffffff7f000000000000000000000000000000000000000000000000000000000000000016146106fb576040517fea8e4eb500000000000000000000000000000000000000000000000000000000815260040160405180910390fd5b84156103b0576040517fb460af9400000000000000000000000000000000000000000000000000000000815260048101869052306024820181905260448201527f000000000000000000000000000000000000000000000000000000000000000073ffffffffffffffffffffffffffffffffffffffff169063b460af949060640161036e565b5f61078a6108ab565b5f0361079557505f90565b6040517f70a082310000000000000000000000000000000000000000000000000000000081523060048201527f000000000000000000000000000000000000000000000000000000000000000073ffffffffffffffffffffffffffffffffffffffff1690634cdad5069082906370a0823190602401602060405180830381865afa158015610825573d5f5f3e3d5ffd5b505050506040513d601f19601f820116820180604052508101906108499190610f91565b6040518263ffffffff1660e01b815260040161086791815260200190565b602060405180830381865afa158015610882573d5f5f3e3d5ffd5b505050506040513d601f19601f820116820180604052508101906108a69190610f91565b905090565b6040517fc69507dd0000000000000000000000000000000000000000000000000000000081527f000000000000000000000000000000000000000000000000000000000000000060048201525f907f000000000000000000000000000000000000000000000000000000000000000073ffffffffffffffffffffffffffffffffffffffff169063c69507dd90602401610867565b5f5473ffffffffffffffffffffffffffffffffffffffff16331461098f576040517fea8e4eb500000000000000000000000000000000000000000000000000000000815260040160405180910390fd5b7f000000000000000000000000000000000000000000000000000000000000000073ffffffffffffffffffffffffffffffffffffffff168173ffffffffffffffffffffffffffffffffffffffff1603610a14576040517fd60904b700000000000000000000000000000000000000000000000000000000815260040160405180910390fd5b6040517f70a082310000000000000000000000000000000000000000000000000000000081523060048201525f9073ffffffffffffffffffffffffffffffffffffffff8316906370a0823190602401602060405180830381865afa158015610a7e573d5f5f3e3d5ffd5b505050506040513d601f19601f82011682018060405250810190610aa29190610f91565b5f54909150610ac990839073ffffffffffffffffffffffffffffffffffffffff1683610b85565b8173ffffffffffffffffffffffffffffffffffffffff167f5e99aaf6d3588fb2497fde044168e8c046704a3223559cfe107f8f94b42cefdd82604051610b1191815260200190565b60405180910390a25050565b6040805160018082528183019092526060915f9190602080830190803683370190505090507f0000000000000000000000000000000000000000000000000000000000000000815f81518110610b7557610b7561100e565b6020908102919091010152919050565b5f8373ffffffffffffffffffffffffffffffffffffffff163b11610bd5576040517ff046a71400000000000000000000000000000000000000000000000000000000815260040160405180910390fd5b60405173ffffffffffffffffffffffffffffffffffffffff8381166024830152604482018390525f918291861690606401604080517fffffffffffffffffffffffffffffffffffffffffffffffffffffffffffffffe08184030181529181526020820180517bffffffffffffffffffffffffffffffffffffffffffffffffffffffff167fa9059cbb0000000000000000000000000000000000000000000000000000000017905251610c87919061103b565b5f604051808303815f865af19150503d805f8114610cc0576040519150601f19603f3d011682016040523d82523d5f602084013e610cc5565b606091505b509150915081610d01576040517face2a47e00000000000000000000000000000000000000000000000000000000815260040160405180910390fd5b80511580610d1e575080806020019051810190610d1e9190611051565b610d54576040517f2f0470fc00000000000000000000000000000000000000000000000000000000815260040160405180910390fd5b5050505050565b7f4e487b71000000000000000000000000000000000000000000000000000000005f52604160045260245ffd5b80357fffffffff0000000000000000000000000000000000000000000000000000000081168114610db7575f5ffd5b919050565b73ffffffffffffffffffffffffffffffffffffffff81168114610ddd575f5ffd5b50565b8035610db781610dbc565b5f5f5f5f60808587031215610dfe575f5ffd5b843567ffffffffffffffff811115610e14575f5ffd5b8501601f81018713610e24575f5ffd5b803567ffffffffffffffff811115610e3e57610e3e610d5b565b6040517fffffffffffffffffffffffffffffffffffffffffffffffffffffffffffffffe0603f7fffffffffffffffffffffffffffffffffffffffffffffffffffffffffffffffe0601f8501160116810181811067ffffffffffffffff82111715610eaa57610eaa610d5b565b604052818152828201602001891015610ec1575f5ffd5b816020840160208301375f602092820183015295508601359350610ee9905060408601610d88565b9150610ef760608601610de0565b905092959194509250565b5f8151808452602084019350602083015f5b82811015610f32578151865260209586019590910190600101610f14565b5093949350505050565b604081525f610f4e6040830185610f02565b90508260208301529392505050565b5f60208284031215610f6d575f5ffd5b8135610f7881610dbc565b9392505050565b602081525f610f786020830184610f02565b5f60208284031215610fa1575f5ffd5b5051919050565b8181035f831280158383131683831282161715610fec577f4e487b71000000000000000000000000000000000000000000000000000000005f52601160045260245ffd5b5092915050565b5f60208284031215611003575f5ffd5b8151610f7881610dbc565b7f4e487b71000000000000000000000000000000000000000000000000000000005f52603260045260245ffd5b5f82518060208501845e5f920191825250919050565b5f60208284031215611061575f5ffd5b81518015158114610f78575f5ffdfea2646970667358221220bc31d61b98cd0e119d4bf06de6efe8c46d59551b1b0429b5c0655946ecce24c564736f6c634300081e0033","linkReferences":{}},"methodIdentifiers":{"adapterId()":"5fb86b01","allocate(bytes,uint256,bytes4,address)":"1eadd778","allocation()":"88a17bde","deallocate(bytes,uint256,bytes4,address)":"4e45f1ff","factory()":"c45a0155","ids()":"e7657e15","morphoVaultV1()":"e4baaddf","parentVault()":"0fe36536","realAssets()":"56c07573","setSkimRecipient(address)":"2b30997b","skim(address)":"bc25cf77","skimRecipient()":"388af5b5"},"id":162}