{"abi":[{"type":"constructor","inputs":[{"name":"_owner","type":"address","internalType":"address"},{"name":"_asset","type":"address","internalType":"address"}],"stateMutability":"nonpayable"},{"type":"function","name":"DOMAIN_SEPARATOR","inputs":[],"outputs":[{"name":"","type":"bytes32","internalType":"bytes32"}],"stateMutability":"view"},{"type":"function","name":"_totalAssets","inputs":[],"outputs":[{"name":"","type":"uint128","internalType":"uint128"}],"stateMutability":"view"},{"type":"function","name":"absoluteCap","inputs":[{"name":"id","type":"bytes32","internalType":"bytes32"}],"outputs":[{"name":"","type":"uint256","internalType":"uint256"}],"stateMutability":"view"},{"type":"function","name":"accrueInterest","inputs":[],"outputs":[],"stateMutability":"nonpayable"},{"type":"function","name":"accrueInterestView","inputs":[],"outputs":[{"name":"","type":"uint256","internalType":"uint256"},{"name":"","type":"uint256","internalType":"uint256"},{"name":"","type":"uint256","internalType":"uint256"}],"stateMutability":"view"},{"type":"function","name":"adapterRegistry","inputs":[],"outputs":[{"name":"","type":"address","internalType":"address"}],"stateMutability":"view"},{"type":"function","name":"adapters","inputs":[{"name":"","type":"uint256","internalType":"uint256"}],"outputs":[{"name":"","type":"address","internalType":"address"}],"stateMutability":"view"},{"type":"function","name":"adaptersLength","inputs":[],"outputs":[{"name":"","type":"uint256","internalType":"uint256"}],"stateMutability":"view"},{"type":"function","name":"addAdapter","inputs":[{"name":"account","type":"address","internalType":"address"}],"outputs":[],"stateMutability":"nonpayable"},{"type":"function","name":"allocate","inputs":[{"name":"adapter","type":"address","internalType":"address"},{"name":"data","type":"bytes","internalType":"bytes"},{"name":"assets","type":"uint256","internalType":"uint256"}],"outputs":[],"stateMutability":"nonpayable"},{"type":"function","name":"allocation","inputs":[{"name":"id","type":"bytes32","internalType":"bytes32"}],"outputs":[{"name":"","type":"uint256","internalType":"uint256"}],"stateMutability":"view"},{"type":"function","name":"allowance","inputs":[{"name":"owner","type":"address","internalType":"address"},{"name":"spender","type":"address","internalType":"address"}],"outputs":[{"name":"","type":"uint256","internalType":"uint256"}],"stateMutability":"view"},{"type":"function","name":"approve","inputs":[{"name":"spender","type":"address","internalType":"address"},{"name":"shares","type":"uint256","internalType":"uint256"}],"outputs":[{"name":"","type":"bool","internalType":"bool"}],"stateMutability":"nonpayable"},{"type":"function","name":"asset","inputs":[],"outputs":[{"name":"","type":"address","internalType":"address"}],"stateMutability":"view"},{"type":"function","name":"balanceOf","inputs":[{"name":"account","type":"address","internalType":"address"}],"outputs":[{"name":"","type":"uint256","internalType":"uint256"}],"stateMutability":"view"},{"type":"function","name":"canReceiveAssets","inputs":[{"name":"account","type":"address","internalType":"address"}],"outputs":[{"name":"","type":"bool","internalType":"bool"}],"stateMutability":"view"},{"type":"function","name":"canReceiveShares","inputs":[{"name":"account","type":"address","internalType":"address"}],"outputs":[{"name":"","type":"bool","internalType":"bool"}],"stateMutability":"view"},{"type":"function","name":"canSendAssets","inputs":[{"name":"account","type":"address","internalType":"address"}],"outputs":[{"name":"","type":"bool","internalType":"bool"}],"stateMutability":"view"},{"type":"function","name":"canSendShares","inputs":[{"name":"account","type":"address","internalType":"address"}],"outputs":[{"name":"","type":"bool","internalType":"bool"}],"stateMutability":"view"},{"type":"function","name":"convertToAssets","inputs":[{"name":"shares","type":"uint256","internalType":"uint256"}],"outputs":[{"name":"","type":"uint256","internalType":"uint256"}],"stateMutability":"view"},{"type":"function","name":"convertToShares","inputs":[{"name":"assets","type":"uint256","internalType":"uint256"}],"outputs":[{"name":"","type":"uint256","internalType":"uint256"}],"stateMutability":"view"},{"type":"function","name":"curator","inputs":[],"outputs":[{"name":"","type":"address","internalType":"address"}],"stateMutability":"view"},{"type":"function","name":"deallocate","inputs":[{"name":"adapter","type":"address","internalType":"address"},{"name":"data","type":"bytes","internalType":"bytes"},{"name":"assets","type":"uint256","internalType":"uint256"}],"outputs":[],"stateMutability":"nonpayable"},{"type":"function","name":"decimals","inputs":[],"outputs":[{"name":"","type":"uint8","internalType":"uint8"}],"stateMutability":"view"},{"type":"function","name":"decreaseAbsoluteCap","inputs":[{"name":"idData","type":"bytes","internalType":"bytes"},{"name":"newAbsoluteCap","type":"uint256","internalType":"uint256"}],"outputs":[],"stateMutability":"nonpayable"},{"type":"function","name":"decreaseRelativeCap","inputs":[{"name":"idData","type":"bytes","internalType":"bytes"},{"name":"newRelativeCap","type":"uint256","internalType":"uint256"}],"outputs":[],"stateMutability":"nonpayable"},{"type":"function","name":"decreaseTimelock","inputs":[{"name":"selector","type":"bytes4","internalType":"bytes4"},{"name":"newDuration","type":"uint256","internalType":"uint256"}],"outputs":[],"stateMutability":"nonpayable"},{"type":"function","name":"deposit","inputs":[{"name":"assets","type":"uint256","internalType":"uint256"},{"name":"onBehalf","type":"address","internalType":"address"}],"outputs":[{"name":"","type":"uint256","internalType":"uint256"}],"stateMutability":"nonpayable"},{"type":"function","name":"executableAt","inputs":[{"name":"data","type":"bytes","internalType":"bytes"}],"outputs":[{"name":"","type":"uint256","internalType":"uint256"}],"stateMutability":"view"},{"type":"function","name":"firstTotalAssets","inputs":[],"outputs":[{"name":"","type":"uint256","internalType":"uint256"}],"stateMutability":"view"},{"type":"function","name":"forceDeallocate","inputs":[{"name":"adapter","type":"address","internalType":"address"},{"name":"data","type":"bytes","internalType":"bytes"},{"name":"assets","type":"uint256","internalType":"uint256"},{"name":"onBehalf","type":"address","internalType":"address"}],"outputs":[{"name":"","type":"uint256","internalType":"uint256"}],"stateMutability":"nonpayable"},{"type":"function","name":"forceDeallocatePenalty","inputs":[{"name":"adapter","type":"address","internalType":"address"}],"outputs":[{"name":"","type":"uint256","internalType":"uint256"}],"stateMutability":"view"},{"type":"function","name":"increaseAbsoluteCap","inputs":[{"name":"idData","type":"bytes","internalType":"bytes"},{"name":"newAbsoluteCap","type":"uint256","internalType":"uint256"}],"outputs":[],"stateMutability":"nonpayable"},{"type":"function","name":"increaseRelativeCap","inputs":[{"name":"idData","type":"bytes","internalType":"bytes"},{"name":"newRelativeCap","type":"uint256","internalType":"uint256"}],"outputs":[],"stateMutability":"nonpayable"},{"type":"function","name":"increaseTimelock","inputs":[{"name":"selector","type":"bytes4","internalType":"bytes4"},{"name":"newDuration","type":"uint256","internalType":"uint256"}],"outputs":[],"stateMutability":"nonpayable"},{"type":"function","name":"isAdapter","inputs":[{"name":"account","type":"address","internalType":"address"}],"outputs":[{"name":"","type":"bool","internalType":"bool"}],"stateMutability":"view"},{"type":"function","name":"isAllocator","inputs":[{"name":"account","type":"address","internalType":"address"}],"outputs":[{"name":"","type":"bool","internalType":"bool"}],"stateMutability":"view"},{"type":"function","name":"isSentinel","inputs":[{"name":"account","type":"address","internalType":"address"}],"outputs":[{"name":"","type":"bool","internalType":"bool"}],"stateMutability":"view"},{"type":"function","name":"lastUpdate","inputs":[],"outputs":[{"name":"","type":"uint64","internalType":"uint64"}],"stateMutability":"view"},{"type":"function","name":"liquidityAdapter","inputs":[],"outputs":[{"name":"","type":"address","internalType":"address"}],"stateMutability":"view"},{"type":"function","name":"liquidityData","inputs":[],"outputs":[{"name":"","type":"bytes","internalType":"bytes"}],"stateMutability":"view"},{"type":"function","name":"managementFee","inputs":[],"outputs":[{"name":"","type":"uint96","internalType":"uint96"}],"stateMutability":"view"},{"type":"function","name":"managementFeeRecipient","inputs":[],"outputs":[{"name":"","type":"address","internalType":"address"}],"stateMutability":"view"},{"type":"function","name":"maxDeposit","inputs":[{"name":"","type":"address","internalType":"address"}],"outputs":[{"name":"","type":"uint256","internalType":"uint256"}],"stateMutability":"pure"},{"type":"function","name":"maxMint","inputs":[{"name":"","type":"address","internalType":"address"}],"outputs":[{"name":"","type":"uint256","internalType":"uint256"}],"stateMutability":"pure"},{"type":"function","name":"maxRate","inputs":[],"outputs":[{"name":"","type":"uint64","internalType":"uint64"}],"stateMutability":"view"},{"type":"function","name":"maxRedeem","inputs":[{"name":"","type":"address","internalType":"address"}],"outputs":[{"name":"","type":"uint256","internalType":"uint256"}],"stateMutability":"pure"},{"type":"function","name":"maxWithdraw","inputs":[{"name":"","type":"address","internalType":"address"}],"outputs":[{"name":"","type":"uint256","internalType":"uint256"}],"stateMutability":"pure"},{"type":"function","name":"mint","inputs":[{"name":"shares","type":"uint256","internalType":"uint256"},{"name":"onBehalf","type":"address","internalType":"address"}],"outputs":[{"name":"","type":"uint256","internalType":"uint256"}],"stateMutability":"nonpayable"},{"type":"function","name":"multicall","inputs":[{"name":"data","type":"bytes[]","internalType":"bytes[]"}],"outputs":[],"stateMutability":"nonpayable"},{"type":"function","name":"name","inputs":[],"outputs":[{"name":"","type":"string","internalType":"string"}],"stateMutability":"view"},{"type":"function","name":"nonces","inputs":[{"name":"account","type":"address","internalType":"address"}],"outputs":[{"name":"","type":"uint256","internalType":"uint256"}],"stateMutability":"view"},{"type":"function","name":"owner","inputs":[],"outputs":[{"name":"","type":"address","internalType":"address"}],"stateMutability":"view"},{"type":"function","name":"performanceFee","inputs":[],"outputs":[{"name":"","type":"uint96","internalType":"uint96"}],"stateMutability":"view"},{"type":"function","name":"performanceFeeRecipient","inputs":[],"outputs":[{"name":"","type":"address","internalType":"address"}],"stateMutability":"view"},{"type":"function","name":"permit","inputs":[{"name":"_owner","type":"address","internalType":"address"},{"name":"spender","type":"address","internalType":"address"},{"name":"shares","type":"uint256","internalType":"uint256"},{"name":"deadline","type":"uint256","internalType":"uint256"},{"name":"v","type":"uint8","internalType":"uint8"},{"name":"r","type":"bytes32","internalType":"bytes32"},{"name":"s","type":"bytes32","internalType":"bytes32"}],"outputs":[],"stateMutability":"nonpayable"},{"type":"function","name":"previewDeposit","inputs":[{"name":"assets","type":"uint256","internalType":"uint256"}],"outputs":[{"name":"","type":"uint256","internalType":"uint256"}],"stateMutability":"view"},{"type":"function","name":"previewMint","inputs":[{"name":"shares","type":"uint256","internalType":"uint256"}],"outputs":[{"name":"","type":"uint256","internalType":"uint256"}],"stateMutability":"view"},{"type":"function","name":"previewRedeem","inputs":[{"name":"shares","type":"uint256","internalType":"uint256"}],"outputs":[{"name":"","type":"uint256","internalType":"uint256"}],"stateMutability":"view"},{"type":"function","name":"previewWithdraw","inputs":[{"name":"assets","type":"uint256","internalType":"uint256"}],"outputs":[{"name":"","type":"uint256","internalType":"uint256"}],"stateMutability":"view"},{"type":"function","name":"receiveAssetsGate","inputs":[],"outputs":[{"name":"","type":"address","internalType":"address"}],"stateMutability":"view"},{"type":"function","name":"receiveSharesGate","inputs":[],"outputs":[{"name":"","type":"address","internalType":"address"}],"stateMutability":"view"},{"type":"function","name":"redeem","inputs":[{"name":"shares","type":"uint256","internalType":"uint256"},{"name":"receiver","type":"address","internalType":"address"},{"name":"onBehalf","type":"address","internalType":"address"}],"outputs":[{"name":"","type":"uint256","internalType":"uint256"}],"stateMutability":"nonpayable"},{"type":"function","name":"relativeCap","inputs":[{"name":"id","type":"bytes32","internalType":"bytes32"}],"outputs":[{"name":"","type":"uint256","internalType":"uint256"}],"stateMutability":"view"},{"type":"function","name":"removeAdapter","inputs":[{"name":"account","type":"address","internalType":"address"}],"outputs":[],"stateMutability":"nonpayable"},{"type":"function","name":"revoke","inputs":[{"name":"data","type":"bytes","internalType":"bytes"}],"outputs":[],"stateMutability":"nonpayable"},{"type":"function","name":"sendAssetsGate","inputs":[],"outputs":[{"name":"","type":"address","internalType":"address"}],"stateMutability":"view"},{"type":"function","name":"sendSharesGate","inputs":[],"outputs":[{"name":"","type":"address","internalType":"address"}],"stateMutability":"view"},{"type":"function","name":"setAdapterRegistry","inputs":[{"name":"newAdapterRegistry","type":"address","internalType":"address"}],"outputs":[],"stateMutability":"nonpayable"},{"type":"function","name":"setCurator","inputs":[{"name":"newCurator","type":"address","internalType":"address"}],"outputs":[],"stateMutability":"nonpayable"},{"type":"function","name":"setForceDeallocatePenalty","inputs":[{"name":"adapter","type":"address","internalType":"address"},{"name":"newForceDeallocatePenalty","type":"uint256","internalType":"uint256"}],"outputs":[],"stateMutability":"nonpayable"},{"type":"function","name":"setIsAllocator","inputs":[{"name":"account","type":"address","internalType":"address"},{"name":"newIsAllocator","type":"bool","internalType":"bool"}],"outputs":[],"stateMutability":"nonpayable"},{"type":"function","name":"setIsSentinel","inputs":[{"name":"account","type":"address","internalType":"address"},{"name":"newIsSentinel","type":"bool","internalType":"bool"}],"outputs":[],"stateMutability":"nonpayable"},{"type":"function","name":"setLiquidityAdapterAndData","inputs":[{"name":"newLiquidityAdapter","type":"address","internalType":"address"},{"name":"newLiquidityData","type":"bytes","internalType":"bytes"}],"outputs":[],"stateMutability":"nonpayable"},{"type":"function","name":"setManagementFee","inputs":[{"name":"newManagementFee","type":"uint256","internalType":"uint256"}],"outputs":[],"stateMutability":"nonpayable"},{"type":"function","name":"setManagementFeeRecipient","inputs":[{"name":"newManagementFeeRecipient","type":"address","internalType":"address"}],"outputs":[],"stateMutability":"nonpayable"},{"type":"function","name":"setMaxRate","inputs":[{"name":"newMaxRate","type":"uint256","internalType":"uint256"}],"outputs":[],"stateMutability":"nonpayable"},{"type":"function","name":"setName","inputs":[{"name":"newName","type":"string","internalType":"string"}],"outputs":[],"stateMutability":"nonpayable"},{"type":"function","name":"setOwner","inputs":[{"name":"newOwner","type":"address","internalType":"address"}],"outputs":[],"stateMutability":"nonpayable"},{"type":"function","name":"setPerformanceFee","inputs":[{"name":"newPerformanceFee","type":"uint256","internalType":"uint256"}],"outputs":[],"stateMutability":"nonpayable"},{"type":"function","name":"setPerformanceFeeRecipient","inputs":[{"name":"newPerformanceFeeRecipient","type":"address","internalType":"address"}],"outputs":[],"stateMutability":"nonpayable"},{"type":"function","name":"setReceiveAssetsGate","inputs":[{"name":"newReceiveAssetsGate","type":"address","internalType":"address"}],"outputs":[],"stateMutability":"nonpayable"},{"type":"function","name":"setReceiveSharesGate","inputs":[{"name":"newReceiveSharesGate","type":"address","internalType":"address"}],"outputs":[],"stateMutability":"nonpayable"},{"type":"function","name":"setSendAssetsGate","inputs":[{"name":"newSendAssetsGate","type":"address","internalType":"address"}],"outputs":[],"stateMutability":"nonpayable"},{"type":"function","name":"setSendSharesGate","inputs":[{"name":"newSendSharesGate","type":"address","internalType":"address"}],"outputs":[],"stateMutability":"nonpayable"},{"type":"function","name":"setSymbol","inputs":[{"name":"newSymbol","type":"string","internalType":"string"}],"outputs":[],"stateMutability":"nonpayable"},{"type":"function","name":"submit","inputs":[{"name":"data","type":"bytes","internalType":"bytes"}],"outputs":[],"stateMutability":"nonpayable"},{"type":"function","name":"symbol","inputs":[],"outputs":[{"name":"","type":"string","internalType":"string"}],"stateMutability":"view"},{"type":"function","name":"timelock","inputs":[{"name":"selector","type":"bytes4","internalType":"bytes4"}],"outputs":[{"name":"","type":"uint256","internalType":"uint256"}],"stateMutability":"view"},{"type":"function","name":"totalAssets","inputs":[],"outputs":[{"name":"","type":"uint256","internalType":"uint256"}],"stateMutability":"view"},{"type":"function","name":"totalSupply","inputs":[],"outputs":[{"name":"","type":"uint256","internalType":"uint256"}],"stateMutability":"view"},{"type":"function","name":"transfer","inputs":[{"name":"to","type":"address","internalType":"address"},{"name":"shares","type":"uint256","internalType":"uint256"}],"outputs":[{"name":"","type":"bool","internalType":"bool"}],"stateMutability":"nonpayable"},{"type":"function","name":"transferFrom","inputs":[{"name":"from","type":"address","internalType":"address"},{"name":"to","type":"address","internalType":"address"},{"name":"shares","type":"uint256","internalType":"uint256"}],"outputs":[{"name":"","type":"bool","internalType":"bool"}],"stateMutability":"nonpayable"},{"type":"function","name":"virtualShares","inputs":[],"outputs":[{"name":"","type":"uint256","internalType":"uint256"}],"stateMutability":"view"},{"type":"function","name":"withdraw","inputs":[{"name":"assets","type":"uint256","internalType":"uint256"},{"name":"receiver","type":"address","internalType":"address"},{"name":"onBehalf","type":"address","internalType":"address"}],"outputs":[{"name":"","type":"uint256","internalType":"uint256"}],"stateMutability":"nonpayable"},{"type":"event","name":"Accept","inputs":[{"name":"selector","type":"bytes4","indexed":true,"internalType":"bytes4"},{"name":"data","type":"bytes","indexed":false,"internalType":"bytes"}],"anonymous":false},{"type":"event","name":"AccrueInterest","inputs":[{"name":"previousTotalAssets","type":"uint256","indexed":false,"internalType":"uint256"},{"name":"newTotalAssets","type":"uint256","indexed":false,"internalType":"uint256"},{"name":"performanceFeeShares","type":"uint256","indexed":false,"internalType":"uint256"},{"name":"managementFeeShares","type":"uint256","indexed":false,"internalType":"uint256"}],"anonymous":false},{"type":"event","name":"AddAdapter","inputs":[{"name":"account","type":"address","indexed":true,"internalType":"address"}],"anonymous":false},{"type":"event","name":"Allocate","inputs":[{"name":"sender","type":"address","indexed":true,"internalType":"address"},{"name":"adapter","type":"address","indexed":true,"internalType":"address"},{"name":"assets","type":"uint256","indexed":false,"internalType":"uint256"},{"name":"ids","type":"bytes32[]","indexed":false,"internalType":"bytes32[]"},{"name":"change","type":"int256","indexed":false,"internalType":"int256"}],"anonymous":false},{"type":"event","name":"AllowanceUpdatedByTransferFrom","inputs":[{"name":"owner","type":"address","indexed":true,"internalType":"address"},{"name":"spender","type":"address","indexed":true,"internalType":"address"},{"name":"shares","type":"uint256","indexed":false,"internalType":"uint256"}],"anonymous":false},{"type":"event","name":"Approval","inputs":[{"name":"owner","type":"address","indexed":true,"internalType":"address"},{"name":"spender","type":"address","indexed":true,"internalType":"address"},{"name":"shares","type":"uint256","indexed":false,"internalType":"uint256"}],"anonymous":false},{"type":"event","name":"Constructor","inputs":[{"name":"owner","type":"address","indexed":true,"internalType":"address"},{"name":"asset","type":"address","indexed":true,"internalType":"address"}],"anonymous":false},{"type":"event","name":"Deallocate","inputs":[{"name":"sender","type":"address","indexed":true,"internalType":"address"},{"name":"adapter","type":"address","indexed":true,"internalType":"address"},{"name":"assets","type":"uint256","indexed":false,"internalType":"uint256"},{"name":"ids","type":"bytes32[]","indexed":false,"internalType":"bytes32[]"},{"name":"change","type":"int256","indexed":false,"internalType":"int256"}],"anonymous":false},{"type":"event","name":"DecreaseAbsoluteCap","inputs":[{"name":"sender","type":"address","indexed":true,"internalType":"address"},{"name":"id","type":"bytes32","indexed":true,"internalType":"bytes32"},{"name":"idData","type":"bytes","indexed":false,"internalType":"bytes"},{"name":"newAbsoluteCap","type":"uint256","indexed":false,"internalType":"uint256"}],"anonymous":false},{"type":"event","name":"DecreaseRelativeCap","inputs":[{"name":"sender","type":"address","indexed":true,"internalType":"address"},{"name":"id","type":"bytes32","indexed":true,"internalType":"bytes32"},{"name":"idData","type":"bytes","indexed":false,"internalType":"bytes"},{"name":"newRelativeCap","type":"uint256","indexed":false,"internalType":"uint256"}],"anonymous":false},{"type":"event","name":"DecreaseTimelock","inputs":[{"name":"selector","type":"bytes4","indexed":true,"internalType":"bytes4"},{"name":"newDuration","type":"uint256","indexed":false,"internalType":"uint256"}],"anonymous":false},{"type":"event","name":"Deposit","inputs":[{"name":"sender","type":"address","indexed":true,"internalType":"address"},{"name":"onBehalf","type":"address","indexed":true,"internalType":"address"},{"name":"assets","type":"uint256","indexed":false,"internalType":"uint256"},{"name":"shares","type":"uint256","indexed":false,"internalType":"uint256"}],"anonymous":false},{"type":"event","name":"ForceDeallocate","inputs":[{"name":"sender","type":"address","indexed":true,"internalType":"address"},{"name":"adapter","type":"address","indexed":false,"internalType":"address"},{"name":"assets","type":"uint256","indexed":false,"internalType":"uint256"},{"name":"onBehalf","type":"address","indexed":true,"internalType":"address"},{"name":"ids","type":"bytes32[]","indexed":false,"internalType":"bytes32[]"},{"name":"penaltyAssets","type":"uint256","indexed":false,"internalType":"uint256"}],"anonymous":false},{"type":"event","name":"IncreaseAbsoluteCap","inputs":[{"name":"id","type":"bytes32","indexed":true,"internalType":"bytes32"},{"name":"idData","type":"bytes","indexed":false,"internalType":"bytes"},{"name":"newAbsoluteCap","type":"uint256","indexed":false,"internalType":"uint256"}],"anonymous":false},{"type":"event","name":"IncreaseRelativeCap","inputs":[{"name":"id","type":"bytes32","indexed":true,"internalType":"bytes32"},{"name":"idData","type":"bytes","indexed":false,"internalType":"bytes"},{"name":"newRelativeCap","type":"uint256","indexed":false,"internalType":"uint256"}],"anonymous":false},{"type":"event","name":"IncreaseTimelock","inputs":[{"name":"selector","type":"bytes4","indexed":true,"internalType":"bytes4"},{"name":"newDuration","type":"uint256","indexed":false,"internalType":"uint256"}],"anonymous":false},{"type":"event","name":"Permit","inputs":[{"name":"owner","type":"address","indexed":true,"internalType":"address"},{"name":"spender","type":"address","indexed":true,"internalType":"address"},{"name":"shares","type":"uint256","indexed":false,"internalType":"uint256"},{"name":"nonce","type":"uint256","indexed":false,"internalType":"uint256"},{"name":"deadline","type":"uint256","indexed":false,"internalType":"uint256"}],"anonymous":false},{"type":"event","name":"RemoveAdapter","inputs":[{"name":"account","type":"address","indexed":true,"internalType":"address"}],"anonymous":false},{"type":"event","name":"Revoke","inputs":[{"name":"sender","type":"address","indexed":true,"internalType":"address"},{"name":"selector","type":"bytes4","indexed":true,"internalType":"bytes4"},{"name":"data","type":"bytes","indexed":false,"internalType":"bytes"}],"anonymous":false},{"type":"event","name":"SetAdapterRegistry","inputs":[{"name":"newAdapterRegistry","type":"address","indexed":true,"internalType":"address"}],"anonymous":false},{"type":"event","name":"SetCurator","inputs":[{"name":"newCurator","type":"address","indexed":true,"internalType":"address"}],"anonymous":false},{"type":"event","name":"SetForceDeallocatePenalty","inputs":[{"name":"adapter","type":"address","indexed":true,"internalType":"address"},{"name":"forceDeallocatePenalty","type":"uint256","indexed":false,"internalType":"uint256"}],"anonymous":false},{"type":"event","name":"SetIsAllocator","inputs":[{"name":"account","type":"address","indexed":true,"internalType":"address"},{"name":"newIsAllocator","type":"bool","indexed":false,"internalType":"bool"}],"anonymous":false},{"type":"event","name":"SetIsSentinel","inputs":[{"name":"account","type":"address","indexed":true,"internalType":"address"},{"name":"newIsSentinel","type":"bool","indexed":false,"internalType":"bool"}],"anonymous":false},{"type":"event","name":"SetLiquidityAdapterAndData","inputs":[{"name":"sender","type":"address","indexed":true,"internalType":"address"},{"name":"newLiquidityAdapter","type":"address","indexed":true,"internalType":"address"},{"name":"newLiquidityData","type":"bytes","indexed":true,"internalType":"bytes"}],"anonymous":false},{"type":"event","name":"SetManagementFee","inputs":[{"name":"newManagementFee","type":"uint256","indexed":false,"internalType":"uint256"}],"anonymous":false},{"type":"event","name":"SetManagementFeeRecipient","inputs":[{"name":"newManagementFeeRecipient","type":"address","indexed":true,"internalType":"address"}],"anonymous":false},{"type":"event","name":"SetMaxRate","inputs":[{"name":"newMaxRate","type":"uint256","indexed":false,"internalType":"uint256"}],"anonymous":false},{"type":"event","name":"SetName","inputs":[{"name":"newName","type":"string","indexed":false,"internalType":"string"}],"anonymous":false},{"type":"event","name":"SetOwner","inputs":[{"name":"newOwner","type":"address","indexed":true,"internalType":"address"}],"anonymous":false},{"type":"event","name":"SetPerformanceFee","inputs":[{"name":"newPerformanceFee","type":"uint256","indexed":false,"internalType":"uint256"}],"anonymous":false},{"type":"event","name":"SetPerformanceFeeRecipient","inputs":[{"name":"newPerformanceFeeRecipient","type":"address","indexed":true,"internalType":"address"}],"anonymous":false},{"type":"event","name":"SetReceiveAssetsGate","inputs":[{"name":"newReceiveAssetsGate","type":"address","indexed":true,"internalType":"address"}],"anonymous":false},{"type":"event","name":"SetReceiveSharesGate","inputs":[{"name":"newReceiveSharesGate","type":"address","indexed":true,"internalType":"address"}],"anonymous":false},{"type":"event","name":"SetSendAssetsGate","inputs":[{"name":"newSendAssetsGate","type":"address","indexed":true,"internalType":"address"}],"anonymous":false},{"type":"event","name":"SetSendSharesGate","inputs":[{"name":"newSendSharesGate","type":"address","indexed":true,"internalType":"address"}],"anonymous":false},{"type":"event","name":"SetSymbol","inputs":[{"name":"newSymbol","type":"string","indexed":false,"internalType":"string"}],"anonymous":false},{"type":"event","name":"Submit","inputs":[{"name":"selector","type":"bytes4","indexed":true,"internalType":"bytes4"},{"name":"data","type":"bytes","indexed":false,"internalType":"bytes"},{"name":"executableAt","type":"uint256","indexed":false,"internalType":"uint256"}],"anonymous":false},{"type":"event","name":"Transfer","inputs":[{"name":"from","type":"address","indexed":true,"internalType":"address"},{"name":"to","type":"address","indexed":true,"internalType":"address"},{"name":"shares","type":"uint256","indexed":false,"internalType":"uint256"}],"anonymous":false},{"type":"event","name":"Withdraw","inputs":[{"name":"sender","type":"address","indexed":true,"internalType":"address"},{"name":"receiver","type":"address","indexed":true,"internalType":"address"},{"name":"onBehalf","type":"address","indexed":true,"internalType":"address"},{"name":"assets","type":"uint256","indexed":false,"internalType":"uint256"},{"name":"shares","type":"uint256","indexed":false,"internalType":"uint256"}],"anonymous":false},{"type":"error","name":"AbsoluteCapExceeded","inputs":[]},{"type":"error","name":"AbsoluteCapNotDecreasing","inputs":[]},{"type":"error","name":"AbsoluteCapNotIncreasing","inputs":[]},{"type":"error","name":"AutomaticallyTimelocked","inputs":[]},{"type":"error","name":"CannotReceiveAssets","inputs":[]},{"type":"error","name":"CannotReceiveShares","inputs":[]},{"type":"error","name":"CannotSendAssets","inputs":[]},{"type":"error","name":"CannotSendShares","inputs":[]},{"type":"error","name":"CastOverflow","inputs":[]},{"type":"error","name":"DataAlreadyPending","inputs":[]},{"type":"error","name":"DataNotTimelocked","inputs":[]},{"type":"error","name":"FeeInvariantBroken","inputs":[]},{"type":"error","name":"FeeTooHigh","inputs":[]},{"type":"error","name":"InvalidSigner","inputs":[]},{"type":"error","name":"MaxRateTooHigh","inputs":[]},{"type":"error","name":"NoCode","inputs":[]},{"type":"error","name":"NotAdapter","inputs":[]},{"type":"error","name":"NotInAdapterRegistry","inputs":[]},{"type":"error","name":"PenaltyTooHigh","inputs":[]},{"type":"error","name":"PermitDeadlineExpired","inputs":[]},{"type":"error","name":"RelativeCapAboveOne","inputs":[]},{"type":"error","name":"RelativeCapExceeded","inputs":[]},{"type":"error","name":"RelativeCapNotDecreasing","inputs":[]},{"type":"error","name":"RelativeCapNotIncreasing","inputs":[]},{"type":"error","name":"TimelockNotDecreasing","inputs":[]},{"type":"error","name":"TimelockNotExpired","inputs":[]},{"type":"error","name":"TimelockNotIncreasing","inputs":[]},{"type":"error","name":"TransferFromReturnedFalse","inputs":[]},{"type":"error","name":"TransferFromReverted","inputs":[]},{"type":"error","name":"TransferReturnedFalse","inputs":[]},{"type":"error","name":"TransferReverted","inputs":[]},{"type":"error","name":"Unauthorized","inputs":[]},{"type":"error","name":"ZeroAbsoluteCap","inputs":[]},{"type":"error","name":"ZeroAddress","inputs":[]},{"type":"error","name":"ZeroAllocation","inputs":[]}],"bytecode":{"object":"0x60e060405234801561000f575f5ffd5b5060405161676c38038061676c83398101604081905261002e91610166565b6001600160a01b0381811660808190525f80546001600160a01b031916928516929092178255600f8054600160801b600160c01b031916600160801b426001600160401b0316021790556040805163313ce56760e01b8152905163313ce567916004808201926020929091908290030181865afa1580156100b1573d5f5f3e3d5ffd5b505050506040513d601f19601f820116820180604052508101906100d59190610197565b60ff1690505f6100ea60128380821191030290565b90506100f681836101d2565b60ff1660a05261010781600a6102ce565b60c0526040516001600160a01b0380851691908616907f612d665a88b3ae6bc3e53207bfc2db673e2e05e2aa4a68043b618cc81295a27d905f90a3505050506102d9565b80516001600160a01b0381168114610161575f5ffd5b919050565b5f5f60408385031215610177575f5ffd5b6101808361014b565b915061018e6020840161014b565b90509250929050565b5f602082840312156101a7575f5ffd5b815160ff811681146101b7575f5ffd5b9392505050565b634e487b7160e01b5f52601160045260245ffd5b808201808211156101e5576101e56101be565b92915050565b6001815b60018411156102265780850481111561020a5761020a6101be565b600184161561021857908102905b60019390931c9280026101ef565b935093915050565b5f8261023c575060016101e5565b8161024857505f6101e5565b816001811461025e576002811461026857610284565b60019150506101e5565b60ff841115610279576102796101be565b50506001821b6101e5565b5060208310610133831016604e8410600b84101617156102a7575081810a6101e5565b6102b35f1984846101eb565b805f19048211156102c6576102c66101be565b029392505050565b5f6101b7838361022e565b60805160a05160c0516164156103575f395f8181610df80152818161118001528181611c9501528181612783015281816127ca0152818161374c01526140d101525f61073101525f81816107c501528181612476015281816146560152818161476601528181614af401528181614ea8015261513001526164155ff3fe608060405234801561000f575f5ffd5b5060043610610604575f3560e01c80638c54519b1161031d578063bc0dd374116101a8578063dd62ed3e116100f3578063ed27f7c91161009e578063f6f98fd511610079578063f6f98fd514610f7f578063f73f8f3114610f92578063fe56e23214610f9a575f5ffd5b8063ed27f7c914610f29578063ef7fa71b14610f59578063ef8b30f714610f6c575f5ffd5b8063e78ab14e116100ce578063e78ab14e14610ec7578063e90956cf14610ee6578063ece1d6e514610ef9575f5ffd5b8063dd62ed3e14610e6a578063e4d38cd814610e94578063e66f53b714610ea7575f5ffd5b8063c6e6f59211610153578063ce96cb771161012e578063ce96cb771461081f578063d505accf14610e57578063d905777e1461081f575f5ffd5b8063c6e6f59214610de0578063c719946c14610df3578063ce04bebb14610e1a575f5ffd5b8063c47f002711610183578063c47f002714610dae578063c63d75b61461081f578063c69507dd14610dc1575f5ffd5b8063bc0dd37414610d26578063c046371114610d5a578063c21ad02814610d9b575f5ffd5b8063a6afed9511610268578063b192a84a11610213578063b84c8246116101ee578063b84c824614610cde578063ba03a75f14610cf1578063ba08765214610d13575f5ffd5b8063b192a84a14610ca5578063b3d7f6b914610cb8578063b460af9414610ccb575f5ffd5b8063aa4abe7f11610243578063aa4abe7f14610c5f578063ac9650d814610c72578063ad468d1114610c85575f5ffd5b8063a6afed9514610c2c578063a6f7f5d614610c34578063a9059cbb14610c4c575f5ffd5b806394bf804d116102c857806399e99183116102a357806399e9918314610bb25780639faae46414610bd1578063a68bafa314610be4575f5ffd5b806394bf804d14610b8457806395d89b4114610b9757806398c9b49c14610b9f575f5ffd5b80638eede801116102f85780638eede80114610b31578063920ed70614610b5157806393ab2ab714610b64575f5ffd5b80638c54519b14610aec5780638da5cb5b14610aff5780638e511e4d14610b1e575f5ffd5b80634dedf20e1161049d57806368c18beb116103e85780637e729ac4116103935780638639fb071161036e5780638639fb0714610a79578063871c979c14610aa45780638778878214610ab7575f5ffd5b80637e729ac414610a275780637ecebe0014610a475780637fb6caad14610a66575f5ffd5b80636e553f65116103c35780636e553f65146109e257806370897b23146109f557806370a0823114610a08575f5ffd5b806368c18beb1461097d5780636a5f1aa21461099f5780636d9a3010146109b2575f5ffd5b80635aa22bc8116104485780635c9ce04d116104235780635c9ce04d1461093457806360a38ac11461094757806360d54d411461096a575f5ffd5b80635aa22bc8146109065780635b34b8231461090e5780635c1a1a4f14610921575f5ffd5b806354cde13e1161047857806354cde13e146108c057806357975270146108e0578063585cd34b146108f3575f5ffd5b80634dedf20e1461086b5780634ef501ac1461088d57806350b5c16a146108a0575f5ffd5b806323b872dd1161055d57806338d52e0f1161050857806347966291116104e357806347966291146108325780634b219d16146108455780634cdad50614610858575f5ffd5b806338d52e0f146107c05780633e9d2ac71461080c578063402d267d1461081f575f5ffd5b80632e029228116105385780632e02922814610724578063313ce5671461072c5780633644e51514610765575f5ffd5b806323b872dd146106eb5780632438525b146106fe5780632cb19f9814610711575f5ffd5b80630a28a477116105bd57806313af40351161059857806313af4035146106bc57806318160ddd146106cf57806320fe8d58146106d8575f5ffd5b80630a28a477146106835780630b467b9b146106965780630d326b18146106a9575f5ffd5b806306fdde03116105ed57806306fdde031461063857806307a2d13a1461064d578063095ea7b314610660575f5ffd5b806301e1d1141461060857806304dbf0ce14610623575b5f5ffd5b610610610fad565b6040519081526020015b60405180910390f35b6106366106313660046156b5565b610fc0565b005b610640611036565b60405161061a919061571a565b61061061065b36600461572c565b6110c2565b61067361066e366004615743565b6110d2565b604051901515815260200161061a565b61061061069136600461572c565b61114a565b6106366106a436600461576b565b6111c2565b6106736106b73660046156b5565b611325565b6106366106ca3660046156b5565b6113fb565b610610600b5481565b6106736106e63660046156b5565b6114b7565b6106736106f93660046157d9565b611531565b61063661070c366004615924565b611820565b61063661071f3660046156b5565b611960565b6106406119d5565b6107537f000000000000000000000000000000000000000000000000000000000000000081565b60405160ff909116815260200161061a565b610610604080517f47e79534a245952e8b16893a336b85a3d9ea9fa8c573f3d803afb92a79469218602082015246918101919091523060608201525f9060800160405160208183030381529060405280519060200120905090565b6107e77f000000000000000000000000000000000000000000000000000000000000000081565b60405173ffffffffffffffffffffffffffffffffffffffff909116815260200161061a565b61063661081a366004615743565b6119e2565b61061061082d3660046156b5565b505f90565b610636610840366004615995565b611a90565b6106366108533660046159af565b611be2565b61061061086636600461572c565b611c54565b6106736108793660046156b5565b60086020525f908152604090205460ff1681565b6107e761089b36600461572c565b611cc2565b6006546107e79073ffffffffffffffffffffffffffffffffffffffff1681565b6004546107e79073ffffffffffffffffffffffffffffffffffffffff1681565b6106366108ee366004615924565b611cf7565b6106366109013660046156b5565b611e59565b601154610610565b61063661091c3660046156b5565b61208b565b61063661092f366004615995565b61222e565b6106366109423660046159af565b612380565b61094f6123d8565b6040805193845260208401929092529082015260600161061a565b6106366109783660046156b5565b612815565b61067361098b3660046156b5565b60106020525f908152604090205460ff1681565b6106366109ad3660046156b5565b612a1a565b6019546107e7906c01000000000000000000000000900473ffffffffffffffffffffffffffffffffffffffff1681565b6106106109f0366004615a03565b612afe565b610636610a0336600461572c565b612b25565b610610610a163660046156b5565b600c6020525f908152604090205481565b6002546107e79073ffffffffffffffffffffffffffffffffffffffff1681565b610610610a553660046156b5565b600e6020525f908152604090205481565b610636610a74366004615a2d565b612c50565b610610610a87366004615a78565b805160208183018101805160178252928201919093012091525481565b610636610ab23660046156b5565b612d40565b601854610acf906bffffffffffffffffffffffff1681565b6040516bffffffffffffffffffffffff909116815260200161061a565b610636610afa366004615924565b612db6565b5f546107e79073ffffffffffffffffffffffffffffffffffffffff1681565b610673610b2c3660046156b5565b612f03565b6005546107e79073ffffffffffffffffffffffffffffffffffffffff1681565b610636610b5f366004615aba565b612f7d565b6003546107e79073ffffffffffffffffffffffffffffffffffffffff1681565b610610610b92366004615a03565b61304f565b61064061306f565b610673610bad3660046156b5565b61307c565b610610610bc03660046156b5565b60136020525f908152604090205481565b610636610bdf3660046156b5565b6130f6565b610610610bf236600461572c565b5f9081526012602052604090206001015470010000000000000000000000000000000090046fffffffffffffffffffffffffffffffff1690565b6106366131da565b601954610acf906bffffffffffffffffffffffff1681565b610673610c5a366004615743565b613361565b610636610c6d36600461572c565b6134d3565b610636610c80366004615aef565b6135e9565b6014546107e79073ffffffffffffffffffffffffffffffffffffffff1681565b610636610cb3366004615aba565b613681565b610610610cc636600461572c565b61370b565b610610610cd9366004615b50565b613771565b610636610cec366004615b89565b61379a565b610673610cff3660046156b5565b60076020525f908152604090205460ff1681565b610610610d21366004615b50565b613826565b610610610d3436600461572c565b5f908152601260205260409020600101546fffffffffffffffffffffffffffffffff1690565b600f54610d8290700100000000000000000000000000000000900467ffffffffffffffff1681565b60405167ffffffffffffffff909116815260200161061a565b610636610da93660046156b5565b613847565b610636610dbc366004615b89565b6138bd565b610610610dcf36600461572c565b5f9081526012602052604090205490565b610610610dee36600461572c565b613949565b6106107f000000000000000000000000000000000000000000000000000000000000000081565b600f54610e36906fffffffffffffffffffffffffffffffff1681565b6040516fffffffffffffffffffffffffffffffff909116815260200161061a565b610636610e65366004615bce565b613953565b610610610e78366004615c3b565b600d60209081525f928352604080842090915290825290205481565b610610610ea2366004615c63565b613cdb565b6001546107e79073ffffffffffffffffffffffffffffffffffffffff1681565b610610610ed5366004615cc7565b60166020525f908152604090205481565b610636610ef43660046156b5565b613dab565b600f54610d82907801000000000000000000000000000000000000000000000000900467ffffffffffffffff1681565b6018546107e7906c01000000000000000000000000900473ffffffffffffffffffffffffffffffffffffffff1681565b610636610f6736600461576b565b613e69565b610610610f7a36600461572c565b61409b565b610636610f8d366004615924565b614101565b6106105f5c81565b610636610fa836600461572c565b6141fe565b5f5f610fb76123d8565b50909392505050565b610fc861432e565b600480547fffffffffffffffffffffffff00000000000000000000000000000000000000001673ffffffffffffffffffffffffffffffffffffffff83169081179091556040517f6b530281a3f54e1c3e430297307183ba1bafca3cdf775404395c208e6cf3e15f905f90a250565b6009805461104390615ce0565b80601f016020809104026020016040519081016040528092919081815260200182805461106f90615ce0565b80156110ba5780601f10611091576101008083540402835291602001916110ba565b820191905f5260205f20905b81548152906001019060200180831161109d57829003601f168201915b505050505081565b5f6110cc82611c54565b92915050565b335f818152600d6020908152604080832073ffffffffffffffffffffffffffffffffffffffff8716808552925280832085905551919290917f8c5be1e5ebec7d5bd14f71427d1e84f3dd0314c0f7b2291e5b200ac8c7c3b925906111399086815260200190565b60405180910390a350600192915050565b5f5f5f5f6111566123d8565b9250925092505f8183600b5461116c9190615d5e565b6111769190615d5e565b90506111b86111a57f000000000000000000000000000000000000000000000000000000000000000083615d5e565b6111b0866001615d5e565b889190614468565b9695505050505050565b60015473ffffffffffffffffffffffffffffffffffffffff163314806111f65750335f9081526007602052604090205460ff165b61122c576040517f82b4290000000000000000000000000000000000000000000000000000000000815260040160405180910390fd5b6017828260405161123e929190615d71565b9081526020016040518091039020545f03611285576040517f1ea942a800000000000000000000000000000000000000000000000000000000815260040160405180910390fd5b5f60178383604051611298929190615d71565b908152604051908190036020019020556112b28183615d80565b7bffffffffffffffffffffffffffffffffffffffffffffffffffffffff19163373ffffffffffffffffffffffffffffffffffffffff167f70521cf6a7c2458c5ad406081ad7b3bc4afd31b01b586a157a9780fcee6a77cb8484604051611319929190615e2d565b60405180910390a35050565b5f73ffffffffffffffffffffffffffffffffffffffff8216301480611360575060045473ffffffffffffffffffffffffffffffffffffffff16155b806110cc5750600480546040517f0d326b1800000000000000000000000000000000000000000000000000000000815273ffffffffffffffffffffffffffffffffffffffff85811693820193909352911690630d326b18906024015b602060405180830381865afa1580156113d7573d5f5f3e3d5ffd5b505050506040513d601f19601f820116820180604052508101906110cc9190615e40565b5f5473ffffffffffffffffffffffffffffffffffffffff16331461144b576040517f82b4290000000000000000000000000000000000000000000000000000000000815260040160405180910390fd5b5f80547fffffffffffffffffffffffff00000000000000000000000000000000000000001673ffffffffffffffffffffffffffffffffffffffff8316908117825560405190917f167d3e9c1016ab80e58802ca9da10ce5c6a0f4debc46a2e7a2cd9e56899a4fb591a250565b6005545f9073ffffffffffffffffffffffffffffffffffffffff1615806110cc57506005546040517f20fe8d5800000000000000000000000000000000000000000000000000000000815273ffffffffffffffffffffffffffffffffffffffff8481166004830152909116906320fe8d58906024016113bc565b5f73ffffffffffffffffffffffffffffffffffffffff841661157f576040517fd92e233d00000000000000000000000000000000000000000000000000000000815260040160405180910390fd5b73ffffffffffffffffffffffffffffffffffffffff83166115cc576040517fd92e233d00000000000000000000000000000000000000000000000000000000815260040160405180910390fd5b6115d584612f03565b61160b576040517f876736d100000000000000000000000000000000000000000000000000000000815260040160405180910390fd5b6116148361307c565b61164a576040517f861a96d600000000000000000000000000000000000000000000000000000000815260040160405180910390fd5b3373ffffffffffffffffffffffffffffffffffffffff85161461173b5773ffffffffffffffffffffffffffffffffffffffff84165f908152600d602090815260408083203384529091529020547fffffffffffffffffffffffffffffffffffffffffffffffffffffffffffffffff8114611739576116c88382615e5b565b73ffffffffffffffffffffffffffffffffffffffff86165f818152600d60209081526040808320338085529252909120929092557fc1886047cf852ffdaeda16dafd86e28507781ffba1faafef1d536d4abaa260b06117278685615e5b565b60405190815260200160405180910390a35b505b73ffffffffffffffffffffffffffffffffffffffff84165f908152600c60205260408120805484929061176f908490615e5b565b909155505073ffffffffffffffffffffffffffffffffffffffff83165f908152600c6020526040812080548492906117a8908490615d5e565b925050819055508273ffffffffffffffffffffffffffffffffffffffff168473ffffffffffffffffffffffffffffffffffffffff167fddf252ad1be2c89b69c2b068fc378daa952ba7f163c4a11628f55a4df523b3ef8460405161180e91815260200190565b60405180910390a35060019392505050565b61182861432e565b81516020830120670de0b6b3a7640000821115611871576040517f0d6108b600000000000000000000000000000000000000000000000000000000815260040160405180910390fd5b5f8181526012602052604090206001015470010000000000000000000000000000000090046fffffffffffffffffffffffffffffffff168210156118e1576040517f8433449d00000000000000000000000000000000000000000000000000000000815260040160405180910390fd5b5f818152601260205260409081902060010180546fffffffffffffffffffffffffffffffff8086167001000000000000000000000000000000000291161790555181907f2a343b9a1ceba40853d01c6adeea53f5c0e4b95b4eb870ed4af309a0ead7e399906119539086908690615e6e565b60405180910390a2505050565b61196861432e565b600280547fffffffffffffffffffffffff00000000000000000000000000000000000000001673ffffffffffffffffffffffffffffffffffffffff83169081179091556040517e4237ebb79833e3e0bc633281452dc9e5c76b92b603140b2a53b0bceb441cae905f90a250565b6015805461104390615ce0565b6119ea61432e565b66470de4df820000811115611a2b576040517f516e7f3800000000000000000000000000000000000000000000000000000000815260040160405180910390fd5b73ffffffffffffffffffffffffffffffffffffffff82165f8181526013602052604090819020839055517f1e29a0bf54cf1e929f17cc97a198ff5cf7f8da1df1cb8ff67f7184ce380f392490611a849084815260200190565b60405180910390a25050565b611a9861432e565b7fa3e5e5b1000000000000000000000000000000000000000000000000000000007fffffffff00000000000000000000000000000000000000000000000000000000831601611b13576040517f07e895b100000000000000000000000000000000000000000000000000000000815260040160405180910390fd5b7fffffffff0000000000000000000000000000000000000000000000000000000082165f90815260166020526040902054811015611b7d576040517f470f70c200000000000000000000000000000000000000000000000000000000815260040160405180910390fd5b7fffffffff0000000000000000000000000000000000000000000000000000000082165f8181526016602052604090819020839055517fed380a7a1f0afc99b313ac7d9f1e52e44430d32b4639c7993bd0021974e30c0e90611a849084815260200190565b335f9081526008602052604090205460ff1680611c0d5750335f9081526007602052604090205460ff165b611c43576040517f82b4290000000000000000000000000000000000000000000000000000000000815260040160405180910390fd5b611c4e838383614493565b50505050565b5f5f5f5f611c606123d8565b9250925092505f8183600b54611c769190615d5e565b611c809190615d5e565b90506111b8611c90856001615d5e565b611cba7f000000000000000000000000000000000000000000000000000000000000000084615d5e565b8891906146ef565b60118181548110611cd1575f80fd5b5f9182526020909120015473ffffffffffffffffffffffffffffffffffffffff16905081565b8151602083012060015473ffffffffffffffffffffffffffffffffffffffff16331480611d325750335f9081526007602052604090205460ff165b611d68576040517f82b4290000000000000000000000000000000000000000000000000000000000815260040160405180910390fd5b5f8181526012602052604090206001015470010000000000000000000000000000000090046fffffffffffffffffffffffffffffffff16821115611dd8576040517f04c27fbf00000000000000000000000000000000000000000000000000000000815260040160405180910390fd5b5f818152601260205260409081902060010180546fffffffffffffffffffffffffffffffff80861670010000000000000000000000000000000002911617905551819033907fcedce6ffe8b7f89de49bd4f955667ca0a963a8059264196807b240ed470b25ce90611e4c9087908790615e6e565b60405180910390a3505050565b611e6161432e565b73ffffffffffffffffffffffffffffffffffffffff81165f9081526010602052604090205460ff1615612048575f5b601154811015611ffc578173ffffffffffffffffffffffffffffffffffffffff1660118281548110611ec457611ec4615e8f565b5f9182526020909120015473ffffffffffffffffffffffffffffffffffffffff1603611ff45760118054611efa90600190615e5b565b81548110611f0a57611f0a615e8f565b5f918252602090912001546011805473ffffffffffffffffffffffffffffffffffffffff9092169183908110611f4257611f42615e8f565b905f5260205f20015f6101000a81548173ffffffffffffffffffffffffffffffffffffffff021916908373ffffffffffffffffffffffffffffffffffffffff1602179055506011805480611f9857611f98615ebc565b5f8281526020902081017fffffffffffffffffffffffffffffffffffffffffffffffffffffffffffffffff90810180547fffffffffffffffffffffffff0000000000000000000000000000000000000000169055019055611ffc565b600101611e90565b5073ffffffffffffffffffffffffffffffffffffffff81165f90815260106020526040902080547fffffffffffffffffffffffffffffffffffffffffffffffffffffffffffffff001690555b60405173ffffffffffffffffffffffffffffffffffffffff8216907f34f33faa2592bc1f615ec3e91b55b7784665ce46461403c294824d85f9f66458905f90a250565b61209361432e565b73ffffffffffffffffffffffffffffffffffffffff8116156121c0575f5b6011548110156121be578173ffffffffffffffffffffffffffffffffffffffff1663e4bb26f2601183815481106120ea576120ea615e8f565b5f9182526020909120015460405160e083901b7fffffffff0000000000000000000000000000000000000000000000000000000016815273ffffffffffffffffffffffffffffffffffffffff9091166004820152602401602060405180830381865afa15801561215c573d5f5f3e3d5ffd5b505050506040513d601f19601f820116820180604052508101906121809190615e40565b6121b6576040517f133c5cc800000000000000000000000000000000000000000000000000000000815260040160405180910390fd5b6001016120b1565b505b600680547fffffffffffffffffffffffff00000000000000000000000000000000000000001673ffffffffffffffffffffffffffffffffffffffff83169081179091556040517f7c5f71ef3a94efd2804ad9a6eb74b723dae0d26ef7d2a031f7986c96ae55afda905f90a250565b61223661432e565b7fa3e5e5b1000000000000000000000000000000000000000000000000000000007fffffffff000000000000000000000000000000000000000000000000000000008316016122b1576040517f07e895b100000000000000000000000000000000000000000000000000000000815260040160405180910390fd5b7fffffffff0000000000000000000000000000000000000000000000000000000082165f9081526016602052604090205481111561231b576040517f17e0a21c00000000000000000000000000000000000000000000000000000000815260040160405180910390fd5b7fffffffff0000000000000000000000000000000000000000000000000000000082165f8181526016602052604090819020839055517f488e0bfafe0a9580c2271bee1f563a47d309f0105ca950ea525d909b43b36daf90611a849084815260200190565b335f9081526008602052604090205460ff166123c8576040517f82b4290000000000000000000000000000000000000000000000000000000000815260040160405180910390fd5b6123d38383836146fb565b505050565b5f8080805c15612401575050600f546fffffffffffffffffffffffffffffffff16915f91508190565b600f545f9061242e90700100000000000000000000000000000000900467ffffffffffffffff1642615e5b565b6040517f70a082310000000000000000000000000000000000000000000000000000000081523060048201529091505f9073ffffffffffffffffffffffffffffffffffffffff7f000000000000000000000000000000000000000000000000000000000000000016906370a0823190602401602060405180830381865afa1580156124bb573d5f5f3e3d5ffd5b505050506040513d601f19601f820116820180604052508101906124df9190615ee9565b90505f5b6011548110156125a9576011818154811061250057612500615e8f565b5f9182526020918290200154604080517f56c07573000000000000000000000000000000000000000000000000000000008152905173ffffffffffffffffffffffffffffffffffffffff909216926356c07573926004808401938290030181865afa158015612571573d5f5f3e3d5ffd5b505050506040513d601f19601f820116820180604052508101906125959190615ee9565b61259f9083615d5e565b91506001016124e3565b50600f545f906126089067ffffffffffffffff780100000000000000000000000000000000000000000000000082041690670de0b6b3a7640000906126019087906fffffffffffffffffffffffffffffffff16615f00565b91906146ef565b600f5461262791906fffffffffffffffffffffffffffffffff16615d5e565b600f54909150818311838318028318906fffffffffffffffffffffffffffffffff16808203908211025f811580159061266f57506018546bffffffffffffffffffffffff1615155b80156126a857506018546126a8906c01000000000000000000000000900473ffffffffffffffffffffffffffffffffffffffff1661307c565b6126b2575f6126d7565b6018546126d79083906bffffffffffffffffffffffff16670de0b6b3a76400006146ef565b90505f5f871180156126f857506019546bffffffffffffffffffffffff1615155b80156127315750601954612731906c01000000000000000000000000900473ffffffffffffffffffffffffffffffffffffffff1661307c565b61273b575f612763565b601954612763906bffffffffffffffffffffffff16670de0b6b3a76400006126018a88615f00565b90505f816127718487615e5b565b61277b9190615e5b565b90505f6127c27f0000000000000000000000000000000000000000000000000000000000000000600b546127af9190615d5e565b6127ba846001615d5e565b8691906146ef565b90505f6128017f0000000000000000000000000000000000000000000000000000000000000000600b546127f69190615d5e565b6127ba856001615d5e565b969d919c50959a5098505050505050505050565b61281d61432e565b60065473ffffffffffffffffffffffffffffffffffffffff1615806128cf57506006546040517fe4bb26f200000000000000000000000000000000000000000000000000000000815273ffffffffffffffffffffffffffffffffffffffff83811660048301529091169063e4bb26f290602401602060405180830381865afa1580156128ab573d5f5f3e3d5ffd5b505050506040513d601f19601f820116820180604052508101906128cf9190615e40565b612905576040517f133c5cc800000000000000000000000000000000000000000000000000000000815260040160405180910390fd5b73ffffffffffffffffffffffffffffffffffffffff81165f9081526010602052604090205460ff166129d7576011805460018082019092557f31ecc21a745e3968a04e9570e4425bc18fa8019c68028196b546d1669c200c680180547fffffffffffffffffffffffff00000000000000000000000000000000000000001673ffffffffffffffffffffffffffffffffffffffff84169081179091555f90815260106020526040902080547fffffffffffffffffffffffffffffffffffffffffffffffffffffffffffffff001690911790555b60405173ffffffffffffffffffffffffffffffffffffffff8216907f8f125a24838c4c23e893904b255b5c672d43d4cb8af7e3d15841eaeabc1e68aa905f90a250565b612a2261432e565b73ffffffffffffffffffffffffffffffffffffffff8116151580612a5457506018546bffffffffffffffffffffffff16155b612a8a576040517fda9e0fa000000000000000000000000000000000000000000000000000000000815260040160405180910390fd5b612a926131da565b601880546bffffffffffffffffffffffff166c0100000000000000000000000073ffffffffffffffffffffffffffffffffffffffff8416908102919091179091556040517fe59cc3d47f72dbd81f7d5fc40b9b05d9c4374a54addea771648ae24943c26e76905f90a250565b5f612b076131da565b5f612b118461409b565b9050612b1e848285614a71565b9392505050565b612b2d61432e565b6706f05b59d3b20000811115612b6f576040517fcd4e616700000000000000000000000000000000000000000000000000000000815260040160405180910390fd5b6018546c01000000000000000000000000900473ffffffffffffffffffffffffffffffffffffffff16151580612ba3575080155b612bd9576040517fda9e0fa000000000000000000000000000000000000000000000000000000000815260040160405180910390fd5b612be16131da565b601880547fffffffffffffffffffffffffffffffffffffffff000000000000000000000000166bffffffffffffffffffffffff83161790556040518181527f8b940a95968ad5b511f89b01075446a4fe9f614f2dc5fbb9e9a6b227d6d4fd70906020015b60405180910390a150565b335f9081526008602052604090205460ff16612c98576040517f82b4290000000000000000000000000000000000000000000000000000000000815260040160405180910390fd5b601480547fffffffffffffffffffffffff00000000000000000000000000000000000000001673ffffffffffffffffffffffffffffffffffffffff84161790556015612ce48282615f5b565b5080604051612cf39190616072565b6040519081900381209073ffffffffffffffffffffffffffffffffffffffff84169033907f9deb43d71422af41853c3921fb364b7647f9a9b136e46d66d45c1bf707af706c905f90a45050565b612d4861432e565b600580547fffffffffffffffffffffffff00000000000000000000000000000000000000001673ffffffffffffffffffffffffffffffffffffffff83169081179091556040517f34c1885f043c6c77736fbc402c63a383472347b85868dab73d42b69596a98e94905f90a250565b8151602083012060015473ffffffffffffffffffffffffffffffffffffffff16331480612df15750335f9081526007602052604090205460ff165b612e27576040517f82b4290000000000000000000000000000000000000000000000000000000000815260040160405180910390fd5b5f818152601260205260409020600101546fffffffffffffffffffffffffffffffff16821115612e83576040517fbdeafe0700000000000000000000000000000000000000000000000000000000815260040160405180910390fd5b5f818152601260205260409081902060010180547fffffffffffffffffffffffffffffffff00000000000000000000000000000000166fffffffffffffffffffffffffffffffff851617905551819033907fbc2ffe81312f53db4f327eca188ebdc13df66a8ce25f7dec6f5b4495fe27b37190611e4c9087908790615e6e565b6003545f9073ffffffffffffffffffffffffffffffffffffffff1615806110cc57506003546040517f8e511e4d00000000000000000000000000000000000000000000000000000000815273ffffffffffffffffffffffffffffffffffffffff848116600483015290911690638e511e4d906024016113bc565b5f5473ffffffffffffffffffffffffffffffffffffffff163314612fcd576040517f82b4290000000000000000000000000000000000000000000000000000000000815260040160405180910390fd5b73ffffffffffffffffffffffffffffffffffffffff82165f8181526007602090815260409182902080547fffffffffffffffffffffffffffffffffffffffffffffffffffffffffffffff001685151590811790915591519182527f8da69db4003c01b5c7be66a7bb5953423222e5118b6af0aadf54e75feef5bc509101611a84565b5f6130586131da565b5f6130628461370b565b9050612b1e818585614a71565b600a805461104390615ce0565b6002545f9073ffffffffffffffffffffffffffffffffffffffff1615806110cc57506002546040517f98c9b49c00000000000000000000000000000000000000000000000000000000815273ffffffffffffffffffffffffffffffffffffffff8481166004830152909116906398c9b49c906024016113bc565b6130fe61432e565b73ffffffffffffffffffffffffffffffffffffffff811615158061313057506019546bffffffffffffffffffffffff16155b613166576040517fda9e0fa000000000000000000000000000000000000000000000000000000000815260040160405180910390fd5b61316e6131da565b601980546bffffffffffffffffffffffff166c0100000000000000000000000073ffffffffffffffffffffffffffffffffffffffff8416908102919091179091556040517f7f1dd9b78dfeeb8c452333915b2f077f4920fefc4ec7f146767e9ba40303ef1f905f90a250565b5f5f5f6131e56123d8565b600f54604080516fffffffffffffffffffffffffffffffff90921682526020820185905281018390526060810182905292955090935091507f4dec04e750ca11537cabcd8a9eab06494de08da3735bc8871cd41250e190bc049060800160405180910390a161325383614cc3565b600f80547fffffffffffffffffffffffffffffffff00000000000000000000000000000000166fffffffffffffffffffffffffffffffff929092169190911790555f805c90036132a35782805f5d505b81156132dc576018546132dc906c01000000000000000000000000900473ffffffffffffffffffffffffffffffffffffffff1683614d12565b801561331557601954613315906c01000000000000000000000000900473ffffffffffffffffffffffffffffffffffffffff1682614d12565b5050600f80547fffffffffffffffff0000000000000000ffffffffffffffffffffffffffffffff167001000000000000000000000000000000004267ffffffffffffffff160217905550565b5f73ffffffffffffffffffffffffffffffffffffffff83166133af576040517fd92e233d00000000000000000000000000000000000000000000000000000000815260040160405180910390fd5b6133b833612f03565b6133ee576040517f876736d100000000000000000000000000000000000000000000000000000000815260040160405180910390fd5b6133f78361307c565b61342d576040517f861a96d600000000000000000000000000000000000000000000000000000000815260040160405180910390fd5b335f908152600c60205260408120805484929061344b908490615e5b565b909155505073ffffffffffffffffffffffffffffffffffffffff83165f908152600c602052604081208054849290613484908490615d5e565b909155505060405182815273ffffffffffffffffffffffffffffffffffffffff84169033907fddf252ad1be2c89b69c2b068fc378daa952ba7f163c4a11628f55a4df523b3ef90602001611139565b335f9081526008602052604090205460ff1661351b576040517f82b4290000000000000000000000000000000000000000000000000000000000815260040160405180910390fd5b6135316301e13380671bc16d674ec80000616088565b81111561356a576040517f0d54247f00000000000000000000000000000000000000000000000000000000815260040160405180910390fd5b6135726131da565b600f805477ffffffffffffffffffffffffffffffffffffffffffffffff16780100000000000000000000000000000000000000000000000067ffffffffffffffff8416021790556040518181527f75fef0e2a5e934789b0723129a0d1bbfd4a50f39c5af9919626e4f3603aef5ff90602001612c45565b5f5b818110156123d3575f803085858581811061360857613608615e8f565b905060200281019061361a91906160c0565b604051613628929190615d71565b5f60405180830381855af49150503d805f8114613660576040519150601f19603f3d011682016040523d82523d5f602084013e613665565b606091505b50915091508161367757805181602001fd5b50506001016135eb565b61368961432e565b73ffffffffffffffffffffffffffffffffffffffff82165f8181526008602090815260409182902080547fffffffffffffffffffffffffffffffffffffffffffffffffffffffffffffff001685151590811790915591519182527f74dc60cbc81a9472d04ad1d20e151d369c41104d655ed3f2f3091166a502cd8d9101611a84565b5f5f5f5f6137176123d8565b9250925092505f8183600b5461372d9190615d5e565b6137379190615d5e565b90506111b8613747856001615d5e565b6111b07f000000000000000000000000000000000000000000000000000000000000000084615d5e565b5f61377a6131da565b5f6137848561114a565b905061379285828686614dfa565b949350505050565b5f5473ffffffffffffffffffffffffffffffffffffffff1633146137ea576040517f82b4290000000000000000000000000000000000000000000000000000000000815260040160405180910390fd5b600a6137f68282615f5b565b507fadf3ae8bd543b3007d464f15cb8ea1db3f44e84d41d203164f40b95e27558ac681604051612c45919061571a565b5f61382f6131da565b5f61383985611c54565b905061379281868686614dfa565b61384f61432e565b600380547fffffffffffffffffffffffff00000000000000000000000000000000000000001673ffffffffffffffffffffffffffffffffffffffff83169081179091556040517f43a3573cf238e4b97d4ffec8e9b8a69cd276b47cf68230dbdbec3a7a98b28723905f90a250565b5f5473ffffffffffffffffffffffffffffffffffffffff16331461390d576040517f82b4290000000000000000000000000000000000000000000000000000000000815260040160405180910390fd5b60096139198282615f5b565b507f4df9dcd34ae35f40f2c756fd8ac83210ed0b76d065543ee73d868aec7c7fcf0281604051612c45919061571a565b5f6110cc8261409b565b4284101561398d576040517f05787bdf00000000000000000000000000000000000000000000000000000000815260040160405180910390fd5b73ffffffffffffffffffffffffffffffffffffffff87165f908152600e60205260408120805490826139be83616128565b90915550604080517f6e71edae12b1b97f4d1f60370fef10105fa2faae0126114a169c64845d6126c960208083019190915273ffffffffffffffffffffffffffffffffffffffff8c8116838501528b166060830152608082018a905260a0820184905260c08083018a90528351808403909101815260e0830184528051908201207f47e79534a245952e8b16893a336b85a3d9ea9fa8c573f3d803afb92a79469218610100840152466101208401523061014080850191909152845180850390910181526101609093019093528151910120919250905f906040517f19010000000000000000000000000000000000000000000000000000000000006020820152602281019190915260428101839052606201604080517fffffffffffffffffffffffffffffffffffffffffffffffffffffffffffffffe081840301815282825280516020918201205f80855291840180845281905260ff8a169284019290925260608301889052608083018790529092509060019060a0016020604051602081039080840390855afa158015613b57573d5f5f3e3d5ffd5b50506040517fffffffffffffffffffffffffffffffffffffffffffffffffffffffffffffffe0015191505073ffffffffffffffffffffffffffffffffffffffff811615801590613bd257508a73ffffffffffffffffffffffffffffffffffffffff168173ffffffffffffffffffffffffffffffffffffffff16145b613c08576040517f815e1d6400000000000000000000000000000000000000000000000000000000815260040160405180910390fd5b73ffffffffffffffffffffffffffffffffffffffff8b81165f818152600d60209081526040808320948f16808452948252918290208d905590518c81527f8c5be1e5ebec7d5bd14f71427d1e84f3dd0314c0f7b2291e5b200ac8c7c3b925910160405180910390a3604080518a81526020810186905290810189905273ffffffffffffffffffffffffffffffffffffffff808c1691908d16907f40336af4b170f3dad5ddfb59897a8289adc3bed01417ca7e2bd77f85bc5264139060600160405180910390a35050505050505050505050565b5f5f613ce8868686614493565b73ffffffffffffffffffffffffffffffffffffffff87165f9081526013602052604081205491925090613d25908690670de0b6b3a7640000614468565b90505f613d33823087613771565b90508473ffffffffffffffffffffffffffffffffffffffff163373ffffffffffffffffffffffffffffffffffffffff167fb98216be0267fa550428a584fe6ac1ef0f39788e0198372100e813444afecd298a898787604051613d989493929190616199565b60405180910390a3979650505050505050565b5f5473ffffffffffffffffffffffffffffffffffffffff163314613dfb576040517f82b4290000000000000000000000000000000000000000000000000000000000815260040160405180910390fd5b600180547fffffffffffffffffffffffff00000000000000000000000000000000000000001673ffffffffffffffffffffffffffffffffffffffff83169081179091556040517fbd0a63c12948fbc9194a5839019f99c9d71db924e5c70018265bc778b8f1a506905f90a250565b60015473ffffffffffffffffffffffffffffffffffffffff163314613eba576040517f82b4290000000000000000000000000000000000000000000000000000000000815260040160405180910390fd5b60178282604051613ecc929190615d71565b9081526020016040518091039020545f14613f13576040517fd91ff20800000000000000000000000000000000000000000000000000000000815260040160405180910390fd5b5f613f1e8284615d80565b90505f7fffffffff0000000000000000000000000000000000000000000000000000000082167f5c1a1a4f0000000000000000000000000000000000000000000000000000000014613fa0577fffffffff0000000000000000000000000000000000000000000000000000000082165f90815260166020526040902054613fed565b60165f613fb16008600487896161de565b613fba91615d80565b7fffffffff0000000000000000000000000000000000000000000000000000000016815260208101919091526040015f20545b9050613ff98142615d5e565b6017858560405161400b929190615d71565b908152602001604051809103902081905550817bffffffffffffffffffffffffffffffffffffffffffffffffffffffff19167f8b18afeb361b83b025999ed5b42f1d90c68aaa5a0fd49c015f04c3b8b81e80eb858560178888604051614072929190615d71565b9081526040519081900360200181205461408d939291616205565b60405180910390a250505050565b5f5f5f5f6140a76123d8565b9250925092505f8183600b546140bd9190615d5e565b6140c79190615d5e565b90506111b86140f67f000000000000000000000000000000000000000000000000000000000000000083615d5e565b611cba866001615d5e565b61410961432e565b81516020808401919091205f81815260129092526040909120600101546fffffffffffffffffffffffffffffffff16821015614171576040517fa844d93700000000000000000000000000000000000000000000000000000000815260040160405180910390fd5b61417a82614cc3565b5f828152601260205260409081902060010180547fffffffffffffffffffffffffffffffff00000000000000000000000000000000166fffffffffffffffffffffffffffffffff93909316929092179091555181907f7368d59ed82f6a538f6deef9baa54623fe3699ce07b19031f762f740c8c34b03906119539086908690615e6e565b61420661432e565b61421b6301e1338066b1a2bc2ec50000616088565b811115614254576040517fcd4e616700000000000000000000000000000000000000000000000000000000815260040160405180910390fd5b6019546c01000000000000000000000000900473ffffffffffffffffffffffffffffffffffffffff16151580614288575080155b6142be576040517fda9e0fa000000000000000000000000000000000000000000000000000000000815260040160405180910390fd5b6142c66131da565b601980547fffffffffffffffffffffffffffffffffffffffff000000000000000000000000166bffffffffffffffffffffffff83161790556040518181527fd87632b1c6ebfa21acbca0e3279b3cf6385a377cb8fda51e5b866baa6e6012ab90602001612c45565b60175f36604051614340929190615d71565b9081526020016040518091039020545f03614387576040517f1ea942a800000000000000000000000000000000000000000000000000000000815260040160405180910390fd5b60175f36604051614399929190615d71565b9081526020016040518091039020544210156143e1576040517f621e25c300000000000000000000000000000000000000000000000000000000815260040160405180910390fd5b5f60175f366040516143f4929190615d71565b9081526040519081900360200190205561440e365f615d80565b7bffffffffffffffffffffffffffffffffffffffffffffffffffffffff19167f29aa42fc192ff77ef42105abba283197ac841341e196e417a7fc2784cdc4e5fb5f3660405161445e929190615e2d565b60405180910390a2565b5f81614475600182615e5b565b61447f8587615f00565b6144899190615d5e565b6137929190616088565b73ffffffffffffffffffffffffffffffffffffffff83165f9081526010602052604090205460609060ff166144f4576040517ff521d15900000000000000000000000000000000000000000000000000000000815260040160405180910390fd5b5f5f8573ffffffffffffffffffffffffffffffffffffffff16634e45f1ff86865f357fffffffff0000000000000000000000000000000000000000000000000000000016336040518563ffffffff1660e01b81526004016145589493929190616228565b5f604051808303815f875af1158015614573573d5f5f3e3d5ffd5b505050506040513d5f823e601f3d9081017fffffffffffffffffffffffffffffffffffffffffffffffffffffffffffffffe01682016040526145b8919081019061628e565b915091505f5b8251811015614650575f60125f8584815181106145dd576145dd615e8f565b602002602001015181526020019081526020015f2090505f815f015411614630576040517fba0d87b500000000000000000000000000000000000000000000000000000000815260040160405180910390fd5b805461464690614641908590616340565b6151b5565b90556001016145be565b5061467d7f00000000000000000000000000000000000000000000000000000000000000008730876151f0565b8573ffffffffffffffffffffffffffffffffffffffff163373ffffffffffffffffffffffffffffffffffffffff167fd602b36fb24934aef1bc2a658de029b486fa4c664a6e45de1f48e3fd1be25dd98685856040516146de93929190616367565b60405180910390a350949350505050565b5f816144898486615f00565b73ffffffffffffffffffffffffffffffffffffffff83165f9081526010602052604090205460ff16614759576040517ff521d15900000000000000000000000000000000000000000000000000000000815260040160405180910390fd5b6147616131da565b61478c7f000000000000000000000000000000000000000000000000000000000000000084836153cf565b5f5f8473ffffffffffffffffffffffffffffffffffffffff16631eadd77885855f357fffffffff0000000000000000000000000000000000000000000000000000000016336040518563ffffffff1660e01b81526004016147f09493929190616228565b5f604051808303815f875af115801561480b573d5f5f3e3d5ffd5b505050506040513d5f823e601f3d9081017fffffffffffffffffffffffffffffffffffffffffffffffffffffffffffffffe0168201604052614850919081019061628e565b915091505f5b8251811015614a00575f60125f85848151811061487557614875615e8f565b602002602001015181526020019081526020015f20905061489e83825f01546146419190616340565b815560018101546fffffffffffffffffffffffffffffffff166148ed576040517fbb1a23b900000000000000000000000000000000000000000000000000000000815260040160405180910390fd5b600181015481546fffffffffffffffffffffffffffffffff9091161015614940576040517f4616e4af00000000000000000000000000000000000000000000000000000000815260040160405180910390fd5b60018101546fffffffffffffffffffffffffffffffff70010000000000000000000000000000000090910416670de0b6b3a764000014806149c1575060018101546149bc905f5c9070010000000000000000000000000000000090046fffffffffffffffffffffffffffffffff16670de0b6b3a76400006146ef565b815411155b6149f7576040517f44e1772c00000000000000000000000000000000000000000000000000000000815260040160405180910390fd5b50600101614856565b508473ffffffffffffffffffffffffffffffffffffffff163373ffffffffffffffffffffffffffffffffffffffff167f2bc7948a96a066968d2a58aaf46eb0b305aa166b1d1951d2f7ef0919746b8c2a858585604051614a6293929190616367565b60405180910390a35050505050565b614a7a8161307c565b614ab0576040517f861a96d600000000000000000000000000000000000000000000000000000000815260040160405180910390fd5b614ab9336114b7565b614aef576040517f515b7cd900000000000000000000000000000000000000000000000000000000815260040160405180910390fd5b614b1b7f00000000000000000000000000000000000000000000000000000000000000003330866151f0565b614b258183614d12565b614b2e83614cc3565b600f80545f90614b519084906fffffffffffffffffffffffffffffffff1661638f565b92506101000a8154816fffffffffffffffffffffffffffffffff02191690836fffffffffffffffffffffffffffffffff1602179055508073ffffffffffffffffffffffffffffffffffffffff163373ffffffffffffffffffffffffffffffffffffffff167fdcbc1c05240f31ff3ad067ef1ee35ce4997762752e3a095284754544f4c709d78585604051614bef929190918252602082015260400190565b60405180910390a360145473ffffffffffffffffffffffffffffffffffffffff16156123d357601454601580546123d39273ffffffffffffffffffffffffffffffffffffffff169190614c4190615ce0565b80601f0160208091040260200160405190810160405280929190818152602001828054614c6d90615ce0565b8015614cb85780601f10614c8f57610100808354040283529160200191614cb8565b820191905f5260205f20905b815481529060010190602001808311614c9b57829003601f168201915b5050505050856146fb565b5f6fffffffffffffffffffffffffffffffff821115614d0e576040517fe58d471800000000000000000000000000000000000000000000000000000000815260040160405180910390fd5b5090565b73ffffffffffffffffffffffffffffffffffffffff8216614d5f576040517fd92e233d00000000000000000000000000000000000000000000000000000000815260040160405180910390fd5b73ffffffffffffffffffffffffffffffffffffffff82165f908152600c602052604081208054839290614d93908490615d5e565b9250508190555080600b5f828254614dab9190615d5e565b909155505060405181815273ffffffffffffffffffffffffffffffffffffffff8316905f907fddf252ad1be2c89b69c2b068fc378daa952ba7f163c4a11628f55a4df523b3ef90602001611319565b614e0381612f03565b614e39576040517f876736d100000000000000000000000000000000000000000000000000000000815260040160405180910390fd5b614e4282611325565b614e78576040517f8181c5ea00000000000000000000000000000000000000000000000000000000815260040160405180910390fd5b6040517f70a082310000000000000000000000000000000000000000000000000000000081523060048201525f907f000000000000000000000000000000000000000000000000000000000000000073ffffffffffffffffffffffffffffffffffffffff16906370a0823190602401602060405180830381865afa158015614f02573d5f5f3e3d5ffd5b505050506040513d601f19601f82011682018060405250810190614f269190615ee9565b90508085118015614f4e575060145473ffffffffffffffffffffffffffffffffffffffff1615155b1561500e576014546015805461500c9273ffffffffffffffffffffffffffffffffffffffff169190614f7f90615ce0565b80601f0160208091040260200160405190810160405280929190818152602001828054614fab90615ce0565b8015614ff65780601f10614fcd57610100808354040283529160200191614ff6565b820191905f5260205f20905b815481529060010190602001808311614fd957829003601f168201915b505050505083886150079190615e5b565b614493565b505b3373ffffffffffffffffffffffffffffffffffffffff8316146150bf5773ffffffffffffffffffffffffffffffffffffffff82165f908152600d602090815260408083203384529091529020547fffffffffffffffffffffffffffffffffffffffffffffffffffffffffffffffff81146150bd5761508c8582615e5b565b73ffffffffffffffffffffffffffffffffffffffff84165f908152600d602090815260408083203384529091529020555b505b6150c982856155a5565b6150d285614cc3565b600f80545f906150f59084906fffffffffffffffffffffffffffffffff166163b7565b92506101000a8154816fffffffffffffffffffffffffffffffff02191690836fffffffffffffffffffffffffffffffff1602179055506151567f000000000000000000000000000000000000000000000000000000000000000084876153cf565b604080518681526020810186905273ffffffffffffffffffffffffffffffffffffffff808516929086169133917ffbde797d201c681b91056529119e0b02407c7bb96a4a2c75c01fc9667232c8db910160405180910390a45050505050565b5f5f821215614d0e576040517fe58d471800000000000000000000000000000000000000000000000000000000815260040160405180910390fd5b5f8473ffffffffffffffffffffffffffffffffffffffff163b11615240576040517ff046a71400000000000000000000000000000000000000000000000000000000815260040160405180910390fd5b60405173ffffffffffffffffffffffffffffffffffffffff84811660248301528381166044830152606482018390525f918291871690608401604080517fffffffffffffffffffffffffffffffffffffffffffffffffffffffffffffffe08184030181529181526020820180517bffffffffffffffffffffffffffffffffffffffffffffffffffffffff167f23b872dd00000000000000000000000000000000000000000000000000000000179052516152fa9190616072565b5f604051808303815f865af19150503d805f8114615333576040519150601f19603f3d011682016040523d82523d5f602084013e615338565b606091505b509150915081615374576040517fe65b7a7700000000000000000000000000000000000000000000000000000000815260040160405180910390fd5b805115806153915750808060200190518101906153919190615e40565b6153c7576040517f1eded19c00000000000000000000000000000000000000000000000000000000815260040160405180910390fd5b505050505050565b5f8373ffffffffffffffffffffffffffffffffffffffff163b1161541f576040517ff046a71400000000000000000000000000000000000000000000000000000000815260040160405180910390fd5b60405173ffffffffffffffffffffffffffffffffffffffff8381166024830152604482018390525f918291861690606401604080517fffffffffffffffffffffffffffffffffffffffffffffffffffffffffffffffe08184030181529181526020820180517bffffffffffffffffffffffffffffffffffffffffffffffffffffffff167fa9059cbb00000000000000000000000000000000000000000000000000000000179052516154d19190616072565b5f604051808303815f865af19150503d805f811461550a576040519150601f19603f3d011682016040523d82523d5f602084013e61550f565b606091505b50915091508161554b576040517face2a47e00000000000000000000000000000000000000000000000000000000815260040160405180910390fd5b805115806155685750808060200190518101906155689190615e40565b61559e576040517f2f0470fc00000000000000000000000000000000000000000000000000000000815260040160405180910390fd5b5050505050565b73ffffffffffffffffffffffffffffffffffffffff82166155f2576040517fd92e233d00000000000000000000000000000000000000000000000000000000815260040160405180910390fd5b73ffffffffffffffffffffffffffffffffffffffff82165f908152600c602052604081208054839290615626908490615e5b565b9250508190555080600b5f82825461563e9190615e5b565b90915550506040518181525f9073ffffffffffffffffffffffffffffffffffffffff8416907fddf252ad1be2c89b69c2b068fc378daa952ba7f163c4a11628f55a4df523b3ef90602001611319565b803573ffffffffffffffffffffffffffffffffffffffff811681146156b0575f5ffd5b919050565b5f602082840312156156c5575f5ffd5b612b1e8261568d565b5f81518084528060208401602086015e5f6020828601015260207fffffffffffffffffffffffffffffffffffffffffffffffffffffffffffffffe0601f83011685010191505092915050565b602081525f612b1e60208301846156ce565b5f6020828403121561573c575f5ffd5b5035919050565b5f5f60408385031215615754575f5ffd5b61575d8361568d565b946020939093013593505050565b5f5f6020838503121561577c575f5ffd5b823567ffffffffffffffff811115615792575f5ffd5b8301601f810185136157a2575f5ffd5b803567ffffffffffffffff8111156157b8575f5ffd5b8560208284010111156157c9575f5ffd5b6020919091019590945092505050565b5f5f5f606084860312156157eb575f5ffd5b6157f48461568d565b92506158026020850161568d565b929592945050506040919091013590565b7f4e487b71000000000000000000000000000000000000000000000000000000005f52604160045260245ffd5b604051601f82017fffffffffffffffffffffffffffffffffffffffffffffffffffffffffffffffe016810167ffffffffffffffff8111828210171561588757615887615813565b604052919050565b5f5f67ffffffffffffffff8411156158a9576158a9615813565b50601f83017fffffffffffffffffffffffffffffffffffffffffffffffffffffffffffffffe0166020016158dc81615840565b9150508281528383830111156158f0575f5ffd5b828260208301375f602084830101529392505050565b5f82601f830112615915575f5ffd5b612b1e8383356020850161588f565b5f5f60408385031215615935575f5ffd5b823567ffffffffffffffff81111561594b575f5ffd5b61595785828601615906565b95602094909401359450505050565b80357fffffffff00000000000000000000000000000000000000000000000000000000811681146156b0575f5ffd5b5f5f604083850312156159a6575f5ffd5b61575d83615966565b5f5f5f606084860312156159c1575f5ffd5b6159ca8461568d565b9250602084013567ffffffffffffffff8111156159e5575f5ffd5b6159f186828701615906565b93969395505050506040919091013590565b5f5f60408385031215615a14575f5ffd5b82359150615a246020840161568d565b90509250929050565b5f5f60408385031215615a3e575f5ffd5b615a478361568d565b9150602083013567ffffffffffffffff811115615a62575f5ffd5b615a6e85828601615906565b9150509250929050565b5f60208284031215615a88575f5ffd5b813567ffffffffffffffff811115615a9e575f5ffd5b61379284828501615906565b8015158114615ab7575f5ffd5b50565b5f5f60408385031215615acb575f5ffd5b615ad48361568d565b91506020830135615ae481615aaa565b809150509250929050565b5f5f60208385031215615b00575f5ffd5b823567ffffffffffffffff811115615b16575f5ffd5b8301601f81018513615b26575f5ffd5b803567ffffffffffffffff811115615b3c575f5ffd5b8560208260051b84010111156157c9575f5ffd5b5f5f5f60608486031215615b62575f5ffd5b83359250615b726020850161568d565b9150615b806040850161568d565b90509250925092565b5f60208284031215615b99575f5ffd5b813567ffffffffffffffff811115615baf575f5ffd5b8201601f81018413615bbf575f5ffd5b6137928482356020840161588f565b5f5f5f5f5f5f5f60e0888a031215615be4575f5ffd5b615bed8861568d565b9650615bfb6020890161568d565b95506040880135945060608801359350608088013560ff81168114615c1e575f5ffd5b9699959850939692959460a0840135945060c09093013592915050565b5f5f60408385031215615c4c575f5ffd5b615c558361568d565b9150615a246020840161568d565b5f5f5f5f60808587031215615c76575f5ffd5b615c7f8561568d565b9350602085013567ffffffffffffffff811115615c9a575f5ffd5b615ca687828801615906565b93505060408501359150615cbc6060860161568d565b905092959194509250565b5f60208284031215615cd7575f5ffd5b612b1e82615966565b600181811c90821680615cf457607f821691505b602082108103615d2b577f4e487b71000000000000000000000000000000000000000000000000000000005f52602260045260245ffd5b50919050565b7f4e487b71000000000000000000000000000000000000000000000000000000005f52601160045260245ffd5b808201808211156110cc576110cc615d31565b818382375f9101908152919050565b80357fffffffff000000000000000000000000000000000000000000000000000000008116906004841015615ddf577fffffffff00000000000000000000000000000000000000000000000000000000808560040360031b1b82161691505b5092915050565b81835281816020850137505f602082840101525f60207fffffffffffffffffffffffffffffffffffffffffffffffffffffffffffffffe0601f840116840101905092915050565b602081525f613792602083018486615de6565b5f60208284031215615e50575f5ffd5b8151612b1e81615aaa565b818103818111156110cc576110cc615d31565b604081525f615e8060408301856156ce565b90508260208301529392505050565b7f4e487b71000000000000000000000000000000000000000000000000000000005f52603260045260245ffd5b7f4e487b71000000000000000000000000000000000000000000000000000000005f52603160045260245ffd5b5f60208284031215615ef9575f5ffd5b5051919050565b80820281158282048414176110cc576110cc615d31565b601f8211156123d357805f5260205f20601f840160051c81016020851015615f3c5750805b601f840160051c820191505b8181101561559e575f8155600101615f48565b815167ffffffffffffffff811115615f7557615f75615813565b615f8981615f838454615ce0565b84615f17565b6020601f821160018114615fda575f8315615fa45750848201515b7fffffffffffffffffffffffffffffffffffffffffffffffffffffffffffffffff600385901b1c1916600184901b17845561559e565b5f848152602081207fffffffffffffffffffffffffffffffffffffffffffffffffffffffffffffffe08516915b828110156160275787850151825560209485019460019092019101616007565b508482101561606357868401517fffffffffffffffffffffffffffffffffffffffffffffffffffffffffffffffff600387901b60f8161c191681555b50505050600190811b01905550565b5f82518060208501845e5f920191825250919050565b5f826160bb577f4e487b71000000000000000000000000000000000000000000000000000000005f52601260045260245ffd5b500490565b5f5f83357fffffffffffffffffffffffffffffffffffffffffffffffffffffffffffffffe18436030181126160f3575f5ffd5b83018035915067ffffffffffffffff82111561610d575f5ffd5b602001915036819003821315616121575f5ffd5b9250929050565b5f7fffffffffffffffffffffffffffffffffffffffffffffffffffffffffffffffff820361615857616158615d31565b5060010190565b5f8151808452602084019350602083015f5b8281101561618f578151865260209586019590910190600101616171565b5093949350505050565b73ffffffffffffffffffffffffffffffffffffffff85168152836020820152608060408201525f6161cd608083018561615f565b905082606083015295945050505050565b5f5f858511156161ec575f5ffd5b838611156161f8575f5ffd5b5050820193919092039150565b604081525f616218604083018587615de6565b9050826020830152949350505050565b608081525f61623a60808301876156ce565b6020830195909552507fffffffff0000000000000000000000000000000000000000000000000000000092909216604083015273ffffffffffffffffffffffffffffffffffffffff16606090910152919050565b5f5f6040838503121561629f575f5ffd5b825167ffffffffffffffff8111156162b5575f5ffd5b8301601f810185136162c5575f5ffd5b805167ffffffffffffffff8111156162df576162df615813565b8060051b6162ef60208201615840565b9182526020818401810192908101908884111561630a575f5ffd5b6020850194505b8385101561632c578451825260209485019490910190616311565b602097909701519698969750505050505050565b8082018281125f83128015821682158216171561635f5761635f615d31565b505092915050565b838152606060208201525f61637f606083018561615f565b9050826040830152949350505050565b6fffffffffffffffffffffffffffffffff81811683821601908111156110cc576110cc615d31565b6fffffffffffffffffffffffffffffffff82811682821603908111156110cc576110cc615d3156fea26469706673582212208cb7f2e5d1ca6dfe1dc3141ca1142852e9a6c05d1a62ce5d98004344fece499364736f6c634300081e0033","linkReferences":{}},"methodIdentifiers":{"DOMAIN_SEPARATOR()":"3644e515","_totalAssets()":"ce04bebb","absoluteCap(bytes32)":"bc0dd374","accrueInterest()":"a6afed95","accrueInterestView()":"60a38ac1","adapterRegistry()":"50b5c16a","adapters(uint256)":"4ef501ac","adaptersLength()":"5aa22bc8","addAdapter(address)":"60d54d41","allocate(address,bytes,uint256)":"5c9ce04d","allocation(bytes32)":"c69507dd","allowance(address,address)":"dd62ed3e","approve(address,uint256)":"095ea7b3","asset()":"38d52e0f","balanceOf(address)":"70a08231","canReceiveAssets(address)":"0d326b18","canReceiveShares(address)":"98c9b49c","canSendAssets(address)":"20fe8d58","canSendShares(address)":"8e511e4d","convertToAssets(uint256)":"07a2d13a","convertToShares(uint256)":"c6e6f592","curator()":"e66f53b7","deallocate(address,bytes,uint256)":"4b219d16","decimals()":"313ce567","decreaseAbsoluteCap(bytes,uint256)":"8c54519b","decreaseRelativeCap(bytes,uint256)":"57975270","decreaseTimelock(bytes4,uint256)":"5c1a1a4f","deposit(uint256,address)":"6e553f65","executableAt(bytes)":"8639fb07","firstTotalAssets()":"f73f8f31","forceDeallocate(address,bytes,uint256,address)":"e4d38cd8","forceDeallocatePenalty(address)":"99e99183","increaseAbsoluteCap(bytes,uint256)":"f6f98fd5","increaseRelativeCap(bytes,uint256)":"2438525b","increaseTimelock(bytes4,uint256)":"47966291","isAdapter(address)":"68c18beb","isAllocator(address)":"4dedf20e","isSentinel(address)":"ba03a75f","lastUpdate()":"c0463711","liquidityAdapter()":"ad468d11","liquidityData()":"2e029228","managementFee()":"a6f7f5d6","managementFeeRecipient()":"6d9a3010","maxDeposit(address)":"402d267d","maxMint(address)":"c63d75b6","maxRate()":"ece1d6e5","maxRedeem(address)":"d905777e","maxWithdraw(address)":"ce96cb77","mint(uint256,address)":"94bf804d","multicall(bytes[])":"ac9650d8","name()":"06fdde03","nonces(address)":"7ecebe00","owner()":"8da5cb5b","performanceFee()":"87788782","performanceFeeRecipient()":"ed27f7c9","permit(address,address,uint256,uint256,uint8,bytes32,bytes32)":"d505accf","previewDeposit(uint256)":"ef8b30f7","previewMint(uint256)":"b3d7f6b9","previewRedeem(uint256)":"4cdad506","previewWithdraw(uint256)":"0a28a477","receiveAssetsGate()":"54cde13e","receiveSharesGate()":"7e729ac4","redeem(uint256,address,address)":"ba087652","relativeCap(bytes32)":"a68bafa3","removeAdapter(address)":"585cd34b","revoke(bytes)":"0b467b9b","sendAssetsGate()":"8eede801","sendSharesGate()":"93ab2ab7","setAdapterRegistry(address)":"5b34b823","setCurator(address)":"e90956cf","setForceDeallocatePenalty(address,uint256)":"3e9d2ac7","setIsAllocator(address,bool)":"b192a84a","setIsSentinel(address,bool)":"920ed706","setLiquidityAdapterAndData(address,bytes)":"7fb6caad","setManagementFee(uint256)":"fe56e232","setManagementFeeRecipient(address)":"9faae464","setMaxRate(uint256)":"aa4abe7f","setName(string)":"c47f0027","setOwner(address)":"13af4035","setPerformanceFee(uint256)":"70897b23","setPerformanceFeeRecipient(address)":"6a5f1aa2","setReceiveAssetsGate(address)":"04dbf0ce","setReceiveSharesGate(address)":"2cb19f98","setSendAssetsGate(address)":"871c979c","setSendSharesGate(address)":"c21ad028","setSymbol(string)":"b84c8246","submit(bytes)":"ef7fa71b","symbol()":"95d89b41","timelock(bytes4)":"e78ab14e","totalAssets()":"01e1d114","totalSupply()":"18160ddd","transfer(address,uint256)":"a9059cbb","transferFrom(address,address,uint256)":"23b872dd","virtualShares()":"c719946c","withdraw(uint256,address,address)":"b460af94"},"id":161}