{"abi":[{"type":"constructor","inputs":[{"name":"oracle_","type":"address","internalType":"address"}],"stateMutability":"nonpayable"},{"type":"function","name":"getPrice","inputs":[],"outputs":[{"name":"","type":"uint256","internalType":"uint256"}],"stateMutability":"view"},{"type":"function","name":"oracle","inputs":[],"outputs":[{"name":"","type":"address","internalType":"contract AggregatorInterface"}],"stateMutability":"view"},{"type":"error","name":"SafeCastOverflowedIntToUint","inputs":[{"name":"value","type":"int256","internalType":"int256"}]}],"bytecode":{"object":"0x60a0604052348015600e575f5ffd5b506040516102a13803806102a1833981016040819052602b91603b565b6001600160a01b03166080526066565b5f60208284031215604a575f5ffd5b81516001600160a01b0381168114605f575f5ffd5b9392505050565b60805161021e6100835f395f8181603d015260a5015261021e5ff3fe608060405234801561000f575f5ffd5b5060043610610034575f3560e01c80637dc0d1d01461003857806398d5fdca14610089575b5f5ffd5b61005f7f000000000000000000000000000000000000000000000000000000000000000081565b60405173ffffffffffffffffffffffffffffffffffffffff90911681526020015b60405180910390f35b61009161009f565b604051908152602001610080565b5f6101357f000000000000000000000000000000000000000000000000000000000000000073ffffffffffffffffffffffffffffffffffffffff166350d25bcd6040518163ffffffff1660e01b8152600401602060405180830381865afa15801561010c573d5f5f3e3d5ffd5b505050506040513d601f19601f82011682018060405250810190610130919061018f565b610149565b610144906402540be4006101a6565b905090565b5f5f82121561018b576040517fa8ce44320000000000000000000000000000000000000000000000000000000081526004810183905260240160405180910390fd5b5090565b5f6020828403121561019f575f5ffd5b5051919050565b80820281158282048414176101e2577f4e487b71000000000000000000000000000000000000000000000000000000005f52601160045260245ffd5b9291505056fea26469706673582212206557ca694a9df2daa85a847f394284e3b581f237ebe70b9d33c1838c7393bc4564736f6c634300081e0033","linkReferences":{}},"methodIdentifiers":{"getPrice()":"98d5fdca","oracle()":"7dc0d1d0"},"id":143}