{"abi":[{"type":"constructor","inputs":[{"name":"name_","type":"string","internalType":"string"},{"name":"symbol_","type":"string","internalType":"string"},{"name":"owner_","type":"address","internalType":"address"}],"stateMutability":"nonpayable"},{"type":"function","name":"DOMAIN_SEPARATOR","inputs":[],"outputs":[{"name":"","type":"bytes32","internalType":"bytes32"}],"stateMutability":"view"},{"type":"function","name":"TOKEN_NOTE","inputs":[],"outputs":[{"name":"","type":"string","internalType":"string"}],"stateMutability":"view"},{"type":"function","name":"acceptOwnership","inputs":[],"outputs":[],"stateMutability":"nonpayable"},{"type":"function","name":"allowance","inputs":[{"name":"owner","type":"address","internalType":"address"},{"name":"spender","type":"address","internalType":"address"}],"outputs":[{"name":"","type":"uint256","internalType":"uint256"}],"stateMutability":"view"},{"type":"function","name":"approve","inputs":[{"name":"spender","type":"address","internalType":"address"},{"name":"value","type":"uint256","internalType":"uint256"}],"outputs":[{"name":"","type":"bool","internalType":"bool"}],"stateMutability":"nonpayable"},{"type":"function","name":"balanceOf","inputs":[{"name":"account","type":"address","internalType":"address"}],"outputs":[{"name":"","type":"uint256","internalType":"uint256"}],"stateMutability":"view"},{"type":"function","name":"burn","inputs":[{"name":"_from","type":"address","internalType":"address"},{"name":"_amount","type":"uint256","internalType":"uint256"}],"outputs":[{"name":"success","type":"bool","internalType":"bool"}],"stateMutability":"nonpayable"},{"type":"function","name":"decimals","inputs":[],"outputs":[{"name":"","type":"uint8","internalType":"uint8"}],"stateMutability":"view"},{"type":"function","name":"eip712Domain","inputs":[],"outputs":[{"name":"fields","type":"bytes1","internalType":"bytes1"},{"name":"name","type":"string","internalType":"string"},{"name":"version","type":"string","internalType":"string"},{"name":"chainId","type":"uint256","internalType":"uint256"},{"name":"verifyingContract","type":"address","internalType":"address"},{"name":"salt","type":"bytes32","internalType":"bytes32"},{"name":"extensions","type":"uint256[]","internalType":"uint256[]"}],"stateMutability":"view"},{"type":"function","name":"mint","inputs":[{"name":"_to","type":"address","internalType":"address"},{"name":"_amount","type":"uint256","internalType":"uint256"}],"outputs":[{"name":"success","type":"bool","internalType":"bool"}],"stateMutability":"nonpayable"},{"type":"function","name":"minter","inputs":[],"outputs":[{"name":"","type":"address","internalType":"address"}],"stateMutability":"view"},{"type":"function","name":"name","inputs":[],"outputs":[{"name":"","type":"string","internalType":"string"}],"stateMutability":"view"},{"type":"function","name":"nonces","inputs":[{"name":"owner","type":"address","internalType":"address"}],"outputs":[{"name":"","type":"uint256","internalType":"uint256"}],"stateMutability":"view"},{"type":"function","name":"owner","inputs":[],"outputs":[{"name":"","type":"address","internalType":"address"}],"stateMutability":"view"},{"type":"function","name":"pendingOwner","inputs":[],"outputs":[{"name":"","type":"address","internalType":"address"}],"stateMutability":"view"},{"type":"function","name":"permit","inputs":[{"name":"owner","type":"address","internalType":"address"},{"name":"spender","type":"address","internalType":"address"},{"name":"value","type":"uint256","internalType":"uint256"},{"name":"deadline","type":"uint256","internalType":"uint256"},{"name":"v","type":"uint8","internalType":"uint8"},{"name":"r","type":"bytes32","internalType":"bytes32"},{"name":"s","type":"bytes32","internalType":"bytes32"}],"outputs":[],"stateMutability":"nonpayable"},{"type":"function","name":"renounceOwnership","inputs":[],"outputs":[],"stateMutability":"nonpayable"},{"type":"function","name":"setMinter","inputs":[{"name":"newMinter","type":"address","internalType":"address"}],"outputs":[],"stateMutability":"nonpayable"},{"type":"function","name":"symbol","inputs":[],"outputs":[{"name":"","type":"string","internalType":"string"}],"stateMutability":"view"},{"type":"function","name":"totalSupply","inputs":[],"outputs":[{"name":"","type":"uint256","internalType":"uint256"}],"stateMutability":"view"},{"type":"function","name":"transfer","inputs":[{"name":"to","type":"address","internalType":"address"},{"name":"value","type":"uint256","internalType":"uint256"}],"outputs":[{"name":"","type":"bool","internalType":"bool"}],"stateMutability":"nonpayable"},{"type":"function","name":"transferFrom","inputs":[{"name":"from","type":"address","internalType":"address"},{"name":"to","type":"address","internalType":"address"},{"name":"value","type":"uint256","internalType":"uint256"}],"outputs":[{"name":"","type":"bool","internalType":"bool"}],"stateMutability":"nonpayable"},{"type":"function","name":"transferOwnership","inputs":[{"name":"newOwner","type":"address","internalType":"address"}],"outputs":[],"stateMutability":"nonpayable"},{"type":"event","name":"Approval","inputs":[{"name":"owner","type":"address","indexed":true,"internalType":"address"},{"name":"spender","type":"address","indexed":true,"internalType":"address"},{"name":"value","type":"uint256","indexed":false,"internalType":"uint256"}],"anonymous":false},{"type":"event","name":"EIP712DomainChanged","inputs":[],"anonymous":false},{"type":"event","name":"MinterChanged","inputs":[{"name":"newMinter","type":"address","indexed":false,"internalType":"address"}],"anonymous":false},{"type":"event","name":"OwnershipTransferStarted","inputs":[{"name":"previousOwner","type":"address","indexed":true,"internalType":"address"},{"name":"newOwner","type":"address","indexed":true,"internalType":"address"}],"anonymous":false},{"type":"event","name":"OwnershipTransferred","inputs":[{"name":"previousOwner","type":"address","indexed":true,"internalType":"address"},{"name":"newOwner","type":"address","indexed":true,"internalType":"address"}],"anonymous":false},{"type":"event","name":"Transfer","inputs":[{"name":"from","type":"address","indexed":true,"internalType":"address"},{"name":"to","type":"address","indexed":true,"internalType":"address"},{"name":"value","type":"uint256","indexed":false,"internalType":"uint256"}],"anonymous":false},{"type":"error","name":"ECDSAInvalidSignature","inputs":[]},{"type":"error","name":"ECDSAInvalidSignatureLength","inputs":[{"name":"length","type":"uint256","internalType":"uint256"}]},{"type":"error","name":"ECDSAInvalidSignatureS","inputs":[{"name":"s","type":"bytes32","internalType":"bytes32"}]},{"type":"error","name":"ERC20InsufficientAllowance","inputs":[{"name":"spender","type":"address","internalType":"address"},{"name":"allowance","type":"uint256","internalType":"uint256"},{"name":"needed","type":"uint256","internalType":"uint256"}]},{"type":"error","name":"ERC20InsufficientBalance","inputs":[{"name":"sender","type":"address","internalType":"address"},{"name":"balance","type":"uint256","internalType":"uint256"},{"name":"needed","type":"uint256","internalType":"uint256"}]},{"type":"error","name":"ERC20InvalidApprover","inputs":[{"name":"approver","type":"address","internalType":"address"}]},{"type":"error","name":"ERC20InvalidReceiver","inputs":[{"name":"receiver","type":"address","internalType":"address"}]},{"type":"error","name":"ERC20InvalidSender","inputs":[{"name":"sender","type":"address","internalType":"address"}]},{"type":"error","name":"ERC20InvalidSpender","inputs":[{"name":"spender","type":"address","internalType":"address"}]},{"type":"error","name":"ERC2612ExpiredSignature","inputs":[{"name":"deadline","type":"uint256","internalType":"uint256"}]},{"type":"error","name":"ERC2612InvalidSigner","inputs":[{"name":"signer","type":"address","internalType":"address"},{"name":"owner","type":"address","internalType":"address"}]},{"type":"error","name":"InvalidAccountNonce","inputs":[{"name":"account","type":"address","internalType":"address"},{"name":"currentNonce","type":"uint256","internalType":"uint256"}]},{"type":"error","name":"InvalidShortString","inputs":[]},{"type":"error","name":"OnlyMinter","inputs":[]},{"type":"error","name":"OwnableInvalidOwner","inputs":[{"name":"owner","type":"address","internalType":"address"}]},{"type":"error","name":"OwnableUnauthorizedAccount","inputs":[{"name":"account","type":"address","internalType":"address"}]},{"type":"error","name":"StringTooLong","inputs":[{"name":"str","type":"string","internalType":"string"}]}],"bytecode":{"object":"0x610160604052348015610010575f5ffd5b5060405161420d38038061420d83398101604081905261002f916102d8565b808380604051806040016040528060018152602001603160f81b8152508686816003908161005d91906103e1565b50600461006a82826103e1565b5061007a9150839050600561015f565b6101205261008981600661015f565b61014052815160208084019190912060e052815190820120610100524660a05261011560e05161010051604080517f8b73c3c69bb8fe3d512ecc4cf759cc79239f7b179b0ffacaa9a75d522b39400f60208201529081019290925260608201524660808201523060a08201525f9060c00160405160208183030381529060405280519060200120905090565b60805250503060c052506001600160a01b03811661014d57604051631e4fbdf760e01b81525f60048201526024015b60405180910390fd5b61015681610191565b505050506104f3565b5f60208351101561017a57610173836101ad565b905061018b565b8161018584826103e1565b5060ff90505b92915050565b600980546001600160a01b03191690556101aa816101ea565b50565b5f5f829050601f815111156101d7578260405163305a27a960e01b8152600401610144919061049b565b80516101e2826104d0565b179392505050565b600880546001600160a01b038381166001600160a01b0319831681179093556040519116919082907f8be0079c531659141344cd1fd0a4f28419497f9722a3daafe3b4186f6b6457e0905f90a35050565b634e487b7160e01b5f52604160045260245ffd5b5f82601f83011261025e575f5ffd5b81516001600160401b038111156102775761027761023b565b604051601f8201601f19908116603f011681016001600160401b03811182821017156102a5576102a561023b565b6040528181528382016020018510156102bc575f5ffd5b8160208501602083015e5f918101602001919091529392505050565b5f5f5f606084860312156102ea575f5ffd5b83516001600160401b038111156102ff575f5ffd5b61030b8682870161024f565b602086015190945090506001600160401b03811115610328575f5ffd5b6103348682870161024f565b604086015190935090506001600160a01b0381168114610352575f5ffd5b809150509250925092565b600181811c9082168061037157607f821691505b60208210810361038f57634e487b7160e01b5f52602260045260245ffd5b50919050565b601f8211156103dc57805f5260205f20601f840160051c810160208510156103ba5750805b601f840160051c820191505b818110156103d9575f81556001016103c6565b50505b505050565b81516001600160401b038111156103fa576103fa61023b565b61040e81610408845461035d565b84610395565b6020601f821160018114610440575f83156104295750848201515b5f19600385901b1c1916600184901b1784556103d9565b5f84815260208120601f198516915b8281101561046f578785015182556020948501946001909201910161044f565b508482101561048c57868401515f19600387901b60f8161c191681555b50505050600190811b01905550565b602081525f82518060208401528060208501604085015e5f604082850101526040601f19601f83011684010191505092915050565b8051602080830151919081101561038f575f1960209190910360031b1b16919050565b60805160a05160c05160e051610100516101205161014051613cc96105445f395f610d1901525f610cec01525f610bb301525f610b8b01525f610ae601525f610b1001525f610b3a0152613cc95ff3fe608060405234801561000f575f5ffd5b5060043610610184575f3560e01c80637ecebe00116100dd578063d505accf11610088578063f2fde38b11610063578063f2fde38b14610394578063fca3b5aa146103a7578063fcbac1bc146103ba575f5ffd5b8063d505accf1461031e578063dd62ed3e14610331578063e30c397814610376575f5ffd5b806395d89b41116100b857806395d89b41146102f05780639dc29fac146102f8578063a9059cbb1461030b575f5ffd5b80637ecebe00146102a457806384b0196e146102b75780638da5cb5b146102d2575f5ffd5b8063313ce5671161013d57806370a082311161011857806370a082311461025d578063715018a61461029257806379ba50971461029c575f5ffd5b8063313ce567146102335780633644e5151461024257806340c10f191461024a575f5ffd5b8063095ea7b31161016d578063095ea7b3146101eb57806318160ddd1461020e57806323b872dd14610220575f5ffd5b806306fdde031461018857806307546172146101a6575b5f5ffd5b6101906103c2565b60405161019d91906114d6565b60405180910390f35b600a546101c69073ffffffffffffffffffffffffffffffffffffffff1681565b60405173ffffffffffffffffffffffffffffffffffffffff909116815260200161019d565b6101fe6101f9366004611517565b610452565b604051901515815260200161019d565b6002545b60405190815260200161019d565b6101fe61022e36600461153f565b61046b565b6040516012815260200161019d565b61021261048e565b6101fe610258366004611517565b61049c565b61021261026b366004611579565b73ffffffffffffffffffffffffffffffffffffffff165f9081526020819052604090205490565b61029a610502565b005b61029a610515565b6102126102b2366004611579565b610591565b6102bf6105bb565b60405161019d9796959493929190611592565b60085473ffffffffffffffffffffffffffffffffffffffff166101c6565b610190610619565b6101fe610306366004611517565b610628565b6101fe610319366004611517565b61063e565b61029a61032c366004611651565b61064b565b61021261033f3660046116be565b73ffffffffffffffffffffffffffffffffffffffff9182165f90815260016020908152604080832093909416825291909152205490565b60095473ffffffffffffffffffffffffffffffffffffffff166101c6565b61029a6103a2366004611579565b6107f4565b61029a6103b5366004611579565b6108a4565b610190610925565b6060600380546103d1906116ef565b80601f01602080910402602001604051908101604052809291908181526020018280546103fd906116ef565b80156104485780601f1061041f57610100808354040283529160200191610448565b820191905f5260205f20905b81548152906001019060200180831161042b57829003601f168201915b5050505050905090565b5f3361045f818585610944565b60019150505b92915050565b5f33610478858285610956565b610483858585610a24565b506001949350505050565b5f610497610acd565b905090565b600a545f9073ffffffffffffffffffffffffffffffffffffffff1633146104ef576040517f9cdc2ed500000000000000000000000000000000000000000000000000000000815260040160405180910390fd5b6104f98383610c03565b50600192915050565b61050a610c61565b6105135f610cb4565b565b600954339073ffffffffffffffffffffffffffffffffffffffff168114610585576040517f118cdaa700000000000000000000000000000000000000000000000000000000815273ffffffffffffffffffffffffffffffffffffffff821660048201526024015b60405180910390fd5b61058e81610cb4565b50565b73ffffffffffffffffffffffffffffffffffffffff81165f90815260076020526040812054610465565b5f6060805f5f5f60606105cc610ce5565b6105d4610d12565b604080515f808252602082019092527f0f000000000000000000000000000000000000000000000000000000000000009b939a50919850469750309650945092509050565b6060600480546103d1906116ef565b5f610634833384610956565b6104f98383610d3f565b5f3361045f818585610a24565b83421115610688576040517f627913020000000000000000000000000000000000000000000000000000000081526004810185905260240161057c565b5f7f6e71edae12b1b97f4d1f60370fef10105fa2faae0126114a169c64845d6126c98888886106e08c73ffffffffffffffffffffffffffffffffffffffff165f90815260076020526040902080546001810190915590565b60408051602081019690965273ffffffffffffffffffffffffffffffffffffffff94851690860152929091166060840152608083015260a082015260c0810186905260e0016040516020818303038152906040528051906020012090505f61074782610d99565b90505f61075682878787610de0565b90508973ffffffffffffffffffffffffffffffffffffffff168173ffffffffffffffffffffffffffffffffffffffff16146107dd576040517f4b800e4600000000000000000000000000000000000000000000000000000000815273ffffffffffffffffffffffffffffffffffffffff80831660048301528b16602482015260440161057c565b6107e88a8a8a610944565b50505050505050505050565b6107fc610c61565b6009805473ffffffffffffffffffffffffffffffffffffffff83167fffffffffffffffffffffffff0000000000000000000000000000000000000000909116811790915561085f60085473ffffffffffffffffffffffffffffffffffffffff1690565b73ffffffffffffffffffffffffffffffffffffffff167f38d16b8cac22d99fc7c124b9cd0de2d3fa1faef420bfe791d8c362d765e2270060405160405180910390a350565b6108ac610c61565b600a80547fffffffffffffffffffffffff00000000000000000000000000000000000000001673ffffffffffffffffffffffffffffffffffffffff83169081179091556040519081527fb6b8f1859c5c352e5ffad07d0f77e384ac725512c015bd3a3ffc885831c8a4259060200160405180910390a150565b6040518061252001604052806124ee81526020016117a66124ee913981565b6109518383836001610e0c565b505050565b73ffffffffffffffffffffffffffffffffffffffff8381165f908152600160209081526040808320938616835292905220547fffffffffffffffffffffffffffffffffffffffffffffffffffffffffffffffff811015610a1e5781811015610a10576040517ffb8f41b200000000000000000000000000000000000000000000000000000000815273ffffffffffffffffffffffffffffffffffffffff84166004820152602481018290526044810183905260640161057c565b610a1e84848484035f610e0c565b50505050565b73ffffffffffffffffffffffffffffffffffffffff8316610a73576040517f96c6fd1e0000000000000000000000000000000000000000000000000000000081525f600482015260240161057c565b73ffffffffffffffffffffffffffffffffffffffff8216610ac2576040517fec442f050000000000000000000000000000000000000000000000000000000081525f600482015260240161057c565b610951838383610f51565b5f3073ffffffffffffffffffffffffffffffffffffffff7f000000000000000000000000000000000000000000000000000000000000000016148015610b3257507f000000000000000000000000000000000000000000000000000000000000000046145b15610b5c57507f000000000000000000000000000000000000000000000000000000000000000090565b610497604080517f8b73c3c69bb8fe3d512ecc4cf759cc79239f7b179b0ffacaa9a75d522b39400f60208201527f0000000000000000000000000000000000000000000000000000000000000000918101919091527f000000000000000000000000000000000000000000000000000000000000000060608201524660808201523060a08201525f9060c00160405160208183030381529060405280519060200120905090565b73ffffffffffffffffffffffffffffffffffffffff8216610c52576040517fec442f050000000000000000000000000000000000000000000000000000000081525f600482015260240161057c565b610c5d5f8383610f51565b5050565b60085473ffffffffffffffffffffffffffffffffffffffff163314610513576040517f118cdaa700000000000000000000000000000000000000000000000000000000815233600482015260240161057c565b600980547fffffffffffffffffffffffff000000000000000000000000000000000000000016905561058e816110f8565b60606104977f0000000000000000000000000000000000000000000000000000000000000000600561116e565b60606104977f0000000000000000000000000000000000000000000000000000000000000000600661116e565b73ffffffffffffffffffffffffffffffffffffffff8216610d8e576040517f96c6fd1e0000000000000000000000000000000000000000000000000000000081525f600482015260240161057c565b610c5d825f83610f51565b5f610465610da5610acd565b836040517f19010000000000000000000000000000000000000000000000000000000000008152600281019290925260228201526042902090565b5f5f5f5f610df088888888611217565b925092509250610e00828261130a565b50909695505050505050565b73ffffffffffffffffffffffffffffffffffffffff8416610e5b576040517fe602df050000000000000000000000000000000000000000000000000000000081525f600482015260240161057c565b73ffffffffffffffffffffffffffffffffffffffff8316610eaa576040517f94280d620000000000000000000000000000000000000000000000000000000081525f600482015260240161057c565b73ffffffffffffffffffffffffffffffffffffffff8085165f9081526001602090815260408083209387168352929052208290558015610a1e578273ffffffffffffffffffffffffffffffffffffffff168473ffffffffffffffffffffffffffffffffffffffff167f8c5be1e5ebec7d5bd14f71427d1e84f3dd0314c0f7b2291e5b200ac8c7c3b92584604051610f4391815260200190565b60405180910390a350505050565b73ffffffffffffffffffffffffffffffffffffffff8316610f88578060025f828254610f7d9190611740565b909155506110389050565b73ffffffffffffffffffffffffffffffffffffffff83165f908152602081905260409020548181101561100d576040517fe450d38c00000000000000000000000000000000000000000000000000000000815273ffffffffffffffffffffffffffffffffffffffff85166004820152602481018290526044810183905260640161057c565b73ffffffffffffffffffffffffffffffffffffffff84165f9081526020819052604090209082900390555b73ffffffffffffffffffffffffffffffffffffffff82166110615760028054829003905561108c565b73ffffffffffffffffffffffffffffffffffffffff82165f9081526020819052604090208054820190555b8173ffffffffffffffffffffffffffffffffffffffff168373ffffffffffffffffffffffffffffffffffffffff167fddf252ad1be2c89b69c2b068fc378daa952ba7f163c4a11628f55a4df523b3ef836040516110eb91815260200190565b60405180910390a3505050565b6008805473ffffffffffffffffffffffffffffffffffffffff8381167fffffffffffffffffffffffff0000000000000000000000000000000000000000831681179093556040519116919082907f8be0079c531659141344cd1fd0a4f28419497f9722a3daafe3b4186f6b6457e0905f90a35050565b606060ff8314611188576111818361140d565b9050610465565b818054611194906116ef565b80601f01602080910402602001604051908101604052809291908181526020018280546111c0906116ef565b801561120b5780601f106111e25761010080835404028352916020019161120b565b820191905f5260205f20905b8154815290600101906020018083116111ee57829003601f168201915b50505050509050610465565b5f80807f7fffffffffffffffffffffffffffffff5d576e7357a4501ddfe92f46681b20a084111561125057505f91506003905082611300565b604080515f808252602082018084528a905260ff891692820192909252606081018790526080810186905260019060a0016020604051602081039080840390855afa1580156112a1573d5f5f3e3d5ffd5b50506040517fffffffffffffffffffffffffffffffffffffffffffffffffffffffffffffffe0015191505073ffffffffffffffffffffffffffffffffffffffff81166112f757505f925060019150829050611300565b92505f91508190505b9450945094915050565b5f82600381111561131d5761131d611778565b03611326575050565b600182600381111561133a5761133a611778565b03611371576040517ff645eedf00000000000000000000000000000000000000000000000000000000815260040160405180910390fd5b600282600381111561138557611385611778565b036113bf576040517ffce698f70000000000000000000000000000000000000000000000000000000081526004810182905260240161057c565b60038260038111156113d3576113d3611778565b03610c5d576040517fd78bce0c0000000000000000000000000000000000000000000000000000000081526004810182905260240161057c565b60605f6114198361144a565b6040805160208082528183019092529192505f91906020820181803683375050509182525060208101929092525090565b5f60ff8216601f811115610465576040517fb3512b0c00000000000000000000000000000000000000000000000000000000815260040160405180910390fd5b5f81518084528060208401602086015e5f6020828601015260207fffffffffffffffffffffffffffffffffffffffffffffffffffffffffffffffe0601f83011685010191505092915050565b602081525f6114e8602083018461148a565b9392505050565b803573ffffffffffffffffffffffffffffffffffffffff81168114611512575f5ffd5b919050565b5f5f60408385031215611528575f5ffd5b611531836114ef565b946020939093013593505050565b5f5f5f60608486031215611551575f5ffd5b61155a846114ef565b9250611568602085016114ef565b929592945050506040919091013590565b5f60208284031215611589575f5ffd5b6114e8826114ef565b7fff000000000000000000000000000000000000000000000000000000000000008816815260e060208201525f6115cc60e083018961148a565b82810360408401526115de818961148a565b6060840188905273ffffffffffffffffffffffffffffffffffffffff8716608085015260a0840186905283810360c0850152845180825260208087019350909101905f5b81811015611640578351835260209384019390920191600101611622565b50909b9a5050505050505050505050565b5f5f5f5f5f5f5f60e0888a031215611667575f5ffd5b611670886114ef565b965061167e602089016114ef565b95506040880135945060608801359350608088013560ff811681146116a1575f5ffd5b9699959850939692959460a0840135945060c09093013592915050565b5f5f604083850312156116cf575f5ffd5b6116d8836114ef565b91506116e6602084016114ef565b90509250929050565b600181811c9082168061170357607f821691505b60208210810361173a577f4e487b71000000000000000000000000000000000000000000000000000000005f52602260045260245ffd5b50919050565b80820180821115610465577f4e487b71000000000000000000000000000000000000000000000000000000005f52601160045260245ffd5b7f4e487b71000000000000000000000000000000000000000000000000000000005f52602160045260245ffdfe2d202a2a2a5448495320544f4b454e2d4e4f5445204953205355424a45435420544f20414c4c204f4620544845205445524d5320414e4420434f4e444954494f4e53205055424c4953484544204f4e205448452054454e42494e20464f554e444154494f4e20574542534954452c206170702e74656e62696e2e78797a2a2a2a2a0a0a2a2a544f4b454e2d4e4f54452a2a0a0a5468697320544f4b454e2d4e4f544520287468697320222a2a546f6b656e2d4e6f74652a2a22206f7220222a2a4e6f74652a2a222920697320616e20696e746567726174656420696e737472756d656e74207468617420657869737473206173206120636f6e74726f6c6c61626c6520656c656374726f6e6963207265636f726420617320646566696e656420696e20554343205365632e2031322d31303228612928312920286120222a2a4345522a2a22292077697468696e206120666f726d206f66206469676974616c20746f6b656e202874686520222a2a546f6b656e2a2a22292064697370617463686564206f6e2074686520457468657265756d20626c6f636b636861696e202874686520222a2a546f6b656e20506c6174666f726d2a2a22292e0a0a4f6e206f72206265666f7265207468652064617465207468697320546f6b656e2d4e6f746520697320697373756564206f6e2074686520546f6b656e20506c6174666f726d20287375636820646174652c20222a2a497373756520446174652a2a22292c20666f722076616c75652072656365697665642c2054656e62696e204173736574436f20284256492920535043204c74642e2c206120427269746973682049736c616e6473207365677265676174656420706f7274666f6c696f20636f6d70616e79202874686520222a2a4973737565722a2a22292070726f6d6973657320746f2070617920746f20746865206f72646572206f6620686f6c646572202a2a2a2a627920636f6e74726f6c202877697468696e20746865206d65616e696e67206f6620554343205365632e2031322d3130352028222a2a546f6b656e20436f6e74726f6c2a2a2220616e642c207375636820686f6c6465722c2074686520222a2a496e697469616c20486f6c6465722a2a2220616e6420656163682073756273657175656e7420686f6c64657220627920546f6b656e20436f6e74726f6c206f662074686520546f6b656e2c2066726f6d2074696d6520746f2074696d652c2065616368206120222a2a486f6c6465722a2a22292c20696e20746865206d616e6e657220616e642061742074686520706c6163652070726f76696465642062656c6f772c20746865207072696e636970616c2073756d206f662074686520552e532e20646f6c6c61722076616c7565206f66206f6e652074726f79206f756e6365206f6620676f6c6420707269636564206174207468652053706f74205072696365202868657265696e616674657220646566696e6564292e20436f6e63757272656e746c79206f6e2074686520497373756520446174652c20497373756572207368616c6c2069737375652074686520546f6b656e206f6e2074686520546f6b656e20506c6174666f726d20696e2074686520616767726567617465206e6f74696f6e616c20616d6f756e74206f66206f6e652068756e647265642070657263656e7420283130302529206f6620746865204e6f74652e205472616e7366657273206f662074686520546f6b656e20616e64206f776e65727368697020627920546f6b656e20436f6e74726f6c206d61792074686572656166746572206f6363757220736f6c656c7920696e206163636f7264616e636520776974682053656374696f6e20372e0a0a312e202a2a53706f742050726963652c2056616c756174696f6e2a2a2e20466f7220707572706f736573206f662074686973204e6f74652c207468652053706f74205072696365207368616c6c2062652074686520504d2073706f74207072696365206f6620676f6c64207065722074726f79206f756e6365206173207075626c697368656420627920746865204c6f6e646f6e2042756c6c696f6e204d61726b6574204173736f63696174696f6e2028222a2a4c424d412a2a2229206f6e2074686520627573696e6573732064617920746861742074686973204e6f746520697320697373756564206f72207265706169642c20776869636865766572206170706c696361626c6520286f72206966206e6f74206f6e206120646179206f6e207768696368204c424d41206973207075626c697368696e67207072696365732c2074686520636c6f7365737420707265636564696e67207375636820646179292e204e6f74776974687374616e64696e672074686520666f7265676f696e672c2074686520497373756572206d61792c20696e2069747320736f6c652064697363726574696f6e2c2073656c656374206120646966666572656e742070726963696e6720736f7572636520616e642074696d6520666f722064657465726d696e696e67207468652073706f74207072696365206f6620676f6c6420666f72206f7065726174696f6e616c20707572706f7365732e0a322e202a2a5061796d656e742a2a2e20416c6c207061796d656e7473206f66207072696e636970616c20616e6420696e74657265737420756e646572207468697320546f6b656e2d4e6f74652077696c6c2062652064656e6f6d696e6174656420696e20676f6c642c20707269636564206174207468652053706f742050726963652c20616e64207061696420696e206120552e532e20646f6c6c61722d64656e6f6d696e6174656420737461626c65636f696e2073656c656374656420627920746865204973737565722c20776974686f7574206f66667365742c20646564756374696f6e2c206f7220636f756e746572636c61696d2e2044656c6976657279207368616c6c206265206d61646520696e206163636f7264616e63652077697468207468652070726f63656475726573206f662074686520546f6b656e20506c6174666f726d2c20746f2074686520486f6c6465722c2075706f6e2074686520486f6c64657227732076616c6964206578657263697365206f662069747320726967687420746f207061796d656e7420616e6420726564656d7074696f6e2e0a332e202a2a44656d616e642a2a2e20546865207072696e636970616c20616d6f756e74206f66207468697320546f6b656e2d4e6f74652c20746f676574686572207769746820616e7920616e6420616c6c206163637275656420616e6420756e7061696420696e7465726573742074686572656f6e2c2069732070617961626c65206279207468652049737375657220746f2074686520486f6c646572202a2a4f4e2044454d414e442a2a20617420616e792074696d652062792074686520486f6c6465722e2050726f6365647572657320666f722070726573656e746d656e7420617265207075626c6973686564206f6e207468652049737375657227732077656273697465205b2a2a6170702e74656e62696e2e78797a2a2a5d20616e64207375626a65637420746f20616c6c207465726d732c20636f6e646974696f6e732c20616e642061677265656d656e7473207075626c6973686564207468657265696e2e204f6e6c7920616674657220486f6c646572206973207175616c696669656420616e6420617070726f7665642062792074686520497373756572206d61792069742070726573656e74207468697320546f6b656e2d4e6f746520666f72207061796d656e742e2055706f6e20617070726f76616c2c20616e6420486f6c64657227732064656d616e6420666f72207061796d656e74207669612074686520546f6b656e20506c6174666f726d2c2074686520497373756572207368616c6c2070726f6d70746c792064656c69766572207468652073706563696669656420616d6f756e7420726570726573656e7465642062792074686520546f6b656e2c20746f676574686572207769746820616e7920616e6420616c6c206163637275656420616e6420756e7061696420696e7465726573742c20696e206163636f7264616e63652077697468207468652070726f63656475726573206f66207468652049737375657220506c6174666f726d2e0a342e202a2a496e7465726573742a2a2e20496e746572657374206f6e2074686520756e70616964207072696e636970616c2062616c616e6365206f662074686973206e6f74652c20696620616e792c2069732070617961626c652066726f6d207468652064617465206f66207468697320546f6b656e2d4e6f746520756e74696c2074686973204e6f7465206973207061696420696e2066756c6c2c20617420616d6f756e74732073656c6563746564206279207468652049737375657220696e2069747320736f6c6520616e64206162736f6c7574652064697363726574696f6e2e204163637275656420696e7465726573742c20696620616e792c2077696c6c20626520636f6d7075746564206f6e20746865206261736973206f662061203336352d646179206f72203336362d64617920796561722c206173207468652063617365206d61792062652c206261736564206f6e207468652061637475616c206e756d626572206f66206461797320656c617073656420696e2074686520706572696f6420696e20776869636820697420616363727565732e20466f72207468652061766f6964616e6365206f6620646f7562742c20616e7920696e7465726573742070617961626c6520756e6465722074686973206e6f74652069732061742074686520736f6c6520616e64206162736f6c7574652064697363726574696f6e206f6620746865204973737565722e0a352e202a2a576169766572206f662050726573656e746d656e743b2044656d616e642a2a2e205468652049737375657220686572656279207761697665732070726573656e746d656e742c2064656d616e642c206e6f74696365206f6620646973686f6e6f722c206e6f74696365206f662064656661756c74206f722064656c696e7175656e63792c206e6f74696365206f662070726f7465737420616e64206e6f6e7061796d656e742c206e6f74696365206f6620636f7374732c20657870656e736573206f72206c6f7373657320616e6420696e746572657374206f6e2074686f73652c206e6f74696365206f6620696e746572657374206f6e20696e74657265737420616e64206c61746520636861726765732c20616e642064696c6967656e636520696e2074616b696e6720616e7920616374696f6e20746f20636f6c6c65637420616e792073756d73206f77696e6720756e6465722074686973204e6f74652c20696e636c7564696e672028746f2074686520657874656e74207065726d6974746564206279206c6177292077616976696e672074686520706c656164696e67206f6620616e792073746174757465206f66206c696d69746174696f6e73206173206120646566656e736520746f20616e792064656d616e6420616761696e73742074686520756e6465727369676e65642e20416363657074616e63652062792074686520486f6c6465722074686973204e6f7465206f6620616e79207061796d656e7420646966666572696e672066726f6d207468652064657369676e61746564206c756d702d73756d207061796d656e74206c69737465642061626f766520646f6573206e6f742072656c696576652074686520756e6465727369676e6564206f6620746865206f626c69676174696f6e20746f20686f6e6f722074686520726571756972656d656e7473206f662074686973204e6f74652e0a362e202a2a476f7665726e696e67204c61772a2a2e205468652073656174206f662061646d696e697374726174696f6e2c206578636c75736976652076656e75652c20616e6420666f72756d20666f7220616e7920646973707574652c2070726f63656564696e672c206f7220656e666f7263656d656e7420616374696f6e2072656c6174696e6720746f2074686520546f6b656e206f72207468697320546f6b656e2d4e6f7465207368616c6c2062652074686520427269746973682056697267696e2049736c616e64732e204e6f74776974687374616e64696e672074686520666f7265676f696e672c20616c6c2072696768747320616e64206f626c69676174696f6e732061726973696e6720756e646572207468697320546f6b656e2d4e6f74652c20696e636c7564696e6720627574206e6f74206c696d6974656420746f20616c6c207472616e73666572732c207061796d656e74732c20616e6420726564656d7074696f6e732c207368616c6c20626520676f7665726e656420627920616e6420636f6e73747275656420696e206163636f7264616e636520776974682041727469636c65203132206f662074686520556e69666f726d20436f6d6d65726369616c20436f64652061732061646f7074656420696e20746865205374617465206f662044656c61776172652e0a372e202a2a43455220616e64205472616e736665722a2a2e2054686520486f6c64657227732072696768747320746f207061796d656e7420616e6420726564656d7074696f6e20756e646572207468697320546f6b656e2d4e6f7465206172652065766964656e6365642062792c20616e64206d6179206265207472616e73666572726564206f6e6c792062792c20546f6b656e20436f6e74726f6c206f662074686520546f6b656e2d4e6f74652061732061204345522e2054686520486f6c646572207368616c6c206265206465656d656420746f20686176652022636f6e74726f6c22206f66207468697320546f6b656e2d4e6f74652077697468696e20746865206d65616e696e67206f6620554343205365632e31322d31303520696620486f6c646572206861732c2061732065766964656e63656420627920746865207265636f726473206f662074686520546f6b656e20506c6174666f726d2c20746865206578636c757369766520706f77657220746f3a2028612920617661696c20697473656c66206f66207375627374616e7469616c6c7920616c6c207468652062656e656669742066726f6d2074686520546f6b656e2d4e6f74653b202862292070726576656e74206f74686572732066726f6d20617661696c696e67207468656d73656c766573206f66207375627374616e7469616c6c7920616c6c207468652062656e65666974206f662074686520546f6b656e2d4e6f74653b20616e6420286329207472616e7366657220636f6e74726f6c206f662074686520546f6b656e2d4e6f746520746f20616e6f7468657220706572736f6e2e2055706f6e2063727970746f6772617068696320766572696669636174696f6e206f6620746865207472616e73666572206f6e20746865206170706c696361626c65206469737472696275746564206c65646765722c206f776e657273686970206f662074686520636f72726573706f6e64696e67204e6f7465206175746f6d61746963616c6c792070617373657320746f20746865207472616e7366657265652c20616e6420746865207472616e736665726565207368616c6c20626520612022486f6c646572222068657265756e64657220617320706172747920746f2074686973204e6f74652e2055706f6e207472616e73666572206f66206120546f6b656e20696e206163636f7264616e636520776974682074686973202a2a53656374696f6e20372a2a202873756368207472616e7366657272696e6720486f6c6465722c2074686520222a2a5472616e7366657272696e6720486f6c6465722a2a22292c20746865205472616e7366657272696e6720486f6c646572207368616c6c2c206173206f6620746865206566666563746976652074696d65206f66207375636820646973706f736974696f6e2c206175746f6d61746963616c6c7920636561736520746f206265206120706172747920746f2074686973204e6f74652e20466f72207468652061766f6964616e6365206f6620646f7562742c2075706f6e2073756368207472616e736665722c20616c6c207269676874732c2062656e65666974732c206475746965732c20616e64206f626c69676174696f6e73206f662073756368205472616e7366657272696e6720486f6c64657220756e64657220746869732041677265656d656e74207368616c6c20696d6d6564696174656c7920616e642069727265766f6361626c79207465726d696e6174652c20616e642073756368205472616e7366657272696e6720486f6c646572207368616c6c206e6f7420626520656e7469746c656420746f20616e79207061796d656e74732c20696e64656d6e69746965732c206f72206f746865722062656e65666974732068657265756e6465722c206e6f72207368616c6c2073756368205472616e7366657272696e6720486f6c646572206861766520616e792066757274686572206c696162696c697479206f7220726573706f6e736962696c69747920756e6465722074686973204e6f74652e0a0a4973737565722c20496e697469616c20486f6c6465722c20616e642065616368206f7468657220486f6c64657220616772656520616e642061636b6e6f776c656467653a0a0a2861292054686520546f6b656e20636f6e737469747574657320612043455220616e64206973207375626a65637420746f20546f6b656e20436f6e74726f6c2e0a0a28622920546f6b656e20436f6e74726f6c206f662074686520546f6b656e206279206120486f6c64657220697320636f6e636c75736976652065766964656e6365206f6620746865206f776e657273686970206f6620746865204e6f746520616e642074686520726967687420746f207061796d656e74206d6164652068657265756e6465722e204e6f207365706172617465207265676973746572206f6620686f6c64657273207368616c6c206265206d61696e7461696e6564206279204973737565722c20496e697469616c20486f6c646572206f7220616e79206f7468657220706572736f6e2e0a0a2863292049737375657220667572746865722061677265657320286929207468617420746865204e6f7465206973737565642068657265756e64657220636f6e73746974757465732065697468657220287829206120636f6e74726f6c6c61626c65207061796d656e7420696e74616e6769626c652028617320646566696e656420696e20554343205365632e392d3130322861292832374229292c206f7220287929206120636f6e74726f6c6c61626c65206163636f756e742028617320646566696e656420696e20554343205365632e20392d3130322861292832374129292c206173206170706c696361626c652c2065766964656e6365642062792028616e6420746574686572656420746f292074686520546f6b656e20697373756564207075727375616e7420746f2074686973204e6f74652c20616e6420286969292061677265657320746f207061792074686520486f6c6465722077686f2068617320546f6b656e20436f6e74726f6c206f766572207375636820546f6b656e20696e206163636f7264616e636520776974682074686973204e6f74652e205448452052494748545320414e44204f424c49474154494f4e532044455343524942454420494e205448495320544f4b454e2d4e4f54452041524520454d424f4449454420494e20414e4420494e534550415241424c452046524f4d2054484520544f4b454e2c2053554348205448415420434f4e54524f4c204f462054484520544f4b454e20434f4e535449545554455320434f4e54524f4c204f46205448495320544f4b454e2d4e4f544520414e4420414c4c205249474854532048455245554e4445522e2045786365707420617320657870726573736c79207065726d697474656420696e2074686973202a2a53656374696f6e20372a2a2c206e6f20486f6c646572206d6179207472616e736665722069747320546f6b656e206f7220746865204e6f74652e0a0a382e202a2a53657665726162696c6974792a2a2e20496620616e79206f6e65206f72206d6f7265206f66207468652070726f766973696f6e7320636f6e7461696e656420696e2074686973204e6f74652069732c20666f7220616e7920726561736f6e2c2068656c6420746f20626520696e76616c69642c20696c6c6567616c2c206f7220756e656e666f72636561626c6520696e20616e7920726573706563742c207468617420696e76616c69646974792c20696c6c6567616c6974792c206f7220756e656e666f7263656162696c6974792077696c6c206e6f742061666665637420616e79206f746865722070726f766973696f6e73206f662074686973204e6f74652c20616e642074686973204e6f74652077696c6c20626520636f6e7374727565642061732069662074686f736520696e76616c69642c20696c6c6567616c2c206f7220756e656e666f72636561626c652070726f766973696f6e7320686164206e65766572206265656e20636f6e7461696e656420696e2069742c20756e6c657373207468652064656c6574696f6e206f662074686f73652070726f766973696f6e7320776f756c6420726573756c7420696e20737563682061206d6174657269616c206368616e676520736f20617320746f20636175736520636f6d706c6574696f6e206f6620746865207472616e73616374696f6e7320636f6e74656d706c617465642062792074686973204e6f746520746f20626520756e726561736f6e61626c652e0a392e202a2a5761697665723b20416d656e646d656e742a2a2e204e6f20616d656e646d656e7420746f20746865207465726d73206f662074686973204e6f7465206f7220776169766572206f662061206272656163682c206661696c757265206f6620616e7920636f6e646974696f6e2c206f7220616e79207269676874206f722072656d65647920636f6e7461696e656420696e206f72206772616e746564206279207468652070726f766973696f6e73206f662074686973204e6f74652077696c6c2062652065666665637469766520756e6c65737320697420697320696e2077726974696e6720616e6420657870726573736c7920617070726f766564206279204973737565722e204e6f20776169766572206f6620616e79206272656163682c206661696c7572652c2072696768742c206f722072656d6564792077696c6c206265206465656d6564206120776169766572206f6620616e79206f74686572206272656163682c206661696c7572652c2072696768742c206f722072656d6564792c2077686574686572206f72206e6f742073696d696c61722c20616e64206e6f207761697665722077696c6c20636f6e73746974757465206120636f6e74696e75696e67207761697665722c20756e6c657373207468652077726974696e6720736f207370656369666965732e0a31302e202a2a48656164696e67732a2a2e205468652064657363726970746976652068656164696e6773206f66207468652073656374696f6e7320616e642073756273656374696f6e73206f662074686973204e6f74652061726520666f7220636f6e76656e69656e6365206f6e6c792c20616e6420646f206e6f74206166666563742074686973204e6f7465277320636f6e737472756374696f6e206f7220696e746572707265746174696f6e2e0a31312e202a2a506c6174666f726d2d4261736564205369676e6174757265732a2a2e2042792069737375696e6720616e6420616363657074696e672074686520546f6b656e206f6e2074686520546f6b656e20506c6174666f726d20696e206163636f7264616e636520776974682053656374696f6e203720686572656f662c2049737375657220616e64206561636820486f6c6465722061757468656e746963617465732c207369676e732028696e636c7564696e672c20776974686f7574206c696d69746174696f6e2c20227369676e696e67222077697468696e20746865206d65616e696e67206f662053656374696f6e20312d323031206f6620746865205543432c20616e642c20666f72207468652061766f6964616e6365206f6620646f7562742c2073756368207369676e696e67207368616c6c20636f6e737469747574652c20776974686f7574206c696d69746174696f6e2c20616e2022656c656374726f6e6963207369676e6174757265222077697468696e20746865206d65616e696e67206f662074686520556e69666f726d20456c656374726f6e6963205472616e73616374696f6e732041637420616e6420552e532e206665646572616c20452d5349474e20416374206f662032303030292c2065786563757465732c20616e642064656c69766572732074686973204e6f7465206173206f6620746865206566666563746976652064617465206f66207375636820616363657074616e63652e204e6f206d616e75616c207369676e61747572652c2077726974696e67732c206e6f746172697a6174696f6e2c206f72206675727468657220616374696f6e20697320726571756972656420746f20696e6469636174652073756368204c6f616e205061727469636970616e74277320696e74656e7420746f2061757468656e746963617465206f722061646f707420746869732041677265656d656e742e20496e206163636f7264616e636520776974682053656374696f6e203620686572656f662c20746869732041677265656d656e74206d617920626520657865637574656420696e20616e79206e756d626572206f6620636f756e746572706172747320616e6420616c6c206f66207375636820636f756e7465727061727473207368616c6c20746f67657468657220636f6e73746974757465206f6e6520616e64207468652073616d6520696e737472756d656e742ea26469706673582212201a56032828f976ddfb455a81ea9c55171733a7cfecff3fa9d04b4aa45e9a445664736f6c634300081e0033","linkReferences":{}},"methodIdentifiers":{"DOMAIN_SEPARATOR()":"3644e515","TOKEN_NOTE()":"fcbac1bc","acceptOwnership()":"79ba5097","allowance(address,address)":"dd62ed3e","approve(address,uint256)":"095ea7b3","balanceOf(address)":"70a08231","burn(address,uint256)":"9dc29fac","decimals()":"313ce567","eip712Domain()":"84b0196e","mint(address,uint256)":"40c10f19","minter()":"07546172","name()":"06fdde03","nonces(address)":"7ecebe00","owner()":"8da5cb5b","pendingOwner()":"e30c3978","permit(address,address,uint256,uint256,uint8,bytes32,bytes32)":"d505accf","renounceOwnership()":"715018a6","setMinter(address)":"fca3b5aa","symbol()":"95d89b41","totalSupply()":"18160ddd","transfer(address,uint256)":"a9059cbb","transferFrom(address,address,uint256)":"23b872dd","transferOwnership(address)":"f2fde38b"},"id":138}