{"abi":[{"type":"constructor","inputs":[{"name":"name","type":"string","internalType":"string"},{"name":"symbol","type":"string","internalType":"string"},{"name":"asset_","type":"address","internalType":"contract IERC20"}],"stateMutability":"nonpayable"},{"type":"function","name":"allowance","inputs":[{"name":"owner","type":"address","internalType":"address"},{"name":"spender","type":"address","internalType":"address"}],"outputs":[{"name":"","type":"uint256","internalType":"uint256"}],"stateMutability":"view"},{"type":"function","name":"approve","inputs":[{"name":"spender","type":"address","internalType":"address"},{"name":"value","type":"uint256","internalType":"uint256"}],"outputs":[{"name":"","type":"bool","internalType":"bool"}],"stateMutability":"nonpayable"},{"type":"function","name":"asset","inputs":[],"outputs":[{"name":"","type":"address","internalType":"address"}],"stateMutability":"view"},{"type":"function","name":"balanceOf","inputs":[{"name":"account","type":"address","internalType":"address"}],"outputs":[{"name":"","type":"uint256","internalType":"uint256"}],"stateMutability":"view"},{"type":"function","name":"convertToAssets","inputs":[{"name":"shares","type":"uint256","internalType":"uint256"}],"outputs":[{"name":"","type":"uint256","internalType":"uint256"}],"stateMutability":"view"},{"type":"function","name":"convertToShares","inputs":[{"name":"assets","type":"uint256","internalType":"uint256"}],"outputs":[{"name":"","type":"uint256","internalType":"uint256"}],"stateMutability":"view"},{"type":"function","name":"decimals","inputs":[],"outputs":[{"name":"","type":"uint8","internalType":"uint8"}],"stateMutability":"view"},{"type":"function","name":"deposit","inputs":[{"name":"assets","type":"uint256","internalType":"uint256"},{"name":"to","type":"address","internalType":"address"}],"outputs":[{"name":"","type":"uint256","internalType":"uint256"}],"stateMutability":"nonpayable"},{"type":"function","name":"maxDeposit","inputs":[{"name":"","type":"address","internalType":"address"}],"outputs":[{"name":"","type":"uint256","internalType":"uint256"}],"stateMutability":"view"},{"type":"function","name":"maxMint","inputs":[{"name":"","type":"address","internalType":"address"}],"outputs":[{"name":"","type":"uint256","internalType":"uint256"}],"stateMutability":"view"},{"type":"function","name":"maxRedeem","inputs":[{"name":"owner","type":"address","internalType":"address"}],"outputs":[{"name":"","type":"uint256","internalType":"uint256"}],"stateMutability":"view"},{"type":"function","name":"maxWithdraw","inputs":[{"name":"owner","type":"address","internalType":"address"}],"outputs":[{"name":"","type":"uint256","internalType":"uint256"}],"stateMutability":"view"},{"type":"function","name":"mint","inputs":[{"name":"shares","type":"uint256","internalType":"uint256"},{"name":"receiver","type":"address","internalType":"address"}],"outputs":[{"name":"","type":"uint256","internalType":"uint256"}],"stateMutability":"nonpayable"},{"type":"function","name":"name","inputs":[],"outputs":[{"name":"","type":"string","internalType":"string"}],"stateMutability":"view"},{"type":"function","name":"previewDeposit","inputs":[{"name":"assets","type":"uint256","internalType":"uint256"}],"outputs":[{"name":"","type":"uint256","internalType":"uint256"}],"stateMutability":"view"},{"type":"function","name":"previewMint","inputs":[{"name":"shares","type":"uint256","internalType":"uint256"}],"outputs":[{"name":"","type":"uint256","internalType":"uint256"}],"stateMutability":"view"},{"type":"function","name":"previewRedeem","inputs":[{"name":"shares","type":"uint256","internalType":"uint256"}],"outputs":[{"name":"","type":"uint256","internalType":"uint256"}],"stateMutability":"view"},{"type":"function","name":"previewWithdraw","inputs":[{"name":"assets","type":"uint256","internalType":"uint256"}],"outputs":[{"name":"","type":"uint256","internalType":"uint256"}],"stateMutability":"view"},{"type":"function","name":"redeem","inputs":[{"name":"shares","type":"uint256","internalType":"uint256"},{"name":"receiver","type":"address","internalType":"address"},{"name":"owner","type":"address","internalType":"address"}],"outputs":[{"name":"","type":"uint256","internalType":"uint256"}],"stateMutability":"nonpayable"},{"type":"function","name":"setTriggerReentrancy","inputs":[{"name":"newStatus","type":"bool","internalType":"bool"}],"outputs":[],"stateMutability":"nonpayable"},{"type":"function","name":"symbol","inputs":[],"outputs":[{"name":"","type":"string","internalType":"string"}],"stateMutability":"view"},{"type":"function","name":"totalAssets","inputs":[],"outputs":[{"name":"","type":"uint256","internalType":"uint256"}],"stateMutability":"view"},{"type":"function","name":"totalSupply","inputs":[],"outputs":[{"name":"","type":"uint256","internalType":"uint256"}],"stateMutability":"view"},{"type":"function","name":"transfer","inputs":[{"name":"to","type":"address","internalType":"address"},{"name":"value","type":"uint256","internalType":"uint256"}],"outputs":[{"name":"","type":"bool","internalType":"bool"}],"stateMutability":"nonpayable"},{"type":"function","name":"transferFrom","inputs":[{"name":"from","type":"address","internalType":"address"},{"name":"to","type":"address","internalType":"address"},{"name":"value","type":"uint256","internalType":"uint256"}],"outputs":[{"name":"","type":"bool","internalType":"bool"}],"stateMutability":"nonpayable"},{"type":"function","name":"withdraw","inputs":[{"name":"amount","type":"uint256","internalType":"uint256"},{"name":"recipient","type":"address","internalType":"address"},{"name":"owner","type":"address","internalType":"address"}],"outputs":[{"name":"","type":"uint256","internalType":"uint256"}],"stateMutability":"nonpayable"},{"type":"event","name":"Approval","inputs":[{"name":"owner","type":"address","indexed":true,"internalType":"address"},{"name":"spender","type":"address","indexed":true,"internalType":"address"},{"name":"value","type":"uint256","indexed":false,"internalType":"uint256"}],"anonymous":false},{"type":"event","name":"Deposit","inputs":[{"name":"sender","type":"address","indexed":true,"internalType":"address"},{"name":"owner","type":"address","indexed":true,"internalType":"address"},{"name":"assets","type":"uint256","indexed":false,"internalType":"uint256"},{"name":"shares","type":"uint256","indexed":false,"internalType":"uint256"}],"anonymous":false},{"type":"event","name":"Transfer","inputs":[{"name":"from","type":"address","indexed":true,"internalType":"address"},{"name":"to","type":"address","indexed":true,"internalType":"address"},{"name":"value","type":"uint256","indexed":false,"internalType":"uint256"}],"anonymous":false},{"type":"event","name":"Withdraw","inputs":[{"name":"sender","type":"address","indexed":true,"internalType":"address"},{"name":"receiver","type":"address","indexed":true,"internalType":"address"},{"name":"owner","type":"address","indexed":true,"internalType":"address"},{"name":"assets","type":"uint256","indexed":false,"internalType":"uint256"},{"name":"shares","type":"uint256","indexed":false,"internalType":"uint256"}],"anonymous":false},{"type":"error","name":"ERC20InsufficientAllowance","inputs":[{"name":"spender","type":"address","internalType":"address"},{"name":"allowance","type":"uint256","internalType":"uint256"},{"name":"needed","type":"uint256","internalType":"uint256"}]},{"type":"error","name":"ERC20InsufficientBalance","inputs":[{"name":"sender","type":"address","internalType":"address"},{"name":"balance","type":"uint256","internalType":"uint256"},{"name":"needed","type":"uint256","internalType":"uint256"}]},{"type":"error","name":"ERC20InvalidApprover","inputs":[{"name":"approver","type":"address","internalType":"address"}]},{"type":"error","name":"ERC20InvalidReceiver","inputs":[{"name":"receiver","type":"address","internalType":"address"}]},{"type":"error","name":"ERC20InvalidSender","inputs":[{"name":"sender","type":"address","internalType":"address"}]},{"type":"error","name":"ERC20InvalidSpender","inputs":[{"name":"spender","type":"address","internalType":"address"}]},{"type":"error","name":"ERC4626ExceededMaxDeposit","inputs":[{"name":"receiver","type":"address","internalType":"address"},{"name":"assets","type":"uint256","internalType":"uint256"},{"name":"max","type":"uint256","internalType":"uint256"}]},{"type":"error","name":"ERC4626ExceededMaxMint","inputs":[{"name":"receiver","type":"address","internalType":"address"},{"name":"shares","type":"uint256","internalType":"uint256"},{"name":"max","type":"uint256","internalType":"uint256"}]},{"type":"error","name":"ERC4626ExceededMaxRedeem","inputs":[{"name":"owner","type":"address","internalType":"address"},{"name":"shares","type":"uint256","internalType":"uint256"},{"name":"max","type":"uint256","internalType":"uint256"}]},{"type":"error","name":"ERC4626ExceededMaxWithdraw","inputs":[{"name":"owner","type":"address","internalType":"address"},{"name":"assets","type":"uint256","internalType":"uint256"},{"name":"max","type":"uint256","internalType":"uint256"}]},{"type":"error","name":"SafeERC20FailedOperation","inputs":[{"name":"token","type":"address","internalType":"address"}]}],"bytecode":{"object":"0x60c060405234801561000f575f5ffd5b50604051611c37380380611c3783398101604081905261002e916101dc565b808383600361003d83826102e5565b50600461004a82826102e5565b5050505f5f61005e8361008d60201b60201c565b915091508161006e576012610070565b805b60ff1660a05250506001600160a01b03166080525061039f915050565b5f808061009960405190565b6040805160048152602481019091526020810180516001600160e01b0390811663313ce56760e01b179091529192505f9182916100d99188919061011e16565b5090925090506100e883604052565b8180156100f6575060203d10155b8015610103575060ff8111155b61010e575f5f610112565b6001815b94509450505050915091565b5f5f5f60405f855160208701885afa92505f51915060205190509250925092565b634e487b7160e01b5f52604160045260245ffd5b5f82601f830112610162575f5ffd5b81516001600160401b0381111561017b5761017b61013f565b604051601f8201601f19908116603f011681016001600160401b03811182821017156101a9576101a961013f565b6040528181528382016020018510156101c0575f5ffd5b8160208501602083015e5f918101602001919091529392505050565b5f5f5f606084860312156101ee575f5ffd5b83516001600160401b03811115610203575f5ffd5b61020f86828701610153565b602086015190945090506001600160401b0381111561022c575f5ffd5b61023886828701610153565b604086015190935090506001600160a01b0381168114610256575f5ffd5b809150509250925092565b600181811c9082168061027557607f821691505b60208210810361029357634e487b7160e01b5f52602260045260245ffd5b50919050565b601f8211156102e057805f5260205f20601f840160051c810160208510156102be5750805b601f840160051c820191505b818110156102dd575f81556001016102ca565b50505b505050565b81516001600160401b038111156102fe576102fe61013f565b6103128161030c8454610261565b84610299565b6020601f821160018114610344575f831561032d5750848201515b5f19600385901b1c1916600184901b1784556102dd565b5f84815260208120601f198516915b828110156103735787850151825560209485019460019092019101610353565b508482101561039057868401515f19600387901b60f8161c191681555b50505050600190811b01905550565b60805160a0516118626103d55f395f610a7601525f81816102710152818161043f01528181610fe101526110c501526118625ff3fe608060405234801561000f575f5ffd5b50600436106101a5575f3560e01c806370a08231116100e8578063ba08765211610093578063ce96cb771161006e578063ce96cb77146103d1578063d905777e146103e4578063dd62ed3e146103f7578063ef8b30f7146103be575f5ffd5b8063ba087652146103ab578063c63d75b61461029b578063c6e6f592146103be575f5ffd5b8063a9059cbb116100c3578063a9059cbb14610372578063b3d7f6b914610385578063b460af9414610398575f5ffd5b806370a082311461032257806394bf804d1461035757806395d89b411461036a575f5ffd5b806323b872dd11610153578063402d267d1161012e578063402d267d1461029b5780634cdad506146101d95780635ac9427d146102ce5780636e553f651461030f575f5ffd5b806323b872dd1461022a578063313ce5671461023d57806338d52e0f14610257575f5ffd5b8063095ea7b311610183578063095ea7b3146101ec5780630a28a4771461020f57806318160ddd14610222575f5ffd5b806301e1d114146101a957806306fdde03146101c457806307a2d13a146101d9575b5f5ffd5b6101b161043c565b6040519081526020015b60405180910390f35b6101cc6104f1565b6040516101bb91906113e5565b6101b16101e7366004611438565b610581565b6101ff6101fa366004611477565b610592565b60405190151581526020016101bb565b6101b161021d366004611438565b6105a9565b6002546101b1565b6101ff61023836600461149f565b6105b5565b6102456105da565b60405160ff90911681526020016101bb565b60405173ffffffffffffffffffffffffffffffffffffffff7f00000000000000000000000000000000000000000000000000000000000000001681526020016101bb565b6101b16102a93660046114d9565b507fffffffffffffffffffffffffffffffffffffffffffffffffffffffffffffffff90565b61030d6102dc3660046114f2565b600580547fffffffffffffffffffffffffffffffffffffffffffffffffffffffffffffff0016911515919091179055565b005b6101b161031d366004611511565b6105e3565b6101b16103303660046114d9565b73ffffffffffffffffffffffffffffffffffffffff165f9081526020819052604090205490565b6101b1610365366004611511565b61068d565b6101cc6106dd565b6101ff610380366004611477565b6106ec565b6101b1610393366004611438565b6106f9565b6101b16103a636600461153b565b610705565b6101b16103b936600461153b565b6107b2565b6101b16103cc366004611438565b610841565b6101b16103df3660046114d9565b61084c565b6101b16103f23660046114d9565b610855565b6101b1610405366004611574565b73ffffffffffffffffffffffffffffffffffffffff9182165f90815260016020908152604080832093909416825291909152205490565b5f7f00000000000000000000000000000000000000000000000000000000000000006040517f70a0823100000000000000000000000000000000000000000000000000000000815230600482015273ffffffffffffffffffffffffffffffffffffffff91909116906370a0823190602401602060405180830381865afa1580156104c8573d5f5f3e3d5ffd5b505050506040513d601f19601f820116820180604052508101906104ec919061159c565b905090565b606060038054610500906115b3565b80601f016020809104026020016040519081016040528092919081815260200182805461052c906115b3565b80156105775780601f1061054e57610100808354040283529160200191610577565b820191905f5260205f20905b81548152906001019060200180831161055a57829003601f168201915b5050505050905090565b5f61058c825f61087f565b92915050565b5f3361059f8185856108b7565b5060019392505050565b5f61058c8260016108c9565b5f336105c28582856108f8565b6105cd8585856109c6565b60019150505b9392505050565b5f6104ec610a6f565b6005545f90339060ff161561067b576040517f47e7ef240000000000000000000000000000000000000000000000000000000081523060048201525f602482015273ffffffffffffffffffffffffffffffffffffffff8216906347e7ef24906044015f604051808303815f87803b15801561065c575f5ffd5b505af115801561066e573d5f5f3e3d5ffd5b505050505f91505061058c565b6106858484610a9a565b91505061058c565b5f7fffffffffffffffffffffffffffffffffffffffffffffffffffffffffffffffff6106bd565b60405180910390fd5b5f6106c7856106f9565b90506106d533858388610ad0565b949350505050565b606060048054610500906115b3565b5f3361059f8185856109c6565b5f61058c82600161087f565b6005545f90339060ff161561079f576040517ff3fef3a3000000000000000000000000000000000000000000000000000000008152600260048201526001602482015273ffffffffffffffffffffffffffffffffffffffff82169063f3fef3a3906044015f604051808303815f87803b158015610780575f5ffd5b505af1158015610792573d5f5f3e3d5ffd5b505050505f9150506105d3565b6107aa858585610b5a565b9150506105d3565b5f5f6107bd83610855565b90508085111561081f576040517fb94abeec00000000000000000000000000000000000000000000000000000000815273ffffffffffffffffffffffffffffffffffffffff8416600482015260248101869052604481018290526064016106b4565b5f61082986610581565b9050610838338686848a610bdc565b95945050505050565b5f61058c825f6108c9565b5f61058c6101e7835b73ffffffffffffffffffffffffffffffffffffffff81165f9081526020819052604081205461058c565b5f6105d361088b61043c565b610896906001611631565b6108a15f600a611765565b6002546108ae9190611631565b85919085610cbc565b6108c48383836001610cfe565b505050565b5f6105d36108d882600a611765565b6002546108e59190611631565b6108ed61043c565b6108ae906001611631565b73ffffffffffffffffffffffffffffffffffffffff8381165f908152600160209081526040808320938616835292905220547fffffffffffffffffffffffffffffffffffffffffffffffffffffffffffffffff8110156109c057818110156109b2576040517ffb8f41b200000000000000000000000000000000000000000000000000000000815273ffffffffffffffffffffffffffffffffffffffff8416600482015260248101829052604481018390526064016106b4565b6109c084848484035f610cfe565b50505050565b73ffffffffffffffffffffffffffffffffffffffff8316610a15576040517f96c6fd1e0000000000000000000000000000000000000000000000000000000081525f60048201526024016106b4565b73ffffffffffffffffffffffffffffffffffffffff8216610a64576040517fec442f050000000000000000000000000000000000000000000000000000000081525f60048201526024016106b4565b6108c4838383610e35565b5f6104ec817f0000000000000000000000000000000000000000000000000000000000000000611773565b5f7fffffffffffffffffffffffffffffffffffffffffffffffffffffffffffffffff5f610ac685610841565b90506106d5338587845b610ada8483610fdc565b610ae4838261100c565b8273ffffffffffffffffffffffffffffffffffffffff168473ffffffffffffffffffffffffffffffffffffffff167fdcbc1c05240f31ff3ad067ef1ee35ce4997762752e3a095284754544f4c709d78484604051610b4c929190918252602082015260400190565b60405180910390a350505050565b5f5f610b658361084c565b905080851115610bc7576040517ffe9cceec00000000000000000000000000000000000000000000000000000000815273ffffffffffffffffffffffffffffffffffffffff8416600482015260248101869052604481018290526064016106b4565b5f610bd1866105a9565b905061083833868689855b8273ffffffffffffffffffffffffffffffffffffffff168573ffffffffffffffffffffffffffffffffffffffff1614610c1a57610c1a8386836108f8565b610c248382611066565b610c2e84836110c0565b8273ffffffffffffffffffffffffffffffffffffffff168473ffffffffffffffffffffffffffffffffffffffff168673ffffffffffffffffffffffffffffffffffffffff167ffbde797d201c681b91056529119e0b02407c7bb96a4a2c75c01fc9667232c8db8585604051610cad929190918252602082015260400190565b60405180910390a45050505050565b5f610ce9610cc9836110eb565b8015610ce457505f8480610cdf57610cdf61178c565b868809115b151590565b610cf4868686611117565b6108389190611631565b73ffffffffffffffffffffffffffffffffffffffff8416610d4d576040517fe602df050000000000000000000000000000000000000000000000000000000081525f60048201526024016106b4565b73ffffffffffffffffffffffffffffffffffffffff8316610d9c576040517f94280d620000000000000000000000000000000000000000000000000000000081525f60048201526024016106b4565b73ffffffffffffffffffffffffffffffffffffffff8085165f90815260016020908152604080832093871683529290522082905580156109c0578273ffffffffffffffffffffffffffffffffffffffff168473ffffffffffffffffffffffffffffffffffffffff167f8c5be1e5ebec7d5bd14f71427d1e84f3dd0314c0f7b2291e5b200ac8c7c3b92584604051610b4c91815260200190565b73ffffffffffffffffffffffffffffffffffffffff8316610e6c578060025f828254610e619190611631565b90915550610f1c9050565b73ffffffffffffffffffffffffffffffffffffffff83165f9081526020819052604090205481811015610ef1576040517fe450d38c00000000000000000000000000000000000000000000000000000000815273ffffffffffffffffffffffffffffffffffffffff8516600482015260248101829052604481018390526064016106b4565b73ffffffffffffffffffffffffffffffffffffffff84165f9081526020819052604090209082900390555b73ffffffffffffffffffffffffffffffffffffffff8216610f4557600280548290039055610f70565b73ffffffffffffffffffffffffffffffffffffffff82165f9081526020819052604090208054820190555b8173ffffffffffffffffffffffffffffffffffffffff168373ffffffffffffffffffffffffffffffffffffffff167fddf252ad1be2c89b69c2b068fc378daa952ba7f163c4a11628f55a4df523b3ef83604051610fcf91815260200190565b60405180910390a3505050565b6110087f00000000000000000000000000000000000000000000000000000000000000008330846111c7565b5050565b73ffffffffffffffffffffffffffffffffffffffff821661105b576040517fec442f050000000000000000000000000000000000000000000000000000000081525f60048201526024016106b4565b6110085f8383610e35565b73ffffffffffffffffffffffffffffffffffffffff82166110b5576040517f96c6fd1e0000000000000000000000000000000000000000000000000000000081525f60048201526024016106b4565b611008825f83610e35565b6110087f00000000000000000000000000000000000000000000000000000000000000008383611223565b5f6002826003811115611100576111006117b9565b61110a91906117e6565b60ff166001149050919050565b5f5f5f611124868661127e565b91509150815f036111485783818161113e5761113e61178c565b04925050506105d3565b81841161115f5761115f60038515026011186112b9565b5f848688095f868103871696879004966002600389028118808a02820302808a02820302808a02820302808a02820302808a02820302808a02909103029181900381900460010185841190960395909502919093039390930492909217029150509392505050565b6111d58484848460016112ca565b6109c0576040517f5274afe700000000000000000000000000000000000000000000000000000000815273ffffffffffffffffffffffffffffffffffffffff851660048201526024016106b4565b611230838383600161135d565b6108c4576040517f5274afe700000000000000000000000000000000000000000000000000000000815273ffffffffffffffffffffffffffffffffffffffff841660048201526024016106b4565b5f807fffffffffffffffffffffffffffffffffffffffffffffffffffffffffffffffff83850993909202808410938190039390930393915050565b634e487b715f52806020526024601cfd5b6040517f23b872dd000000000000000000000000000000000000000000000000000000005f81815273ffffffffffffffffffffffffffffffffffffffff8781166004528616602452604485905291602083606481808c5af1925060015f5114831661134c578383151615611340573d5f823e3d81fd5b5f883b113d1516831692505b604052505f60605295945050505050565b6040517fa9059cbb000000000000000000000000000000000000000000000000000000005f81815273ffffffffffffffffffffffffffffffffffffffff8616600452602485905291602083604481808b5af1925060015f511483166113d95783831516156113cd573d5f823e3d81fd5b5f873b113d1516831692505b60405250949350505050565b602081525f82518060208401528060208501604085015e5f6040828501015260407fffffffffffffffffffffffffffffffffffffffffffffffffffffffffffffffe0601f83011684010191505092915050565b5f60208284031215611448575f5ffd5b5035919050565b803573ffffffffffffffffffffffffffffffffffffffff81168114611472575f5ffd5b919050565b5f5f60408385031215611488575f5ffd5b6114918361144f565b946020939093013593505050565b5f5f5f606084860312156114b1575f5ffd5b6114ba8461144f565b92506114c86020850161144f565b929592945050506040919091013590565b5f602082840312156114e9575f5ffd5b6105d38261144f565b5f60208284031215611502575f5ffd5b813580151581146105d3575f5ffd5b5f5f60408385031215611522575f5ffd5b823591506115326020840161144f565b90509250929050565b5f5f5f6060848603121561154d575f5ffd5b8335925061155d6020850161144f565b915061156b6040850161144f565b90509250925092565b5f5f60408385031215611585575f5ffd5b61158e8361144f565b91506115326020840161144f565b5f602082840312156115ac575f5ffd5b5051919050565b600181811c908216806115c757607f821691505b6020821081036115fe577f4e487b71000000000000000000000000000000000000000000000000000000005f52602260045260245ffd5b50919050565b7f4e487b71000000000000000000000000000000000000000000000000000000005f52601160045260245ffd5b8082018082111561058c5761058c611604565b6001815b600184111561167f5780850481111561166357611663611604565b600184161561167157908102905b60019390931c928002611648565b935093915050565b5f826116955750600161058c565b816116a157505f61058c565b81600181146116b757600281146116c1576116dd565b600191505061058c565b60ff8411156116d2576116d2611604565b50506001821b61058c565b5060208310610133831016604e8410600b8410161715611700575081810a61058c565b61172b7fffffffffffffffffffffffffffffffffffffffffffffffffffffffffffffffff8484611644565b807fffffffffffffffffffffffffffffffffffffffffffffffffffffffffffffffff0482111561175d5761175d611604565b029392505050565b5f6105d360ff841683611687565b60ff818116838216019081111561058c5761058c611604565b7f4e487b71000000000000000000000000000000000000000000000000000000005f52601260045260245ffd5b7f4e487b71000000000000000000000000000000000000000000000000000000005f52602160045260245ffd5b5f60ff83168061181d577f4e487b71000000000000000000000000000000000000000000000000000000005f52601260045260245ffd5b8060ff8416069150509291505056fea2646970667358221220550b7a3615b8cac1bb16bf10017cf62bd2e7c9d8374b2611d28a16fe668c849164736f6c634300081e0033","linkReferences":{}},"methodIdentifiers":{"allowance(address,address)":"dd62ed3e","approve(address,uint256)":"095ea7b3","asset()":"38d52e0f","balanceOf(address)":"70a08231","convertToAssets(uint256)":"07a2d13a","convertToShares(uint256)":"c6e6f592","decimals()":"313ce567","deposit(uint256,address)":"6e553f65","maxDeposit(address)":"402d267d","maxMint(address)":"c63d75b6","maxRedeem(address)":"d905777e","maxWithdraw(address)":"ce96cb77","mint(uint256,address)":"94bf804d","name()":"06fdde03","previewDeposit(uint256)":"ef8b30f7","previewMint(uint256)":"b3d7f6b9","previewRedeem(uint256)":"4cdad506","previewWithdraw(uint256)":"0a28a477","redeem(uint256,address,address)":"ba087652","setTriggerReentrancy(bool)":"5ac9427d","symbol()":"95d89b41","totalAssets()":"01e1d114","totalSupply()":"18160ddd","transfer(address,uint256)":"a9059cbb","transferFrom(address,address,uint256)":"23b872dd","withdraw(uint256,address,address)":"b460af94"},"id":201}