{"abi":[{"type":"constructor","inputs":[{"name":"staking_","type":"address","internalType":"address"},{"name":"asset_","type":"address","internalType":"address"}],"stateMutability":"nonpayable"},{"type":"function","name":"staking","inputs":[],"outputs":[{"name":"","type":"address","internalType":"address"}],"stateMutability":"view"},{"type":"function","name":"withdraw","inputs":[{"name":"to","type":"address","internalType":"address"},{"name":"amount","type":"uint256","internalType":"uint256"}],"outputs":[],"stateMutability":"nonpayable"},{"type":"error","name":"OnlyStaking","inputs":[]},{"type":"error","name":"SafeERC20FailedOperation","inputs":[{"name":"token","type":"address","internalType":"address"}]}],"bytecode":{"object":"0x60c060405234801561000f575f5ffd5b5060405161036c38038061036c83398101604081905261002e91610060565b6001600160a01b039182166080521660a052610091565b80516001600160a01b038116811461005b575f5ffd5b919050565b5f5f60408385031215610071575f5ffd5b61007a83610045565b915061008860208401610045565b90509250929050565b60805160a0516102b56100b75f395f61012601525f8181603d015260b501526102b55ff3fe608060405234801561000f575f5ffd5b5060043610610034575f3560e01c80634cf088d914610038578063f3fef3a314610088575b5f5ffd5b61005f7f000000000000000000000000000000000000000000000000000000000000000081565b60405173ffffffffffffffffffffffffffffffffffffffff909116815260200160405180910390f35b61009b61009636600461023d565b61009d565b005b3373ffffffffffffffffffffffffffffffffffffffff7f0000000000000000000000000000000000000000000000000000000000000000161461010c576040517f3d70476200000000000000000000000000000000000000000000000000000000815260040160405180910390fd5b61014d73ffffffffffffffffffffffffffffffffffffffff7f0000000000000000000000000000000000000000000000000000000000000000168383610151565b5050565b61015e83838360016101b5565b6101b0576040517f5274afe700000000000000000000000000000000000000000000000000000000815273ffffffffffffffffffffffffffffffffffffffff8416600482015260240160405180910390fd5b505050565b6040517fa9059cbb000000000000000000000000000000000000000000000000000000005f81815273ffffffffffffffffffffffffffffffffffffffff8616600452602485905291602083604481808b5af1925060015f51148316610231578383151615610225573d5f823e3d81fd5b5f873b113d1516831692505b60405250949350505050565b5f5f6040838503121561024e575f5ffd5b823573ffffffffffffffffffffffffffffffffffffffff81168114610271575f5ffd5b94602093909301359350505056fea2646970667358221220d8582d96e520ec3c4cd438589b19df4654106fd42bac58ac7c84e956b3a405fc64736f6c634300081e0033","linkReferences":{}},"methodIdentifiers":{"staking()":"4cf088d9","withdraw(address,uint256)":"f3fef3a3"},"id":137}