{"abi":[{"type":"function","name":"assignJob","inputs":[{"name":"","type":"uint32","internalType":"uint32"},{"name":"","type":"address","internalType":"address"},{"name":"","type":"uint256","internalType":"uint256"},{"name":"","type":"bytes","internalType":"bytes"}],"outputs":[{"name":"price","type":"uint256","internalType":"uint256"}],"stateMutability":"pure"},{"type":"function","name":"getFee","inputs":[{"name":"","type":"uint32","internalType":"uint32"},{"name":"","type":"address","internalType":"address"},{"name":"","type":"uint256","internalType":"uint256"},{"name":"","type":"bytes","internalType":"bytes"}],"outputs":[{"name":"price","type":"uint256","internalType":"uint256"}],"stateMutability":"pure"}],"bytecode":{"object":"0x6080604052348015600e575f5ffd5b506101518061001c5f395ff3fe608060405234801561000f575f5ffd5b5060043610610034575f3560e01c8063709eb66414610038578063717e8a4214610038575b5f5ffd5b610050610046366004610062565b5f95945050505050565b60405190815260200160405180910390f35b5f5f5f5f5f60808688031215610076575f5ffd5b853563ffffffff81168114610089575f5ffd5b9450602086013573ffffffffffffffffffffffffffffffffffffffff811681146100b1575f5ffd5b935060408601359250606086013567ffffffffffffffff8111156100d3575f5ffd5b8601601f810188136100e3575f5ffd5b803567ffffffffffffffff8111156100f9575f5ffd5b88602082840101111561010a575f5ffd5b95989497509295505050602001919056fea2646970667358221220e12878c0bb3ca0a1143c677849e5282f90536c438b381c64ed5ebd98d8b5f3f364736f6c634300081e0033","linkReferences":{}},"methodIdentifiers":{"assignJob(uint32,address,uint256,bytes)":"717e8a42","getFee(uint32,address,uint256,bytes)":"709eb664"},"id":199}