{"abi":[{"type":"function","name":"getAnswer","inputs":[{"name":"roundId","type":"uint256","internalType":"uint256"}],"outputs":[{"name":"","type":"int256","internalType":"int256"}],"stateMutability":"view"},{"type":"function","name":"getTimestamp","inputs":[{"name":"roundId","type":"uint256","internalType":"uint256"}],"outputs":[{"name":"","type":"uint256","internalType":"uint256"}],"stateMutability":"view"},{"type":"function","name":"latestAnswer","inputs":[],"outputs":[{"name":"","type":"int256","internalType":"int256"}],"stateMutability":"view"},{"type":"function","name":"latestRound","inputs":[],"outputs":[{"name":"","type":"uint256","internalType":"uint256"}],"stateMutability":"view"},{"type":"function","name":"latestTimestamp","inputs":[],"outputs":[{"name":"","type":"uint256","internalType":"uint256"}],"stateMutability":"view"},{"type":"function","name":"setAnswer","inputs":[{"name":"newAnswer","type":"uint256","internalType":"uint256"}],"outputs":[],"stateMutability":"nonpayable"},{"type":"event","name":"AnswerUpdated","inputs":[{"name":"current","type":"int256","indexed":true,"internalType":"int256"},{"name":"roundId","type":"uint256","indexed":true,"internalType":"uint256"},{"name":"updatedAt","type":"uint256","indexed":false,"internalType":"uint256"}],"anonymous":false},{"type":"event","name":"NewRound","inputs":[{"name":"roundId","type":"uint256","indexed":true,"internalType":"uint256"},{"name":"startedBy","type":"address","indexed":true,"internalType":"address"},{"name":"startedAt","type":"uint256","indexed":false,"internalType":"uint256"}],"anonymous":false},{"type":"error","name":"SafeCastOverflowedUintToInt","inputs":[{"name":"value","type":"uint256","internalType":"uint256"}]}],"bytecode":{"object":"0x6080604052348015600e575f5ffd5b506101bd8061001c5f395ff3fe608060405234801561000f575f5ffd5b506004361061006f575f3560e01c806385a013e01161004d57806385a013e01461008e578063b5ab58dc146100a3578063b633620c146100a3575f5ffd5b806350d25bcd14610073578063668a0f02146100885780638205bf6a14610088575b5f5ffd5b5f545b60405190815260200160405180910390f35b5f610076565b6100a161009c366004610138565b6100b6565b005b6100766100b1366004610138565b505f90565b6100cd6100c86402540be4008361014f565b6100d2565b5f5550565b5f7f7fffffffffffffffffffffffffffffffffffffffffffffffffffffffffffffff821115610134576040517f24775e060000000000000000000000000000000000000000000000000000000081526004810183905260240160405180910390fd5b5090565b5f60208284031215610148575f5ffd5b5035919050565b5f82610182577f4e487b71000000000000000000000000000000000000000000000000000000005f52601260045260245ffd5b50049056fea26469706673582212206ff299986e67bb9f148b95d6d33ef6b85c3d3a5069c2df5a96e1ae62951c788364736f6c634300081e0033","linkReferences":{}},"methodIdentifiers":{"getAnswer(uint256)":"b5ab58dc","getTimestamp(uint256)":"b633620c","latestAnswer()":"50d25bcd","latestRound()":"668a0f02","latestTimestamp()":"8205bf6a","setAnswer(uint256)":"85a013e0"},"id":194}