{"abi":[{"type":"constructor","inputs":[{"name":"asset_","type":"address","internalType":"address"},{"name":"ratio_","type":"uint256","internalType":"uint256"},{"name":"custodian_","type":"address","internalType":"address"},{"name":"owner_","type":"address","internalType":"address"}],"stateMutability":"nonpayable"},{"type":"function","name":"ADMIN_ROLE","inputs":[],"outputs":[{"name":"","type":"bytes32","internalType":"bytes32"}],"stateMutability":"view"},{"type":"function","name":"DEFAULT_ADMIN_ROLE","inputs":[],"outputs":[{"name":"","type":"bytes32","internalType":"bytes32"}],"stateMutability":"view"},{"type":"function","name":"GATEKEEPER_ROLE","inputs":[],"outputs":[{"name":"","type":"bytes32","internalType":"bytes32"}],"stateMutability":"view"},{"type":"function","name":"MAGICVALUE","inputs":[],"outputs":[{"name":"","type":"bytes4","internalType":"bytes4"}],"stateMutability":"view"},{"type":"function","name":"MINTER_ROLE","inputs":[],"outputs":[{"name":"","type":"bytes32","internalType":"bytes32"}],"stateMutability":"view"},{"type":"function","name":"SIGNER_MANAGER_ROLE","inputs":[],"outputs":[{"name":"","type":"bytes32","internalType":"bytes32"}],"stateMutability":"view"},{"type":"function","name":"VERSION","inputs":[],"outputs":[{"name":"","type":"string","internalType":"string"}],"stateMutability":"view"},{"type":"function","name":"asset","inputs":[],"outputs":[{"name":"","type":"address","internalType":"address"}],"stateMutability":"view"},{"type":"function","name":"custodian","inputs":[],"outputs":[{"name":"","type":"address","internalType":"address"}],"stateMutability":"view"},{"type":"function","name":"delegates","inputs":[{"name":"","type":"address","internalType":"address"},{"name":"","type":"address","internalType":"address"}],"outputs":[{"name":"","type":"bool","internalType":"bool"}],"stateMutability":"view"},{"type":"function","name":"eip712Domain","inputs":[],"outputs":[{"name":"fields","type":"bytes1","internalType":"bytes1"},{"name":"name","type":"string","internalType":"string"},{"name":"version","type":"string","internalType":"string"},{"name":"chainId","type":"uint256","internalType":"uint256"},{"name":"verifyingContract","type":"address","internalType":"address"},{"name":"salt","type":"bytes32","internalType":"bytes32"},{"name":"extensions","type":"uint256[]","internalType":"uint256[]"}],"stateMutability":"view"},{"type":"function","name":"encodeOrder","inputs":[{"name":"order","type":"tuple","internalType":"struct IController.Order","components":[{"name":"order_type","type":"uint8","internalType":"enum IController.OrderType"},{"name":"nonce","type":"uint256","internalType":"uint256"},{"name":"expiry","type":"uint256","internalType":"uint256"},{"name":"payer","type":"address","internalType":"address"},{"name":"recipient","type":"address","internalType":"address"},{"name":"collateral_token","type":"address","internalType":"address"},{"name":"collateral_amount","type":"uint256","internalType":"uint256"},{"name":"asset_amount","type":"uint256","internalType":"uint256"}]}],"outputs":[{"name":"","type":"bytes","internalType":"bytes"}],"stateMutability":"pure"},{"type":"function","name":"getDomainSeparator","inputs":[],"outputs":[{"name":"","type":"bytes32","internalType":"bytes32"}],"stateMutability":"view"},{"type":"function","name":"getRoleAdmin","inputs":[{"name":"role","type":"bytes32","internalType":"bytes32"}],"outputs":[{"name":"","type":"bytes32","internalType":"bytes32"}],"stateMutability":"view"},{"type":"function","name":"grantRole","inputs":[{"name":"role","type":"bytes32","internalType":"bytes32"},{"name":"account","type":"address","internalType":"address"}],"outputs":[],"stateMutability":"nonpayable"},{"type":"function","name":"hasRole","inputs":[{"name":"role","type":"bytes32","internalType":"bytes32"},{"name":"account","type":"address","internalType":"address"}],"outputs":[{"name":"","type":"bool","internalType":"bool"}],"stateMutability":"view"},{"type":"function","name":"hashOrder","inputs":[{"name":"order","type":"tuple","internalType":"struct IController.Order","components":[{"name":"order_type","type":"uint8","internalType":"enum IController.OrderType"},{"name":"nonce","type":"uint256","internalType":"uint256"},{"name":"expiry","type":"uint256","internalType":"uint256"},{"name":"payer","type":"address","internalType":"address"},{"name":"recipient","type":"address","internalType":"address"},{"name":"collateral_token","type":"address","internalType":"address"},{"name":"collateral_amount","type":"uint256","internalType":"uint256"},{"name":"asset_amount","type":"uint256","internalType":"uint256"}]}],"outputs":[{"name":"digest","type":"bytes32","internalType":"bytes32"}],"stateMutability":"view"},{"type":"function","name":"isCollateral","inputs":[{"name":"","type":"address","internalType":"address"}],"outputs":[{"name":"","type":"bool","internalType":"bool"}],"stateMutability":"view"},{"type":"function","name":"isRestricted","inputs":[{"name":"","type":"address","internalType":"address"}],"outputs":[{"name":"","type":"bool","internalType":"bool"}],"stateMutability":"view"},{"type":"function","name":"manager","inputs":[],"outputs":[{"name":"","type":"address","internalType":"address"}],"stateMutability":"view"},{"type":"function","name":"mint","inputs":[{"name":"order","type":"tuple","internalType":"struct IController.Order","components":[{"name":"order_type","type":"uint8","internalType":"enum IController.OrderType"},{"name":"nonce","type":"uint256","internalType":"uint256"},{"name":"expiry","type":"uint256","internalType":"uint256"},{"name":"payer","type":"address","internalType":"address"},{"name":"recipient","type":"address","internalType":"address"},{"name":"collateral_token","type":"address","internalType":"address"},{"name":"collateral_amount","type":"uint256","internalType":"uint256"},{"name":"asset_amount","type":"uint256","internalType":"uint256"}]},{"name":"signature","type":"tuple","internalType":"struct IController.Signature","components":[{"name":"signature_type","type":"uint8","internalType":"enum IController.SignatureType"},{"name":"signature_bytes","type":"bytes","internalType":"bytes"}]}],"outputs":[],"stateMutability":"nonpayable"},{"type":"function","name":"multicall","inputs":[{"name":"data","type":"bytes[]","internalType":"bytes[]"}],"outputs":[],"stateMutability":"nonpayable"},{"type":"function","name":"oracle","inputs":[],"outputs":[{"name":"adapter","type":"address","internalType":"address"},{"name":"tolerance","type":"uint96","internalType":"uint96"}],"stateMutability":"view"},{"type":"function","name":"pauseStatus","inputs":[],"outputs":[{"name":"","type":"uint8","internalType":"enum IController.ControllerPauseStatus"}],"stateMutability":"view"},{"type":"function","name":"ratio","inputs":[],"outputs":[{"name":"","type":"uint256","internalType":"uint256"}],"stateMutability":"view"},{"type":"function","name":"recipients","inputs":[{"name":"","type":"address","internalType":"address"},{"name":"","type":"address","internalType":"address"}],"outputs":[{"name":"","type":"bool","internalType":"bool"}],"stateMutability":"view"},{"type":"function","name":"redeem","inputs":[{"name":"order","type":"tuple","internalType":"struct IController.Order","components":[{"name":"order_type","type":"uint8","internalType":"enum IController.OrderType"},{"name":"nonce","type":"uint256","internalType":"uint256"},{"name":"expiry","type":"uint256","internalType":"uint256"},{"name":"payer","type":"address","internalType":"address"},{"name":"recipient","type":"address","internalType":"address"},{"name":"collateral_token","type":"address","internalType":"address"},{"name":"collateral_amount","type":"uint256","internalType":"uint256"},{"name":"asset_amount","type":"uint256","internalType":"uint256"}]},{"name":"signature","type":"tuple","internalType":"struct IController.Signature","components":[{"name":"signature_type","type":"uint8","internalType":"enum IController.SignatureType"},{"name":"signature_bytes","type":"bytes","internalType":"bytes"}]}],"outputs":[],"stateMutability":"nonpayable"},{"type":"function","name":"renounceRole","inputs":[{"name":"role","type":"bytes32","internalType":"bytes32"},{"name":"callerConfirmation","type":"address","internalType":"address"}],"outputs":[],"stateMutability":"nonpayable"},{"type":"function","name":"rescueToken","inputs":[{"name":"token","type":"address","internalType":"address"},{"name":"to","type":"address","internalType":"address"}],"outputs":[],"stateMutability":"nonpayable"},{"type":"function","name":"revokeRole","inputs":[{"name":"role","type":"bytes32","internalType":"bytes32"},{"name":"account","type":"address","internalType":"address"}],"outputs":[],"stateMutability":"nonpayable"},{"type":"function","name":"setCustodian","inputs":[{"name":"newCustodian","type":"address","internalType":"address"}],"outputs":[],"stateMutability":"nonpayable"},{"type":"function","name":"setDelegateStatus","inputs":[{"name":"signer","type":"address","internalType":"address"},{"name":"status","type":"bool","internalType":"bool"}],"outputs":[],"stateMutability":"nonpayable"},{"type":"function","name":"setIsCollateral","inputs":[{"name":"collateral","type":"address","internalType":"address"},{"name":"status","type":"bool","internalType":"bool"}],"outputs":[],"stateMutability":"nonpayable"},{"type":"function","name":"setIsRestricted","inputs":[{"name":"account","type":"address","internalType":"address"},{"name":"status","type":"bool","internalType":"bool"}],"outputs":[],"stateMutability":"nonpayable"},{"type":"function","name":"setManager","inputs":[{"name":"newManager","type":"address","internalType":"address"}],"outputs":[],"stateMutability":"nonpayable"},{"type":"function","name":"setOracleAdapter","inputs":[{"name":"newAdapter","type":"address","internalType":"address"}],"outputs":[],"stateMutability":"nonpayable"},{"type":"function","name":"setOracleTolerance","inputs":[{"name":"newTolerance","type":"uint96","internalType":"uint96"}],"outputs":[],"stateMutability":"nonpayable"},{"type":"function","name":"setPauseStatus","inputs":[{"name":"status","type":"uint8","internalType":"enum IController.ControllerPauseStatus"}],"outputs":[],"stateMutability":"nonpayable"},{"type":"function","name":"setRatio","inputs":[{"name":"newRatio","type":"uint256","internalType":"uint256"}],"outputs":[],"stateMutability":"nonpayable"},{"type":"function","name":"setRecipientStatus","inputs":[{"name":"recipient","type":"address","internalType":"address"},{"name":"status","type":"bool","internalType":"bool"}],"outputs":[],"stateMutability":"nonpayable"},{"type":"function","name":"setSignerStatus","inputs":[{"name":"account","type":"address","internalType":"address"},{"name":"status","type":"bool","internalType":"bool"}],"outputs":[],"stateMutability":"nonpayable"},{"type":"function","name":"signers","inputs":[{"name":"","type":"address","internalType":"address"}],"outputs":[{"name":"","type":"bool","internalType":"bool"}],"stateMutability":"view"},{"type":"function","name":"supportsInterface","inputs":[{"name":"interfaceId","type":"bytes4","internalType":"bytes4"}],"outputs":[{"name":"","type":"bool","internalType":"bool"}],"stateMutability":"view"},{"type":"function","name":"verifyNonce","inputs":[{"name":"signer","type":"address","internalType":"address"},{"name":"nonce","type":"uint256","internalType":"uint256"}],"outputs":[],"stateMutability":"view"},{"type":"function","name":"verifyOrder","inputs":[{"name":"order","type":"tuple","internalType":"struct IController.Order","components":[{"name":"order_type","type":"uint8","internalType":"enum IController.OrderType"},{"name":"nonce","type":"uint256","internalType":"uint256"},{"name":"expiry","type":"uint256","internalType":"uint256"},{"name":"payer","type":"address","internalType":"address"},{"name":"recipient","type":"address","internalType":"address"},{"name":"collateral_token","type":"address","internalType":"address"},{"name":"collateral_amount","type":"uint256","internalType":"uint256"},{"name":"asset_amount","type":"uint256","internalType":"uint256"}]},{"name":"signature","type":"tuple","internalType":"struct IController.Signature","components":[{"name":"signature_type","type":"uint8","internalType":"enum IController.SignatureType"},{"name":"signature_bytes","type":"bytes","internalType":"bytes"}]}],"outputs":[{"name":"signer","type":"address","internalType":"address"},{"name":"orderHash","type":"bytes32","internalType":"bytes32"}],"stateMutability":"view"},{"type":"function","name":"version","inputs":[],"outputs":[{"name":"","type":"string","internalType":"string"}],"stateMutability":"pure"},{"type":"event","name":"CollateralStatusChanged","inputs":[{"name":"collateral","type":"address","indexed":true,"internalType":"address"},{"name":"status","type":"bool","indexed":false,"internalType":"bool"}],"anonymous":false},{"type":"event","name":"CustodianUpdated","inputs":[{"name":"newCustodian","type":"address","indexed":false,"internalType":"address"}],"anonymous":false},{"type":"event","name":"DelegateStatusChanged","inputs":[{"name":"signer","type":"address","indexed":true,"internalType":"address"},{"name":"payer","type":"address","indexed":true,"internalType":"address"},{"name":"status","type":"bool","indexed":false,"internalType":"bool"}],"anonymous":false},{"type":"event","name":"EIP712DomainChanged","inputs":[],"anonymous":false},{"type":"event","name":"ManagerUpdated","inputs":[{"name":"newManager","type":"address","indexed":false,"internalType":"address"}],"anonymous":false},{"type":"event","name":"Mint","inputs":[{"name":"signer","type":"address","indexed":true,"internalType":"address"},{"name":"nonce","type":"uint256","indexed":false,"internalType":"uint256"},{"name":"payer","type":"address","indexed":true,"internalType":"address"},{"name":"recipient","type":"address","indexed":true,"internalType":"address"},{"name":"collateralToken","type":"address","indexed":false,"internalType":"address"},{"name":"collateralAmount","type":"uint256","indexed":false,"internalType":"uint256"},{"name":"mintAmount","type":"uint256","indexed":false,"internalType":"uint256"}],"anonymous":false},{"type":"event","name":"MintRedeemPauseStatusChanged","inputs":[{"name":"status","type":"bool","indexed":false,"internalType":"bool"}],"anonymous":false},{"type":"event","name":"OracleAdapterUpdated","inputs":[{"name":"newAdapter","type":"address","indexed":false,"internalType":"address"}],"anonymous":false},{"type":"event","name":"OracleToleranceUpdated","inputs":[{"name":"newTolerance","type":"uint96","indexed":false,"internalType":"uint96"}],"anonymous":false},{"type":"event","name":"PauseStatusChanged","inputs":[{"name":"status","type":"uint8","indexed":false,"internalType":"enum IController.ControllerPauseStatus"}],"anonymous":false},{"type":"event","name":"RatioUpdated","inputs":[{"name":"newRatio","type":"uint256","indexed":false,"internalType":"uint256"}],"anonymous":false},{"type":"event","name":"RecipientStatusChanged","inputs":[{"name":"signer","type":"address","indexed":true,"internalType":"address"},{"name":"recipient","type":"address","indexed":true,"internalType":"address"},{"name":"status","type":"bool","indexed":false,"internalType":"bool"}],"anonymous":false},{"type":"event","name":"Redeem","inputs":[{"name":"signer","type":"address","indexed":true,"internalType":"address"},{"name":"nonce","type":"uint256","indexed":false,"internalType":"uint256"},{"name":"payer","type":"address","indexed":true,"internalType":"address"},{"name":"recipient","type":"address","indexed":true,"internalType":"address"},{"name":"collateralToken","type":"address","indexed":false,"internalType":"address"},{"name":"collateralAmount","type":"uint256","indexed":false,"internalType":"uint256"},{"name":"redeemAmount","type":"uint256","indexed":false,"internalType":"uint256"}],"anonymous":false},{"type":"event","name":"RestrictedStatusChanged","inputs":[{"name":"account","type":"address","indexed":true,"internalType":"address"},{"name":"isRestricted","type":"bool","indexed":false,"internalType":"bool"}],"anonymous":false},{"type":"event","name":"RoleAdminChanged","inputs":[{"name":"role","type":"bytes32","indexed":true,"internalType":"bytes32"},{"name":"previousAdminRole","type":"bytes32","indexed":true,"internalType":"bytes32"},{"name":"newAdminRole","type":"bytes32","indexed":true,"internalType":"bytes32"}],"anonymous":false},{"type":"event","name":"RoleGranted","inputs":[{"name":"role","type":"bytes32","indexed":true,"internalType":"bytes32"},{"name":"account","type":"address","indexed":true,"internalType":"address"},{"name":"sender","type":"address","indexed":true,"internalType":"address"}],"anonymous":false},{"type":"event","name":"RoleRevoked","inputs":[{"name":"role","type":"bytes32","indexed":true,"internalType":"bytes32"},{"name":"account","type":"address","indexed":true,"internalType":"address"},{"name":"sender","type":"address","indexed":true,"internalType":"address"}],"anonymous":false},{"type":"event","name":"SignerStatusChanged","inputs":[{"name":"signer","type":"address","indexed":true,"internalType":"address"},{"name":"status","type":"bool","indexed":false,"internalType":"bool"}],"anonymous":false},{"type":"error","name":"AccessControlBadConfirmation","inputs":[]},{"type":"error","name":"AccessControlUnauthorizedAccount","inputs":[{"name":"account","type":"address","internalType":"address"},{"name":"neededRole","type":"bytes32","internalType":"bytes32"}]},{"type":"error","name":"AccountRestricted","inputs":[]},{"type":"error","name":"CollateralNotSupported","inputs":[]},{"type":"error","name":"ECDSAInvalidSignature","inputs":[]},{"type":"error","name":"ECDSAInvalidSignatureLength","inputs":[{"name":"length","type":"uint256","internalType":"uint256"}]},{"type":"error","name":"ECDSAInvalidSignatureS","inputs":[{"name":"s","type":"bytes32","internalType":"bytes32"}]},{"type":"error","name":"ExceedsOracleDeltaTolerance","inputs":[]},{"type":"error","name":"FMLPause","inputs":[]},{"type":"error","name":"InvalidAssetAmount","inputs":[]},{"type":"error","name":"InvalidCollateralAmount","inputs":[]},{"type":"error","name":"InvalidCollateralDecimals","inputs":[]},{"type":"error","name":"InvalidERC1271Signature","inputs":[]},{"type":"error","name":"InvalidNonce","inputs":[]},{"type":"error","name":"InvalidOrderType","inputs":[]},{"type":"error","name":"InvalidPayer","inputs":[]},{"type":"error","name":"InvalidRatio","inputs":[]},{"type":"error","name":"InvalidRecipient","inputs":[]},{"type":"error","name":"InvalidShortString","inputs":[]},{"type":"error","name":"InvalidSigner","inputs":[]},{"type":"error","name":"MintRedeemPaused","inputs":[]},{"type":"error","name":"NewToleranceExceedsMax","inputs":[]},{"type":"error","name":"NonZeroAddress","inputs":[]},{"type":"error","name":"OrderExpired","inputs":[]},{"type":"error","name":"SafeERC20FailedOperation","inputs":[{"name":"token","type":"address","internalType":"address"}]},{"type":"error","name":"StringTooLong","inputs":[{"name":"str","type":"string","internalType":"string"}]}],"bytecode":{"object":"0x610180604052348015610010575f5ffd5b50604051613d96380380613d9683398101604081905261002f916102a3565b6040518060400160405280601081526020016f2a32b73134b721b7b73a3937b63632b960811b815250604051806040016040528060018152602001603160f81b81525061008660018361016960201b90919060201c565b61012052610095816002610169565b61014052815160208084019190912060e052815190820120610100524660a05261012160e05161010051604080517f8b73c3c69bb8fe3d512ecc4cf759cc79239f7b179b0ffacaa9a75d522b39400f60208201529081019290925260608201524660808201523060a08201525f9060c00160405160208183030381529060405280519060200120905090565b60805250503060c0526001600160a01b0384811661016052600a849055600b80546001600160a01b03191691841691909117905561015f5f8261019b565b5050505050610497565b5f6020835110156101845761017d83610242565b9050610195565b8161018f8482610385565b5060ff90505b92915050565b5f828152602081815260408083206001600160a01b038516845290915281205460ff1661023b575f838152602081815260408083206001600160a01b03861684529091529020805460ff191660011790556101f33390565b6001600160a01b0316826001600160a01b0316847f2f8788117e7eff1d82e926ec794901d17c78024a50270940304540a733656f0d60405160405180910390a4506001610195565b505f610195565b5f5f829050601f81511115610275578260405163305a27a960e01b815260040161026c919061043f565b60405180910390fd5b805161028082610474565b179392505050565b80516001600160a01b038116811461029e575f5ffd5b919050565b5f5f5f5f608085870312156102b6575f5ffd5b6102bf85610288565b9350602085015192506102d460408601610288565b91506102e260608601610288565b905092959194509250565b634e487b7160e01b5f52604160045260245ffd5b600181811c9082168061031557607f821691505b60208210810361033357634e487b7160e01b5f52602260045260245ffd5b50919050565b601f82111561038057805f5260205f20601f840160051c8101602085101561035e5750805b601f840160051c820191505b8181101561037d575f815560010161036a565b50505b505050565b81516001600160401b0381111561039e5761039e6102ed565b6103b2816103ac8454610301565b84610339565b6020601f8211600181146103e4575f83156103cd5750848201515b5f19600385901b1c1916600184901b17845561037d565b5f84815260208120601f198516915b8281101561041357878501518255602094850194600190920191016103f3565b508482101561043057868401515f19600387901b60f8161c191681555b50505050600190811b01905550565b602081525f82518060208401528060208501604085015e5f604082850101526040601f19601f83011684010191505092915050565b80516020808301519190811015610333575f1960209190910360031b1b16919050565b60805160a05160c05160e051610100516101205161014051610160516138966105005f395f818161042201528181611ac80152611f4901525f6129ca01525f61299d01525f612ad601525f612aae01525f612a0901525f612a3301525f612a5d01526138965ff3fe608060405234801561000f575f5ffd5b50600436106102f9575f3560e01c8063782e965211610192578063d28f70c9116100e8578063e584324211610093578063f4ee2a8b1161006e578063f4ee2a8b1461084d578063ff21882314610860578063ffa1ad74146108b8575f5ffd5b8063e584324214610805578063ed24911d14610832578063edb6d0751461083a575f5ffd5b8063d6fd3175116100c3578063d6fd31751461079e578063d77fa7ee146107c5578063d8f065bd146107f2575f5ffd5b8063d28f70c914610751578063d539139314610764578063d547741f1461078b575f5ffd5b806395165e8b11610148578063b2237ba311610123578063b2237ba314610709578063c01bc9821461071c578063d0ebdbe71461073e575f5ffd5b806395165e8b146106dc578063a217fddf146106ef578063ac9650d8146106f6575f5ffd5b806384b0196e1161017857806384b0196e1461066b5780638d0abcda1461068657806391d1485414610699575f5ffd5b8063782e9652146105c35780637dc0d1d0146105ea575f5ffd5b8063403f3731116102525780635ec29e29116101fd578063736c0d5b116101d8578063736c0d5b146105675780637387be351461058957806375b238fc1461059c575f5ffd5b80635ec29e29146105385780636eae76721461054b57806371ca337d1461055e575f5ffd5b8063481c6a751161022d578063481c6a75146104c357806350a48883146104e357806354fd4d50146104f6575f5ffd5b8063403f373114610483578063466916ca146104965780634707d000146104b0575f5ffd5b8063248a9ca3116102b2578063375b74c31161028d578063375b74c3146103d857806338d52e0f1461041d578063402a8d3714610444575f5ffd5b8063248a9ca3146103905780632f2ff15d146103b257806336568abe146103c5575f5ffd5b80630ee21e54116102e25780630ee21e541461033a57806319bfcdec1461035c578063229fb4441461037d575f5ffd5b806301ffc9a7146102fd57806302d4659914610325575b5f5ffd5b61031061030b3660046130a4565b6108f4565b60405190151581526020015b60405180910390f35b6103386103333660046130f4565b61098c565b005b610310610348366004613129565b60056020525f908152604090205460ff1681565b61036f61036a366004613159565b610b2c565b60405190815260200161031c565b61033861038b3660046130f4565b610b45565b61036f61039e366004613174565b5f9081526020819052604090206001015490565b6103386103c036600461318b565b610c24565b6103386103d336600461318b565b610c4e565b600b546103f89073ffffffffffffffffffffffffffffffffffffffff1681565b60405173ffffffffffffffffffffffffffffffffffffffff909116815260200161031c565b6103f87f000000000000000000000000000000000000000000000000000000000000000081565b6104576104523660046131b5565b610cac565b6040805173ffffffffffffffffffffffffffffffffffffffff909316835260208301919091520161031c565b610338610491366004613129565b611465565b6003546104a39060ff1681565b60405161031c919061322b565b6103386104be366004613245565b611539565b600c546103f89073ffffffffffffffffffffffffffffffffffffffff1681565b6103386104f136600461326d565b611661565b60408051808201909152600581527f312e302e3500000000000000000000000000000000000000000000000000000060208201525b60405161031c91906132d7565b6103386105463660046130f4565b611708565b6103386105593660046130f4565b6117f5565b61036f600a5481565b610310610575366004613129565b60066020525f908152604090205460ff1681565b6103386105973660046131b5565b6118aa565b61036f7fa49807205ce4d355092ef5a8a18f56e8913cf4a201fbe287825b095693c2177581565b61036f7f9f10519a2c8cd2ada62681324216fc56caa806bf194071e83db2c4bae1cd161681565b600d546106329073ffffffffffffffffffffffffffffffffffffffff8116907401000000000000000000000000000000000000000090046bffffffffffffffffffffffff1682565b6040805173ffffffffffffffffffffffffffffffffffffffff90931683526bffffffffffffffffffffffff90911660208301520161031c565b610673611c65565b60405161031c97969594939291906132e9565b6103386106943660046130f4565b611cc3565b6103106106a736600461318b565b5f9182526020828152604080842073ffffffffffffffffffffffffffffffffffffffff93909316845291905290205460ff1690565b6103386106ea3660046131b5565b611dcb565b61036f5f81565b6103386107043660046133a8565b6120e4565b610338610717366004613174565b61217c565b61031061072a366004613129565b60046020525f908152604090205460ff1681565b61033861074c366004613129565b61221d565b61033861075f366004613419565b6122e8565b61036f7f9f2df0fed2c77648de5860a4cc508cd0818c85b8b8a1ab4ceeef8d981c8956a681565b61033861079936600461318b565b6123db565b61036f7f3c63e605be3290ab6b04cfc46c6e1516e626d43236b034f09d7ede1d017beb0c81565b6103106107d3366004613245565b600860209081525f928352604080842090915290825290205460ff1681565b61052b610800366004613159565b6123ff565b610310610813366004613245565b600960209081525f928352604080842090915290825290205460ff1681565b61036f6124a1565b610338610848366004613129565b6124af565b61033861085b366004613444565b612583565b6108877f1626ba7e356f5979dd355a3d2bfb43e80420a480c3b854edce286a82d749686981565b6040517fffffffff00000000000000000000000000000000000000000000000000000000909116815260200161031c565b61052b6040518060400160405280600581526020017f312e302e3500000000000000000000000000000000000000000000000000000081525081565b5f7fffffffff0000000000000000000000000000000000000000000000000000000082167f7965db0b00000000000000000000000000000000000000000000000000000000148061098657507f01ffc9a7000000000000000000000000000000000000000000000000000000007fffffffff000000000000000000000000000000000000000000000000000000008316145b92915050565b5f61099681612591565b8273ffffffffffffffffffffffffffffffffffffffff81166109e4576040517fbf8d717500000000000000000000000000000000000000000000000000000000815260040160405180910390fd5b5f8473ffffffffffffffffffffffffffffffffffffffff1663313ce5676040518163ffffffff1660e01b8152600401602060405180830381865afa158015610a2e573d5f5f3e3d5ffd5b505050506040513d601f19601f82011682018060405250810190610a52919061346c565b905060128160ff161180610a69575060068160ff16105b15610aa0576040517f9775295400000000000000000000000000000000000000000000000000000000815260040160405180910390fd5b73ffffffffffffffffffffffffffffffffffffffff85165f8181526005602090815260409182902080547fffffffffffffffffffffffffffffffffffffffffffffffffffffffffffffff001688151590811790915591519182527f4f66a58837da3e5a77c3d14203271a95ceaff9802cc2c05cb32a4018f34407c5910160405180910390a25050505050565b5f610986610b39836123ff565b8051906020012061259e565b335f9081526006602052604090205460ff16610b8d576040517f815e1d6400000000000000000000000000000000000000000000000000000000815260040160405180910390fd5b335f81815260086020908152604080832073ffffffffffffffffffffffffffffffffffffffff87168085529083529281902080547fffffffffffffffffffffffffffffffffffffffffffffffffffffffffffffff001686151590811790915590519081529192917f057687d2c1f9ac4548b1ddc356c8c8c00a9f2b97999486ad30cb30d105a9804a91015b60405180910390a35050565b5f82815260208190526040902060010154610c3e81612591565b610c4883836125e5565b50505050565b73ffffffffffffffffffffffffffffffffffffffff81163314610c9d576040517f6697b23200000000000000000000000000000000000000000000000000000000815260040160405180910390fd5b610ca782826126de565b505050565b5f5f610cb784610b2c565b90505f610cc76020850185613498565b6001811115610cd857610cd86131fe565b03610d2e57610d2781610cee60208601866134b3565b8080601f0160208091040260200160405190810160405280939291908181526020018383808284375f9201919091525061279792505050565b9150610e73565b6001610d3d6020850185613498565b6001811115610d4e57610d4e6131fe565b03610e73577f1626ba7e00000000000000000000000000000000000000000000000000000000610d846080860160608701613129565b73ffffffffffffffffffffffffffffffffffffffff16631626ba7e83610dad60208801886134b3565b6040518463ffffffff1660e01b8152600401610dcb9392919061351b565b602060405180830381865afa158015610de6573d5f5f3e3d5ffd5b505050506040513d601f19601f82011682018060405250810190610e0a919061356e565b7fffffffff000000000000000000000000000000000000000000000000000000001603610e4157610d276080850160608601613129565b6040517f155ff42700000000000000000000000000000000000000000000000000000000815260040160405180910390fd5b73ffffffffffffffffffffffffffffffffffffffff82165f908152600660209081526040808320546008909252822060ff909116919081610eba60a0890160808a01613129565b73ffffffffffffffffffffffffffffffffffffffff16815260208101919091526040015f205460ff16905081610f1c576040517f815e1d6400000000000000000000000000000000000000000000000000000000815260040160405180910390fd5b610f2a8487602001356127bf565b610f3a6080870160608801613129565b73ffffffffffffffffffffffffffffffffffffffff168473ffffffffffffffffffffffffffffffffffffffff1614158015610fbe575060095f610f836080890160608a01613129565b73ffffffffffffffffffffffffffffffffffffffff908116825260208083019390935260409182015f9081209188168152925290205460ff16155b15610ff5576040517f8eb5b89100000000000000000000000000000000000000000000000000000000815260040160405180910390fd5b8061102c576040517f9c8d2cd200000000000000000000000000000000000000000000000000000000815260040160405180910390fd5b60045f61103f6080890160608a01613129565b73ffffffffffffffffffffffffffffffffffffffff16815260208101919091526040015f205460ff16806110ab575060045f61108160a0890160808a01613129565b73ffffffffffffffffffffffffffffffffffffffff16815260208101919091526040015f205460ff165b156110e2576040517f1d8c273500000000000000000000000000000000000000000000000000000000815260040160405180910390fd5b60055f6110f560c0890160a08a01613129565b73ffffffffffffffffffffffffffffffffffffffff16815260208101919091526040015f205460ff16611154576040517fb047cbb900000000000000000000000000000000000000000000000000000000815260040160405180910390fd5b8560c001355f03611191576040517ffbd85bc300000000000000000000000000000000000000000000000000000000815260040160405180910390fd5b8560e001355f036111ce576040517f9bc5f44500000000000000000000000000000000000000000000000000000000815260040160405180910390fd5b856040013542111561120c576040517fc56873ba00000000000000000000000000000000000000000000000000000000815260040160405180910390fd5b60408051808201909152600d5473ffffffffffffffffffffffffffffffffffffffff8116808352740100000000000000000000000000000000000000009091046bffffffffffffffffffffffff1660208301521561145b57600d54604080517f98d5fdca00000000000000000000000000000000000000000000000000000000815290515f9273ffffffffffffffffffffffffffffffffffffffff16916398d5fdca9160048083019260209291908290030181865afa1580156112d1573d5f5f3e3d5ffd5b505050506040513d601f19601f820116820180604052508101906112f59190613589565b90505f61130860c08a0160a08b01613129565b73ffffffffffffffffffffffffffffffffffffffff1663313ce5676040518163ffffffff1660e01b8152600401602060405180830381865afa158015611350573d5f5f3e3d5ffd5b505050506040513d601f19601f82011682018060405250810190611374919061346c565b60ff1690505f8160120361138d575060c08901356113b4565b6113988260126135cd565b6113a390600a613701565b6113b19060c08c013561370c565b90505b5f6113cc82670de0b6b3a76400008d60e00135612829565b90505f848210156113e6576113e182866135cd565b6113f0565b6113f085836135cd565b90505f61140682670de0b6b3a764000085612829565b905086602001516bffffffffffffffffffffffff16811115611454576040517f25d6dfcc00000000000000000000000000000000000000000000000000000000815260040160405180910390fd5b5050505050505b5050509250929050565b5f61146f81612591565b8173ffffffffffffffffffffffffffffffffffffffff81166114bd576040517fbf8d717500000000000000000000000000000000000000000000000000000000815260040160405180910390fd5b600b80547fffffffffffffffffffffffff00000000000000000000000000000000000000001673ffffffffffffffffffffffffffffffffffffffff85169081179091556040519081527fb93784a10789366833372f477b296ac1a1564cf8ebc1b540220a6f88ce4299cb906020015b60405180910390a1505050565b7fa49807205ce4d355092ef5a8a18f56e8913cf4a201fbe287825b095693c2177561156381612591565b8173ffffffffffffffffffffffffffffffffffffffff81166115b1576040517fbf8d717500000000000000000000000000000000000000000000000000000000815260040160405180910390fd5b6040517f70a08231000000000000000000000000000000000000000000000000000000008152306004820152610c4890849073ffffffffffffffffffffffffffffffffffffffff8716906370a0823190602401602060405180830381865afa15801561161f573d5f5f3e3d5ffd5b505050506040513d601f19601f820116820180604052508101906116439190613589565b73ffffffffffffffffffffffffffffffffffffffff871691906128da565b7f3c63e605be3290ab6b04cfc46c6e1516e626d43236b034f09d7ede1d017beb0c61168b81612591565b600380548391907fffffffffffffffffffffffffffffffffffffffffffffffffffffffffffffff001660018360028111156116c8576116c86131fe565b02179055507f88e43343d33e7b9e718881d5a6211cad20630d355feb746ae6bef8e2c12b0027826040516116fc919061322b565b60405180910390a15050565b73ffffffffffffffffffffffffffffffffffffffff82165f9081526006602052604090205460ff16611766576040517f815e1d6400000000000000000000000000000000000000000000000000000000815260040160405180910390fd5b73ffffffffffffffffffffffffffffffffffffffff82165f818152600960209081526040808320338085529083529281902080547fffffffffffffffffffffffffffffffffffffffffffffffffffffffffffffff001686151590811790915590519081529192917fb4418cfd39aa0fb6673cba5fb5c4ec5fccf107d6604e32130ed2c3875e8ab98f9101610c18565b7f252822d2dbc3adf7886768cb203e7f8f7af2b6ec41bdf6fa7c0a29215e32b53e61181f81612591565b73ffffffffffffffffffffffffffffffffffffffff83165f8181526004602090815260409182902080547fffffffffffffffffffffffffffffffffffffffffffffffffffffffffffffff001686151590811790915591519182527fca364cd65b32cbd07cee6dd2b7aceb87913eac863ee31028b957d409972a6c8891015b60405180910390a2505050565b7f9f2df0fed2c77648de5860a4cc508cd0818c85b8b8a1ab4ceeef8d981c8956a66118d481612591565b5f60035460ff1660028111156118ec576118ec6131fe565b14611923576040517fd0aca7cf00000000000000000000000000000000000000000000000000000000815260040160405180910390fd5b5f6119316020850185613498565b6001811115611942576119426131fe565b14611979576040517f688c176f00000000000000000000000000000000000000000000000000000000815260040160405180910390fd5b5f6119848484610cac565b5073ffffffffffffffffffffffffffffffffffffffff81165f908152600760209081526040808320888301358452909152812080547fffffffffffffffffffffffffffffffffffffffffffffffffffffffffffffff00166001179055600a549192509015611a0857611a058560c00135600a54670de0b6b3a7640000612829565b90505b5f611a178260c08801356135cd565b9050611a74611a2c6080880160608901613129565b600b5473ffffffffffffffffffffffffffffffffffffffff1684611a5660c08b0160a08c01613129565b73ffffffffffffffffffffffffffffffffffffffff1692919061293a565b611ab1611a876080880160608901613129565b600c5473ffffffffffffffffffffffffffffffffffffffff1683611a5660c08b0160a08c01613129565b73ffffffffffffffffffffffffffffffffffffffff7f0000000000000000000000000000000000000000000000000000000000000000166340c10f19611afd60a0890160808a01613129565b60405160e083811b7fffffffff0000000000000000000000000000000000000000000000000000000016825273ffffffffffffffffffffffffffffffffffffffff9290921660048201529089013560248201526044016020604051808303815f875af1158015611b6f573d5f5f3e3d5ffd5b505050506040513d601f19601f82011682018060405250810190611b939190613723565b50611ba460a0870160808801613129565b73ffffffffffffffffffffffffffffffffffffffff16611bca6080880160608901613129565b73ffffffffffffffffffffffffffffffffffffffff9081169085167f5baf598008a53854325c95600006059172a6731717dc1b2d6f4751720a8edafb60208a0135611c1b60c08c0160a08d01613129565b6040805192835273ffffffffffffffffffffffffffffffffffffffff909116602083015260c08c01359082015260e08b0135606082015260800160405180910390a4505050505050565b5f6060805f5f5f6060611c76612996565b611c7e6129c3565b604080515f808252602082019092527f0f000000000000000000000000000000000000000000000000000000000000009b939a50919850469750309650945092509050565b7f9f10519a2c8cd2ada62681324216fc56caa806bf194071e83db2c4bae1cd1616611ced81612591565b8115611d495773ffffffffffffffffffffffffffffffffffffffff83165f908152600860209081526040808320909152902080547fffffffffffffffffffffffffffffffffffffffffffffffffffffffffffffff001660011790555b73ffffffffffffffffffffffffffffffffffffffff83165f8181526006602090815260409182902080547fffffffffffffffffffffffffffffffffffffffffffffffffffffffffffffff001686151590811790915591519182527f89cf3183fbdd7fed09f147946384db4be03e9e35a4c862c059f1be7e9e287ab5910161189d565b7f9f2df0fed2c77648de5860a4cc508cd0818c85b8b8a1ab4ceeef8d981c8956a6611df581612591565b5f60035460ff166002811115611e0d57611e0d6131fe565b14611e44576040517fd0aca7cf00000000000000000000000000000000000000000000000000000000815260040160405180910390fd5b6001611e536020850185613498565b6001811115611e6457611e646131fe565b14611e9b576040517f688c176f00000000000000000000000000000000000000000000000000000000815260040160405180910390fd5b5f611ea68484610cac565b5073ffffffffffffffffffffffffffffffffffffffff8082165f908152600760209081526040808320898301358452909152902080547fffffffffffffffffffffffffffffffffffffffffffffffffffffffffffffff00166001179055600c54919250611f329116611f1e60a0870160808801613129565b60c08701803590611a569060a08a01613129565b73ffffffffffffffffffffffffffffffffffffffff7f000000000000000000000000000000000000000000000000000000000000000016639dc29fac611f7e6080870160608801613129565b60405160e083811b7fffffffff0000000000000000000000000000000000000000000000000000000016825273ffffffffffffffffffffffffffffffffffffffff9290921660048201529087013560248201526044016020604051808303815f875af1158015611ff0573d5f5f3e3d5ffd5b505050506040513d601f19601f820116820180604052508101906120149190613723565b5061202560a0850160808601613129565b73ffffffffffffffffffffffffffffffffffffffff1661204b6080860160608701613129565b73ffffffffffffffffffffffffffffffffffffffff9081169083167fbeef5257d87fe28a4e0403e988616367eb725baa857ae74f6ec904acd46e8611602088013561209c60c08a0160a08b01613129565b6040805192835273ffffffffffffffffffffffffffffffffffffffff909116602083015260c08a01359082015260e0890135606082015260800160405180910390a450505050565b5f5b81811015610ca7575f80308585858181106121035761210361373e565b905060200281019061211591906134b3565b60405161212392919061376b565b5f60405180830381855af49150503d805f811461215b576040519150601f19603f3d011682016040523d82523d5f602084013e612160565b606091505b50915091508161217257805181602001fd5b50506001016120e6565b7fa49807205ce4d355092ef5a8a18f56e8913cf4a201fbe287825b095693c217756121a681612591565b670de0b6b3a76400008211156121e8576040517f648564d300000000000000000000000000000000000000000000000000000000815260040160405180910390fd5b600a8290556040518281527f8bfafad5cbd7165952ec3370b6dcf547a709f2dad989ecb117d6d361038dd8c5906020016116fc565b5f61222781612591565b8173ffffffffffffffffffffffffffffffffffffffff8116612275576040517fbf8d717500000000000000000000000000000000000000000000000000000000815260040160405180910390fd5b600c80547fffffffffffffffffffffffff00000000000000000000000000000000000000001673ffffffffffffffffffffffffffffffffffffffff85169081179091556040519081527f2c1c11af44aa5608f1dca38c00275c30ea091e02417d36e70e9a1538689c433d9060200161152c565b7fa49807205ce4d355092ef5a8a18f56e8913cf4a201fbe287825b095693c2177561231281612591565b670de0b6b3a76400006bffffffffffffffffffffffff83161115612362576040517f80d0eb2c00000000000000000000000000000000000000000000000000000000815260040160405180910390fd5b600d805473ffffffffffffffffffffffffffffffffffffffff16740100000000000000000000000000000000000000006bffffffffffffffffffffffff8516908102919091179091556040519081527f3219af0dcb21e95f077bc4c127af76c7f4f7964e897dfa3712f3517eeba2a6ea906020016116fc565b5f828152602081905260409020600101546123f581612591565b610c4883836126de565b60607f11c51d78623f9eeb56886835f25532bfea19b869d23f3479794aafcf27b9ca1961242f6020840184613498565b602084013560408501356124496080870160608801613129565b61245960a0880160808901613129565b61246960c0890160a08a01613129565b8860c001358960e0013560405160200161248b9998979695949392919061377a565b6040516020818303038152906040529050919050565b5f6124aa6129f0565b905090565b7fa49807205ce4d355092ef5a8a18f56e8913cf4a201fbe287825b095693c217756124d981612591565b600d80547fffffffffffffffffffffffff00000000000000000000000000000000000000001673ffffffffffffffffffffffffffffffffffffffff841690811790915561253d57600d805473ffffffffffffffffffffffffffffffffffffffff1690555b60405173ffffffffffffffffffffffffffffffffffffffff831681527f2fb6466d9430e56841c1ca369003b558477953432617178a0fac2ccef33eb449906020016116fc565b61258d82826127bf565b5050565b61259b8133612b26565b50565b5f6109866125aa6129f0565b836040517f19010000000000000000000000000000000000000000000000000000000000008152600281019290925260228201526042902090565b5f8281526020818152604080832073ffffffffffffffffffffffffffffffffffffffff8516845290915281205460ff166126d7575f8381526020818152604080832073ffffffffffffffffffffffffffffffffffffffff86168452909152902080547fffffffffffffffffffffffffffffffffffffffffffffffffffffffffffffff001660011790556126753390565b73ffffffffffffffffffffffffffffffffffffffff168273ffffffffffffffffffffffffffffffffffffffff16847f2f8788117e7eff1d82e926ec794901d17c78024a50270940304540a733656f0d60405160405180910390a4506001610986565b505f610986565b5f8281526020818152604080832073ffffffffffffffffffffffffffffffffffffffff8516845290915281205460ff16156126d7575f8381526020818152604080832073ffffffffffffffffffffffffffffffffffffffff8616808552925280832080547fffffffffffffffffffffffffffffffffffffffffffffffffffffffffffffff0016905551339286917ff6391f5c32d9c69d2a47ea670b442974b53935d1edc7fd64eb21e047a839171b9190a4506001610986565b5f5f5f5f6127a58686612bab565b9250925092506127b58282612bf4565b5090949350505050565b73ffffffffffffffffffffffffffffffffffffffff82165f90815260076020908152604080832084845290915290205460ff161561258d576040517f756688fe00000000000000000000000000000000000000000000000000000000815260040160405180910390fd5b5f5f5f6128368686612cf7565b91509150815f0361285a57838181612850576128506137e8565b04925050506128d3565b818411612871576128716003851502601118612d32565b5f848688095f868103871696879004966002600389028118808a02820302808a02820302808a02820302808a02820302808a02820302808a02909103029181900381900460010185841190960395909502919093039390930492909217029150505b9392505050565b6128e78383836001612d43565b610ca7576040517f5274afe700000000000000000000000000000000000000000000000000000000815273ffffffffffffffffffffffffffffffffffffffff841660048201526024015b60405180910390fd5b612948848484846001612dcb565b610c48576040517f5274afe700000000000000000000000000000000000000000000000000000000815273ffffffffffffffffffffffffffffffffffffffff85166004820152602401612931565b60606124aa7f00000000000000000000000000000000000000000000000000000000000000006001612e5e565b60606124aa7f00000000000000000000000000000000000000000000000000000000000000006002612e5e565b5f3073ffffffffffffffffffffffffffffffffffffffff7f000000000000000000000000000000000000000000000000000000000000000016148015612a5557507f000000000000000000000000000000000000000000000000000000000000000046145b15612a7f57507f000000000000000000000000000000000000000000000000000000000000000090565b6124aa604080517f8b73c3c69bb8fe3d512ecc4cf759cc79239f7b179b0ffacaa9a75d522b39400f60208201527f0000000000000000000000000000000000000000000000000000000000000000918101919091527f000000000000000000000000000000000000000000000000000000000000000060608201524660808201523060a08201525f9060c00160405160208183030381529060405280519060200120905090565b5f8281526020818152604080832073ffffffffffffffffffffffffffffffffffffffff8516845290915290205460ff1661258d576040517fe2517d3f00000000000000000000000000000000000000000000000000000000815273ffffffffffffffffffffffffffffffffffffffff8216600482015260248101839052604401612931565b5f5f5f8351604103612be2576020840151604085015160608601515f1a612bd488828585612f07565b955095509550505050612bed565b505081515f91506002905b9250925092565b5f826003811115612c0757612c076131fe565b03612c10575050565b6001826003811115612c2457612c246131fe565b03612c5b576040517ff645eedf00000000000000000000000000000000000000000000000000000000815260040160405180910390fd5b6002826003811115612c6f57612c6f6131fe565b03612ca9576040517ffce698f700000000000000000000000000000000000000000000000000000000815260048101829052602401612931565b6003826003811115612cbd57612cbd6131fe565b0361258d576040517fd78bce0c00000000000000000000000000000000000000000000000000000000815260048101829052602401612931565b5f807fffffffffffffffffffffffffffffffffffffffffffffffffffffffffffffffff83850993909202808410938190039390930393915050565b634e487b715f52806020526024601cfd5b6040517fa9059cbb000000000000000000000000000000000000000000000000000000005f81815273ffffffffffffffffffffffffffffffffffffffff8616600452602485905291602083604481808b5af1925060015f51148316612dbf578383151615612db3573d5f823e3d81fd5b5f873b113d1516831692505b60405250949350505050565b6040517f23b872dd000000000000000000000000000000000000000000000000000000005f81815273ffffffffffffffffffffffffffffffffffffffff8781166004528616602452604485905291602083606481808c5af1925060015f51148316612e4d578383151615612e41573d5f823e3d81fd5b5f883b113d1516831692505b604052505f60605295945050505050565b606060ff8314612e7857612e7183612ffa565b9050610986565b818054612e8490613815565b80601f0160208091040260200160405190810160405280929190818152602001828054612eb090613815565b8015612efb5780601f10612ed257610100808354040283529160200191612efb565b820191905f5260205f20905b815481529060010190602001808311612ede57829003601f168201915b50505050509050610986565b5f80807f7fffffffffffffffffffffffffffffff5d576e7357a4501ddfe92f46681b20a0841115612f4057505f91506003905082612ff0565b604080515f808252602082018084528a905260ff891692820192909252606081018790526080810186905260019060a0016020604051602081039080840390855afa158015612f91573d5f5f3e3d5ffd5b50506040517fffffffffffffffffffffffffffffffffffffffffffffffffffffffffffffffe0015191505073ffffffffffffffffffffffffffffffffffffffff8116612fe757505f925060019150829050612ff0565b92505f91508190505b9450945094915050565b60605f61300683613037565b6040805160208082528183019092529192505f91906020820181803683375050509182525060208101929092525090565b5f60ff8216601f811115610986576040517fb3512b0c00000000000000000000000000000000000000000000000000000000815260040160405180910390fd5b7fffffffff000000000000000000000000000000000000000000000000000000008116811461259b575f5ffd5b5f602082840312156130b4575f5ffd5b81356128d381613077565b803573ffffffffffffffffffffffffffffffffffffffff811681146130e2575f5ffd5b919050565b801515811461259b575f5ffd5b5f5f60408385031215613105575f5ffd5b61310e836130bf565b9150602083013561311e816130e7565b809150509250929050565b5f60208284031215613139575f5ffd5b6128d3826130bf565b5f6101008284031215613153575f5ffd5b50919050565b5f610100828403121561316a575f5ffd5b6128d38383613142565b5f60208284031215613184575f5ffd5b5035919050565b5f5f6040838503121561319c575f5ffd5b823591506131ac602084016130bf565b90509250929050565b5f5f61012083850312156131c7575f5ffd5b6131d18484613142565b915061010083013567ffffffffffffffff8111156131ed575f5ffd5b83016040818603121561311e575f5ffd5b7f4e487b71000000000000000000000000000000000000000000000000000000005f52602160045260245ffd5b602081016003831061323f5761323f6131fe565b91905290565b5f5f60408385031215613256575f5ffd5b61325f836130bf565b91506131ac602084016130bf565b5f6020828403121561327d575f5ffd5b8135600381106128d3575f5ffd5b5f81518084528060208401602086015e5f6020828601015260207fffffffffffffffffffffffffffffffffffffffffffffffffffffffffffffffe0601f83011685010191505092915050565b602081525f6128d3602083018461328b565b7fff000000000000000000000000000000000000000000000000000000000000008816815260e060208201525f61332360e083018961328b565b8281036040840152613335818961328b565b6060840188905273ffffffffffffffffffffffffffffffffffffffff8716608085015260a0840186905283810360c0850152845180825260208087019350909101905f5b81811015613397578351835260209384019390920191600101613379565b50909b9a5050505050505050505050565b5f5f602083850312156133b9575f5ffd5b823567ffffffffffffffff8111156133cf575f5ffd5b8301601f810185136133df575f5ffd5b803567ffffffffffffffff8111156133f5575f5ffd5b8560208260051b8401011115613409575f5ffd5b6020919091019590945092505050565b5f60208284031215613429575f5ffd5b81356bffffffffffffffffffffffff811681146128d3575f5ffd5b5f5f60408385031215613455575f5ffd5b61345e836130bf565b946020939093013593505050565b5f6020828403121561347c575f5ffd5b815160ff811681146128d3575f5ffd5b6002811061259b575f5ffd5b5f602082840312156134a8575f5ffd5b81356128d38161348c565b5f5f83357fffffffffffffffffffffffffffffffffffffffffffffffffffffffffffffffe18436030181126134e6575f5ffd5b83018035915067ffffffffffffffff821115613500575f5ffd5b602001915036819003821315613514575f5ffd5b9250929050565b83815260406020820152816040820152818360608301375f818301606090810191909152601f9092017fffffffffffffffffffffffffffffffffffffffffffffffffffffffffffffffe016010192915050565b5f6020828403121561357e575f5ffd5b81516128d381613077565b5f60208284031215613599575f5ffd5b5051919050565b7f4e487b71000000000000000000000000000000000000000000000000000000005f52601160045260245ffd5b81810381811115610986576109866135a0565b6001815b600184111561361b578085048111156135ff576135ff6135a0565b600184161561360d57908102905b60019390931c9280026135e4565b935093915050565b5f8261363157506001610986565b8161363d57505f610986565b8160018114613653576002811461365d57613679565b6001915050610986565b60ff84111561366e5761366e6135a0565b50506001821b610986565b5060208310610133831016604e8410600b841016171561369c575081810a610986565b6136c77fffffffffffffffffffffffffffffffffffffffffffffffffffffffffffffffff84846135e0565b807fffffffffffffffffffffffffffffffffffffffffffffffffffffffffffffffff048211156136f9576136f96135a0565b029392505050565b5f6128d38383613623565b8082028115828204841417610986576109866135a0565b5f60208284031215613733575f5ffd5b81516128d3816130e7565b7f4e487b71000000000000000000000000000000000000000000000000000000005f52603260045260245ffd5b818382375f9101908152919050565b898152610120810160028a10613792576137926131fe565b60208201999099526040810197909752606087019590955273ffffffffffffffffffffffffffffffffffffffff938416608087015291831660a086015290911660c084015260e083015261010090910152919050565b7f4e487b71000000000000000000000000000000000000000000000000000000005f52601260045260245ffd5b600181811c9082168061382957607f821691505b602082108103613153577f4e487b71000000000000000000000000000000000000000000000000000000005f52602260045260245ffdfea264697066735822122053dfd038fba1f78277b8c54289f43df6b403c5af51ceb6a29907a8480d2be46e64736f6c634300081e0033","linkReferences":{}},"methodIdentifiers":{"ADMIN_ROLE()":"75b238fc","DEFAULT_ADMIN_ROLE()":"a217fddf","GATEKEEPER_ROLE()":"d6fd3175","MAGICVALUE()":"ff218823","MINTER_ROLE()":"d5391393","SIGNER_MANAGER_ROLE()":"782e9652","VERSION()":"ffa1ad74","asset()":"38d52e0f","custodian()":"375b74c3","delegates(address,address)":"e5843242","eip712Domain()":"84b0196e","encodeOrder((uint8,uint256,uint256,address,address,address,uint256,uint256))":"d8f065bd","getDomainSeparator()":"ed24911d","getRoleAdmin(bytes32)":"248a9ca3","grantRole(bytes32,address)":"2f2ff15d","hasRole(bytes32,address)":"91d14854","hashOrder((uint8,uint256,uint256,address,address,address,uint256,uint256))":"19bfcdec","isCollateral(address)":"0ee21e54","isRestricted(address)":"c01bc982","manager()":"481c6a75","mint((uint8,uint256,uint256,address,address,address,uint256,uint256),(uint8,bytes))":"7387be35","multicall(bytes[])":"ac9650d8","oracle()":"7dc0d1d0","pauseStatus()":"466916ca","ratio()":"71ca337d","recipients(address,address)":"d77fa7ee","redeem((uint8,uint256,uint256,address,address,address,uint256,uint256),(uint8,bytes))":"95165e8b","renounceRole(bytes32,address)":"36568abe","rescueToken(address,address)":"4707d000","revokeRole(bytes32,address)":"d547741f","setCustodian(address)":"403f3731","setDelegateStatus(address,bool)":"5ec29e29","setIsCollateral(address,bool)":"02d46599","setIsRestricted(address,bool)":"6eae7672","setManager(address)":"d0ebdbe7","setOracleAdapter(address)":"edb6d075","setOracleTolerance(uint96)":"d28f70c9","setPauseStatus(uint8)":"50a48883","setRatio(uint256)":"b2237ba3","setRecipientStatus(address,bool)":"229fb444","setSignerStatus(address,bool)":"8d0abcda","signers(address)":"736c0d5b","supportsInterface(bytes4)":"01ffc9a7","verifyNonce(address,uint256)":"f4ee2a8b","verifyOrder((uint8,uint256,uint256,address,address,address,uint256,uint256),(uint8,bytes))":"402a8d37","version()":"54fd4d50"},"id":140}