{"abi":[{"type":"constructor","inputs":[{"name":"manager_","type":"address","internalType":"address"},{"name":"staking_","type":"address","internalType":"address"},{"name":"owner_","type":"address","internalType":"address"},{"name":"controller_","type":"address","internalType":"address"},{"name":"asset_","type":"address","internalType":"address"}],"stateMutability":"nonpayable"},{"type":"function","name":"ADMIN_ROLE","inputs":[],"outputs":[{"name":"","type":"bytes32","internalType":"bytes32"}],"stateMutability":"view"},{"type":"function","name":"DEFAULT_ADMIN_ROLE","inputs":[],"outputs":[{"name":"","type":"bytes32","internalType":"bytes32"}],"stateMutability":"view"},{"type":"function","name":"KEEPER_ROLE","inputs":[],"outputs":[{"name":"","type":"bytes32","internalType":"bytes32"}],"stateMutability":"view"},{"type":"function","name":"MULTISIG_ROLE","inputs":[],"outputs":[{"name":"","type":"bytes32","internalType":"bytes32"}],"stateMutability":"view"},{"type":"function","name":"asset","inputs":[],"outputs":[{"name":"","type":"address","internalType":"address"}],"stateMutability":"view"},{"type":"function","name":"controller","inputs":[],"outputs":[{"name":"","type":"address","internalType":"address"}],"stateMutability":"view"},{"type":"function","name":"delegateSigner","inputs":[{"name":"signer","type":"address","internalType":"address"},{"name":"status","type":"bool","internalType":"bool"}],"outputs":[],"stateMutability":"nonpayable"},{"type":"function","name":"getRoleAdmin","inputs":[{"name":"role","type":"bytes32","internalType":"bytes32"}],"outputs":[{"name":"","type":"bytes32","internalType":"bytes32"}],"stateMutability":"view"},{"type":"function","name":"grantRole","inputs":[{"name":"role","type":"bytes32","internalType":"bytes32"},{"name":"account","type":"address","internalType":"address"}],"outputs":[],"stateMutability":"nonpayable"},{"type":"function","name":"hasRole","inputs":[{"name":"role","type":"bytes32","internalType":"bytes32"},{"name":"account","type":"address","internalType":"address"}],"outputs":[{"name":"","type":"bool","internalType":"bool"}],"stateMutability":"view"},{"type":"function","name":"increaseControllerApproval","inputs":[{"name":"token","type":"address","internalType":"address"},{"name":"amount","type":"uint256","internalType":"uint256"}],"outputs":[],"stateMutability":"nonpayable"},{"type":"function","name":"manager","inputs":[],"outputs":[{"name":"","type":"address","internalType":"address"}],"stateMutability":"view"},{"type":"function","name":"pull","inputs":[{"name":"token","type":"address","internalType":"address"}],"outputs":[],"stateMutability":"nonpayable"},{"type":"function","name":"renounceRole","inputs":[{"name":"role","type":"bytes32","internalType":"bytes32"},{"name":"callerConfirmation","type":"address","internalType":"address"}],"outputs":[],"stateMutability":"nonpayable"},{"type":"function","name":"revokeRole","inputs":[{"name":"role","type":"bytes32","internalType":"bytes32"},{"name":"account","type":"address","internalType":"address"}],"outputs":[],"stateMutability":"nonpayable"},{"type":"function","name":"reward","inputs":[{"name":"amount","type":"uint256","internalType":"uint256"}],"outputs":[],"stateMutability":"nonpayable"},{"type":"function","name":"staking","inputs":[],"outputs":[{"name":"","type":"address","internalType":"address"}],"stateMutability":"view"},{"type":"function","name":"supportsInterface","inputs":[{"name":"interfaceId","type":"bytes4","internalType":"bytes4"}],"outputs":[{"name":"","type":"bool","internalType":"bool"}],"stateMutability":"view"},{"type":"function","name":"withdrawToManager","inputs":[{"name":"token","type":"address","internalType":"address"},{"name":"amount","type":"uint256","internalType":"uint256"}],"outputs":[],"stateMutability":"nonpayable"},{"type":"function","name":"withdrawToMultisig","inputs":[{"name":"token","type":"address","internalType":"address"},{"name":"amount","type":"uint256","internalType":"uint256"}],"outputs":[],"stateMutability":"nonpayable"},{"type":"event","name":"MultisigUpdated","inputs":[{"name":"newMultisig","type":"address","indexed":true,"internalType":"address"}],"anonymous":false},{"type":"event","name":"RevenuePulled","inputs":[{"name":"token","type":"address","indexed":true,"internalType":"address"},{"name":"amount","type":"uint256","indexed":false,"internalType":"uint256"}],"anonymous":false},{"type":"event","name":"RewardSent","inputs":[{"name":"amount","type":"uint256","indexed":false,"internalType":"uint256"}],"anonymous":false},{"type":"event","name":"RoleAdminChanged","inputs":[{"name":"role","type":"bytes32","indexed":true,"internalType":"bytes32"},{"name":"previousAdminRole","type":"bytes32","indexed":true,"internalType":"bytes32"},{"name":"newAdminRole","type":"bytes32","indexed":true,"internalType":"bytes32"}],"anonymous":false},{"type":"event","name":"RoleGranted","inputs":[{"name":"role","type":"bytes32","indexed":true,"internalType":"bytes32"},{"name":"account","type":"address","indexed":true,"internalType":"address"},{"name":"sender","type":"address","indexed":true,"internalType":"address"}],"anonymous":false},{"type":"event","name":"RoleRevoked","inputs":[{"name":"role","type":"bytes32","indexed":true,"internalType":"bytes32"},{"name":"account","type":"address","indexed":true,"internalType":"address"},{"name":"sender","type":"address","indexed":true,"internalType":"address"}],"anonymous":false},{"type":"event","name":"WithdrawToManager","inputs":[{"name":"token","type":"address","indexed":true,"internalType":"address"},{"name":"amount","type":"uint256","indexed":false,"internalType":"uint256"}],"anonymous":false},{"type":"event","name":"WithdrawToMultisig","inputs":[{"name":"token","type":"address","indexed":true,"internalType":"address"},{"name":"amount","type":"uint256","indexed":false,"internalType":"uint256"}],"anonymous":false},{"type":"error","name":"AccessControlBadConfirmation","inputs":[]},{"type":"error","name":"AccessControlUnauthorizedAccount","inputs":[{"name":"account","type":"address","internalType":"address"},{"name":"neededRole","type":"bytes32","internalType":"bytes32"}]},{"type":"error","name":"InsufficientRevenue","inputs":[]},{"type":"error","name":"InvalidAmount","inputs":[]},{"type":"error","name":"NonZeroAddress","inputs":[]},{"type":"error","name":"SafeERC20FailedOperation","inputs":[{"name":"token","type":"address","internalType":"address"}]}],"bytecode":{"object":"0x610100604052348015610010575f5ffd5b506040516115a83803806115a883398101604081905261002f916101f4565b846001600160a01b0381166100575760405163bf8d717560e01b815260040160405180910390fd5b846001600160a01b03811661007f5760405163bf8d717560e01b815260040160405180910390fd5b846001600160a01b0381166100a75760405163bf8d717560e01b815260040160405180910390fd5b846001600160a01b0381166100cf5760405163bf8d717560e01b815260040160405180910390fd5b846001600160a01b0381166100f75760405163bf8d717560e01b815260040160405180910390fd5b6001600160a01b03808b1660c05289811660805287811660e052861660a0526101205f89610130565b5050505050505050505050610255565b5f828152602081815260408083206001600160a01b038516845290915281205460ff166101d0575f838152602081815260408083206001600160a01b03861684529091529020805460ff191660011790556101883390565b6001600160a01b0316826001600160a01b0316847f2f8788117e7eff1d82e926ec794901d17c78024a50270940304540a733656f0d60405160405180910390a45060016101d3565b505f5b92915050565b80516001600160a01b03811681146101ef575f5ffd5b919050565b5f5f5f5f5f60a08688031215610208575f5ffd5b610211866101d9565b945061021f602087016101d9565b935061022d604087016101d9565b925061023b606087016101d9565b9150610249608087016101d9565b90509295509295909350565b60805160a05160c05160e0516112ef6102b95f395f81816103ca015281816104fb01526109ab01525f8181610285015281816105d4015261079501525f81816102390152610a1401525f81816102ac01528181610a360152610a8a01526112ef5ff3fe608060405234801561000f575f5ffd5b5060043610610163575f3560e01c806352d11238116100c7578063a9fb763c1161007d578063d547741f11610063578063d547741f1461038b578063e328400c1461039e578063f77c4791146103c5575f5ffd5b8063a9fb763c14610365578063bc6174b314610378575f5ffd5b806375b238fc116100ad57806375b238fc146102f457806391d148541461031b578063a217fddf1461035e575f5ffd5b806352d11238146102ce5780635e7d13d7146102e1575f5ffd5b8063364bc15a1161011c57806338d52e0f1161010257806338d52e0f14610234578063481c6a75146102805780634cf088d9146102a7575f5ffd5b8063364bc15a146101fa57806336568abe14610221575f5ffd5b80630e5bc8381161014c5780630e5bc838146101a4578063248a9ca3146101b75780632f2ff15d146101e7575f5ffd5b806301ffc9a714610167578063064a2a941461018f575b5f5ffd5b61017a610175366004611141565b6103ec565b60405190151581526020015b60405180910390f35b6101a261019d3660046111af565b610484565b005b6101a26101b23660046111e8565b610557565b6101d96101c5366004611210565b5f9081526020819052604090206001015490565b604051908152602001610186565b6101a26101f5366004611227565b610650565b6101d97ffc8737ab85eb45125971625a9ebdb75cc78e01d5c1fa80c4c6e5203f47bc4fab81565b6101a261022f366004611227565b61067a565b61025b7f000000000000000000000000000000000000000000000000000000000000000081565b60405173ffffffffffffffffffffffffffffffffffffffff9091168152602001610186565b61025b7f000000000000000000000000000000000000000000000000000000000000000081565b61025b7f000000000000000000000000000000000000000000000000000000000000000081565b6101a26102dc366004611251565b6106d8565b6101a26102ef3660046111e8565b610917565b6101d97fa49807205ce4d355092ef5a8a18f56e8913cf4a201fbe287825b095693c2177581565b61017a610329366004611227565b5f9182526020828152604080842073ffffffffffffffffffffffffffffffffffffffff93909316845291905290205460ff1690565b6101d95f81565b6101a2610373366004611210565b6109d0565b6101a26103863660046111e8565b610b33565b6101a2610399366004611227565b610bfe565b6101d97fa5a0b70b385ff7611cd3840916bd08b10829e5bf9e6637cf79dd9a427fc0e2ab81565b61025b7f000000000000000000000000000000000000000000000000000000000000000081565b5f7fffffffff0000000000000000000000000000000000000000000000000000000082167f7965db0b00000000000000000000000000000000000000000000000000000000148061047e57507f01ffc9a7000000000000000000000000000000000000000000000000000000007fffffffff000000000000000000000000000000000000000000000000000000008316145b92915050565b7fa49807205ce4d355092ef5a8a18f56e8913cf4a201fbe287825b095693c217756104ae81610c22565b6040517f5ec29e2900000000000000000000000000000000000000000000000000000000815273ffffffffffffffffffffffffffffffffffffffff848116600483015283151560248301527f00000000000000000000000000000000000000000000000000000000000000001690635ec29e29906044015f604051808303815f87803b15801561053c575f5ffd5b505af115801561054e573d5f5f3e3d5ffd5b50505050505050565b7ffc8737ab85eb45125971625a9ebdb75cc78e01d5c1fa80c4c6e5203f47bc4fab61058181610c22565b8273ffffffffffffffffffffffffffffffffffffffff81166105cf576040517fbf8d717500000000000000000000000000000000000000000000000000000000815260040160405180910390fd5b6105fa7f00000000000000000000000000000000000000000000000000000000000000008585610c2f565b8373ffffffffffffffffffffffffffffffffffffffff167f403cc682205e15eff468628acdeda57c63749d66fbd9810131096ee3aa2ca34d8460405161064291815260200190565b60405180910390a250505050565b5f8281526020819052604090206001015461066a81610c22565b6106748383610c89565b50505050565b73ffffffffffffffffffffffffffffffffffffffff811633146106c9576040517f6697b23200000000000000000000000000000000000000000000000000000000815260040160405180910390fd5b6106d38282610d82565b505050565b7ffc8737ab85eb45125971625a9ebdb75cc78e01d5c1fa80c4c6e5203f47bc4fab61070281610c22565b8173ffffffffffffffffffffffffffffffffffffffff8116610750576040517fbf8d717500000000000000000000000000000000000000000000000000000000815260040160405180910390fd5b6040517f85b6709500000000000000000000000000000000000000000000000000000000815273ffffffffffffffffffffffffffffffffffffffff84811660048301527f0000000000000000000000000000000000000000000000000000000000000000915f918316906385b6709590602401602060405180830381865afa1580156107de573d5f5f3e3d5ffd5b505050506040513d601f19601f82011682018060405250810190610802919061126a565b9050805f0361083d576040517fb4aa806300000000000000000000000000000000000000000000000000000000815260040160405180910390fd5b6040517f8b63c26700000000000000000000000000000000000000000000000000000000815273ffffffffffffffffffffffffffffffffffffffff868116600483015260248201839052831690638b63c267906044015f604051808303815f87803b1580156108aa575f5ffd5b505af11580156108bc573d5f5f3e3d5ffd5b505050508473ffffffffffffffffffffffffffffffffffffffff167fad2023a9695e522ab8802c2a657105eb62970a2f299bae04d240ba1e07aa2eac8260405161090891815260200190565b60405180910390a25050505050565b7fa49807205ce4d355092ef5a8a18f56e8913cf4a201fbe287825b095693c2177561094181610c22565b8273ffffffffffffffffffffffffffffffffffffffff811661098f576040517fbf8d717500000000000000000000000000000000000000000000000000000000815260040160405180910390fd5b61067473ffffffffffffffffffffffffffffffffffffffff85167f000000000000000000000000000000000000000000000000000000000000000085610e3b565b7ffc8737ab85eb45125971625a9ebdb75cc78e01d5c1fa80c4c6e5203f47bc4fab6109fa81610c22565b610a5b73ffffffffffffffffffffffffffffffffffffffff7f0000000000000000000000000000000000000000000000000000000000000000167f000000000000000000000000000000000000000000000000000000000000000084610e3b565b6040517fa9fb763c000000000000000000000000000000000000000000000000000000008152600481018390527f000000000000000000000000000000000000000000000000000000000000000073ffffffffffffffffffffffffffffffffffffffff169063a9fb763c906024015f604051808303815f87803b158015610ae0575f5ffd5b505af1158015610af2573d5f5f3e3d5ffd5b505050507f26cb8523a99d85d9acd2d79a44d7bfc88be8ef7facd4d8ea73411e5c13ff1f4082604051610b2791815260200190565b60405180910390a15050565b8173ffffffffffffffffffffffffffffffffffffffff8116610b81576040517fbf8d717500000000000000000000000000000000000000000000000000000000815260040160405180910390fd5b7fa5a0b70b385ff7611cd3840916bd08b10829e5bf9e6637cf79dd9a427fc0e2ab610bab81610c22565b610bb6338585610c2f565b8373ffffffffffffffffffffffffffffffffffffffff167fff6f9d97038c1e423ef62b892c3d0b8d497e30340ec30e78f22f41e69bb1a50e8460405161064291815260200190565b5f82815260208190526040902060010154610c1881610c22565b6106748383610d82565b610c2c8133610ee8565b50565b805f03610c68576040517f2c5211c600000000000000000000000000000000000000000000000000000000815260040160405180910390fd5b6106d373ffffffffffffffffffffffffffffffffffffffff83168483610f76565b5f8281526020818152604080832073ffffffffffffffffffffffffffffffffffffffff8516845290915281205460ff16610d7b575f8381526020818152604080832073ffffffffffffffffffffffffffffffffffffffff86168452909152902080547fffffffffffffffffffffffffffffffffffffffffffffffffffffffffffffff00166001179055610d193390565b73ffffffffffffffffffffffffffffffffffffffff168273ffffffffffffffffffffffffffffffffffffffff16847f2f8788117e7eff1d82e926ec794901d17c78024a50270940304540a733656f0d60405160405180910390a450600161047e565b505f61047e565b5f8281526020818152604080832073ffffffffffffffffffffffffffffffffffffffff8516845290915281205460ff1615610d7b575f8381526020818152604080832073ffffffffffffffffffffffffffffffffffffffff8616808552925280832080547fffffffffffffffffffffffffffffffffffffffffffffffffffffffffffffff0016905551339286917ff6391f5c32d9c69d2a47ea670b442974b53935d1edc7fd64eb21e047a839171b9190a450600161047e565b6040517fdd62ed3e00000000000000000000000000000000000000000000000000000000815230600482015273ffffffffffffffffffffffffffffffffffffffff83811660248301525f919085169063dd62ed3e90604401602060405180830381865afa158015610eae573d5f5f3e3d5ffd5b505050506040513d601f19601f82011682018060405250810190610ed2919061126a565b90506106748484610ee38585611281565b610fd1565b5f8281526020818152604080832073ffffffffffffffffffffffffffffffffffffffff8516845290915290205460ff16610f72576040517fe2517d3f00000000000000000000000000000000000000000000000000000000815273ffffffffffffffffffffffffffffffffffffffff82166004820152602481018390526044015b60405180910390fd5b5050565b610f838383836001611049565b6106d3576040517f5274afe700000000000000000000000000000000000000000000000000000000815273ffffffffffffffffffffffffffffffffffffffff84166004820152602401610f69565b610fdd8383835f6110d1565b6106d357610fee83835f60016110d1565b61103c576040517f5274afe700000000000000000000000000000000000000000000000000000000815273ffffffffffffffffffffffffffffffffffffffff84166004820152602401610f69565b610f8383838360016110d1565b6040517fa9059cbb000000000000000000000000000000000000000000000000000000005f81815273ffffffffffffffffffffffffffffffffffffffff8616600452602485905291602083604481808b5af1925060015f511483166110c55783831516156110b9573d5f823e3d81fd5b5f873b113d1516831692505b60405250949350505050565b6040517f095ea7b3000000000000000000000000000000000000000000000000000000005f81815273ffffffffffffffffffffffffffffffffffffffff8616600452602485905291602083604481808b5af1925060015f511483166110c55783831516156110b9573d5f823e3d81fd5b5f60208284031215611151575f5ffd5b81357fffffffff0000000000000000000000000000000000000000000000000000000081168114611180575f5ffd5b9392505050565b803573ffffffffffffffffffffffffffffffffffffffff811681146111aa575f5ffd5b919050565b5f5f604083850312156111c0575f5ffd5b6111c983611187565b9150602083013580151581146111dd575f5ffd5b809150509250929050565b5f5f604083850312156111f9575f5ffd5b61120283611187565b946020939093013593505050565b5f60208284031215611220575f5ffd5b5035919050565b5f5f60408385031215611238575f5ffd5b8235915061124860208401611187565b90509250929050565b5f60208284031215611261575f5ffd5b61118082611187565b5f6020828403121561127a575f5ffd5b5051919050565b8082018082111561047e577f4e487b71000000000000000000000000000000000000000000000000000000005f52601160045260245ffdfea2646970667358221220f6f0bde44f2e2877a091b388012b60c192615f0e6a4ef24c93f95d475a236fdb64736f6c634300081e0033","linkReferences":{}},"methodIdentifiers":{"ADMIN_ROLE()":"75b238fc","DEFAULT_ADMIN_ROLE()":"a217fddf","KEEPER_ROLE()":"364bc15a","MULTISIG_ROLE()":"e328400c","asset()":"38d52e0f","controller()":"f77c4791","delegateSigner(address,bool)":"064a2a94","getRoleAdmin(bytes32)":"248a9ca3","grantRole(bytes32,address)":"2f2ff15d","hasRole(bytes32,address)":"91d14854","increaseControllerApproval(address,uint256)":"5e7d13d7","manager()":"481c6a75","pull(address)":"52d11238","renounceRole(bytes32,address)":"36568abe","revokeRole(bytes32,address)":"d547741f","reward(uint256)":"a9fb763c","staking()":"4cf088d9","supportsInterface(bytes4)":"01ffc9a7","withdrawToManager(address,uint256)":"0e5bc838","withdrawToMultisig(address,uint256)":"bc6174b3"},"id":144}