{"abi":[{"type":"constructor","inputs":[{"name":"_vault","type":"address","internalType":"address"},{"name":"_assetOFT","type":"address","internalType":"address"},{"name":"_shareOFT","type":"address","internalType":"address"}],"stateMutability":"nonpayable"},{"type":"function","name":"ASSET_ERC20","inputs":[],"outputs":[{"name":"","type":"address","internalType":"address"}],"stateMutability":"view"},{"type":"function","name":"ASSET_OFT","inputs":[],"outputs":[{"name":"","type":"address","internalType":"address"}],"stateMutability":"view"},{"type":"function","name":"ENDPOINT","inputs":[],"outputs":[{"name":"","type":"address","internalType":"address"}],"stateMutability":"view"},{"type":"function","name":"SHARE_ERC20","inputs":[],"outputs":[{"name":"","type":"address","internalType":"address"}],"stateMutability":"view"},{"type":"function","name":"SHARE_OFT","inputs":[],"outputs":[{"name":"","type":"address","internalType":"address"}],"stateMutability":"view"},{"type":"function","name":"VAULT","inputs":[],"outputs":[{"name":"","type":"address","internalType":"contract IERC4626"}],"stateMutability":"view"},{"type":"function","name":"VAULT_EID","inputs":[],"outputs":[{"name":"","type":"uint32","internalType":"uint32"}],"stateMutability":"view"},{"type":"function","name":"depositAndSend","inputs":[{"name":"_assetAmount","type":"uint256","internalType":"uint256"},{"name":"_sendParam","type":"tuple","internalType":"struct SendParam","components":[{"name":"dstEid","type":"uint32","internalType":"uint32"},{"name":"to","type":"bytes32","internalType":"bytes32"},{"name":"amountLD","type":"uint256","internalType":"uint256"},{"name":"minAmountLD","type":"uint256","internalType":"uint256"},{"name":"extraOptions","type":"bytes","internalType":"bytes"},{"name":"composeMsg","type":"bytes","internalType":"bytes"},{"name":"oftCmd","type":"bytes","internalType":"bytes"}]},{"name":"_refundAddress","type":"address","internalType":"address"}],"outputs":[],"stateMutability":"payable"},{"type":"function","name":"handleCompose","inputs":[{"name":"_oftIn","type":"address","internalType":"address"},{"name":"_composeFrom","type":"bytes32","internalType":"bytes32"},{"name":"_composeMsg","type":"bytes","internalType":"bytes"},{"name":"_amount","type":"uint256","internalType":"uint256"}],"outputs":[],"stateMutability":"payable"},{"type":"function","name":"lzCompose","inputs":[{"name":"_composeSender","type":"address","internalType":"address"},{"name":"_guid","type":"bytes32","internalType":"bytes32"},{"name":"_message","type":"bytes","internalType":"bytes"},{"name":"","type":"address","internalType":"address"},{"name":"","type":"bytes","internalType":"bytes"}],"outputs":[],"stateMutability":"payable"},{"type":"function","name":"quoteSend","inputs":[{"name":"_from","type":"address","internalType":"address"},{"name":"_targetOFT","type":"address","internalType":"address"},{"name":"_vaultInAmount","type":"uint256","internalType":"uint256"},{"name":"_sendParam","type":"tuple","internalType":"struct SendParam","components":[{"name":"dstEid","type":"uint32","internalType":"uint32"},{"name":"to","type":"bytes32","internalType":"bytes32"},{"name":"amountLD","type":"uint256","internalType":"uint256"},{"name":"minAmountLD","type":"uint256","internalType":"uint256"},{"name":"extraOptions","type":"bytes","internalType":"bytes"},{"name":"composeMsg","type":"bytes","internalType":"bytes"},{"name":"oftCmd","type":"bytes","internalType":"bytes"}]}],"outputs":[{"name":"","type":"tuple","internalType":"struct MessagingFee","components":[{"name":"nativeFee","type":"uint256","internalType":"uint256"},{"name":"lzTokenFee","type":"uint256","internalType":"uint256"}]}],"stateMutability":"view"},{"type":"function","name":"redeemAndSend","inputs":[{"name":"_shareAmount","type":"uint256","internalType":"uint256"},{"name":"_sendParam","type":"tuple","internalType":"struct SendParam","components":[{"name":"dstEid","type":"uint32","internalType":"uint32"},{"name":"to","type":"bytes32","internalType":"bytes32"},{"name":"amountLD","type":"uint256","internalType":"uint256"},{"name":"minAmountLD","type":"uint256","internalType":"uint256"},{"name":"extraOptions","type":"bytes","internalType":"bytes"},{"name":"composeMsg","type":"bytes","internalType":"bytes"},{"name":"oftCmd","type":"bytes","internalType":"bytes"}]},{"name":"_refundAddress","type":"address","internalType":"address"}],"outputs":[],"stateMutability":"payable"},{"type":"event","name":"Deposited","inputs":[{"name":"sender","type":"bytes32","indexed":false,"internalType":"bytes32"},{"name":"recipient","type":"bytes32","indexed":false,"internalType":"bytes32"},{"name":"dstEid","type":"uint32","indexed":false,"internalType":"uint32"},{"name":"assetAmt","type":"uint256","indexed":false,"internalType":"uint256"},{"name":"shareAmt","type":"uint256","indexed":false,"internalType":"uint256"}],"anonymous":false},{"type":"event","name":"Redeemed","inputs":[{"name":"sender","type":"bytes32","indexed":false,"internalType":"bytes32"},{"name":"recipient","type":"bytes32","indexed":false,"internalType":"bytes32"},{"name":"dstEid","type":"uint32","indexed":false,"internalType":"uint32"},{"name":"shareAmt","type":"uint256","indexed":false,"internalType":"uint256"},{"name":"assetAmt","type":"uint256","indexed":false,"internalType":"uint256"}],"anonymous":false},{"type":"event","name":"Refunded","inputs":[{"name":"guid","type":"bytes32","indexed":true,"internalType":"bytes32"}],"anonymous":false},{"type":"event","name":"Sent","inputs":[{"name":"guid","type":"bytes32","indexed":true,"internalType":"bytes32"}],"anonymous":false},{"type":"error","name":"AssetTokenNotVaultAsset","inputs":[{"name":"assetERC20","type":"address","internalType":"address"},{"name":"vaultAsset","type":"address","internalType":"address"}]},{"type":"error","name":"ERC4626ExceededMaxDeposit","inputs":[{"name":"receiver","type":"address","internalType":"address"},{"name":"assets","type":"uint256","internalType":"uint256"},{"name":"max","type":"uint256","internalType":"uint256"}]},{"type":"error","name":"ERC4626ExceededMaxRedeem","inputs":[{"name":"owner","type":"address","internalType":"address"},{"name":"shares","type":"uint256","internalType":"uint256"},{"name":"max","type":"uint256","internalType":"uint256"}]},{"type":"error","name":"InsufficientMsgValue","inputs":[{"name":"expectedMsgValue","type":"uint256","internalType":"uint256"},{"name":"actualMsgValue","type":"uint256","internalType":"uint256"}]},{"type":"error","name":"OnlyEndpoint","inputs":[{"name":"caller","type":"address","internalType":"address"}]},{"type":"error","name":"OnlySelf","inputs":[{"name":"caller","type":"address","internalType":"address"}]},{"type":"error","name":"OnlyValidComposeCaller","inputs":[{"name":"caller","type":"address","internalType":"address"}]},{"type":"error","name":"ReentrancyGuardReentrantCall","inputs":[]},{"type":"error","name":"SafeERC20FailedOperation","inputs":[{"name":"token","type":"address","internalType":"address"}]},{"type":"error","name":"ShareOFTNotAdapter","inputs":[{"name":"shareOFT","type":"address","internalType":"address"}]},{"type":"error","name":"ShareTokenNotVault","inputs":[{"name":"shareERC20","type":"address","internalType":"address"},{"name":"vault","type":"address","internalType":"address"}]},{"type":"error","name":"SlippageExceeded","inputs":[{"name":"vaultAmountOut","type":"uint256","internalType":"uint256"},{"name":"minVaultAmountOut","type":"uint256","internalType":"uint256"}]}],"bytecode":{"object":"0x610160604052348015610010575f5ffd5b506040516128ce3803806128ce83398101604081905261002f916105e8565b82828260017f9b779b17422d0df92223018b32b4d1fa46e071723d6817e2486d003becc55f0061005d565b90565b556001600160a01b0380841660805281811660e052821660a05261007f610191565b6001600160a01b0316610100526100946102ed565b6001600160a01b031660c0816001600160a01b03168152505060a0516001600160a01b0316635e280f116040518163ffffffff1660e01b8152600401602060405180830381865afa1580156100eb573d5f5f3e3d5ffd5b505050506040513d601f19601f8201168201806040525081019061010f9190610632565b6001600160a01b03166101208190526040805163416ecebf60e01b8152905163416ecebf916004808201926020929091908290030181865afa158015610157573d5f5f3e3d5ffd5b505050506040513d601f19601f8201168201806040525081019061017b9190610654565b63ffffffff166101405250610696945050505050565b5f60e0516001600160a01b031663fc0c546a6040518163ffffffff1660e01b8152600401602060405180830381865afa1580156101d0573d5f5f3e3d5ffd5b505050506040513d601f19601f820116820180604052508101906101f49190610632565b90506080516001600160a01b0316816001600160a01b0316146102465760805160405163070bc55b60e11b81526001600160a01b03808416600483015290911660248201526044015b60405180910390fd5b60e0516001600160a01b0316639f68b9646040518163ffffffff1660e01b8152600401602060405180830381865afa158015610284573d5f5f3e3d5ffd5b505050506040513d601f19601f820116820180604052508101906102a89190610677565b6102d45760e051604051637e0a8a5760e11b81526001600160a01b03909116600482015260240161023d565b60e05161005a906001600160a01b038316905f196104f0565b5f60a0516001600160a01b031663fc0c546a6040518163ffffffff1660e01b8152600401602060405180830381865afa15801561032c573d5f5f3e3d5ffd5b505050506040513d601f19601f820116820180604052508101906103509190610632565b90506080516001600160a01b03166338d52e0f6040518163ffffffff1660e01b8152600401602060405180830381865afa158015610390573d5f5f3e3d5ffd5b505050506040513d601f19601f820116820180604052508101906103b49190610632565b6001600160a01b0316816001600160a01b03161461045b57806080516001600160a01b03166338d52e0f6040518163ffffffff1660e01b8152600401602060405180830381865afa15801561040b573d5f5f3e3d5ffd5b505050506040513d601f19601f8201168201806040525081019061042f9190610632565b60405163ba9d665f60e01b81526001600160a01b0392831660048201529116602482015260440161023d565b60a0516001600160a01b0316639f68b9646040518163ffffffff1660e01b8152600401602060405180830381865afa158015610499573d5f5f3e3d5ffd5b505050506040513d601f19601f820116820180604052508101906104bd9190610677565b156104db5760a0516104db906001600160a01b038316905f196104f0565b60805161005a906001600160a01b038316905f195b6104fc8383835f61056f565b61056a5761050d83835f600161056f565b61053557604051635274afe760e01b81526001600160a01b038416600482015260240161023d565b610542838383600161056f565b61056a57604051635274afe760e01b81526001600160a01b038416600482015260240161023d565b505050565b60405163095ea7b360e01b5f8181526001600160a01b038616600452602485905291602083604481808b5af1925060015f511483166105c55783831516156105b9573d5f823e3d81fd5b5f873b113d1516831692505b60405250949350505050565b6001600160a01b03811681146105e5575f5ffd5b50565b5f5f5f606084860312156105fa575f5ffd5b8351610605816105d1565b6020850151909350610616816105d1565b6040850151909250610627816105d1565b809150509250925092565b5f60208284031215610642575f5ffd5b815161064d816105d1565b9392505050565b5f60208284031215610664575f5ffd5b815163ffffffff8116811461064d575f5ffd5b5f60208284031215610687575f5ffd5b8151801515811461064d575f5ffd5b60805160a05160c05160e0516101005161012051610140516121476107875f395f818161029b015261142801525f81816101f6015261098501525f81816102680152818161038c01528181610d2b01528181610de6015261161001525f818161017d01528181610a370152610e9301525f818161014a0152818161030701528181610f500152818161100b015261163601525f818160d8015281816103d6015281816108f5015281816109e0015281816110b801526115bd01525f81816101b00152818161046e0152818161056f0152818161063f0152818161073b0152818161135701526114ab01526121475ff3fe6080604052600436106100c3575f3560e01c80636fad06f511610071578063a99ecc541161004c578063a99ecc5414610257578063aa72fe3f1461028a578063d0a10260146102d2575f5ffd5b80636fad06f5146101e55780637e6e1e10146102185780639a6b198c14610244575f5ffd5b8063369caf83116100a1578063369caf831461016c578063411557d11461019f57806353174fa4146101d2575f5ffd5b80630bfec755146100c757806319197ec6146101245780631df34fa314610139575b5f5ffd5b3480156100d2575f5ffd5b506100fa7f000000000000000000000000000000000000000000000000000000000000000081565b60405173ffffffffffffffffffffffffffffffffffffffff90911681526020015b60405180910390f35b6101376101323660046119c0565b6102e5565b005b348015610144575f5ffd5b506100fa7f000000000000000000000000000000000000000000000000000000000000000081565b348015610177575f5ffd5b506100fa7f000000000000000000000000000000000000000000000000000000000000000081565b3480156101aa575f5ffd5b506100fa7f000000000000000000000000000000000000000000000000000000000000000081565b6101376101e03660046119c0565b61036a565b3480156101f0575f5ffd5b506100fa7f000000000000000000000000000000000000000000000000000000000000000081565b348015610223575f5ffd5b50610237610232366004611a13565b6103c1565b60405161011b9190611a77565b610137610252366004611a8e565b61085b565b348015610262575f5ffd5b506100fa7f000000000000000000000000000000000000000000000000000000000000000081565b348015610295575f5ffd5b506102bd7f000000000000000000000000000000000000000000000000000000000000000081565b60405163ffffffff909116815260200161011b565b6101376102e0366004611b2e565b61096d565b6102ed610c6b565b61032f73ffffffffffffffffffffffffffffffffffffffff7f000000000000000000000000000000000000000000000000000000000000000016333086610c99565b61033c3384848434610cfb565b61036560017f9b779b17422d0df92223018b32b4d1fa46e071723d6817e2486d003becc55f0055565b505050565b610372610c6b565b6103b473ffffffffffffffffffffffffffffffffffffffff7f000000000000000000000000000000000000000000000000000000000000000016333086610c99565b61033c3384848434610f20565b604080518082019091525f80825260208201527f000000000000000000000000000000000000000000000000000000000000000073ffffffffffffffffffffffffffffffffffffffff168473ffffffffffffffffffffffffffffffffffffffff16036105f8576040517fd905777e00000000000000000000000000000000000000000000000000000000815273ffffffffffffffffffffffffffffffffffffffff86811660048301525f917f00000000000000000000000000000000000000000000000000000000000000009091169063d905777e90602401602060405180830381865afa1580156104b5573d5f5f3e3d5ffd5b505050506040513d601f19601f820116820180604052508101906104d99190611bc8565b905080841115610540576040517fb94abeec00000000000000000000000000000000000000000000000000000000815273ffffffffffffffffffffffffffffffffffffffff8716600482015260248101859052604481018290526064015b60405180910390fd5b6040517f4cdad506000000000000000000000000000000000000000000000000000000008152600481018590527f000000000000000000000000000000000000000000000000000000000000000073ffffffffffffffffffffffffffffffffffffffff1690634cdad50690602401602060405180830381865afa1580156105c9573d5f5f3e3d5ffd5b505050506040513d601f19601f820116820180604052508101906105ed9190611bc8565b6040840152506107c0565b6040517f402d267d00000000000000000000000000000000000000000000000000000000815273ffffffffffffffffffffffffffffffffffffffff86811660048301525f917f00000000000000000000000000000000000000000000000000000000000000009091169063402d267d90602401602060405180830381865afa158015610686573d5f5f3e3d5ffd5b505050506040513d601f19601f820116820180604052508101906106aa9190611bc8565b90508084111561070c576040517f79012fb200000000000000000000000000000000000000000000000000000000815273ffffffffffffffffffffffffffffffffffffffff871660048201526024810185905260448101829052606401610537565b6040517fef8b30f7000000000000000000000000000000000000000000000000000000008152600481018590527f000000000000000000000000000000000000000000000000000000000000000073ffffffffffffffffffffffffffffffffffffffff169063ef8b30f790602401602060405180830381865afa158015610795573d5f5f3e3d5ffd5b505050506040513d601f19601f820116820180604052508101906107b99190611bc8565b6040840152505b6040517f3b6f743b00000000000000000000000000000000000000000000000000000000815273ffffffffffffffffffffffffffffffffffffffff851690633b6f743b906108149085905f90600401611ca0565b6040805180830381865afa15801561082e573d5f5f3e3d5ffd5b505050506040513d601f19601f820116820180604052508101906108529190611d10565b95945050505050565b333014610896576040517fa19dbf00000000000000000000000000000000000000000000000000000000008152336004820152602401610537565b5f5f838060200190518101906108ac9190611d82565b91509150803410156108f3576040517f7cb769dc00000000000000000000000000000000000000000000000000000000815260048101829052346024820152604401610537565b7f000000000000000000000000000000000000000000000000000000000000000073ffffffffffffffffffffffffffffffffffffffff168673ffffffffffffffffffffffffffffffffffffffff1603610958576109538584843234610cfb565b610965565b6109658584843234610f20565b505050505050565b3373ffffffffffffffffffffffffffffffffffffffff7f000000000000000000000000000000000000000000000000000000000000000016146109de576040517f91ac5e4f000000000000000000000000000000000000000000000000000000008152336004820152602401610537565b7f000000000000000000000000000000000000000000000000000000000000000073ffffffffffffffffffffffffffffffffffffffff168773ffffffffffffffffffffffffffffffffffffffff1614158015610a8657507f000000000000000000000000000000000000000000000000000000000000000073ffffffffffffffffffffffffffffffffffffffff168773ffffffffffffffffffffffffffffffffffffffff1614155b15610ad5576040517f84fb3f0d00000000000000000000000000000000000000000000000000000000815273ffffffffffffffffffffffffffffffffffffffff88166004820152602401610537565b5f610ae08686611137565b90505f610aed8787611158565b90505f610afa8888611167565b6040517f9a6b198c0000000000000000000000000000000000000000000000000000000081529091503090639a6b198c903490610b41908e90889087908990600401611e7d565b5f604051808303818588803b158015610b58575f5ffd5b505af193505050508015610b6a575060015b610c34573d808015610b97576040519150601f19603f3d011682016040523d82523d5f602084013e610b9c565b606091505b507f7cb769dc00000000000000000000000000000000000000000000000000000000610bc782611ec2565b7fffffffff000000000000000000000000000000000000000000000000000000001603610bf657805181602001fd5b610c048b8a8a8632346111b1565b6040518a907ffe509803c09416b28ff3d8f690c8b0c61462a892c46d5430c8fb20abe472daf0905f90a250610c5f565b60405189907f27b5aea9f5736c02241d8a0272e9ec988ea44cf85c4b4760329431aa19678394905f90a25b50505050505050505050565b610c73611230565b60027f9b779b17422d0df92223018b32b4d1fa46e071723d6817e2486d003becc55f0055565b610ca784848484600161128d565b610cf5576040517f5274afe700000000000000000000000000000000000000000000000000000000815273ffffffffffffffffffffffffffffffffffffffff85166004820152602401610537565b50505050565b6040517f70a082310000000000000000000000000000000000000000000000000000000081523060048201525f907f000000000000000000000000000000000000000000000000000000000000000073ffffffffffffffffffffffffffffffffffffffff16906370a0823190602401602060405180830381865afa158015610d85573d5f5f3e3d5ffd5b505050506040513d601f19601f82011682018060405250810190610da99190611bc8565b9050610db58686611320565b506040517f70a082310000000000000000000000000000000000000000000000000000000081523060048201525f907f000000000000000000000000000000000000000000000000000000000000000073ffffffffffffffffffffffffffffffffffffffff16906370a0823190602401602060405180830381865afa158015610e40573d5f5f3e3d5ffd5b505050506040513d601f19601f82011682018060405250810190610e649190611bc8565b90505f610e718383611f2e565b9050610e818187606001516113d7565b604086018190525f6060870152610eba7f000000000000000000000000000000000000000000000000000000000000000087878761141f565b6020868101518751604080518c81529384019290925263ffffffff169082015260608101889052608081018290527fa53b96f27930f89fac6e5802f6b77fcad303dde855a10e5ef076e730d1f43afa9060a0015b60405180910390a15050505050505050565b6040517f70a082310000000000000000000000000000000000000000000000000000000081523060048201525f907f000000000000000000000000000000000000000000000000000000000000000073ffffffffffffffffffffffffffffffffffffffff16906370a0823190602401602060405180830381865afa158015610faa573d5f5f3e3d5ffd5b505050506040513d601f19601f82011682018060405250810190610fce9190611bc8565b9050610fda868661146d565b506040517f70a082310000000000000000000000000000000000000000000000000000000081523060048201525f907f000000000000000000000000000000000000000000000000000000000000000073ffffffffffffffffffffffffffffffffffffffff16906370a0823190602401602060405180830381865afa158015611065573d5f5f3e3d5ffd5b505050506040513d601f19601f820116820180604052508101906110899190611bc8565b90505f6110968383611f2e565b90506110a68187606001516113d7565b604086018190525f60608701526110df7f000000000000000000000000000000000000000000000000000000000000000087878761141f565b6020868101518751604080518c81529384019290925263ffffffff169082015260608101889052608081018290527f57e232f18448926c8d7554dfd1851d4a4cd10d6b804aabcd714b1f1c067e50ee9060a001610f0e565b5f611146604c602c8486611f66565b61114f91611f8d565b90505b92915050565b5f611146602c600c8486611f66565b606061117682604c8186611f66565b8080601f0160208091040260200160405190810160405280939291908181526020018383808284375f92019190915250929695505050505050565b6111f36040518060e001604052805f63ffffffff1681526020015f81526020015f81526020015f81526020016060815260200160608152602001606081525090565b6111fd86866114ef565b63ffffffff16815261120f8686611137565b60208201526040810184905261122787828585611511565b50505050505050565b7f9b779b17422d0df92223018b32b4d1fa46e071723d6817e2486d003becc55f005460020361128b576040517f3ee5aeb500000000000000000000000000000000000000000000000000000000815260040160405180910390fd5b565b6040517f23b872dd000000000000000000000000000000000000000000000000000000005f81815273ffffffffffffffffffffffffffffffffffffffff8781166004528616602452604485905291602083606481808c5af1925060015f5114831661130f578383151615611303573d5f823e3d81fd5b5f883b113d1516831692505b604052505f60605295945050505050565b6040517f6e553f65000000000000000000000000000000000000000000000000000000008152600481018290523060248201525f907f000000000000000000000000000000000000000000000000000000000000000073ffffffffffffffffffffffffffffffffffffffff1690636e553f65906044015b6020604051808303815f875af11580156113b3573d5f5f3e3d5ffd5b505050506040513d601f19601f8201168201806040525081019061114f9190611bc8565b8082101561141b576040517f71c4efed0000000000000000000000000000000000000000000000000000000081526004810183905260248101829052604401610537565b5050565b825163ffffffff7f000000000000000000000000000000000000000000000000000000000000000081169116036114615761145c848484846115ba565b610cf5565b610cf584848484611511565b6040517fba08765200000000000000000000000000000000000000000000000000000000815260048101829052306024820181905260448201525f907f000000000000000000000000000000000000000000000000000000000000000073ffffffffffffffffffffffffffffffffffffffff169063ba08765290606401611397565b5f6114fe600c60088486611f66565b61150791611fc9565b60e01c9392505050565b6040805180820182528281525f602082015290517fc7c7f5b300000000000000000000000000000000000000000000000000000000815273ffffffffffffffffffffffffffffffffffffffff86169163c7c7f5b391849161157991889190889060040161202f565b60c06040518083038185885af1158015611595573d5f5f3e3d5ffd5b50505050506040513d601f19601f82011682018060405250810190610965919061207e565b5f7f000000000000000000000000000000000000000000000000000000000000000073ffffffffffffffffffffffffffffffffffffffff168573ffffffffffffffffffffffffffffffffffffffff1614611634577f0000000000000000000000000000000000000000000000000000000000000000611656565b7f00000000000000000000000000000000000000000000000000000000000000005b9050611689611666856020015190565b604086015173ffffffffffffffffffffffffffffffffffffffff84169190611690565b5050505050565b61169d83838360016116eb565b610365576040517f5274afe700000000000000000000000000000000000000000000000000000000815273ffffffffffffffffffffffffffffffffffffffff84166004820152602401610537565b6040517fa9059cbb000000000000000000000000000000000000000000000000000000005f81815273ffffffffffffffffffffffffffffffffffffffff8616600452602485905291602083604481808b5af1925060015f5114831661176757838315161561175b573d5f823e3d81fd5b5f873b113d1516831692505b60405250949350505050565b7f4e487b71000000000000000000000000000000000000000000000000000000005f52604160045260245ffd5b60405160e0810167ffffffffffffffff811182821017156117c3576117c3611773565b60405290565b604051601f82017fffffffffffffffffffffffffffffffffffffffffffffffffffffffffffffffe016810167ffffffffffffffff8111828210171561181057611810611773565b604052919050565b63ffffffff81168114611829575f5ffd5b50565b803561183781611818565b919050565b5f67ffffffffffffffff82111561185557611855611773565b50601f017fffffffffffffffffffffffffffffffffffffffffffffffffffffffffffffffe01660200190565b5f82601f830112611890575f5ffd5b81356118a361189e8261183c565b6117c9565b8181528460208386010111156118b7575f5ffd5b816020850160208301375f918101602001919091529392505050565b5f60e082840312156118e3575f5ffd5b6118eb6117a0565b90506118f68261182c565b8152602082810135908201526040808301359082015260608083013590820152608082013567ffffffffffffffff81111561192f575f5ffd5b61193b84828501611881565b60808301525060a082013567ffffffffffffffff81111561195a575f5ffd5b61196684828501611881565b60a08301525060c082013567ffffffffffffffff811115611985575f5ffd5b61199184828501611881565b60c08301525092915050565b803573ffffffffffffffffffffffffffffffffffffffff81168114611837575f5ffd5b5f5f5f606084860312156119d2575f5ffd5b83359250602084013567ffffffffffffffff8111156119ef575f5ffd5b6119fb868287016118d3565b925050611a0a6040850161199d565b90509250925092565b5f5f5f5f60808587031215611a26575f5ffd5b611a2f8561199d565b9350611a3d6020860161199d565b925060408501359150606085013567ffffffffffffffff811115611a5f575f5ffd5b611a6b878288016118d3565b91505092959194509250565b815181526020808301519082015260408101611152565b5f5f5f5f60808587031215611aa1575f5ffd5b611aaa8561199d565b935060208501359250604085013567ffffffffffffffff811115611acc575f5ffd5b611ad887828801611881565b949793965093946060013593505050565b5f5f83601f840112611af9575f5ffd5b50813567ffffffffffffffff811115611b10575f5ffd5b602083019150836020828501011115611b27575f5ffd5b9250929050565b5f5f5f5f5f5f5f60a0888a031215611b44575f5ffd5b611b4d8861199d565b965060208801359550604088013567ffffffffffffffff811115611b6f575f5ffd5b611b7b8a828b01611ae9565b9096509450611b8e90506060890161199d565b9250608088013567ffffffffffffffff811115611ba9575f5ffd5b611bb58a828b01611ae9565b989b979a50959850939692959293505050565b5f60208284031215611bd8575f5ffd5b5051919050565b5f81518084528060208401602086015e5f6020828601015260207fffffffffffffffffffffffffffffffffffffffffffffffffffffffffffffffe0601f83011685010191505092915050565b63ffffffff81511682526020810151602083015260408101516040830152606081015160608301525f608082015160e06080850152611c6d60e0850182611bdf565b905060a083015184820360a0860152611c868282611bdf565b91505060c083015184820360c08601526108528282611bdf565b604081525f611cb26040830185611c2b565b905082151560208301529392505050565b5f60408284031215611cd3575f5ffd5b6040805190810167ffffffffffffffff81118282101715611cf657611cf6611773565b604052825181526020928301519281019290925250919050565b5f60408284031215611d20575f5ffd5b61114f8383611cc3565b805161183781611818565b5f82601f830112611d44575f5ffd5b8151611d5261189e8261183c565b818152846020838601011115611d66575f5ffd5b8160208501602083015e5f918101602001919091529392505050565b5f5f60408385031215611d93575f5ffd5b825167ffffffffffffffff811115611da9575f5ffd5b830160e08186031215611dba575f5ffd5b611dc26117a0565b611dcb82611d2a565b8152602082810151908201526040808301519082015260608083015190820152608082015167ffffffffffffffff811115611e04575f5ffd5b611e1087828501611d35565b60808301525060a082015167ffffffffffffffff811115611e2f575f5ffd5b611e3b87828501611d35565b60a08301525060c082015167ffffffffffffffff811115611e5a575f5ffd5b611e6687828501611d35565b60c083015250602094909401519395939450505050565b73ffffffffffffffffffffffffffffffffffffffff85168152836020820152608060408201525f611eb16080830185611bdf565b905082606083015295945050505050565b805160208201517fffffffff00000000000000000000000000000000000000000000000000000000811691906004821015611f27577fffffffff00000000000000000000000000000000000000000000000000000000808360040360031b1b82161692505b5050919050565b81810381811115611152577f4e487b71000000000000000000000000000000000000000000000000000000005f52601160045260245ffd5b5f5f85851115611f74575f5ffd5b83861115611f80575f5ffd5b5050820193919092039150565b80356020831015611152577fffffffffffffffffffffffffffffffffffffffffffffffffffffffffffffffff602084900360031b1b1692915050565b80357fffffffff000000000000000000000000000000000000000000000000000000008116906004841015612028577fffffffff00000000000000000000000000000000000000000000000000000000808560040360031b1b82161691505b5092915050565b608081525f6120416080830186611c2b565b905061205a602083018580518252602090810151910152565b73ffffffffffffffffffffffffffffffffffffffff83166060830152949350505050565b5f5f82840360c0811215612090575f5ffd5b608081121561209d575f5ffd5b506040516060810167ffffffffffffffff811182821017156120c1576120c1611773565b60405283518152602084015167ffffffffffffffff811681146120e2575f5ffd5b60208201526120f48560408601611cc3565b604082015291506121088460808501611cc3565b9050925092905056fea26469706673582212203f55fc0158ff465cbb1dfd050a80c786d168b0c44053f91cb67b29937366404664736f6c634300081e0033","linkReferences":{}},"methodIdentifiers":{"ASSET_ERC20()":"1df34fa3","ASSET_OFT()":"0bfec755","ENDPOINT()":"6fad06f5","SHARE_ERC20()":"a99ecc54","SHARE_OFT()":"369caf83","VAULT()":"411557d1","VAULT_EID()":"aa72fe3f","depositAndSend(uint256,(uint32,bytes32,uint256,uint256,bytes,bytes,bytes),address)":"19197ec6","handleCompose(address,bytes32,bytes,uint256)":"9a6b198c","lzCompose(address,bytes32,bytes,address,bytes)":"d0a10260","quoteSend(address,address,uint256,(uint32,bytes32,uint256,uint256,bytes,bytes,bytes))":"7e6e1e10","redeemAndSend(uint256,(uint32,bytes32,uint256,uint256,bytes,bytes,bytes),address)":"53174fa4"},"id":149}