{"abi":[{"type":"constructor","inputs":[{"name":"name_","type":"string","internalType":"string"},{"name":"symbol_","type":"string","internalType":"string"},{"name":"asset_","type":"address","internalType":"contract IERC20"},{"name":"owner_","type":"address","internalType":"address"}],"stateMutability":"nonpayable"},{"type":"function","name":"DEFAULT_ADMIN_ROLE","inputs":[],"outputs":[{"name":"","type":"bytes32","internalType":"bytes32"}],"stateMutability":"view"},{"type":"function","name":"DOMAIN_SEPARATOR","inputs":[],"outputs":[{"name":"","type":"bytes32","internalType":"bytes32"}],"stateMutability":"view"},{"type":"function","name":"MAX_COOLDOWN_LENGTH","inputs":[],"outputs":[{"name":"","type":"uint256","internalType":"uint256"}],"stateMutability":"view"},{"type":"function","name":"MAX_VESTING_LENGTH","inputs":[],"outputs":[{"name":"","type":"uint256","internalType":"uint256"}],"stateMutability":"view"},{"type":"function","name":"MIN_SHARES","inputs":[],"outputs":[{"name":"","type":"uint256","internalType":"uint256"}],"stateMutability":"view"},{"type":"function","name":"MIN_VESTING_LENGTH","inputs":[],"outputs":[{"name":"","type":"uint256","internalType":"uint256"}],"stateMutability":"view"},{"type":"function","name":"allowance","inputs":[{"name":"owner","type":"address","internalType":"address"},{"name":"spender","type":"address","internalType":"address"}],"outputs":[{"name":"","type":"uint256","internalType":"uint256"}],"stateMutability":"view"},{"type":"function","name":"approve","inputs":[{"name":"spender","type":"address","internalType":"address"},{"name":"value","type":"uint256","internalType":"uint256"}],"outputs":[{"name":"","type":"bool","internalType":"bool"}],"stateMutability":"nonpayable"},{"type":"function","name":"asset","inputs":[],"outputs":[{"name":"","type":"address","internalType":"address"}],"stateMutability":"view"},{"type":"function","name":"balanceOf","inputs":[{"name":"account","type":"address","internalType":"address"}],"outputs":[{"name":"","type":"uint256","internalType":"uint256"}],"stateMutability":"view"},{"type":"function","name":"convertToAssets","inputs":[{"name":"shares","type":"uint256","internalType":"uint256"}],"outputs":[{"name":"","type":"uint256","internalType":"uint256"}],"stateMutability":"view"},{"type":"function","name":"convertToShares","inputs":[{"name":"assets","type":"uint256","internalType":"uint256"}],"outputs":[{"name":"","type":"uint256","internalType":"uint256"}],"stateMutability":"view"},{"type":"function","name":"cooldownAssets","inputs":[{"name":"assets","type":"uint256","internalType":"uint256"}],"outputs":[{"name":"shares","type":"uint256","internalType":"uint256"}],"stateMutability":"nonpayable"},{"type":"function","name":"cooldownLength","inputs":[],"outputs":[{"name":"","type":"uint256","internalType":"uint256"}],"stateMutability":"view"},{"type":"function","name":"cooldownShares","inputs":[{"name":"shares","type":"uint256","internalType":"uint256"}],"outputs":[{"name":"assets","type":"uint256","internalType":"uint256"}],"stateMutability":"nonpayable"},{"type":"function","name":"cooldowns","inputs":[{"name":"","type":"address","internalType":"address"}],"outputs":[{"name":"assets","type":"uint160","internalType":"uint160"},{"name":"end","type":"uint96","internalType":"uint96"}],"stateMutability":"view"},{"type":"function","name":"decimals","inputs":[],"outputs":[{"name":"","type":"uint8","internalType":"uint8"}],"stateMutability":"pure"},{"type":"function","name":"deposit","inputs":[{"name":"assets","type":"uint256","internalType":"uint256"},{"name":"receiver","type":"address","internalType":"address"}],"outputs":[{"name":"shares","type":"uint256","internalType":"uint256"}],"stateMutability":"nonpayable"},{"type":"function","name":"eip712Domain","inputs":[],"outputs":[{"name":"fields","type":"bytes1","internalType":"bytes1"},{"name":"name","type":"string","internalType":"string"},{"name":"version","type":"string","internalType":"string"},{"name":"chainId","type":"uint256","internalType":"uint256"},{"name":"verifyingContract","type":"address","internalType":"address"},{"name":"salt","type":"bytes32","internalType":"bytes32"},{"name":"extensions","type":"uint256[]","internalType":"uint256[]"}],"stateMutability":"view"},{"type":"function","name":"getRoleAdmin","inputs":[{"name":"role","type":"bytes32","internalType":"bytes32"}],"outputs":[{"name":"","type":"bytes32","internalType":"bytes32"}],"stateMutability":"view"},{"type":"function","name":"grantRole","inputs":[{"name":"role","type":"bytes32","internalType":"bytes32"},{"name":"account","type":"address","internalType":"address"}],"outputs":[],"stateMutability":"nonpayable"},{"type":"function","name":"hasRole","inputs":[{"name":"role","type":"bytes32","internalType":"bytes32"},{"name":"account","type":"address","internalType":"address"}],"outputs":[{"name":"","type":"bool","internalType":"bool"}],"stateMutability":"view"},{"type":"function","name":"isRestricted","inputs":[{"name":"","type":"address","internalType":"address"}],"outputs":[{"name":"","type":"bool","internalType":"bool"}],"stateMutability":"view"},{"type":"function","name":"maxDeposit","inputs":[{"name":"","type":"address","internalType":"address"}],"outputs":[{"name":"","type":"uint256","internalType":"uint256"}],"stateMutability":"view"},{"type":"function","name":"maxMint","inputs":[{"name":"","type":"address","internalType":"address"}],"outputs":[{"name":"","type":"uint256","internalType":"uint256"}],"stateMutability":"view"},{"type":"function","name":"maxRedeem","inputs":[{"name":"owner","type":"address","internalType":"address"}],"outputs":[{"name":"","type":"uint256","internalType":"uint256"}],"stateMutability":"view"},{"type":"function","name":"maxWithdraw","inputs":[{"name":"owner","type":"address","internalType":"address"}],"outputs":[{"name":"","type":"uint256","internalType":"uint256"}],"stateMutability":"view"},{"type":"function","name":"mint","inputs":[{"name":"shares","type":"uint256","internalType":"uint256"},{"name":"receiver","type":"address","internalType":"address"}],"outputs":[{"name":"","type":"uint256","internalType":"uint256"}],"stateMutability":"nonpayable"},{"type":"function","name":"name","inputs":[],"outputs":[{"name":"","type":"string","internalType":"string"}],"stateMutability":"view"},{"type":"function","name":"nonces","inputs":[{"name":"owner","type":"address","internalType":"address"}],"outputs":[{"name":"","type":"uint256","internalType":"uint256"}],"stateMutability":"view"},{"type":"function","name":"pendingRewards","inputs":[],"outputs":[{"name":"amount","type":"uint256","internalType":"uint256"}],"stateMutability":"view"},{"type":"function","name":"permit","inputs":[{"name":"owner","type":"address","internalType":"address"},{"name":"spender","type":"address","internalType":"address"},{"name":"value","type":"uint256","internalType":"uint256"},{"name":"deadline","type":"uint256","internalType":"uint256"},{"name":"v","type":"uint8","internalType":"uint8"},{"name":"r","type":"bytes32","internalType":"bytes32"},{"name":"s","type":"bytes32","internalType":"bytes32"}],"outputs":[],"stateMutability":"nonpayable"},{"type":"function","name":"previewDeposit","inputs":[{"name":"assets","type":"uint256","internalType":"uint256"}],"outputs":[{"name":"","type":"uint256","internalType":"uint256"}],"stateMutability":"view"},{"type":"function","name":"previewMint","inputs":[{"name":"shares","type":"uint256","internalType":"uint256"}],"outputs":[{"name":"","type":"uint256","internalType":"uint256"}],"stateMutability":"view"},{"type":"function","name":"previewRedeem","inputs":[{"name":"shares","type":"uint256","internalType":"uint256"}],"outputs":[{"name":"","type":"uint256","internalType":"uint256"}],"stateMutability":"view"},{"type":"function","name":"previewWithdraw","inputs":[{"name":"assets","type":"uint256","internalType":"uint256"}],"outputs":[{"name":"","type":"uint256","internalType":"uint256"}],"stateMutability":"view"},{"type":"function","name":"redeem","inputs":[{"name":"shares","type":"uint256","internalType":"uint256"},{"name":"receiver","type":"address","internalType":"address"},{"name":"owner","type":"address","internalType":"address"}],"outputs":[{"name":"","type":"uint256","internalType":"uint256"}],"stateMutability":"nonpayable"},{"type":"function","name":"renounceRole","inputs":[{"name":"role","type":"bytes32","internalType":"bytes32"},{"name":"callerConfirmation","type":"address","internalType":"address"}],"outputs":[],"stateMutability":"nonpayable"},{"type":"function","name":"rescueToken","inputs":[{"name":"token","type":"address","internalType":"address"},{"name":"to","type":"address","internalType":"address"}],"outputs":[],"stateMutability":"nonpayable"},{"type":"function","name":"revokeRole","inputs":[{"name":"role","type":"bytes32","internalType":"bytes32"},{"name":"account","type":"address","internalType":"address"}],"outputs":[],"stateMutability":"nonpayable"},{"type":"function","name":"reward","inputs":[{"name":"assets","type":"uint256","internalType":"uint256"}],"outputs":[],"stateMutability":"nonpayable"},{"type":"function","name":"setCooldownLength","inputs":[{"name":"newCooldownLength","type":"uint256","internalType":"uint256"}],"outputs":[],"stateMutability":"nonpayable"},{"type":"function","name":"setIsRestricted","inputs":[{"name":"account","type":"address","internalType":"address"},{"name":"newStatus","type":"bool","internalType":"bool"}],"outputs":[],"stateMutability":"nonpayable"},{"type":"function","name":"setVestingLength","inputs":[{"name":"newVestingLength","type":"uint128","internalType":"uint128"}],"outputs":[],"stateMutability":"nonpayable"},{"type":"function","name":"silo","inputs":[],"outputs":[{"name":"","type":"address","internalType":"contract AssetSilo"}],"stateMutability":"view"},{"type":"function","name":"supportsInterface","inputs":[{"name":"interfaceId","type":"bytes4","internalType":"bytes4"}],"outputs":[{"name":"","type":"bool","internalType":"bool"}],"stateMutability":"view"},{"type":"function","name":"symbol","inputs":[],"outputs":[{"name":"","type":"string","internalType":"string"}],"stateMutability":"view"},{"type":"function","name":"totalAssets","inputs":[],"outputs":[{"name":"","type":"uint256","internalType":"uint256"}],"stateMutability":"view"},{"type":"function","name":"totalSupply","inputs":[],"outputs":[{"name":"","type":"uint256","internalType":"uint256"}],"stateMutability":"view"},{"type":"function","name":"transfer","inputs":[{"name":"to","type":"address","internalType":"address"},{"name":"value","type":"uint256","internalType":"uint256"}],"outputs":[{"name":"","type":"bool","internalType":"bool"}],"stateMutability":"nonpayable"},{"type":"function","name":"transferFrom","inputs":[{"name":"from","type":"address","internalType":"address"},{"name":"to","type":"address","internalType":"address"},{"name":"value","type":"uint256","internalType":"uint256"}],"outputs":[{"name":"","type":"bool","internalType":"bool"}],"stateMutability":"nonpayable"},{"type":"function","name":"transferRestrictedAssets","inputs":[{"name":"from","type":"address","internalType":"address"},{"name":"to","type":"address","internalType":"address"}],"outputs":[],"stateMutability":"nonpayable"},{"type":"function","name":"unstake","inputs":[{"name":"to","type":"address","internalType":"address"}],"outputs":[],"stateMutability":"nonpayable"},{"type":"function","name":"vesting","inputs":[],"outputs":[{"name":"length","type":"uint128","internalType":"uint128"},{"name":"end","type":"uint128","internalType":"uint128"},{"name":"assets","type":"uint256","internalType":"uint256"}],"stateMutability":"view"},{"type":"function","name":"withdraw","inputs":[{"name":"assets","type":"uint256","internalType":"uint256"},{"name":"receiver","type":"address","internalType":"address"},{"name":"owner","type":"address","internalType":"address"}],"outputs":[{"name":"","type":"uint256","internalType":"uint256"}],"stateMutability":"nonpayable"},{"type":"event","name":"Approval","inputs":[{"name":"owner","type":"address","indexed":true,"internalType":"address"},{"name":"spender","type":"address","indexed":true,"internalType":"address"},{"name":"value","type":"uint256","indexed":false,"internalType":"uint256"}],"anonymous":false},{"type":"event","name":"CooldownLengthUpdated","inputs":[{"name":"newCooldownLength","type":"uint256","indexed":false,"internalType":"uint256"}],"anonymous":false},{"type":"event","name":"CooldownStarted","inputs":[{"name":"account","type":"address","indexed":true,"internalType":"address"},{"name":"assets","type":"uint256","indexed":false,"internalType":"uint256"}],"anonymous":false},{"type":"event","name":"Deposit","inputs":[{"name":"sender","type":"address","indexed":true,"internalType":"address"},{"name":"owner","type":"address","indexed":true,"internalType":"address"},{"name":"assets","type":"uint256","indexed":false,"internalType":"uint256"},{"name":"shares","type":"uint256","indexed":false,"internalType":"uint256"}],"anonymous":false},{"type":"event","name":"EIP712DomainChanged","inputs":[],"anonymous":false},{"type":"event","name":"RestrictedStatusChanged","inputs":[{"name":"account","type":"address","indexed":true,"internalType":"address"},{"name":"isRestricted","type":"bool","indexed":false,"internalType":"bool"}],"anonymous":false},{"type":"event","name":"RewardsReceived","inputs":[{"name":"assets","type":"uint256","indexed":false,"internalType":"uint256"}],"anonymous":false},{"type":"event","name":"RoleAdminChanged","inputs":[{"name":"role","type":"bytes32","indexed":true,"internalType":"bytes32"},{"name":"previousAdminRole","type":"bytes32","indexed":true,"internalType":"bytes32"},{"name":"newAdminRole","type":"bytes32","indexed":true,"internalType":"bytes32"}],"anonymous":false},{"type":"event","name":"RoleGranted","inputs":[{"name":"role","type":"bytes32","indexed":true,"internalType":"bytes32"},{"name":"account","type":"address","indexed":true,"internalType":"address"},{"name":"sender","type":"address","indexed":true,"internalType":"address"}],"anonymous":false},{"type":"event","name":"RoleRevoked","inputs":[{"name":"role","type":"bytes32","indexed":true,"internalType":"bytes32"},{"name":"account","type":"address","indexed":true,"internalType":"address"},{"name":"sender","type":"address","indexed":true,"internalType":"address"}],"anonymous":false},{"type":"event","name":"Transfer","inputs":[{"name":"from","type":"address","indexed":true,"internalType":"address"},{"name":"to","type":"address","indexed":true,"internalType":"address"},{"name":"value","type":"uint256","indexed":false,"internalType":"uint256"}],"anonymous":false},{"type":"event","name":"Unstake","inputs":[{"name":"from","type":"address","indexed":true,"internalType":"address"},{"name":"to","type":"address","indexed":false,"internalType":"address"},{"name":"assets","type":"uint256","indexed":false,"internalType":"uint256"}],"anonymous":false},{"type":"event","name":"VestingLengthUpdated","inputs":[{"name":"newVestingLength","type":"uint128","indexed":false,"internalType":"uint128"}],"anonymous":false},{"type":"event","name":"VestingStarted","inputs":[{"name":"total","type":"uint256","indexed":false,"internalType":"uint256"},{"name":"end","type":"uint256","indexed":false,"internalType":"uint256"}],"anonymous":false},{"type":"event","name":"Withdraw","inputs":[{"name":"sender","type":"address","indexed":true,"internalType":"address"},{"name":"receiver","type":"address","indexed":true,"internalType":"address"},{"name":"owner","type":"address","indexed":true,"internalType":"address"},{"name":"assets","type":"uint256","indexed":false,"internalType":"uint256"},{"name":"shares","type":"uint256","indexed":false,"internalType":"uint256"}],"anonymous":false},{"type":"error","name":"AccessControlBadConfirmation","inputs":[]},{"type":"error","name":"AccessControlUnauthorizedAccount","inputs":[{"name":"account","type":"address","internalType":"address"},{"name":"neededRole","type":"bytes32","internalType":"bytes32"}]},{"type":"error","name":"AccountRestricted","inputs":[]},{"type":"error","name":"BelowMinimumShare","inputs":[]},{"type":"error","name":"CooldownExceededMaxRedeem","inputs":[]},{"type":"error","name":"CooldownExceededMaxWithdraw","inputs":[]},{"type":"error","name":"CooldownInProgress","inputs":[]},{"type":"error","name":"ECDSAInvalidSignature","inputs":[]},{"type":"error","name":"ECDSAInvalidSignatureLength","inputs":[{"name":"length","type":"uint256","internalType":"uint256"}]},{"type":"error","name":"ECDSAInvalidSignatureS","inputs":[{"name":"s","type":"bytes32","internalType":"bytes32"}]},{"type":"error","name":"ERC20InsufficientAllowance","inputs":[{"name":"spender","type":"address","internalType":"address"},{"name":"allowance","type":"uint256","internalType":"uint256"},{"name":"needed","type":"uint256","internalType":"uint256"}]},{"type":"error","name":"ERC20InsufficientBalance","inputs":[{"name":"sender","type":"address","internalType":"address"},{"name":"balance","type":"uint256","internalType":"uint256"},{"name":"needed","type":"uint256","internalType":"uint256"}]},{"type":"error","name":"ERC20InvalidApprover","inputs":[{"name":"approver","type":"address","internalType":"address"}]},{"type":"error","name":"ERC20InvalidReceiver","inputs":[{"name":"receiver","type":"address","internalType":"address"}]},{"type":"error","name":"ERC20InvalidSender","inputs":[{"name":"sender","type":"address","internalType":"address"}]},{"type":"error","name":"ERC20InvalidSpender","inputs":[{"name":"spender","type":"address","internalType":"address"}]},{"type":"error","name":"ERC2612ExpiredSignature","inputs":[{"name":"deadline","type":"uint256","internalType":"uint256"}]},{"type":"error","name":"ERC2612InvalidSigner","inputs":[{"name":"signer","type":"address","internalType":"address"},{"name":"owner","type":"address","internalType":"address"}]},{"type":"error","name":"ERC4626ExceededMaxDeposit","inputs":[{"name":"receiver","type":"address","internalType":"address"},{"name":"assets","type":"uint256","internalType":"uint256"},{"name":"max","type":"uint256","internalType":"uint256"}]},{"type":"error","name":"ERC4626ExceededMaxMint","inputs":[{"name":"receiver","type":"address","internalType":"address"},{"name":"shares","type":"uint256","internalType":"uint256"},{"name":"max","type":"uint256","internalType":"uint256"}]},{"type":"error","name":"ERC4626ExceededMaxRedeem","inputs":[{"name":"owner","type":"address","internalType":"address"},{"name":"shares","type":"uint256","internalType":"uint256"},{"name":"max","type":"uint256","internalType":"uint256"}]},{"type":"error","name":"ERC4626ExceededMaxWithdraw","inputs":[{"name":"owner","type":"address","internalType":"address"},{"name":"assets","type":"uint256","internalType":"uint256"},{"name":"max","type":"uint256","internalType":"uint256"}]},{"type":"error","name":"ExceedsMaxCooldownLength","inputs":[]},{"type":"error","name":"ExceedsMaxVestingLength","inputs":[]},{"type":"error","name":"InvalidAccountNonce","inputs":[{"name":"account","type":"address","internalType":"address"},{"name":"currentNonce","type":"uint256","internalType":"uint256"}]},{"type":"error","name":"InvalidRescueToken","inputs":[]},{"type":"error","name":"InvalidShortString","inputs":[]},{"type":"error","name":"NonRestrictedAccount","inputs":[]},{"type":"error","name":"NonZeroAddress","inputs":[]},{"type":"error","name":"RequiresCooldown","inputs":[]},{"type":"error","name":"SafeERC20FailedOperation","inputs":[{"name":"token","type":"address","internalType":"address"}]},{"type":"error","name":"StringTooLong","inputs":[{"name":"str","type":"string","internalType":"string"}]},{"type":"error","name":"SubceedsMinVestingLength","inputs":[]},{"type":"error","name":"VestingNotCompleted","inputs":[]}],"bytecode":{"object":"0x6101c0604052348015610010575f5ffd5b5060405161456e38038061456e83398101604081905261002f9161046d565b818480604051806040016040528060018152602001603160f81b8152508787816003908161005d919061057b565b50600461006a828261057b565b5061007a915083905060056101d7565b610120526100898160066101d7565b61014052815160208084019190912060e052815190820120610100524660a05261011560e05161010051604080517f8b73c3c69bb8fe3d512ecc4cf759cc79239f7b179b0ffacaa9a75d522b39400f60208201529081019290925260608201524660808201523060a08201525f9060c00160405160208183030381529060405280519060200120905090565b60805250503060c052505f8061012a83610209565b915091508161013a57601261013c565b805b60ff166101805250506001600160a01b0390811661016052819081166101755760405163bf8d717560e01b815260040160405180910390fd5b61017f5f8361029a565b50308360405161018e906103ac565b6001600160a01b03928316815291166020820152604001604051809103905ff0801580156101be573d5f5f3e3d5ffd5b506001600160a01b03166101a0525061068d9350505050565b5f6020835110156101f2576101eb83610345565b9050610203565b816101fd848261057b565b5060ff90505b92915050565b5f808061021560405190565b6040805160048152602481019091526020810180516001600160e01b0390811663313ce56760e01b179091529192505f9182916102559188919061038b16565b50909250905061026483604052565b818015610272575060203d10155b801561027f575060ff8111155b61028a575f5f61028e565b6001815b94509450505050915091565b5f8281526008602090815260408083206001600160a01b038516845290915281205460ff1661033e575f8381526008602090815260408083206001600160a01b03861684529091529020805460ff191660011790556102f63390565b6001600160a01b0316826001600160a01b0316847f2f8788117e7eff1d82e926ec794901d17c78024a50270940304540a733656f0d60405160405180910390a4506001610203565b505f610203565b5f5f829050601f81511115610378578260405163305a27a960e01b815260040161036f9190610635565b60405180910390fd5b80516103838261066a565b179392505050565b5f5f5f60405f855160208701885afa92505f51915060205190509250925092565b61036c8061420283390190565b634e487b7160e01b5f52604160045260245ffd5b5f82601f8301126103dc575f5ffd5b81516001600160401b038111156103f5576103f56103b9565b604051601f8201601f19908116603f011681016001600160401b0381118282101715610423576104236103b9565b60405281815283820160200185101561043a575f5ffd5b8160208501602083015e5f918101602001919091529392505050565b6001600160a01b038116811461046a575f5ffd5b50565b5f5f5f5f60808587031215610480575f5ffd5b84516001600160401b03811115610495575f5ffd5b6104a1878288016103cd565b602087015190955090506001600160401b038111156104be575f5ffd5b6104ca878288016103cd565b93505060408501516104db81610456565b60608601519092506104ec81610456565b939692955090935050565b600181811c9082168061050b57607f821691505b60208210810361052957634e487b7160e01b5f52602260045260245ffd5b50919050565b601f82111561057657805f5260205f20601f840160051c810160208510156105545750805b601f840160051c820191505b81811015610573575f8155600101610560565b50505b505050565b81516001600160401b03811115610594576105946103b9565b6105a8816105a284546104f7565b8461052f565b6020601f8211600181146105da575f83156105c35750848201515b5f19600385901b1c1916600184901b178455610573565b5f84815260208120601f198516915b8281101561060957878501518255602094850194600190920191016105e9565b508482101561062657868401515f19600387901b60f8161c191681555b50505050600190811b01905550565b602081525f82518060208401528060208501604085015e5f604082850101526040601f19601f83011684010191505092915050565b80516020808301519190811015610529575f1960209190910360031b1b16919050565b60805160a05160c05160e05161010051610120516101405161016051610180516101a051613aca6107385f395f8181610884015281816111cb015281816113a8015281816118f00152611f3901525f50505f818161050f015281816108df01528181610cd30152818161166701528181612e1501526133da01525f61252601525f6124f901525f61230201525f6122da01525f61223501525f61225f01525f6122890152613aca5ff3fe608060405234801561000f575f5ffd5b506004361061035c575f3560e01c806391d14854116101c9578063cb389b72116100fe578063dd62ed3e1161009e578063eded3fda11610079578063eded3fda146108a6578063edf0be30146108ae578063ef8b30f7146107ab578063f2888dbb146108c1575f5ffd5b8063dd62ed3e1461083a578063e11fbfc3146107be578063eb3beb291461087f575f5ffd5b8063d505accf116100d9578063d505accf146107ee578063d547741f14610801578063d63a1b7a14610814578063d905777e14610827575f5ffd5b8063cb389b72146107be578063cdac52ed146107c8578063ce96cb77146107db575f5ffd5b8063b3ace4ec11610169578063ba08765211610144578063ba08765214610776578063c01bc98214610789578063c63d75b614610554578063c6e6f592146107ab575f5ffd5b8063b3ace4ec14610747578063b3d7f6b914610750578063b460af9414610763575f5ffd5b806395d89b41116101a457806395d89b4114610712578063a217fddf1461071a578063a9059cbb14610721578063a9fb763c14610734575f5ffd5b806391d14854146106a75780639343d9e1146106ec57806394bf804d146106ff575f5ffd5b80633644e5151161029f5780634cdad5061161023f57806370a082311161021a57806370a08231146106315780637ecebe001461066657806384b0196e146106795780638b5feb1d14610694575f5ffd5b80634cdad506146104495780636e553f651461060b5780636eae76721461061e575f5ffd5b8063402d267d1161027a578063402d267d1461055457806344c269ff1461058757806344c63eec146105905780634707d000146105f8575f5ffd5b80633644e515146104f257806336568abe146104fa57806338d52e0f1461050d575f5ffd5b80630a28a4771161030a57806323b872dd116102e557806323b872dd14610499578063248a9ca3146104ac5780632f2ff15d146104ce578063313ce567146104e3575f5ffd5b80630a28a4771461046f57806318160ddd146104825780631fcd30801461048a575f5ffd5b806306fdde031161033a57806306fdde031461043457806307a2d13a14610449578063095ea7b31461045c575f5ffd5b806301320fe21461036057806301e1d114146103fb57806301ffc9a714610411575b5f5ffd5b6103bd61036e366004613468565b60096020525f908152604090205473ffffffffffffffffffffffffffffffffffffffff8116907401000000000000000000000000000000000000000090046bffffffffffffffffffffffff1682565b6040805173ffffffffffffffffffffffffffffffffffffffff90931683526bffffffffffffffffffffffff9091166020830152015b60405180910390f35b6104036108d4565b6040519081526020016103f2565b61042461041f366004613481565b61099b565b60405190151581526020016103f2565b61043c610a33565b6040516103f2919061350c565b61040361045736600461351e565b610ac3565b61042461046a366004613535565b610ace565b61040361047d36600461351e565b610ae5565b600254610403565b610403670de0b6b3a764000081565b6104246104a736600461355d565b610af1565b6104036104ba36600461351e565b5f9081526008602052604090206001015490565b6104e16104dc366004613597565b610bc8565b005b604051601281526020016103f2565b610403610bf2565b6104e1610508366004613597565b610bfb565b7f00000000000000000000000000000000000000000000000000000000000000005b60405173ffffffffffffffffffffffffffffffffffffffff90911681526020016103f2565b610403610562366004613468565b507fffffffffffffffffffffffffffffffffffffffffffffffffffffffffffffffff90565b6104036104b081565b600b54600c546105c9916fffffffffffffffffffffffffffffffff80821692700100000000000000000000000000000000909204169083565b604080516fffffffffffffffffffffffffffffffff9485168152939092166020840152908201526060016103f2565b6104e16106063660046135c1565b610c59565b610403610619366004613597565b610e06565b6104e161062c3660046135e9565b610ecf565b61040361063f366004613468565b73ffffffffffffffffffffffffffffffffffffffff165f9081526020819052604090205490565b610403610674366004613468565b610f83565b610681610fad565b6040516103f29796959493929190613622565b6104e16106a23660046135c1565b61100b565b6104246106b5366004613597565b5f91825260086020908152604080842073ffffffffffffffffffffffffffffffffffffffff93909316845291905290205460ff1690565b6104036106fa36600461351e565b61122e565b61040361070d366004613597565b61140b565b61043c61145b565b6104035f81565b61042461072f366004613535565b61146a565b6104e161074236600461351e565b61152a565b610403600a5481565b61040361075e36600461351e565b6116c7565b6104036107713660046136e1565b6116d3565b6104036107843660046136e1565b611724565b610424610797366004613468565b600d6020525f908152604090205460ff1681565b6104036107b936600461351e565b61176b565b6104036276a70081565b6104036107d636600461351e565b611776565b6104036107e9366004613468565b611949565b6104e16107fc36600461371a565b611956565b6104e161080f366004613597565b611aff565b6104e161082236600461351e565b611b23565b610403610835366004613468565b611bbf565b6104036108483660046135c1565b73ffffffffffffffffffffffffffffffffffffffff9182165f90815260016020908152604080832093909416825291909152205490565b61052f7f000000000000000000000000000000000000000000000000000000000000000081565b610403611be9565b6104e16108bc366004613787565b611bf2565b6104e16108cf366004613468565b611da8565b5f6108dd611fed565b7f00000000000000000000000000000000000000000000000000000000000000006040517f70a0823100000000000000000000000000000000000000000000000000000000815230600482015273ffffffffffffffffffffffffffffffffffffffff91909116906370a0823190602401602060405180830381865afa158015610968573d5f5f3e3d5ffd5b505050506040513d601f19601f8201168201806040525081019061098c91906137b6565b61099691906137fa565b905090565b5f7fffffffff0000000000000000000000000000000000000000000000000000000082167f7965db0b000000000000000000000000000000000000000000000000000000001480610a2d57507f01ffc9a7000000000000000000000000000000000000000000000000000000007fffffffff000000000000000000000000000000000000000000000000000000008316145b92915050565b606060038054610a429061380d565b80601f0160208091040260200160405190810160405280929190818152602001828054610a6e9061380d565b8015610ab95780601f10610a9057610100808354040283529160200191610ab9565b820191905f5260205f20905b815481529060010190602001808311610a9c57829003601f168201915b5050505050905090565b5f610a2d825f61207b565b5f33610adb8185856120b3565b5060019392505050565b5f610a2d8260016120c0565b73ffffffffffffffffffffffffffffffffffffffff83165f908152600d6020526040812054849060ff1615610b52576040517f1d8c273500000000000000000000000000000000000000000000000000000000815260040160405180910390fd5b73ffffffffffffffffffffffffffffffffffffffff84165f908152600d6020526040902054849060ff1615610bb3576040517f1d8c273500000000000000000000000000000000000000000000000000000000815260040160405180910390fd5b610bbe8686866120ef565b9695505050505050565b5f82815260086020526040902060010154610be281612112565b610bec838361211f565b50505050565b5f61099661221c565b73ffffffffffffffffffffffffffffffffffffffff81163314610c4a576040517f6697b23200000000000000000000000000000000000000000000000000000000815260040160405180910390fd5b610c548282612352565b505050565b7fa49807205ce4d355092ef5a8a18f56e8913cf4a201fbe287825b095693c21775610c8381612112565b8173ffffffffffffffffffffffffffffffffffffffff8116610cd1576040517fbf8d717500000000000000000000000000000000000000000000000000000000815260040160405180910390fd5b7f000000000000000000000000000000000000000000000000000000000000000073ffffffffffffffffffffffffffffffffffffffff168473ffffffffffffffffffffffffffffffffffffffff1603610d56576040517f579b244c00000000000000000000000000000000000000000000000000000000815260040160405180910390fd5b6040517f70a08231000000000000000000000000000000000000000000000000000000008152306004820152610bec90849073ffffffffffffffffffffffffffffffffffffffff8716906370a0823190602401602060405180830381865afa158015610dc4573d5f5f3e3d5ffd5b505050506040513d601f19601f82011682018060405250810190610de891906137b6565b73ffffffffffffffffffffffffffffffffffffffff8716919061240f565b335f818152600d602052604081205490919060ff1615610e52576040517f1d8c273500000000000000000000000000000000000000000000000000000000815260040160405180910390fd5b73ffffffffffffffffffffffffffffffffffffffff83165f908152600d6020526040902054839060ff1615610eb3576040517f1d8c273500000000000000000000000000000000000000000000000000000000815260040160405180910390fd5b610ebd858561246a565b9250610ec76124a4565b505092915050565b7f252822d2dbc3adf7886768cb203e7f8f7af2b6ec41bdf6fa7c0a29215e32b53e610ef981612112565b73ffffffffffffffffffffffffffffffffffffffff83165f818152600d602090815260409182902080547fffffffffffffffffffffffffffffffffffffffffffffffffffffffffffffff001686151590811790915591519182527fca364cd65b32cbd07cee6dd2b7aceb87913eac863ee31028b957d409972a6c88910160405180910390a2505050565b73ffffffffffffffffffffffffffffffffffffffff81165f90815260076020526040812054610a2d565b5f6060805f5f5f6060610fbe6124f2565b610fc661251f565b604080515f808252602082019092527f0f000000000000000000000000000000000000000000000000000000000000009b939a50919850469750309650945092509050565b8073ffffffffffffffffffffffffffffffffffffffff8116611059576040517fbf8d717500000000000000000000000000000000000000000000000000000000815260040160405180910390fd5b5f61106381612112565b73ffffffffffffffffffffffffffffffffffffffff84165f908152600d602052604090205460ff166110c1576040517fb5bf6a6b00000000000000000000000000000000000000000000000000000000815260040160405180910390fd5b73ffffffffffffffffffffffffffffffffffffffff84165f90815260208190526040812054906110f082610ac3565b90506110ff868688848661254c565b73ffffffffffffffffffffffffffffffffffffffff8681165f90815260096020908152604091829020825180840190935254928316808352740100000000000000000000000000000000000000009093046bffffffffffffffffffffffff169082015290156112255773ffffffffffffffffffffffffffffffffffffffff8781165f9081526009602052604080822091909155825190517ff3fef3a3000000000000000000000000000000000000000000000000000000008152888316600482015290821660248201527f00000000000000000000000000000000000000000000000000000000000000009091169063f3fef3a3906044015f604051808303815f87803b15801561120e575f5ffd5b505af1158015611220573d5f5f3e3d5ffd5b505050505b50505050505050565b335f818152600d602052604081205490919060ff161561127a576040517f1d8c273500000000000000000000000000000000000000000000000000000000815260040160405180910390fd5b61128333611bbf565b8311156112bc576040517f18b89e3b00000000000000000000000000000000000000000000000000000000815260040160405180910390fd5b6112c583610ac3565b335f908152600960205260408120805492945084929091906112fe90849073ffffffffffffffffffffffffffffffffffffffff1661385e565b92506101000a81548173ffffffffffffffffffffffffffffffffffffffff021916908373ffffffffffffffffffffffffffffffffffffffff160217905550600a544261134a919061388a565b335f81815260096020526040902080546bffffffffffffffffffffffff93909316740100000000000000000000000000000000000000000273ffffffffffffffffffffffffffffffffffffffff93909316929092179091556113cf907f000000000000000000000000000000000000000000000000000000000000000081858761254c565b60405182815233907fc0c658beb1b87e79725d0a9231c6980594073a2bbbc652a9a2705734bf26ff1b906020015b60405180910390a250919050565b5f7fffffffffffffffffffffffffffffffffffffffffffffffffffffffffffffffff61143b565b60405180910390fd5b5f611445856116c7565b905061145333858388612568565b949350505050565b606060048054610a429061380d565b335f818152600d602052604081205490919060ff16156114b6576040517f1d8c273500000000000000000000000000000000000000000000000000000000815260040160405180910390fd5b73ffffffffffffffffffffffffffffffffffffffff84165f908152600d6020526040902054849060ff1615611517576040517f1d8c273500000000000000000000000000000000000000000000000000000000815260040160405180910390fd5b61152185856125f2565b95945050505050565b7fbeec13769b5f410b0584f69811bfd923818456d5edcf426b0e31cf90eed7a3f661155481612112565b600b546fffffffffffffffffffffffffffffffff161561164d575f611577611fed565b9050611583838261388a565b600c55600b546115a5906fffffffffffffffffffffffffffffffff164261389d565b600b80546fffffffffffffffffffffffffffffffff9283167001000000000000000000000000000000000292169190911790557f02149ee86341dfe4a75ef32004c5df9f57f55651c72faeee9a9e2c8985c7957b611603848361388a565b600b54611622906fffffffffffffffffffffffffffffffff164261389d565b604080519283526fffffffffffffffffffffffffffffffff90911660208301520160405180910390a1505b61168f73ffffffffffffffffffffffffffffffffffffffff7f0000000000000000000000000000000000000000000000000000000000000000163330856125ff565b6040518281527fbb28dd7cd6be6f61828ea9158a04c5182c716a946a6d2f31f4864edb87471aa6906020015b60405180910390a15050565b5f610a2d82600161207b565b600a545f901561170f576040517f4d0624ba00000000000000000000000000000000000000000000000000000000815260040160405180910390fd5b61171a84848461265b565b90505b9392505050565b600a545f9015611760576040517f4d0624ba00000000000000000000000000000000000000000000000000000000815260040160405180910390fd5b61171a8484846126e1565b5f610a2d825f6120c0565b335f818152600d602052604081205490919060ff16156117c2576040517f1d8c273500000000000000000000000000000000000000000000000000000000815260040160405180910390fd5b6117cb33611949565b831115611804576040517f60397bbd00000000000000000000000000000000000000000000000000000000815260040160405180910390fd5b61180d83610ae5565b335f9081526009602052604081208054929450859290919061184690849073ffffffffffffffffffffffffffffffffffffffff1661385e565b92506101000a81548173ffffffffffffffffffffffffffffffffffffffff021916908373ffffffffffffffffffffffffffffffffffffffff160217905550600a5442611892919061388a565b335f81815260096020526040902080546bffffffffffffffffffffffff93909316740100000000000000000000000000000000000000000273ffffffffffffffffffffffffffffffffffffffff9390931692909217909155611917907f000000000000000000000000000000000000000000000000000000000000000081868661254c565b60405183815233907fc0c658beb1b87e79725d0a9231c6980594073a2bbbc652a9a2705734bf26ff1b906020016113fd565b5f610a2d61045783611bbf565b83421115611993576040517f6279130200000000000000000000000000000000000000000000000000000000815260048101859052602401611432565b5f7f6e71edae12b1b97f4d1f60370fef10105fa2faae0126114a169c64845d6126c98888886119eb8c73ffffffffffffffffffffffffffffffffffffffff165f90815260076020526040902080546001810190915590565b60408051602081019690965273ffffffffffffffffffffffffffffffffffffffff94851690860152929091166060840152608083015260a082015260c0810186905260e0016040516020818303038152906040528051906020012090505f611a5282612767565b90505f611a61828787876127ae565b90508973ffffffffffffffffffffffffffffffffffffffff168173ffffffffffffffffffffffffffffffffffffffff1614611ae8576040517f4b800e4600000000000000000000000000000000000000000000000000000000815273ffffffffffffffffffffffffffffffffffffffff80831660048301528b166024820152604401611432565b611af38a8a8a6120b3565b50505050505050505050565b5f82815260086020526040902060010154611b1981612112565b610bec8383612352565b7fa49807205ce4d355092ef5a8a18f56e8913cf4a201fbe287825b095693c21775611b4d81612112565b6276a700821115611b8a576040517fb60a51ea00000000000000000000000000000000000000000000000000000000815260040160405180910390fd5b600a8290556040518281527fe91788abf7a79066983b71786cebd92021a551050bbfca0d4b9a91c276e07a8b906020016116bb565b73ffffffffffffffffffffffffffffffffffffffff81165f90815260208190526040812054610a2d565b5f610996611fed565b7fa49807205ce4d355092ef5a8a18f56e8913cf4a201fbe287825b095693c21775611c1c81612112565b6276a700826fffffffffffffffffffffffffffffffff161115611c6b576040517f12f02c3d00000000000000000000000000000000000000000000000000000000815260040160405180910390fd5b6104b0826fffffffffffffffffffffffffffffffff16108015611c9f57506fffffffffffffffffffffffffffffffff821615155b15611cd6576040517f4b9b613c00000000000000000000000000000000000000000000000000000000815260040160405180910390fd5b600b54427001000000000000000000000000000000009091046fffffffffffffffffffffffffffffffff161115611d39576040517f5f785f3300000000000000000000000000000000000000000000000000000000815260040160405180910390fd5b600b80547fffffffffffffffffffffffffffffffff00000000000000000000000000000000166fffffffffffffffffffffffffffffffff84169081179091556040519081527fd8f0df95d87496983eca9f3b5fde6dfc094672a45e591d8ecb31545d239c6377906020016116bb565b335f818152600d602052604090205460ff1615611df1576040517f1d8c273500000000000000000000000000000000000000000000000000000000815260040160405180910390fd5b8173ffffffffffffffffffffffffffffffffffffffff8116611e3f576040517fbf8d717500000000000000000000000000000000000000000000000000000000815260040160405180910390fd5b335f9081526009602090815260409182902082518084019093525473ffffffffffffffffffffffffffffffffffffffff811683527401000000000000000000000000000000000000000090046bffffffffffffffffffffffff16908201819052421015611ed8576040517f0f181a9500000000000000000000000000000000000000000000000000000000815260040160405180910390fd5b335f9081526009602052604080822091909155815190517ff3fef3a300000000000000000000000000000000000000000000000000000000815273ffffffffffffffffffffffffffffffffffffffff868116600483015291821660248201527f00000000000000000000000000000000000000000000000000000000000000009091169063f3fef3a3906044015f604051808303815f87803b158015611f7c575f5ffd5b505af1158015611f8e573d5f5f3e3d5ffd5b505082516040805173ffffffffffffffffffffffffffffffffffffffff808a16825290921660208301523393507f390b1276974b9463e5d66ab10df69b6f3d7b930eb066a0e66df327edd2cc811c92500160405180910390a250505050565b60408051606081018252600b546fffffffffffffffffffffffffffffffff8082168084527001000000000000000000000000000000009092041660208301819052600c549383018490525f9390919081850361204d575f94505050505090565b82421061205e575f94505050505090565b6120728161206c42866137fa565b846127da565b94505050505090565b5f61171d6120876108d4565b61209290600161388a565b61209d5f600a6139e6565b6002546120aa919061388a565b8591908561288a565b610c5483838360016128cc565b5f61171d6120cf82600a6139e6565b6002546120dc919061388a565b6120e46108d4565b6120aa90600161388a565b5f336120fc858285612a03565b612107858585612acb565b506001949350505050565b61211c8133612b74565b50565b5f82815260086020908152604080832073ffffffffffffffffffffffffffffffffffffffff8516845290915281205460ff16612215575f83815260086020908152604080832073ffffffffffffffffffffffffffffffffffffffff86168452909152902080547fffffffffffffffffffffffffffffffffffffffffffffffffffffffffffffff001660011790556121b33390565b73ffffffffffffffffffffffffffffffffffffffff168273ffffffffffffffffffffffffffffffffffffffff16847f2f8788117e7eff1d82e926ec794901d17c78024a50270940304540a733656f0d60405160405180910390a4506001610a2d565b505f610a2d565b5f3073ffffffffffffffffffffffffffffffffffffffff7f00000000000000000000000000000000000000000000000000000000000000001614801561228157507f000000000000000000000000000000000000000000000000000000000000000046145b156122ab57507f000000000000000000000000000000000000000000000000000000000000000090565b610996604080517f8b73c3c69bb8fe3d512ecc4cf759cc79239f7b179b0ffacaa9a75d522b39400f60208201527f0000000000000000000000000000000000000000000000000000000000000000918101919091527f000000000000000000000000000000000000000000000000000000000000000060608201524660808201523060a08201525f9060c00160405160208183030381529060405280519060200120905090565b5f82815260086020908152604080832073ffffffffffffffffffffffffffffffffffffffff8516845290915281205460ff1615612215575f83815260086020908152604080832073ffffffffffffffffffffffffffffffffffffffff8616808552925280832080547fffffffffffffffffffffffffffffffffffffffffffffffffffffffffffffff0016905551339286917ff6391f5c32d9c69d2a47ea670b442974b53935d1edc7fd64eb21e047a839171b9190a4506001610a2d565b61241c8383836001612bff565b610c54576040517f5274afe700000000000000000000000000000000000000000000000000000000815273ffffffffffffffffffffffffffffffffffffffff84166004820152602401611432565b5f7fffffffffffffffffffffffffffffffffffffffffffffffffffffffffffffffff5f6124968561176b565b905061145333858784612568565b5f6124ae60025490565b9050670de0b6b3a764000081101561211c576040517f6a5edeb700000000000000000000000000000000000000000000000000000000815260040160405180910390fd5b60606109967f00000000000000000000000000000000000000000000000000000000000000006005612c87565b60606109967f00000000000000000000000000000000000000000000000000000000000000006006612c87565b6125598585858585612d30565b6125616124a4565b5050505050565b6125728483612e10565b61257c8382612e3c565b8273ffffffffffffffffffffffffffffffffffffffff168473ffffffffffffffffffffffffffffffffffffffff167fdcbc1c05240f31ff3ad067ef1ee35ce4997762752e3a095284754544f4c709d784846040516125e4929190918252602082015260400190565b60405180910390a350505050565b5f33610adb818585612acb565b61260d848484846001612e96565b610bec576040517f5274afe700000000000000000000000000000000000000000000000000000000815273ffffffffffffffffffffffffffffffffffffffff85166004820152602401611432565b5f5f61266683611949565b9050808511156126c8576040517ffe9cceec00000000000000000000000000000000000000000000000000000000815273ffffffffffffffffffffffffffffffffffffffff841660048201526024810186905260448101829052606401611432565b5f6126d286610ae5565b9050611521338686898561254c565b5f5f6126ec83611bbf565b90508085111561274e576040517fb94abeec00000000000000000000000000000000000000000000000000000000815273ffffffffffffffffffffffffffffffffffffffff841660048201526024810186905260448101829052606401611432565b5f61275886610ac3565b9050611521338686848a61254c565b5f610a2d61277361221c565b836040517f19010000000000000000000000000000000000000000000000000000000000008152600281019290925260228201526042902090565b5f5f5f5f6127be88888888612f29565b9250925092506127ce828261301c565b50909695505050505050565b5f5f5f6127e7868661311f565b91509150815f0361280b57838181612801576128016139f4565b049250505061171d565b81841161282257612822600385150260111861315a565b5f848688095f868103871696879004966002600389028118808a02820302808a02820302808a02820302808a02820302808a02820302808a02909103029181900381900460010185841190960395909502919093039390930492909217029150509392505050565b5f6128b76128978361316b565b80156128b257505f84806128ad576128ad6139f4565b868809115b151590565b6128c28686866127da565b611521919061388a565b73ffffffffffffffffffffffffffffffffffffffff841661291b576040517fe602df050000000000000000000000000000000000000000000000000000000081525f6004820152602401611432565b73ffffffffffffffffffffffffffffffffffffffff831661296a576040517f94280d620000000000000000000000000000000000000000000000000000000081525f6004820152602401611432565b73ffffffffffffffffffffffffffffffffffffffff8085165f9081526001602090815260408083209387168352929052208290558015610bec578273ffffffffffffffffffffffffffffffffffffffff168473ffffffffffffffffffffffffffffffffffffffff167f8c5be1e5ebec7d5bd14f71427d1e84f3dd0314c0f7b2291e5b200ac8c7c3b925846040516125e491815260200190565b73ffffffffffffffffffffffffffffffffffffffff8381165f908152600160209081526040808320938616835292905220547fffffffffffffffffffffffffffffffffffffffffffffffffffffffffffffffff811015610bec5781811015612abd576040517ffb8f41b200000000000000000000000000000000000000000000000000000000815273ffffffffffffffffffffffffffffffffffffffff841660048201526024810182905260448101839052606401611432565b610bec84848484035f6128cc565b73ffffffffffffffffffffffffffffffffffffffff8316612b1a576040517f96c6fd1e0000000000000000000000000000000000000000000000000000000081525f6004820152602401611432565b73ffffffffffffffffffffffffffffffffffffffff8216612b69576040517fec442f050000000000000000000000000000000000000000000000000000000081525f6004820152602401611432565b610c54838383613197565b5f82815260086020908152604080832073ffffffffffffffffffffffffffffffffffffffff8516845290915290205460ff16612bfb576040517fe2517d3f00000000000000000000000000000000000000000000000000000000815273ffffffffffffffffffffffffffffffffffffffff8216600482015260248101839052604401611432565b5050565b6040517fa9059cbb000000000000000000000000000000000000000000000000000000005f81815273ffffffffffffffffffffffffffffffffffffffff8616600452602485905291602083604481808b5af1925060015f51148316612c7b578383151615612c6f573d5f823e3d81fd5b5f873b113d1516831692505b60405250949350505050565b606060ff8314612ca157612c9a8361333e565b9050610a2d565b818054612cad9061380d565b80601f0160208091040260200160405190810160405280929190818152602001828054612cd99061380d565b8015612d245780601f10612cfb57610100808354040283529160200191612d24565b820191905f5260205f20905b815481529060010190602001808311612d0757829003601f168201915b50505050509050610a2d565b8273ffffffffffffffffffffffffffffffffffffffff168573ffffffffffffffffffffffffffffffffffffffff1614612d6e57612d6e838683612a03565b612d78838261337b565b612d8284836133d5565b8273ffffffffffffffffffffffffffffffffffffffff168473ffffffffffffffffffffffffffffffffffffffff168673ffffffffffffffffffffffffffffffffffffffff167ffbde797d201c681b91056529119e0b02407c7bb96a4a2c75c01fc9667232c8db8585604051612e01929190918252602082015260400190565b60405180910390a45050505050565b612bfb7f00000000000000000000000000000000000000000000000000000000000000008330846125ff565b73ffffffffffffffffffffffffffffffffffffffff8216612e8b576040517fec442f050000000000000000000000000000000000000000000000000000000081525f6004820152602401611432565b612bfb5f8383613197565b6040517f23b872dd000000000000000000000000000000000000000000000000000000005f81815273ffffffffffffffffffffffffffffffffffffffff8781166004528616602452604485905291602083606481808c5af1925060015f51148316612f18578383151615612f0c573d5f823e3d81fd5b5f883b113d1516831692505b604052505f60605295945050505050565b5f80807f7fffffffffffffffffffffffffffffff5d576e7357a4501ddfe92f46681b20a0841115612f6257505f91506003905082613012565b604080515f808252602082018084528a905260ff891692820192909252606081018790526080810186905260019060a0016020604051602081039080840390855afa158015612fb3573d5f5f3e3d5ffd5b50506040517fffffffffffffffffffffffffffffffffffffffffffffffffffffffffffffffe0015191505073ffffffffffffffffffffffffffffffffffffffff811661300957505f925060019150829050613012565b92505f91508190505b9450945094915050565b5f82600381111561302f5761302f613a21565b03613038575050565b600182600381111561304c5761304c613a21565b03613083576040517ff645eedf00000000000000000000000000000000000000000000000000000000815260040160405180910390fd5b600282600381111561309757613097613a21565b036130d1576040517ffce698f700000000000000000000000000000000000000000000000000000000815260048101829052602401611432565b60038260038111156130e5576130e5613a21565b03612bfb576040517fd78bce0c00000000000000000000000000000000000000000000000000000000815260048101829052602401611432565b5f807fffffffffffffffffffffffffffffffffffffffffffffffffffffffffffffffff83850993909202808410938190039390930393915050565b634e487b715f52806020526024601cfd5b5f600282600381111561318057613180613a21565b61318a9190613a4e565b60ff166001149050919050565b73ffffffffffffffffffffffffffffffffffffffff83166131ce578060025f8282546131c3919061388a565b9091555061327e9050565b73ffffffffffffffffffffffffffffffffffffffff83165f9081526020819052604090205481811015613253576040517fe450d38c00000000000000000000000000000000000000000000000000000000815273ffffffffffffffffffffffffffffffffffffffff851660048201526024810182905260448101839052606401611432565b73ffffffffffffffffffffffffffffffffffffffff84165f9081526020819052604090209082900390555b73ffffffffffffffffffffffffffffffffffffffff82166132a7576002805482900390556132d2565b73ffffffffffffffffffffffffffffffffffffffff82165f9081526020819052604090208054820190555b8173ffffffffffffffffffffffffffffffffffffffff168373ffffffffffffffffffffffffffffffffffffffff167fddf252ad1be2c89b69c2b068fc378daa952ba7f163c4a11628f55a4df523b3ef8360405161333191815260200190565b60405180910390a3505050565b60605f61334a83613400565b6040805160208082528183019092529192505f91906020820181803683375050509182525060208101929092525090565b73ffffffffffffffffffffffffffffffffffffffff82166133ca576040517f96c6fd1e0000000000000000000000000000000000000000000000000000000081525f6004820152602401611432565b612bfb825f83613197565b612bfb7f0000000000000000000000000000000000000000000000000000000000000000838361240f565b5f60ff8216601f811115610a2d576040517fb3512b0c00000000000000000000000000000000000000000000000000000000815260040160405180910390fd5b803573ffffffffffffffffffffffffffffffffffffffff81168114613463575f5ffd5b919050565b5f60208284031215613478575f5ffd5b61171d82613440565b5f60208284031215613491575f5ffd5b81357fffffffff000000000000000000000000000000000000000000000000000000008116811461171d575f5ffd5b5f81518084528060208401602086015e5f6020828601015260207fffffffffffffffffffffffffffffffffffffffffffffffffffffffffffffffe0601f83011685010191505092915050565b602081525f61171d60208301846134c0565b5f6020828403121561352e575f5ffd5b5035919050565b5f5f60408385031215613546575f5ffd5b61354f83613440565b946020939093013593505050565b5f5f5f6060848603121561356f575f5ffd5b61357884613440565b925061358660208501613440565b929592945050506040919091013590565b5f5f604083850312156135a8575f5ffd5b823591506135b860208401613440565b90509250929050565b5f5f604083850312156135d2575f5ffd5b6135db83613440565b91506135b860208401613440565b5f5f604083850312156135fa575f5ffd5b61360383613440565b915060208301358015158114613617575f5ffd5b809150509250929050565b7fff000000000000000000000000000000000000000000000000000000000000008816815260e060208201525f61365c60e08301896134c0565b828103604084015261366e81896134c0565b6060840188905273ffffffffffffffffffffffffffffffffffffffff8716608085015260a0840186905283810360c0850152845180825260208087019350909101905f5b818110156136d05783518352602093840193909201916001016136b2565b50909b9a5050505050505050505050565b5f5f5f606084860312156136f3575f5ffd5b8335925061370360208501613440565b915061371160408501613440565b90509250925092565b5f5f5f5f5f5f5f60e0888a031215613730575f5ffd5b61373988613440565b965061374760208901613440565b95506040880135945060608801359350608088013560ff8116811461376a575f5ffd5b9699959850939692959460a0840135945060c09093013592915050565b5f60208284031215613797575f5ffd5b81356fffffffffffffffffffffffffffffffff8116811461171d575f5ffd5b5f602082840312156137c6575f5ffd5b5051919050565b7f4e487b71000000000000000000000000000000000000000000000000000000005f52601160045260245ffd5b81810381811115610a2d57610a2d6137cd565b600181811c9082168061382157607f821691505b602082108103613858577f4e487b71000000000000000000000000000000000000000000000000000000005f52602260045260245ffd5b50919050565b73ffffffffffffffffffffffffffffffffffffffff8181168382160190811115610a2d57610a2d6137cd565b80820180821115610a2d57610a2d6137cd565b6fffffffffffffffffffffffffffffffff8181168382160190811115610a2d57610a2d6137cd565b6001815b6001841115613900578085048111156138e4576138e46137cd565b60018416156138f257908102905b60019390931c9280026138c9565b935093915050565b5f8261391657506001610a2d565b8161392257505f610a2d565b816001811461393857600281146139425761395e565b6001915050610a2d565b60ff841115613953576139536137cd565b50506001821b610a2d565b5060208310610133831016604e8410600b8410161715613981575081810a610a2d565b6139ac7fffffffffffffffffffffffffffffffffffffffffffffffffffffffffffffffff84846138c5565b807fffffffffffffffffffffffffffffffffffffffffffffffffffffffffffffffff048211156139de576139de6137cd565b029392505050565b5f61171d60ff841683613908565b7f4e487b71000000000000000000000000000000000000000000000000000000005f52601260045260245ffd5b7f4e487b71000000000000000000000000000000000000000000000000000000005f52602160045260245ffd5b5f60ff831680613a85577f4e487b71000000000000000000000000000000000000000000000000000000005f52601260045260245ffd5b8060ff8416069150509291505056fea2646970667358221220c18f3369d71a06bb9a7a0a600ce55d8d97d94a20363e907e22e18041b5ce490964736f6c634300081e003360c060405234801561000f575f5ffd5b5060405161036c38038061036c83398101604081905261002e91610060565b6001600160a01b039182166080521660a052610091565b80516001600160a01b038116811461005b575f5ffd5b919050565b5f5f60408385031215610071575f5ffd5b61007a83610045565b915061008860208401610045565b90509250929050565b60805160a0516102b56100b75f395f61012601525f8181603d015260b501526102b55ff3fe608060405234801561000f575f5ffd5b5060043610610034575f3560e01c80634cf088d914610038578063f3fef3a314610088575b5f5ffd5b61005f7f000000000000000000000000000000000000000000000000000000000000000081565b60405173ffffffffffffffffffffffffffffffffffffffff909116815260200160405180910390f35b61009b61009636600461023d565b61009d565b005b3373ffffffffffffffffffffffffffffffffffffffff7f0000000000000000000000000000000000000000000000000000000000000000161461010c576040517f3d70476200000000000000000000000000000000000000000000000000000000815260040160405180910390fd5b61014d73ffffffffffffffffffffffffffffffffffffffff7f0000000000000000000000000000000000000000000000000000000000000000168383610151565b5050565b61015e83838360016101b5565b6101b0576040517f5274afe700000000000000000000000000000000000000000000000000000000815273ffffffffffffffffffffffffffffffffffffffff8416600482015260240160405180910390fd5b505050565b6040517fa9059cbb000000000000000000000000000000000000000000000000000000005f81815273ffffffffffffffffffffffffffffffffffffffff8616600452602485905291602083604481808b5af1925060015f51148316610231578383151615610225573d5f823e3d81fd5b5f873b113d1516831692505b60405250949350505050565b5f5f6040838503121561024e575f5ffd5b823573ffffffffffffffffffffffffffffffffffffffff81168114610271575f5ffd5b94602093909301359350505056fea2646970667358221220d8582d96e520ec3c4cd438589b19df4654106fd42bac58ac7c84e956b3a405fc64736f6c634300081e0033","linkReferences":{}},"methodIdentifiers":{"DEFAULT_ADMIN_ROLE()":"a217fddf","DOMAIN_SEPARATOR()":"3644e515","MAX_COOLDOWN_LENGTH()":"cb389b72","MAX_VESTING_LENGTH()":"e11fbfc3","MIN_SHARES()":"1fcd3080","MIN_VESTING_LENGTH()":"44c269ff","allowance(address,address)":"dd62ed3e","approve(address,uint256)":"095ea7b3","asset()":"38d52e0f","balanceOf(address)":"70a08231","convertToAssets(uint256)":"07a2d13a","convertToShares(uint256)":"c6e6f592","cooldownAssets(uint256)":"cdac52ed","cooldownLength()":"b3ace4ec","cooldownShares(uint256)":"9343d9e1","cooldowns(address)":"01320fe2","decimals()":"313ce567","deposit(uint256,address)":"6e553f65","eip712Domain()":"84b0196e","getRoleAdmin(bytes32)":"248a9ca3","grantRole(bytes32,address)":"2f2ff15d","hasRole(bytes32,address)":"91d14854","isRestricted(address)":"c01bc982","maxDeposit(address)":"402d267d","maxMint(address)":"c63d75b6","maxRedeem(address)":"d905777e","maxWithdraw(address)":"ce96cb77","mint(uint256,address)":"94bf804d","name()":"06fdde03","nonces(address)":"7ecebe00","pendingRewards()":"eded3fda","permit(address,address,uint256,uint256,uint8,bytes32,bytes32)":"d505accf","previewDeposit(uint256)":"ef8b30f7","previewMint(uint256)":"b3d7f6b9","previewRedeem(uint256)":"4cdad506","previewWithdraw(uint256)":"0a28a477","redeem(uint256,address,address)":"ba087652","renounceRole(bytes32,address)":"36568abe","rescueToken(address,address)":"4707d000","revokeRole(bytes32,address)":"d547741f","reward(uint256)":"a9fb763c","setCooldownLength(uint256)":"d63a1b7a","setIsRestricted(address,bool)":"6eae7672","setVestingLength(uint128)":"edf0be30","silo()":"eb3beb29","supportsInterface(bytes4)":"01ffc9a7","symbol()":"95d89b41","totalAssets()":"01e1d114","totalSupply()":"18160ddd","transfer(address,uint256)":"a9059cbb","transferFrom(address,address,uint256)":"23b872dd","transferRestrictedAssets(address,address)":"8b5feb1d","unstake(address)":"f2888dbb","vesting()":"44c63eec","withdraw(uint256,address,address)":"b460af94"},"id":145}