{"abi":[{"type":"constructor","inputs":[{"name":"owner","type":"address","internalType":"address"}],"stateMutability":"nonpayable"},{"type":"function","name":"DEFAULT_ADMIN_ROLE","inputs":[],"outputs":[{"name":"","type":"bytes32","internalType":"bytes32"}],"stateMutability":"view"},{"type":"function","name":"KEEPER_ROLE","inputs":[],"outputs":[{"name":"","type":"bytes32","internalType":"bytes32"}],"stateMutability":"view"},{"type":"function","name":"custodians","inputs":[{"name":"","type":"address","internalType":"address"}],"outputs":[{"name":"","type":"bool","internalType":"bool"}],"stateMutability":"view"},{"type":"function","name":"getRoleAdmin","inputs":[{"name":"role","type":"bytes32","internalType":"bytes32"}],"outputs":[{"name":"","type":"bytes32","internalType":"bytes32"}],"stateMutability":"view"},{"type":"function","name":"grantRole","inputs":[{"name":"role","type":"bytes32","internalType":"bytes32"},{"name":"account","type":"address","internalType":"address"}],"outputs":[],"stateMutability":"nonpayable"},{"type":"function","name":"hasRole","inputs":[{"name":"role","type":"bytes32","internalType":"bytes32"},{"name":"account","type":"address","internalType":"address"}],"outputs":[{"name":"","type":"bool","internalType":"bool"}],"stateMutability":"view"},{"type":"function","name":"renounceRole","inputs":[{"name":"role","type":"bytes32","internalType":"bytes32"},{"name":"callerConfirmation","type":"address","internalType":"address"}],"outputs":[],"stateMutability":"nonpayable"},{"type":"function","name":"revokeRole","inputs":[{"name":"role","type":"bytes32","internalType":"bytes32"},{"name":"account","type":"address","internalType":"address"}],"outputs":[],"stateMutability":"nonpayable"},{"type":"function","name":"send","inputs":[{"name":"account","type":"address","internalType":"address"},{"name":"token","type":"address","internalType":"address"},{"name":"amount","type":"uint256","internalType":"uint256"}],"outputs":[],"stateMutability":"nonpayable"},{"type":"function","name":"setCustodianStatus","inputs":[{"name":"account","type":"address","internalType":"address"},{"name":"status","type":"bool","internalType":"bool"}],"outputs":[],"stateMutability":"nonpayable"},{"type":"function","name":"supportsInterface","inputs":[{"name":"interfaceId","type":"bytes4","internalType":"bytes4"}],"outputs":[{"name":"","type":"bool","internalType":"bool"}],"stateMutability":"view"},{"type":"event","name":"CustodianUpdated","inputs":[{"name":"account","type":"address","indexed":false,"internalType":"address"},{"name":"isCustodian","type":"bool","indexed":false,"internalType":"bool"}],"anonymous":false},{"type":"event","name":"RoleAdminChanged","inputs":[{"name":"role","type":"bytes32","indexed":true,"internalType":"bytes32"},{"name":"previousAdminRole","type":"bytes32","indexed":true,"internalType":"bytes32"},{"name":"newAdminRole","type":"bytes32","indexed":true,"internalType":"bytes32"}],"anonymous":false},{"type":"event","name":"RoleGranted","inputs":[{"name":"role","type":"bytes32","indexed":true,"internalType":"bytes32"},{"name":"account","type":"address","indexed":true,"internalType":"address"},{"name":"sender","type":"address","indexed":true,"internalType":"address"}],"anonymous":false},{"type":"event","name":"RoleRevoked","inputs":[{"name":"role","type":"bytes32","indexed":true,"internalType":"bytes32"},{"name":"account","type":"address","indexed":true,"internalType":"address"},{"name":"sender","type":"address","indexed":true,"internalType":"address"}],"anonymous":false},{"type":"error","name":"AccessControlBadConfirmation","inputs":[]},{"type":"error","name":"AccessControlUnauthorizedAccount","inputs":[{"name":"account","type":"address","internalType":"address"},{"name":"neededRole","type":"bytes32","internalType":"bytes32"}]},{"type":"error","name":"NonZeroAddress","inputs":[]},{"type":"error","name":"NotApprovedCustodian","inputs":[]},{"type":"error","name":"SafeERC20FailedOperation","inputs":[{"name":"token","type":"address","internalType":"address"}]}],"bytecode":{"object":"0x608060405234801561000f575f5ffd5b50604051610b4e380380610b4e83398101604081905261002e916100e8565b6100385f8261003f565b5050610115565b5f828152602081815260408083206001600160a01b038516845290915281205460ff166100df575f838152602081815260408083206001600160a01b03861684529091529020805460ff191660011790556100973390565b6001600160a01b0316826001600160a01b0316847f2f8788117e7eff1d82e926ec794901d17c78024a50270940304540a733656f0d60405160405180910390a45060016100e2565b505f5b92915050565b5f602082840312156100f8575f5ffd5b81516001600160a01b038116811461010e575f5ffd5b9392505050565b610a2c806101225f395ff3fe608060405234801561000f575f5ffd5b50600436106100c4575f3560e01c806336568abe1161007d578063a217fddf11610058578063a217fddf146101d8578063d547741f146101df578063ff0acf4d146101f2575f5ffd5b806336568abe1461016f5780633f2b29ca1461018257806391d1485414610195575f5ffd5b8063248a9ca3116100ad578063248a9ca3146101055780632f2ff15d14610135578063364bc15a14610148575f5ffd5b806301ffc9a7146100c85780630779afe6146100f0575b5f5ffd5b6100db6100d63660046108bc565b610214565b60405190151581526020015b60405180910390f35b6101036100fe36600461092a565b6102ac565b005b610127610113366004610963565b5f9081526020819052604090206001015490565b6040519081526020016100e7565b61010361014336600461097a565b6103f9565b6101277ffc8737ab85eb45125971625a9ebdb75cc78e01d5c1fa80c4c6e5203f47bc4fab81565b61010361017d36600461097a565b610423565b6101036101903660046109a4565b610481565b6100db6101a336600461097a565b5f9182526020828152604080842073ffffffffffffffffffffffffffffffffffffffff93909316845291905290205460ff1690565b6101275f81565b6101036101ed36600461097a565b610568565b6100db6102003660046109dd565b60016020525f908152604090205460ff1681565b5f7fffffffff0000000000000000000000000000000000000000000000000000000082167f7965db0b0000000000000000000000000000000000000000000000000000000014806102a657507f01ffc9a7000000000000000000000000000000000000000000000000000000007fffffffff000000000000000000000000000000000000000000000000000000008316145b92915050565b7ffc8737ab85eb45125971625a9ebdb75cc78e01d5c1fa80c4c6e5203f47bc4fab6102d68161058c565b8373ffffffffffffffffffffffffffffffffffffffff8116610324576040517fbf8d717500000000000000000000000000000000000000000000000000000000815260040160405180910390fd5b8373ffffffffffffffffffffffffffffffffffffffff8116610372576040517fbf8d717500000000000000000000000000000000000000000000000000000000815260040160405180910390fd5b73ffffffffffffffffffffffffffffffffffffffff86165f9081526001602052604090205460ff166103d0576040517fe2ab68aa00000000000000000000000000000000000000000000000000000000815260040160405180910390fd5b6103f173ffffffffffffffffffffffffffffffffffffffff86168786610599565b505050505050565b5f828152602081905260409020600101546104138161058c565b61041d83836105f9565b50505050565b73ffffffffffffffffffffffffffffffffffffffff81163314610472576040517f6697b23200000000000000000000000000000000000000000000000000000000815260040160405180910390fd5b61047c82826106f2565b505050565b5f61048b8161058c565b8273ffffffffffffffffffffffffffffffffffffffff81166104d9576040517fbf8d717500000000000000000000000000000000000000000000000000000000815260040160405180910390fd5b73ffffffffffffffffffffffffffffffffffffffff84165f8181526001602090815260409182902080547fffffffffffffffffffffffffffffffffffffffffffffffffffffffffffffff00168715159081179091558251938452908301527f521b78128fea3cb75141ebc51da253ea47db9f81535838c850c2356037c4cc8b910160405180910390a150505050565b5f828152602081905260409020600101546105828161058c565b61041d83836106f2565b61059681336107ab565b50565b6105a68383836001610834565b61047c576040517f5274afe700000000000000000000000000000000000000000000000000000000815273ffffffffffffffffffffffffffffffffffffffff841660048201526024015b60405180910390fd5b5f8281526020818152604080832073ffffffffffffffffffffffffffffffffffffffff8516845290915281205460ff166106eb575f8381526020818152604080832073ffffffffffffffffffffffffffffffffffffffff86168452909152902080547fffffffffffffffffffffffffffffffffffffffffffffffffffffffffffffff001660011790556106893390565b73ffffffffffffffffffffffffffffffffffffffff168273ffffffffffffffffffffffffffffffffffffffff16847f2f8788117e7eff1d82e926ec794901d17c78024a50270940304540a733656f0d60405160405180910390a45060016102a6565b505f6102a6565b5f8281526020818152604080832073ffffffffffffffffffffffffffffffffffffffff8516845290915281205460ff16156106eb575f8381526020818152604080832073ffffffffffffffffffffffffffffffffffffffff8616808552925280832080547fffffffffffffffffffffffffffffffffffffffffffffffffffffffffffffff0016905551339286917ff6391f5c32d9c69d2a47ea670b442974b53935d1edc7fd64eb21e047a839171b9190a45060016102a6565b5f8281526020818152604080832073ffffffffffffffffffffffffffffffffffffffff8516845290915290205460ff16610830576040517fe2517d3f00000000000000000000000000000000000000000000000000000000815273ffffffffffffffffffffffffffffffffffffffff82166004820152602481018390526044016105f0565b5050565b6040517fa9059cbb000000000000000000000000000000000000000000000000000000005f81815273ffffffffffffffffffffffffffffffffffffffff8616600452602485905291602083604481808b5af1925060015f511483166108b05783831516156108a4573d5f823e3d81fd5b5f873b113d1516831692505b60405250949350505050565b5f602082840312156108cc575f5ffd5b81357fffffffff00000000000000000000000000000000000000000000000000000000811681146108fb575f5ffd5b9392505050565b803573ffffffffffffffffffffffffffffffffffffffff81168114610925575f5ffd5b919050565b5f5f5f6060848603121561093c575f5ffd5b61094584610902565b925061095360208501610902565b9150604084013590509250925092565b5f60208284031215610973575f5ffd5b5035919050565b5f5f6040838503121561098b575f5ffd5b8235915061099b60208401610902565b90509250929050565b5f5f604083850312156109b5575f5ffd5b6109be83610902565b9150602083013580151581146109d2575f5ffd5b809150509250929050565b5f602082840312156109ed575f5ffd5b6108fb8261090256fea26469706673582212205ee74d7265124ad5baf1fffafd76918c5381d1f0eca723b090ddf03465839ca364736f6c634300081e0033","linkReferences":{}},"methodIdentifiers":{"DEFAULT_ADMIN_ROLE()":"a217fddf","KEEPER_ROLE()":"364bc15a","custodians(address)":"ff0acf4d","getRoleAdmin(bytes32)":"248a9ca3","grantRole(bytes32,address)":"2f2ff15d","hasRole(bytes32,address)":"91d14854","renounceRole(bytes32,address)":"36568abe","revokeRole(bytes32,address)":"d547741f","send(address,address,uint256)":"0779afe6","setCustodianStatus(address,bool)":"3f2b29ca","supportsInterface(bytes4)":"01ffc9a7"},"id":141}