{"abi":[{"type":"constructor","inputs":[{"name":"manager_","type":"address","internalType":"address"},{"name":"router_","type":"address","internalType":"address"}],"stateMutability":"nonpayable"},{"type":"function","name":"manager","inputs":[],"outputs":[{"name":"","type":"address","internalType":"address"}],"stateMutability":"view"},{"type":"function","name":"router","inputs":[],"outputs":[{"name":"","type":"address","internalType":"address"}],"stateMutability":"view"},{"type":"function","name":"swap","inputs":[{"name":"parameters","type":"bytes","internalType":"bytes"},{"name":"data","type":"bytes","internalType":"bytes"}],"outputs":[],"stateMutability":"nonpayable"},{"type":"error","name":"InsufficientReturnAmount","inputs":[]},{"type":"error","name":"InvalidAmount","inputs":[]},{"type":"error","name":"InvalidDstToken","inputs":[]},{"type":"error","name":"InvalidMinReturnAmount","inputs":[]},{"type":"error","name":"InvalidReceiver","inputs":[]},{"type":"error","name":"InvalidRouter","inputs":[]},{"type":"error","name":"InvalidSrcToken","inputs":[]},{"type":"error","name":"NonZeroAddress","inputs":[]},{"type":"error","name":"OnlyManager","inputs":[]},{"type":"error","name":"SafeERC20FailedOperation","inputs":[{"name":"token","type":"address","internalType":"address"}]},{"type":"error","name":"SwapTypeNotSupported","inputs":[]}],"bytecode":{"object":"0x60c060405234801561000f575f5ffd5b50604051610d91380380610d9183398101604081905261002e91610060565b6001600160a01b039182166080521660a052610091565b80516001600160a01b038116811461005b575f5ffd5b919050565b5f5f60408385031215610071575f5ffd5b61007a83610045565b915061008860208401610045565b90509250929050565b60805160a051610cc66100cb5f395f818160ad015281816101c201526104a401525f818160480152818160e701526103a70152610cc65ff3fe608060405234801561000f575f5ffd5b506004361061003f575f3560e01c8063481c6a7514610043578063c46b30bc14610093578063f887ea40146100a8575b5f5ffd5b61006a7f000000000000000000000000000000000000000000000000000000000000000081565b60405173ffffffffffffffffffffffffffffffffffffffff909116815260200160405180910390f35b6100a66100a13660046107b6565b6100cf565b005b61006a7f000000000000000000000000000000000000000000000000000000000000000081565b3373ffffffffffffffffffffffffffffffffffffffff7f0000000000000000000000000000000000000000000000000000000000000000161461013e576040517fc0b2335a00000000000000000000000000000000000000000000000000000000815260040160405180910390fd5b5f61014b848601866108cf565b80519091506bffffffffffffffffffffffff166101725761016d8184846101ab565b6101a4565b6040517f243bdd3600000000000000000000000000000000000000000000000000000000815260040160405180910390fd5b5050505050565b5f80806101ba84860186610a03565b9250925092507f000000000000000000000000000000000000000000000000000000000000000073ffffffffffffffffffffffffffffffffffffffff16866020015173ffffffffffffffffffffffffffffffffffffffff1614610249576040517f466d7fef00000000000000000000000000000000000000000000000000000000815260040160405180910390fd5b815f015173ffffffffffffffffffffffffffffffffffffffff16866040015173ffffffffffffffffffffffffffffffffffffffff16146102b5576040517f950fab6300000000000000000000000000000000000000000000000000000000815260040160405180910390fd5b816020015173ffffffffffffffffffffffffffffffffffffffff16866060015173ffffffffffffffffffffffffffffffffffffffff1614610322576040517f7f543f9f00000000000000000000000000000000000000000000000000000000815260040160405180910390fd5b8160800151866080015114610363576040517f2c5211c600000000000000000000000000000000000000000000000000000000815260040160405180910390fd5b8160a001518660a0015111156103a5576040517f858e705e00000000000000000000000000000000000000000000000000000000815260040160405180910390fd5b7f000000000000000000000000000000000000000000000000000000000000000073ffffffffffffffffffffffffffffffffffffffff16826060015173ffffffffffffffffffffffffffffffffffffffff161461042e576040517f1e4ec46b00000000000000000000000000000000000000000000000000000000815260040160405180910390fd5b61046586602001518760800151886040015173ffffffffffffffffffffffffffffffffffffffff166105669092919063ffffffff16565b6040517f07ed23790000000000000000000000000000000000000000000000000000000081525f9073ffffffffffffffffffffffffffffffffffffffff7f000000000000000000000000000000000000000000000000000000000000000016906307ed2379906104dd90879087908790600401610b44565b60408051808303815f875af11580156104f8573d5f5f3e3d5ffd5b505050506040513d601f19601f8201168201806040525081019061051c9190610c19565b5090508660a0015181101561055d576040517fcea9e31d00000000000000000000000000000000000000000000000000000000815260040160405180910390fd5b50505050505050565b6040517fdd62ed3e00000000000000000000000000000000000000000000000000000000815230600482015273ffffffffffffffffffffffffffffffffffffffff83811660248301525f919085169063dd62ed3e90604401602060405180830381865afa1580156105d9573d5f5f3e3d5ffd5b505050506040513d601f19601f820116820180604052508101906105fd9190610c3b565b9050610613848461060e8585610c52565b610619565b50505050565b6106258383835f6106e9565b6106e45761063683835f60016106e9565b610689576040517f5274afe700000000000000000000000000000000000000000000000000000000815273ffffffffffffffffffffffffffffffffffffffff841660048201526024015b60405180910390fd5b61069683838360016106e9565b6106e4576040517f5274afe700000000000000000000000000000000000000000000000000000000815273ffffffffffffffffffffffffffffffffffffffff84166004820152602401610680565b505050565b6040517f095ea7b3000000000000000000000000000000000000000000000000000000005f81815273ffffffffffffffffffffffffffffffffffffffff8616600452602485905291602083604481808b5af1925060015f51148316610765578383151615610759573d5f823e3d81fd5b5f873b113d1516831692505b60405250949350505050565b5f5f83601f840112610781575f5ffd5b50813567ffffffffffffffff811115610798575f5ffd5b6020830191508360208285010111156107af575f5ffd5b9250929050565b5f5f5f5f604085870312156107c9575f5ffd5b843567ffffffffffffffff8111156107df575f5ffd5b6107eb87828801610771565b909550935050602085013567ffffffffffffffff81111561080a575f5ffd5b61081687828801610771565b95989497509550505050565b7f4e487b71000000000000000000000000000000000000000000000000000000005f52604160045260245ffd5b60405160c0810167ffffffffffffffff8111828210171561087257610872610822565b60405290565b60405160e0810167ffffffffffffffff8111828210171561087257610872610822565b73ffffffffffffffffffffffffffffffffffffffff811681146108bc575f5ffd5b50565b80356108ca8161089b565b919050565b5f60c08284031280156108e0575f5ffd5b506108e961084f565b82356bffffffffffffffffffffffff81168114610904575f5ffd5b815260208301356109148161089b565b602082015260408301356109278161089b565b6040820152610938606084016108bf565b60608201526080838101359082015260a0928301359281019290925250919050565b5f82601f830112610969575f5ffd5b813567ffffffffffffffff81111561098357610983610822565b604051601f82017fffffffffffffffffffffffffffffffffffffffffffffffffffffffffffffffe0908116603f0116810167ffffffffffffffff811182821017156109d0576109d0610822565b6040528181528382016020018510156109e7575f5ffd5b816020850160208301375f918101602001919091529392505050565b5f5f5f838503610120811215610a17575f5ffd5b8435610a228161089b565b935060e07fffffffffffffffffffffffffffffffffffffffffffffffffffffffffffffffe082011215610a53575f5ffd5b50610a5c610878565b6020850135610a6a8161089b565b81526040850135610a7a8161089b565b60208201526060850135610a8d8161089b565b60408201526080850135610aa08161089b565b606082015260a085810135608083015260c0808701359183019190915260e086013590820152915061010084013567ffffffffffffffff811115610ae2575f5ffd5b610aee8682870161095a565b9150509250925092565b5f81518084528060208401602086015e5f6020828601015260207fffffffffffffffffffffffffffffffffffffffffffffffffffffffffffffffe0601f83011685010191505092915050565b73ffffffffffffffffffffffffffffffffffffffff8416815273ffffffffffffffffffffffffffffffffffffffff835116602082015273ffffffffffffffffffffffffffffffffffffffff602084015116604082015273ffffffffffffffffffffffffffffffffffffffff604084015116606082015273ffffffffffffffffffffffffffffffffffffffff6060840151166080820152608083015160a082015260a083015160c082015260c083015160e08201526101206101008201525f610c10610120830184610af8565b95945050505050565b5f5f60408385031215610c2a575f5ffd5b505080516020909101519092909150565b5f60208284031215610c4b575f5ffd5b5051919050565b80820180821115610c8a577f4e487b71000000000000000000000000000000000000000000000000000000005f52601160045260245ffd5b9291505056fea264697066735822122004366e306f05f97d50f356eea2f3fc6b0b9943f0d42cf576134bbae990addba664736f6c634300081e0033","linkReferences":{}},"methodIdentifiers":{"manager()":"481c6a75","router()":"f887ea40","swap(bytes,bytes)":"c46b30bc"},"id":146}