{"abi":[{"type":"function","name":"swap","inputs":[{"name":"","type":"address","internalType":"contract IAggregationExecutor"},{"name":"desc","type":"tuple","internalType":"struct IAggregationRouterV6.SwapDescription","components":[{"name":"srcToken","type":"address","internalType":"contract IERC20"},{"name":"dstToken","type":"address","internalType":"contract IERC20"},{"name":"srcReceiver","type":"address","internalType":"address payable"},{"name":"dstReceiver","type":"address","internalType":"address payable"},{"name":"amount","type":"uint256","internalType":"uint256"},{"name":"minReturnAmount","type":"uint256","internalType":"uint256"},{"name":"flags","type":"uint256","internalType":"uint256"}]},{"name":"","type":"bytes","internalType":"bytes"}],"outputs":[{"name":"returnAmount","type":"uint256","internalType":"uint256"},{"name":"spentAmount","type":"uint256","internalType":"uint256"}],"stateMutability":"payable"},{"type":"function","name":"test","inputs":[],"outputs":[],"stateMutability":"nonpayable"},{"type":"error","name":"SafeERC20FailedOperation","inputs":[{"name":"token","type":"address","internalType":"address"}]}],"bytecode":{"object":"0x6080604052348015600e575f5ffd5b5061045a8061001c5f395ff3fe608060405260043610610028575f3560e01c806307ed23791461002c578063f8a8fd6d14610058575b5f5ffd5b61003f61003a36600461030d565b610065565b6040805192835260208301919091520160405180910390f35b348015610063575f5ffd5b005b5f808061007560208701876103c4565b90505f61008860408801602089016103c4565b90506100b073ffffffffffffffffffffffffffffffffffffffff8316333060808b0135610107565b6100f16100c36080890160608a016103c4565b6100d36103e860a08b01356103e6565b73ffffffffffffffffffffffffffffffffffffffff8416919061016e565b5050505060a08301359460809093013593505050565b6101158484848460016101ce565b610168576040517f5274afe700000000000000000000000000000000000000000000000000000000815273ffffffffffffffffffffffffffffffffffffffff851660048201526024015b60405180910390fd5b50505050565b61017b8383836001610261565b6101c9576040517f5274afe700000000000000000000000000000000000000000000000000000000815273ffffffffffffffffffffffffffffffffffffffff8416600482015260240161015f565b505050565b6040517f23b872dd000000000000000000000000000000000000000000000000000000005f81815273ffffffffffffffffffffffffffffffffffffffff8781166004528616602452604485905291602083606481808c5af1925060015f51148316610250578383151615610244573d5f823e3d81fd5b5f883b113d1516831692505b604052505f60605295945050505050565b6040517fa9059cbb000000000000000000000000000000000000000000000000000000005f81815273ffffffffffffffffffffffffffffffffffffffff8616600452602485905291602083604481808b5af1925060015f511483166102dd5783831516156102d1573d5f823e3d81fd5b5f873b113d1516831692505b60405250949350505050565b73ffffffffffffffffffffffffffffffffffffffff8116811461030a575f5ffd5b50565b5f5f5f5f848603610120811215610322575f5ffd5b853561032d816102e9565b945060e07fffffffffffffffffffffffffffffffffffffffffffffffffffffffffffffffe08201121561035e575f5ffd5b5060208501925061010085013567ffffffffffffffff81111561037f575f5ffd5b8501601f8101871361038f575f5ffd5b803567ffffffffffffffff8111156103a5575f5ffd5b8760208284010111156103b6575f5ffd5b949793965060200194505050565b5f602082840312156103d4575f5ffd5b81356103df816102e9565b9392505050565b8181038181111561041e577f4e487b71000000000000000000000000000000000000000000000000000000005f52601160045260245ffd5b9291505056fea2646970667358221220e422296a2cd10ea476d3782af0500aa3cd69a9c0482472d95bc48a673bf52f6f64736f6c634300081e0033","linkReferences":{}},"methodIdentifiers":{"swap(address,(address,address,address,address,uint256,uint256,uint256),bytes)":"07ed2379","test()":"f8a8fd6d"},"id":193}