{"abi":[{"type":"constructor","inputs":[{"name":"_endpoint","type":"address","internalType":"address"},{"name":"_owner","type":"address","internalType":"address"}],"stateMutability":"nonpayable"},{"type":"receive","stateMutability":"payable"},{"type":"function","name":"executorConfigs","inputs":[{"name":"oapp","type":"address","internalType":"address"},{"name":"eid","type":"uint32","internalType":"uint32"}],"outputs":[{"name":"maxMessageSize","type":"uint32","internalType":"uint32"},{"name":"executor","type":"address","internalType":"address"}],"stateMutability":"view"},{"type":"function","name":"fees","inputs":[{"name":"worker","type":"address","internalType":"address"}],"outputs":[{"name":"","type":"uint256","internalType":"uint256"}],"stateMutability":"view"},{"type":"function","name":"getConfig","inputs":[{"name":"","type":"uint32","internalType":"uint32"},{"name":"","type":"address","internalType":"address"},{"name":"","type":"uint32","internalType":"uint32"}],"outputs":[{"name":"","type":"bytes","internalType":"bytes"}],"stateMutability":"view"},{"type":"function","name":"getDefaultConfig","inputs":[{"name":"_eid","type":"uint32","internalType":"uint32"},{"name":"_configType","type":"uint32","internalType":"uint32"}],"outputs":[{"name":"","type":"bytes","internalType":"bytes"}],"stateMutability":"view"},{"type":"function","name":"getExecutorConfig","inputs":[{"name":"_oapp","type":"address","internalType":"address"},{"name":"_remoteEid","type":"uint32","internalType":"uint32"}],"outputs":[{"name":"rtnConfig","type":"tuple","internalType":"struct ExecutorConfig","components":[{"name":"maxMessageSize","type":"uint32","internalType":"uint32"},{"name":"executor","type":"address","internalType":"address"}]}],"stateMutability":"view"},{"type":"function","name":"isSupportedEid","inputs":[{"name":"","type":"uint32","internalType":"uint32"}],"outputs":[{"name":"","type":"bool","internalType":"bool"}],"stateMutability":"pure"},{"type":"function","name":"messageLibType","inputs":[],"outputs":[{"name":"","type":"uint8","internalType":"enum MessageLibType"}],"stateMutability":"pure"},{"type":"function","name":"mockFee","inputs":[{"name":"_owner","type":"address","internalType":"address"},{"name":"_fee","type":"uint256","internalType":"uint256"}],"outputs":[],"stateMutability":"nonpayable"},{"type":"function","name":"owner","inputs":[],"outputs":[{"name":"","type":"address","internalType":"address"}],"stateMutability":"view"},{"type":"function","name":"quote","inputs":[{"name":"_packet","type":"tuple","internalType":"struct Packet","components":[{"name":"nonce","type":"uint64","internalType":"uint64"},{"name":"srcEid","type":"uint32","internalType":"uint32"},{"name":"sender","type":"address","internalType":"address"},{"name":"dstEid","type":"uint32","internalType":"uint32"},{"name":"receiver","type":"bytes32","internalType":"bytes32"},{"name":"guid","type":"bytes32","internalType":"bytes32"},{"name":"message","type":"bytes","internalType":"bytes"}]},{"name":"_options","type":"bytes","internalType":"bytes"},{"name":"_payInLzToken","type":"bool","internalType":"bool"}],"outputs":[{"name":"","type":"tuple","internalType":"struct MessagingFee","components":[{"name":"nativeFee","type":"uint256","internalType":"uint256"},{"name":"lzTokenFee","type":"uint256","internalType":"uint256"}]}],"stateMutability":"view"},{"type":"function","name":"renounceOwnership","inputs":[],"outputs":[],"stateMutability":"nonpayable"},{"type":"function","name":"send","inputs":[{"name":"_packet","type":"tuple","internalType":"struct Packet","components":[{"name":"nonce","type":"uint64","internalType":"uint64"},{"name":"srcEid","type":"uint32","internalType":"uint32"},{"name":"sender","type":"address","internalType":"address"},{"name":"dstEid","type":"uint32","internalType":"uint32"},{"name":"receiver","type":"bytes32","internalType":"bytes32"},{"name":"guid","type":"bytes32","internalType":"bytes32"},{"name":"message","type":"bytes","internalType":"bytes"}]},{"name":"_options","type":"bytes","internalType":"bytes"},{"name":"_payInLzToken","type":"bool","internalType":"bool"}],"outputs":[{"name":"","type":"tuple","internalType":"struct MessagingFee","components":[{"name":"nativeFee","type":"uint256","internalType":"uint256"},{"name":"lzTokenFee","type":"uint256","internalType":"uint256"}]},{"name":"","type":"bytes","internalType":"bytes"}],"stateMutability":"nonpayable"},{"type":"function","name":"setConfig","inputs":[{"name":"","type":"address","internalType":"address"},{"name":"","type":"tuple[]","internalType":"struct SetConfigParam[]","components":[{"name":"eid","type":"uint32","internalType":"uint32"},{"name":"configType","type":"uint32","internalType":"uint32"},{"name":"config","type":"bytes","internalType":"bytes"}]}],"outputs":[],"stateMutability":"nonpayable"},{"type":"function","name":"setDefaultExecutorConfigs","inputs":[{"name":"_params","type":"tuple[]","internalType":"struct SetDefaultExecutorConfigParam[]","components":[{"name":"eid","type":"uint32","internalType":"uint32"},{"name":"config","type":"tuple","internalType":"struct ExecutorConfig","components":[{"name":"maxMessageSize","type":"uint32","internalType":"uint32"},{"name":"executor","type":"address","internalType":"address"}]}]}],"outputs":[],"stateMutability":"nonpayable"},{"type":"function","name":"setTreasury","inputs":[{"name":"_treasury","type":"address","internalType":"address"}],"outputs":[],"stateMutability":"nonpayable"},{"type":"function","name":"setTreasuryNativeFeeCap","inputs":[{"name":"_newTreasuryNativeFeeCap","type":"uint256","internalType":"uint256"}],"outputs":[],"stateMutability":"nonpayable"},{"type":"function","name":"supportsInterface","inputs":[{"name":"_interfaceId","type":"bytes4","internalType":"bytes4"}],"outputs":[{"name":"","type":"bool","internalType":"bool"}],"stateMutability":"view"},{"type":"function","name":"transferOwnership","inputs":[{"name":"newOwner","type":"address","internalType":"address"}],"outputs":[],"stateMutability":"nonpayable"},{"type":"function","name":"treasury","inputs":[],"outputs":[{"name":"","type":"address","internalType":"address"}],"stateMutability":"view"},{"type":"function","name":"version","inputs":[],"outputs":[{"name":"","type":"uint64","internalType":"uint64"},{"name":"","type":"uint8","internalType":"uint8"},{"name":"","type":"uint8","internalType":"uint8"}],"stateMutability":"view"},{"type":"function","name":"withdrawFee","inputs":[{"name":"_to","type":"address","internalType":"address"},{"name":"_amount","type":"uint256","internalType":"uint256"}],"outputs":[],"stateMutability":"nonpayable"},{"type":"function","name":"withdrawLzTokenFee","inputs":[{"name":"_lzToken","type":"address","internalType":"address"},{"name":"_to","type":"address","internalType":"address"},{"name":"_amount","type":"uint256","internalType":"uint256"}],"outputs":[],"stateMutability":"nonpayable"},{"type":"event","name":"DefaultExecutorConfigsSet","inputs":[{"name":"params","type":"tuple[]","indexed":false,"internalType":"struct SetDefaultExecutorConfigParam[]","components":[{"name":"eid","type":"uint32","internalType":"uint32"},{"name":"config","type":"tuple","internalType":"struct ExecutorConfig","components":[{"name":"maxMessageSize","type":"uint32","internalType":"uint32"},{"name":"executor","type":"address","internalType":"address"}]}]}],"anonymous":false},{"type":"event","name":"ExecutorConfigSet","inputs":[{"name":"oapp","type":"address","indexed":false,"internalType":"address"},{"name":"eid","type":"uint32","indexed":false,"internalType":"uint32"},{"name":"config","type":"tuple","indexed":false,"internalType":"struct ExecutorConfig","components":[{"name":"maxMessageSize","type":"uint32","internalType":"uint32"},{"name":"executor","type":"address","internalType":"address"}]}],"anonymous":false},{"type":"event","name":"ExecutorFeePaid","inputs":[{"name":"executor","type":"address","indexed":false,"internalType":"address"},{"name":"fee","type":"uint256","indexed":false,"internalType":"uint256"}],"anonymous":false},{"type":"event","name":"LzTokenFeeWithdrawn","inputs":[{"name":"lzToken","type":"address","indexed":false,"internalType":"address"},{"name":"receiver","type":"address","indexed":false,"internalType":"address"},{"name":"amount","type":"uint256","indexed":false,"internalType":"uint256"}],"anonymous":false},{"type":"event","name":"NativeFeeWithdrawn","inputs":[{"name":"worker","type":"address","indexed":false,"internalType":"address"},{"name":"receiver","type":"address","indexed":false,"internalType":"address"},{"name":"amount","type":"uint256","indexed":false,"internalType":"uint256"}],"anonymous":false},{"type":"event","name":"OwnershipTransferred","inputs":[{"name":"previousOwner","type":"address","indexed":true,"internalType":"address"},{"name":"newOwner","type":"address","indexed":true,"internalType":"address"}],"anonymous":false},{"type":"event","name":"TreasuryNativeFeeCapSet","inputs":[{"name":"newTreasuryNativeFeeCap","type":"uint256","indexed":false,"internalType":"uint256"}],"anonymous":false},{"type":"event","name":"TreasurySet","inputs":[{"name":"treasury","type":"address","indexed":false,"internalType":"address"}],"anonymous":false},{"type":"error","name":"LZ_MessageLib_CannotWithdrawAltToken","inputs":[]},{"type":"error","name":"LZ_MessageLib_InvalidAmount","inputs":[{"name":"requested","type":"uint256","internalType":"uint256"},{"name":"available","type":"uint256","internalType":"uint256"}]},{"type":"error","name":"LZ_MessageLib_InvalidExecutor","inputs":[]},{"type":"error","name":"LZ_MessageLib_InvalidMessageSize","inputs":[{"name":"actual","type":"uint256","internalType":"uint256"},{"name":"max","type":"uint256","internalType":"uint256"}]},{"type":"error","name":"LZ_MessageLib_NotTreasury","inputs":[]},{"type":"error","name":"LZ_MessageLib_OnlyEndpoint","inputs":[]},{"type":"error","name":"LZ_MessageLib_TransferFailed","inputs":[]},{"type":"error","name":"LZ_MessageLib_ZeroMessageSize","inputs":[]},{"type":"error","name":"OwnableInvalidOwner","inputs":[{"name":"owner","type":"address","internalType":"address"}]},{"type":"error","name":"OwnableUnauthorizedAccount","inputs":[{"name":"account","type":"address","internalType":"address"}]},{"type":"error","name":"SafeERC20FailedOperation","inputs":[{"name":"token","type":"address","internalType":"address"}]},{"type":"error","name":"Transfer_NativeFailed","inputs":[{"name":"_to","type":"address","internalType":"address"},{"name":"_value","type":"uint256","internalType":"uint256"}]},{"type":"error","name":"Transfer_ToAddressIsZero","inputs":[]}],"bytecode":{"object":"0x60e060405234801561000f575f5ffd5b506040516122f93803806122f983398101604081905261002e91610160565b815f195f82836001600160a01b031663416ecebf6040518163ffffffff1660e01b8152600401602060405180830381865afa15801561006f573d5f5f3e3d5ffd5b505050506040513d601f19601f820116820180604052508101906100939190610191565b6001600160a01b0380831660805263ffffffff821660a05284908490889081166100d657604051631e4fbdf760e01b81525f600482015260240160405180910390fd5b6100df816100f6565b5060c091909152600155506101bb95505050505050565b5f80546001600160a01b038381166001600160a01b0319831681178455604051919092169283917f8be0079c531659141344cd1fd0a4f28419497f9722a3daafe3b4186f6b6457e09190a35050565b80516001600160a01b038116811461015b575f5ffd5b919050565b5f5f60408385031215610171575f5ffd5b61017a83610145565b915061018860208401610145565b90509250929050565b5f602082840312156101a1575f5ffd5b815163ffffffff811681146101b4575f5ffd5b9392505050565b60805160a05160c0516121026101f75f395f818161102c015261176401525f50505f81816107de015281816109360152610d2b01526121025ff3fe608060405260043610610170575f3560e01c8063715018a6116100c6578063d80e9bd91161007c578063f2fde38b11610057578063f2fde38b1461050e578063faaebd211461052d578063fd9be52214610566575f5ffd5b8063d80e9bd914610481578063f03d5a1e146104ad578063f0f44260146104ef575f5ffd5b80639c33abf7116100ac5780639c33abf714610420578063c14c434914610443578063d15b0d4914610462575f5ffd5b8063715018a6146103e35780638da5cb5b146103f7575f5ffd5b80634389e58f1161012657806361d027b31161010157806361d027b3146103435780636750cd4c14610394578063690c6555146103b4575f5ffd5b80634389e58f1461025f5780634d9632001461028c57806354fd4d5014610319575f5ffd5b80631881d94d116101565780631881d94d14610205578063200175f71461021f57806320efd72214610240575f5ffd5b806301ffc9a71461017b578063188183f4146101af575f5ffd5b3661017757005b5f5ffd5b348015610186575f5ffd5b5061019a6101953660046119d7565b610585565b60405190151581526020015b60405180910390f35b3480156101ba575f5ffd5b506101ce6101c9366004611a4f565b610669565b60408051825163ffffffff16815260209283015173ffffffffffffffffffffffffffffffffffffffff1692810192909252016101a6565b348015610210575f5ffd5b505f6040516101a69190611a86565b34801561022a575f5ffd5b5061023e610239366004611ac5565b610774565b005b34801561024b575f5ffd5b5061023e61025a366004611b03565b505050565b34801561026a575f5ffd5b5061027e610279366004611b9a565b61091f565b6040516101a6929190611c93565b348015610297575f5ffd5b506102e86102a6366004611a4f565b600360209081525f928352604080842090915290825290205463ffffffff811690640100000000900473ffffffffffffffffffffffffffffffffffffffff1682565b6040805163ffffffff909316835273ffffffffffffffffffffffffffffffffffffffff9091166020830152016101a6565b348015610324575f5ffd5b50604080515f80825260208201819052918101919091526060016101a6565b34801561034e575f5ffd5b5060025461036f9073ffffffffffffffffffffffffffffffffffffffff1681565b60405173ffffffffffffffffffffffffffffffffffffffff90911681526020016101a6565b34801561039f575f5ffd5b5061019a6103ae366004611cbe565b50600190565b3480156103bf575f5ffd5b506103d66103ce366004611cd9565b606092915050565b6040516101a69190611cf5565b3480156103ee575f5ffd5b5061023e610a16565b348015610402575f5ffd5b505f5473ffffffffffffffffffffffffffffffffffffffff1661036f565b34801561042b575f5ffd5b506103d661043a366004611d07565b60609392505050565b34801561044e575f5ffd5b5061023e61045d366004611d4f565b610a29565b34801561046d575f5ffd5b5061023e61047c366004611dc0565b610ba8565b34801561048c575f5ffd5b506104a061049b366004611b9a565b610c3f565b6040516101a69190611dd7565b3480156104b8575f5ffd5b5061023e6104c7366004611dee565b73ffffffffffffffffffffffffffffffffffffffff9091165f90815260046020526040902055565b3480156104fa575f5ffd5b5061023e610509366004611e18565b610cab565b348015610519575f5ffd5b5061023e610528366004611e18565b610cbf565b348015610538575f5ffd5b50610558610547366004611e18565b60046020525f908152604090205481565b6040519081526020016101a6565b348015610571575f5ffd5b5061023e610580366004611dee565b610d1f565b5f7fffffffff0000000000000000000000000000000000000000000000000000000082167f97f0258400000000000000000000000000000000000000000000000000000000148061061757507fffffffff0000000000000000000000000000000000000000000000000000000082167fb6e9ace300000000000000000000000000000000000000000000000000000000145b8061066357507f01ffc9a7000000000000000000000000000000000000000000000000000000007fffffffff000000000000000000000000000000000000000000000000000000008316145b92915050565b604080518082019091525f808252602082015263ffffffff8083165f8181527f3617319a054d772f909f7c479a2cebe5066e836a939412e32403c99029b92eff6020908152604080832073ffffffffffffffffffffffffffffffffffffffff891684526003835281842094845293909152812080549293909216908190036106f857825463ffffffff166106fa565b805b63ffffffff1684528154640100000000900473ffffffffffffffffffffffffffffffffffffffff168061074c578354640100000000900473ffffffffffffffffffffffffffffffffffffffff1661074e565b805b73ffffffffffffffffffffffffffffffffffffffff166020860152509295945050505050565b60025473ffffffffffffffffffffffffffffffffffffffff1633146107c5576040517f885762a700000000000000000000000000000000000000000000000000000000815260040160405180910390fd5b8273ffffffffffffffffffffffffffffffffffffffff167f000000000000000000000000000000000000000000000000000000000000000073ffffffffffffffffffffffffffffffffffffffff1663e1758bd86040518163ffffffff1660e01b8152600401602060405180830381865afa158015610845573d5f5f3e3d5ffd5b505050506040513d601f19601f820116820180604052508101906108699190611e33565b73ffffffffffffffffffffffffffffffffffffffff16036108b6576040517fe695d04400000000000000000000000000000000000000000000000000000000815260040160405180910390fd5b6108c1838383610e16565b6040805173ffffffffffffffffffffffffffffffffffffffff8086168252841660208201529081018290527fe081464b7278501267de69fa85b7b9560b0ae05d5fbfaab9b1986c70356e2efe906060015b60405180910390a1505050565b604080518082019091525f808252602082015260607f000000000000000000000000000000000000000000000000000000000000000073ffffffffffffffffffffffffffffffffffffffff1633146109a3576040517f467409c300000000000000000000000000000000000000000000000000000000815260040160405180910390fd5b5f5f6109b0888888610e84565b90925090505f806109e16109ca60608c0160408d01611e18565b6109da60808d0160608e01611cbe565b858a610f2d565b90925090506109f08284611e4e565b604080518082019091529081526020810191909152945091925050505b94509492505050565b610a1e6110b7565b610a275f611109565b565b610a316110b7565b5f5b81811015610b6a5736838383818110610a4e57610a4e611e86565b60609081029290920192505f91610a6b9150830160408401611e18565b73ffffffffffffffffffffffffffffffffffffffff1603610ab8576040517f20e9d05a00000000000000000000000000000000000000000000000000000000815260040160405180910390fd5b610ac86040820160208301611cbe565b63ffffffff165f03610b06576040517f49cfac4300000000000000000000000000000000000000000000000000000000815260040160405180910390fd5b5f808052600360209081528201907f3617319a054d772f909f7c479a2cebe5066e836a939412e32403c99029b92eff90610b408385611cbe565b63ffffffff16815260208101919091526040015f20610b5f8282611eb3565b505050600101610a33565b507f2b001e1c6683bf79cc52891bd7215b204c787d18134fc7f3d21b4f32a49e47de8282604051610b9c929190611f4b565b60405180910390a15050565b610bb06110b7565b600154811115610c03576001546040517f34084fb8000000000000000000000000000000000000000000000000000000008152610bfa918391600401918252602082015260400190565b60405180910390fd5b60018190556040518181527f491ff913b5444f4136b0d4075f020cfe3a5f60de926ec0b091612401a22b7842906020015b60405180910390a150565b604080518082019091525f80825260208201525f80610c8e610c676060890160408a01611e18565b610c7760808a0160608b01611cbe565b610c8460c08b018b611fd6565b9050878a8a61117d565b604080518082019091529182526020820152979650505050505050565b610cb36110b7565b610cbc81611261565b50565b610cc76110b7565b73ffffffffffffffffffffffffffffffffffffffff8116610d16576040517f1e4fbdf70000000000000000000000000000000000000000000000000000000081525f6004820152602401610bfa565b610cbc81611109565b610d28816112d4565b5f7f000000000000000000000000000000000000000000000000000000000000000073ffffffffffffffffffffffffffffffffffffffff1663e1758bd86040518163ffffffff1660e01b8152600401602060405180830381865afa158015610d92573d5f5f3e3d5ffd5b505050506040513d601f19601f82011682018060405250810190610db69190611e33565b9050610dc381848461133c565b6040805133815273ffffffffffffffffffffffffffffffffffffffff851660208201529081018390527f820b7fd51bf79c54350bab98400651b3314ff6e79b33528821871d94a666988390606001610912565b73ffffffffffffffffffffffffffffffffffffffff8216610e63576040517f6b7a931000000000000000000000000000000000000000000000000000000000815260040160405180910390fd5b61025a73ffffffffffffffffffffffffffffffffffffffff8416838361136c565b60605f818082610eac610e9c89840160408b01611e18565b6101c960808b0160608c01611cbe565b90505f610ebc60c08a018a611fd6565b90509050610ed381835f015163ffffffff166113c7565b6020820151610f0390610eec60808c0160608d01611cbe565b610efc60608d0160408e01611e18565b848861140f565b610f0d9086611e4e565b94505f6060610f1c8288611e4e565b909b909a5098505050505050505050565b6002545f90819073ffffffffffffffffffffffffffffffffffffffff1615610a0d5760405173ffffffffffffffffffffffffffffffffffffffff8716602482015263ffffffff861660448201526064810185905283151560848201525f9060a401604080517fffffffffffffffffffffffffffffffffffffffffffffffffffffffffffffffe0818403018152919052602080820180517bffffffffffffffffffffffffffffffffffffffffffffffffffffffff167fd51c5486000000000000000000000000000000000000000000000000000000001790526002549192505f9182916110549173ffffffffffffffffffffffffffffffffffffffff16907f000000000000000000000000000000000000000000000000000000000000000090849087611543565b91509150611064878784846115ee565b909550935084156110ab5760025473ffffffffffffffffffffffffffffffffffffffff165f90815260046020526040812080548792906110a5908490611e4e565b90915550505b50505094509492505050565b5f5473ffffffffffffffffffffffffffffffffffffffff163314610a27576040517f118cdaa7000000000000000000000000000000000000000000000000000000008152336004820152602401610bfa565b5f805473ffffffffffffffffffffffffffffffffffffffff8381167fffffffffffffffffffffffff0000000000000000000000000000000000000000831681178455604051919092169283917f8be0079c531659141344cd1fd0a4f28419497f9722a3daafe3b4186f6b6457e09190a35050565b5f80606080828061118e8c8c610669565b90506111a38a825f015163ffffffff166113c7565b806020015173ffffffffffffffffffffffffffffffffffffffff1663709eb6648c8e8d886040518563ffffffff1660e01b81526004016111e6949392919061203e565b602060405180830381865afa158015611201573d5f5f3e3d5ffd5b505050506040513d601f19601f820116820180604052508101906112259190612088565b61122f9083611e4e565b91505f5f61123f8e8e868e611665565b909250905061124e8285611e4e565b9e909d509b505050505050505050505050565b600280547fffffffffffffffffffffffff00000000000000000000000000000000000000001673ffffffffffffffffffffffffffffffffffffffff83169081179091556040519081527f3c864541ef71378c6229510ed90f376565ee42d9c5e0904a984a9e863e6db44f90602001610c34565b335f9081526004602052604090205480821115611327576040517f34084fb80000000000000000000000000000000000000000000000000000000081526004810183905260248101829052604401610bfa565b335f9081526004602052604090209190039055565b73ffffffffffffffffffffffffffffffffffffffff83166113615761025a82826117a6565b61025a838383610e16565b61137983838360016118a8565b61025a576040517f5274afe700000000000000000000000000000000000000000000000000000000815273ffffffffffffffffffffffffffffffffffffffff84166004820152602401610bfa565b8082111561140b576040517fc667af3e0000000000000000000000000000000000000000000000000000000081526004810183905260248101829052604401610bfa565b5050565b6040517f717e8a420000000000000000000000000000000000000000000000000000000081525f9073ffffffffffffffffffffffffffffffffffffffff87169063717e8a429061146990889088908890889060040161203e565b6020604051808303815f875af1158015611485573d5f5f3e3d5ffd5b505050506040513d601f19601f820116820180604052508101906114a99190612088565b905080156114eb5773ffffffffffffffffffffffffffffffffffffffff86165f90815260046020526040812080548392906114e5908490611e4e565b90915550505b6040805173ffffffffffffffffffffffffffffffffffffffff88168152602081018390527f61ed099e74a97a1d7f8bb0952a88ca8b7b8ebd00c126ea04671f92a81213318a910160405180910390a195945050505050565b5f6060863b80830361156857604080515f8082526020820190925292509250506115e4565b5f5f5f8761ffff1667ffffffffffffffff8111156115885761158861209f565b6040519080825280601f01601f1916602001820160405280156115b2576020820181803683370190505b5090505f5f885160208a018c8f8ff191503d9250878311156115d2578792505b828152825f602083013e909450925050505b9550959350505050565b5f5f8315806115fe575082516020115b1561160d57505f905080610a0d565b5f838060200190518101906116229190612088565b905085156116325780915061165b565b5f600154881161164457600154611646565b875b90508082116116555781611657565b805b9350505b5094509492505050565b6002545f90819073ffffffffffffffffffffffffffffffffffffffff1615610a0d5760405173ffffffffffffffffffffffffffffffffffffffff8716602482015263ffffffff861660448201526064810185905283151560848201525f9060a401604080517fffffffffffffffffffffffffffffffffffffffffffffffffffffffffffffffe0818403018152919052602080820180517bffffffffffffffffffffffffffffffffffffffffffffffffffffffff167fd4244221000000000000000000000000000000000000000000000000000000001790526002549192505f91829161178a9173ffffffffffffffffffffffffffffffffffffffff16907f00000000000000000000000000000000000000000000000000000000000000009086611930565b9150915061179a878784846115ee565b94509450505050610a0d565b73ffffffffffffffffffffffffffffffffffffffff82166117f3576040517f6b7a931000000000000000000000000000000000000000000000000000000000815260040160405180910390fd5b5f8273ffffffffffffffffffffffffffffffffffffffff16826040515f6040518083038185875af1925050503d805f8114611849576040519150601f19603f3d011682016040523d82523d5f602084013e61184e565b606091505b505090508061025a576040517f465bc83400000000000000000000000000000000000000000000000000000000815273ffffffffffffffffffffffffffffffffffffffff8416600482015260248101839052604401610bfa565b6040517fa9059cbb000000000000000000000000000000000000000000000000000000005f81815273ffffffffffffffffffffffffffffffffffffffff8616600452602485905291602083604481808b5af1925060015f51148316611924578383151615611918573d5f823e3d81fd5b5f873b113d1516831692505b60405250949350505050565b5f6060853b80830361195557604080515f808252602082019092529250925050610a0d565b5f5f5f8761ffff1667ffffffffffffffff8111156119755761197561209f565b6040519080825280601f01601f19166020018201604052801561199f576020820181803683370190505b5090505f5f885160208a018d8dfa91503d9250878311156119be578792505b828152825f602083013e90999098509650505050505050565b5f602082840312156119e7575f5ffd5b81357fffffffff0000000000000000000000000000000000000000000000000000000081168114611a16575f5ffd5b9392505050565b73ffffffffffffffffffffffffffffffffffffffff81168114610cbc575f5ffd5b63ffffffff81168114610cbc575f5ffd5b5f5f60408385031215611a60575f5ffd5b8235611a6b81611a1d565b91506020830135611a7b81611a3e565b809150509250929050565b6020810160038310611abf577f4e487b71000000000000000000000000000000000000000000000000000000005f52602160045260245ffd5b91905290565b5f5f5f60608486031215611ad7575f5ffd5b8335611ae281611a1d565b92506020840135611af281611a1d565b929592945050506040919091013590565b5f5f5f60408486031215611b15575f5ffd5b8335611b2081611a1d565b9250602084013567ffffffffffffffff811115611b3b575f5ffd5b8401601f81018613611b4b575f5ffd5b803567ffffffffffffffff811115611b61575f5ffd5b8660208260051b8401011115611b75575f5ffd5b939660209190910195509293505050565b80358015158114611b95575f5ffd5b919050565b5f5f5f5f60608587031215611bad575f5ffd5b843567ffffffffffffffff811115611bc3575f5ffd5b850160e08188031215611bd4575f5ffd5b9350602085013567ffffffffffffffff811115611bef575f5ffd5b8501601f81018713611bff575f5ffd5b803567ffffffffffffffff811115611c15575f5ffd5b876020828401011115611c26575f5ffd5b60209190910193509150611c3c60408601611b86565b905092959194509250565b5f81518084528060208401602086015e5f6020828601015260207fffffffffffffffffffffffffffffffffffffffffffffffffffffffffffffffe0601f83011685010191505092915050565b8251815260208084015190820152606060408201525f611cb66060830184611c47565b949350505050565b5f60208284031215611cce575f5ffd5b8135611a1681611a3e565b5f5f60408385031215611cea575f5ffd5b8235611a6b81611a3e565b602081525f611a166020830184611c47565b5f5f5f60608486031215611d19575f5ffd5b8335611d2481611a3e565b92506020840135611d3481611a1d565b91506040840135611d4481611a3e565b809150509250925092565b5f5f60208385031215611d60575f5ffd5b823567ffffffffffffffff811115611d76575f5ffd5b8301601f81018513611d86575f5ffd5b803567ffffffffffffffff811115611d9c575f5ffd5b856020606083028401011115611db0575f5ffd5b6020919091019590945092505050565b5f60208284031215611dd0575f5ffd5b5035919050565b815181526020808301519082015260408101610663565b5f5f60408385031215611dff575f5ffd5b8235611e0a81611a1d565b946020939093013593505050565b5f60208284031215611e28575f5ffd5b8135611a1681611a1d565b5f60208284031215611e43575f5ffd5b8151611a1681611a1d565b80820180821115610663577f4e487b71000000000000000000000000000000000000000000000000000000005f52601160045260245ffd5b7f4e487b71000000000000000000000000000000000000000000000000000000005f52603260045260245ffd5b8135611ebe81611a3e565b63ffffffff811690508154817fffffffffffffffffffffffffffffffffffffffffffffffffffffffff0000000082161783556020840135611efe81611a1d565b77ffffffffffffffffffffffffffffffffffffffff000000008160201b16837fffffffffffffffff0000000000000000000000000000000000000000000000008416171784555050505050565b602080825281018290525f8360408301825b85811015611fcc578235611f7081611a3e565b63ffffffff1682526020830135611f8681611a3e565b63ffffffff1660208301526040830135611f9f81611a1d565b73ffffffffffffffffffffffffffffffffffffffff16604083015260609283019290910190600101611f5d565b5095945050505050565b5f5f83357fffffffffffffffffffffffffffffffffffffffffffffffffffffffffffffffe1843603018112612009575f5ffd5b83018035915067ffffffffffffffff821115612023575f5ffd5b602001915036819003821315612037575f5ffd5b9250929050565b63ffffffff8516815273ffffffffffffffffffffffffffffffffffffffff84166020820152826040820152608060608201525f61207e6080830184611c47565b9695505050505050565b5f60208284031215612098575f5ffd5b5051919050565b7f4e487b71000000000000000000000000000000000000000000000000000000005f52604160045260245ffdfea2646970667358221220509c535ae1fa3668e690db621548f8ef81b94b65a034f83714ecec0e2f35534d64736f6c634300081e0033","linkReferences":{}},"methodIdentifiers":{"executorConfigs(address,uint32)":"4d963200","fees(address)":"faaebd21","getConfig(uint32,address,uint32)":"9c33abf7","getDefaultConfig(uint32,uint32)":"690c6555","getExecutorConfig(address,uint32)":"188183f4","isSupportedEid(uint32)":"6750cd4c","messageLibType()":"1881d94d","mockFee(address,uint256)":"f03d5a1e","owner()":"8da5cb5b","quote((uint64,uint32,address,uint32,bytes32,bytes32,bytes),bytes,bool)":"d80e9bd9","renounceOwnership()":"715018a6","send((uint64,uint32,address,uint32,bytes32,bytes32,bytes),bytes,bool)":"4389e58f","setConfig(address,(uint32,uint32,bytes)[])":"20efd722","setDefaultExecutorConfigs((uint32,(uint32,address))[])":"c14c4349","setTreasury(address)":"f0f44260","setTreasuryNativeFeeCap(uint256)":"d15b0d49","supportsInterface(bytes4)":"01ffc9a7","transferOwnership(address)":"f2fde38b","treasury()":"61d027b3","version()":"54fd4d50","withdrawFee(address,uint256)":"fd9be522","withdrawLzTokenFee(address,address,uint256)":"200175f7"},"id":202}