{"abi":[{"type":"constructor","inputs":[],"stateMutability":"nonpayable"},{"type":"function","name":"ADMIN_ROLE","inputs":[],"outputs":[{"name":"","type":"bytes32","internalType":"bytes32"}],"stateMutability":"view"},{"type":"function","name":"CAP_ADJUSTER_ROLE","inputs":[],"outputs":[{"name":"","type":"bytes32","internalType":"bytes32"}],"stateMutability":"view"},{"type":"function","name":"COLLECTOR_ROLE","inputs":[],"outputs":[{"name":"","type":"bytes32","internalType":"bytes32"}],"stateMutability":"view"},{"type":"function","name":"CURATOR_ROLE","inputs":[],"outputs":[{"name":"","type":"bytes32","internalType":"bytes32"}],"stateMutability":"view"},{"type":"function","name":"DEFAULT_ADMIN_ROLE","inputs":[],"outputs":[{"name":"","type":"bytes32","internalType":"bytes32"}],"stateMutability":"view"},{"type":"function","name":"GATEKEEPER_ROLE","inputs":[],"outputs":[{"name":"","type":"bytes32","internalType":"bytes32"}],"stateMutability":"view"},{"type":"function","name":"REBALANCER_ROLE","inputs":[],"outputs":[{"name":"","type":"bytes32","internalType":"bytes32"}],"stateMutability":"view"},{"type":"function","name":"UPGRADE_INTERFACE_VERSION","inputs":[],"outputs":[{"name":"","type":"string","internalType":"string"}],"stateMutability":"view"},{"type":"function","name":"addCollateral","inputs":[{"name":"collateral","type":"address","internalType":"address"},{"name":"vault","type":"address","internalType":"address"}],"outputs":[],"stateMutability":"nonpayable"},{"type":"function","name":"controller","inputs":[],"outputs":[{"name":"","type":"address","internalType":"address"}],"stateMutability":"view"},{"type":"function","name":"deposit","inputs":[{"name":"collateral","type":"address","internalType":"address"},{"name":"amount","type":"uint256","internalType":"uint256"}],"outputs":[],"stateMutability":"nonpayable"},{"type":"function","name":"getRevenue","inputs":[{"name":"collateral","type":"address","internalType":"address"}],"outputs":[{"name":"revenue","type":"uint256","internalType":"uint256"}],"stateMutability":"view"},{"type":"function","name":"getRoleAdmin","inputs":[{"name":"role","type":"bytes32","internalType":"bytes32"}],"outputs":[{"name":"","type":"bytes32","internalType":"bytes32"}],"stateMutability":"view"},{"type":"function","name":"grantRole","inputs":[{"name":"role","type":"bytes32","internalType":"bytes32"},{"name":"account","type":"address","internalType":"address"}],"outputs":[],"stateMutability":"nonpayable"},{"type":"function","name":"hasRole","inputs":[{"name":"role","type":"bytes32","internalType":"bytes32"},{"name":"account","type":"address","internalType":"address"}],"outputs":[{"name":"","type":"bool","internalType":"bool"}],"stateMutability":"view"},{"type":"function","name":"initialize","inputs":[{"name":"controller_","type":"address","internalType":"address"},{"name":"owner_","type":"address","internalType":"address"}],"outputs":[],"stateMutability":"nonpayable"},{"type":"function","name":"pauseStatus","inputs":[],"outputs":[{"name":"","type":"uint8","internalType":"enum ICollateralManager.ManagerPauseStatus"}],"stateMutability":"view"},{"type":"function","name":"pendingRevenue","inputs":[{"name":"","type":"address","internalType":"address"}],"outputs":[{"name":"","type":"uint256","internalType":"uint256"}],"stateMutability":"view"},{"type":"function","name":"proxiableUUID","inputs":[],"outputs":[{"name":"","type":"bytes32","internalType":"bytes32"}],"stateMutability":"view"},{"type":"function","name":"rebalance","inputs":[{"name":"collateral","type":"address","internalType":"address"},{"name":"amount","type":"uint256","internalType":"uint256"}],"outputs":[],"stateMutability":"nonpayable"},{"type":"function","name":"rebalanceCap","inputs":[{"name":"","type":"address","internalType":"address"}],"outputs":[{"name":"","type":"uint256","internalType":"uint256"}],"stateMutability":"view"},{"type":"function","name":"renounceRole","inputs":[{"name":"role","type":"bytes32","internalType":"bytes32"},{"name":"callerConfirmation","type":"address","internalType":"address"}],"outputs":[],"stateMutability":"nonpayable"},{"type":"function","name":"rescueEther","inputs":[],"outputs":[],"stateMutability":"nonpayable"},{"type":"function","name":"revokeRole","inputs":[{"name":"role","type":"bytes32","internalType":"bytes32"},{"name":"account","type":"address","internalType":"address"}],"outputs":[],"stateMutability":"nonpayable"},{"type":"function","name":"setPauseStatus","inputs":[{"name":"status","type":"uint8","internalType":"enum ICollateralManager.ManagerPauseStatus"}],"outputs":[],"stateMutability":"nonpayable"},{"type":"function","name":"setRebalanceCap","inputs":[{"name":"collateral","type":"address","internalType":"address"},{"name":"amount","type":"uint256","internalType":"uint256"}],"outputs":[],"stateMutability":"nonpayable"},{"type":"function","name":"setSwapCap","inputs":[{"name":"collateral","type":"address","internalType":"address"},{"name":"newSwapCap","type":"uint256","internalType":"uint256"}],"outputs":[],"stateMutability":"nonpayable"},{"type":"function","name":"setSwapModule","inputs":[{"name":"newSwapModule","type":"address","internalType":"address"}],"outputs":[],"stateMutability":"nonpayable"},{"type":"function","name":"setSwapTolerance","inputs":[{"name":"tokenIn","type":"address","internalType":"address"},{"name":"tokenOut","type":"address","internalType":"address"},{"name":"tolerance","type":"uint256","internalType":"uint256"}],"outputs":[],"stateMutability":"nonpayable"},{"type":"function","name":"supportsInterface","inputs":[{"name":"interfaceId","type":"bytes4","internalType":"bytes4"}],"outputs":[{"name":"","type":"bool","internalType":"bool"}],"stateMutability":"view"},{"type":"function","name":"swap","inputs":[{"name":"parameters","type":"bytes","internalType":"bytes"},{"name":"data","type":"bytes","internalType":"bytes"}],"outputs":[],"stateMutability":"nonpayable"},{"type":"function","name":"swapCap","inputs":[{"name":"","type":"address","internalType":"address"}],"outputs":[{"name":"","type":"uint256","internalType":"uint256"}],"stateMutability":"view"},{"type":"function","name":"swapModule","inputs":[],"outputs":[{"name":"","type":"address","internalType":"address"}],"stateMutability":"view"},{"type":"function","name":"swapTolerance","inputs":[{"name":"","type":"address","internalType":"address"},{"name":"","type":"address","internalType":"address"}],"outputs":[{"name":"","type":"uint256","internalType":"uint256"}],"stateMutability":"view"},{"type":"function","name":"updateController","inputs":[{"name":"newController","type":"address","internalType":"address"},{"name":"collaterals","type":"address[]","internalType":"address[]"}],"outputs":[],"stateMutability":"nonpayable"},{"type":"function","name":"upgradeToAndCall","inputs":[{"name":"newImplementation","type":"address","internalType":"address"},{"name":"data","type":"bytes","internalType":"bytes"}],"outputs":[],"stateMutability":"payable"},{"type":"function","name":"vaults","inputs":[{"name":"","type":"address","internalType":"address"}],"outputs":[{"name":"","type":"address","internalType":"contract IERC4626"}],"stateMutability":"view"},{"type":"function","name":"withdraw","inputs":[{"name":"collateral","type":"address","internalType":"address"},{"name":"amount","type":"uint256","internalType":"uint256"}],"outputs":[],"stateMutability":"nonpayable"},{"type":"function","name":"withdrawRevenue","inputs":[{"name":"collateral","type":"address","internalType":"address"},{"name":"amount","type":"uint256","internalType":"uint256"}],"outputs":[],"stateMutability":"nonpayable"},{"type":"event","name":"CollateralAdded","inputs":[{"name":"token","type":"address","indexed":true,"internalType":"address"},{"name":"vault","type":"address","indexed":true,"internalType":"address"}],"anonymous":false},{"type":"event","name":"ControllerUpdated","inputs":[{"name":"controller","type":"address","indexed":true,"internalType":"address"}],"anonymous":false},{"type":"event","name":"Deposit","inputs":[{"name":"collateral","type":"address","indexed":true,"internalType":"address"},{"name":"amount","type":"uint256","indexed":false,"internalType":"uint256"}],"anonymous":false},{"type":"event","name":"Initialized","inputs":[{"name":"version","type":"uint64","indexed":false,"internalType":"uint64"}],"anonymous":false},{"type":"event","name":"PauseStatusChanged","inputs":[{"name":"status","type":"uint8","indexed":false,"internalType":"enum ICollateralManager.ManagerPauseStatus"}],"anonymous":false},{"type":"event","name":"Rebalance","inputs":[{"name":"collateral","type":"address","indexed":true,"internalType":"address"},{"name":"amount","type":"uint256","indexed":false,"internalType":"uint256"}],"anonymous":false},{"type":"event","name":"RebalanceCapChanged","inputs":[{"name":"collateral","type":"address","indexed":true,"internalType":"address"},{"name":"amount","type":"uint256","indexed":false,"internalType":"uint256"}],"anonymous":false},{"type":"event","name":"RevenueWithdraw","inputs":[{"name":"collateral","type":"address","indexed":true,"internalType":"address"},{"name":"amount","type":"uint256","indexed":false,"internalType":"uint256"}],"anonymous":false},{"type":"event","name":"RoleAdminChanged","inputs":[{"name":"role","type":"bytes32","indexed":true,"internalType":"bytes32"},{"name":"previousAdminRole","type":"bytes32","indexed":true,"internalType":"bytes32"},{"name":"newAdminRole","type":"bytes32","indexed":true,"internalType":"bytes32"}],"anonymous":false},{"type":"event","name":"RoleGranted","inputs":[{"name":"role","type":"bytes32","indexed":true,"internalType":"bytes32"},{"name":"account","type":"address","indexed":true,"internalType":"address"},{"name":"sender","type":"address","indexed":true,"internalType":"address"}],"anonymous":false},{"type":"event","name":"RoleRevoked","inputs":[{"name":"role","type":"bytes32","indexed":true,"internalType":"bytes32"},{"name":"account","type":"address","indexed":true,"internalType":"address"},{"name":"sender","type":"address","indexed":true,"internalType":"address"}],"anonymous":false},{"type":"event","name":"Swap","inputs":[{"name":"srcToken","type":"address","indexed":true,"internalType":"address"},{"name":"dstToken","type":"address","indexed":true,"internalType":"address"},{"name":"srcAmount","type":"uint256","indexed":false,"internalType":"uint256"},{"name":"dstAmount","type":"uint256","indexed":false,"internalType":"uint256"}],"anonymous":false},{"type":"event","name":"SwapCapUpdated","inputs":[{"name":"collateral","type":"address","indexed":false,"internalType":"address"},{"name":"newSwapCap","type":"uint256","indexed":false,"internalType":"uint256"}],"anonymous":false},{"type":"event","name":"SwapModuleUpdated","inputs":[{"name":"swapModule","type":"address","indexed":true,"internalType":"address"}],"anonymous":false},{"type":"event","name":"SwapToleranceUpdated","inputs":[{"name":"tokenIn","type":"address","indexed":true,"internalType":"address"},{"name":"tokenOut","type":"address","indexed":true,"internalType":"address"},{"name":"tolerance","type":"uint256","indexed":false,"internalType":"uint256"}],"anonymous":false},{"type":"event","name":"Upgraded","inputs":[{"name":"implementation","type":"address","indexed":true,"internalType":"address"}],"anonymous":false},{"type":"event","name":"Withdraw","inputs":[{"name":"collateral","type":"address","indexed":true,"internalType":"address"},{"name":"amount","type":"uint256","indexed":false,"internalType":"uint256"}],"anonymous":false},{"type":"error","name":"AccessControlBadConfirmation","inputs":[]},{"type":"error","name":"AccessControlUnauthorizedAccount","inputs":[{"name":"account","type":"address","internalType":"address"},{"name":"neededRole","type":"bytes32","internalType":"bytes32"}]},{"type":"error","name":"AddressEmptyCode","inputs":[{"name":"target","type":"address","internalType":"address"}]},{"type":"error","name":"CollateralAlreadySupported","inputs":[]},{"type":"error","name":"CollateralNotSupported","inputs":[]},{"type":"error","name":"ERC1967InvalidImplementation","inputs":[{"name":"implementation","type":"address","internalType":"address"}]},{"type":"error","name":"ERC1967NonPayable","inputs":[]},{"type":"error","name":"ExceedsPendingRevenue","inputs":[]},{"type":"error","name":"ExceedsRebalanceCap","inputs":[]},{"type":"error","name":"FMLPause","inputs":[]},{"type":"error","name":"FailedCall","inputs":[]},{"type":"error","name":"IncompatibleCollateralVault","inputs":[]},{"type":"error","name":"InsufficientAmountReceived","inputs":[]},{"type":"error","name":"InvalidInitialization","inputs":[]},{"type":"error","name":"InvalidSlippage","inputs":[]},{"type":"error","name":"InvalidSwapAmount","inputs":[]},{"type":"error","name":"NonZeroAddress","inputs":[]},{"type":"error","name":"NotInitializing","inputs":[]},{"type":"error","name":"ReentrancyGuardReentrantCall","inputs":[]},{"type":"error","name":"RescueEtherFailed","inputs":[]},{"type":"error","name":"SafeERC20FailedDecreaseAllowance","inputs":[{"name":"spender","type":"address","internalType":"address"},{"name":"currentAllowance","type":"uint256","internalType":"uint256"},{"name":"requestedDecrease","type":"uint256","internalType":"uint256"}]},{"type":"error","name":"SafeERC20FailedOperation","inputs":[{"name":"token","type":"address","internalType":"address"}]},{"type":"error","name":"UUPSUnauthorizedCallContext","inputs":[]},{"type":"error","name":"UUPSUnsupportedProxiableUUID","inputs":[{"name":"slot","type":"bytes32","internalType":"bytes32"}]}],"bytecode":{"object":"0x60a060405230608052348015610013575f5ffd5b5061001c610021565b6100d3565b7ff0c57e16840df040f15088dc2f81fe391c3923bec73e23a9662efc9c229c6a00805468010000000000000000900460ff16156100715760405163f92ee8a960e01b815260040160405180910390fd5b80546001600160401b03908116146100d05780546001600160401b0319166001600160401b0390811782556040519081527fc7f505b2f371ae2175ee4913f4499e1f2633a7b5936321eed1cdaeb6115181d29060200160405180910390a15b50565b608051613e9d6100f95f395f8181612bd701528181612c000152612e1e0152613e9d5ff3fe608060405260043610610291575f3560e01c806375b238fc11610165578063b19488f3116100c6578063d6fd31751161007c578063f3fef3a311610062578063f3fef3a3146108b6578063f77c4791146108d5578063fa716b3f14610900575f5ffd5b8063d6fd317514610864578063ded873dd14610897575f5ffd5b8063c5ad3b9f116100ac578063c5ad3b9f146107f3578063c6783af114610826578063d547741f14610845575f5ffd5b8063b19488f31461079e578063c46b30bc146107d4575f5ffd5b80639ca39ae91161011b578063a42670bf11610101578063a42670bf146106c4578063a622ee7c146106e3578063ad3cb1cc14610749575f5ffd5b80639ca39ae91461067e578063a217fddf146106b1575f5ffd5b806385b670951161014b57806385b67095146105d05780638b63c267146105ef57806391d148541461060e575f5ffd5b806375b238fc146105725780638287786a146105a5575f5ffd5b80633da9b9d01161020f5780634a2cfb54116101c557806350a48883116101ab57806350a488831461052057806352d1902d1461053f57806364aa91d814610553575f5ffd5b80634a2cfb54146104da5780634f1ef2861461050d575f5ffd5b806347e7ef24116101f557806347e7ef2414610469578063485cc95514610488578063490b48f8146104a7575f5ffd5b80633da9b9d01461040c578063466916ca1461042b575f5ffd5b806320b6b2fc116102645780632f2ff15d1161024a5780632f2ff15d146103af57806330a4c9ca146103ce57806336568abe146103ed575f5ffd5b806320b6b2fc14610337578063248a9ca314610362575f5ffd5b806301ffc9a71461029557806312f62498146102c95780631693252b146102ea57806320969d0714610323575b5f5ffd5b3480156102a0575f5ffd5b506102b46102af3660046135fc565b61092c565b60405190151581526020015b60405180910390f35b3480156102d4575f5ffd5b506102e86102e336600461366c565b6109c4565b005b3480156102f5575f5ffd5b5061031561030436600461366c565b60056020525f908152604090205481565b6040519081526020016102c0565b34801561032e575f5ffd5b506102e8610a8c565b348015610342575f5ffd5b5061031561035136600461366c565b60036020525f908152604090205481565b34801561036d575f5ffd5b5061031561037c366004613687565b5f9081527f02dd7bc7dec4dceedda775e58dd541e08a116c6c53815c0bd028192f7b626800602052604090206001015490565b3480156103ba575f5ffd5b506102e86103c936600461369e565b610b39565b3480156103d9575f5ffd5b506102e86103e83660046136cc565b610b82565b3480156103f8575f5ffd5b506102e861040736600461369e565b610e11565b348015610417575f5ffd5b506102e861042636600461374f565b610e6f565b348015610436575f5ffd5b5060015461045c9074010000000000000000000000000000000000000000900460ff1681565b6040516102c091906137a6565b348015610474575f5ffd5b506102e861048336600461374f565b61109c565b348015610493575f5ffd5b506102e86104a23660046137e5565b61130c565b3480156104b2575f5ffd5b506103157fccc64574297998b6c3edf6078cc5e01268465ff116954e3af02ff3a70a730f4681565b3480156104e5575f5ffd5b506103157f850d585eb7f024ccee5e68e55f2c26cc72e1e6ee456acf62135757a5eb9d4a1081565b6102e861051b3660046138b6565b611506565b34801561052b575f5ffd5b506102e861053a36600461397b565b611521565b34801561054a575f5ffd5b506103156115db565b34801561055e575f5ffd5b506102e861056d36600461374f565b611609565b34801561057d575f5ffd5b506103157fa49807205ce4d355092ef5a8a18f56e8913cf4a201fbe287825b095693c2177581565b3480156105b0575f5ffd5b506103156105bf36600461366c565b60066020525f908152604090205481565b3480156105db575f5ffd5b506103156105ea36600461366c565b611698565b3480156105fa575f5ffd5b506102e861060936600461374f565b6116fb565b348015610619575f5ffd5b506102b461062836600461369e565b5f9182527f02dd7bc7dec4dceedda775e58dd541e08a116c6c53815c0bd028192f7b6268006020908152604080842073ffffffffffffffffffffffffffffffffffffffff93909316845291905290205460ff1690565b348015610689575f5ffd5b506103157f14cf45180c3fcf249a5a305e9657ea05c14fd4f4e1800ee0216a8213091711d281565b3480156106bc575f5ffd5b506103155f81565b3480156106cf575f5ffd5b506102e86106de36600461374f565b61199b565b3480156106ee575f5ffd5b506107246106fd36600461366c565b60026020525f908152604090205473ffffffffffffffffffffffffffffffffffffffff1681565b60405173ffffffffffffffffffffffffffffffffffffffff90911681526020016102c0565b348015610754575f5ffd5b506107916040518060400160405280600581526020017f352e302e3000000000000000000000000000000000000000000000000000000081525081565b6040516102c09190613999565b3480156107a9575f5ffd5b506103156107b83660046137e5565b600760209081525f928352604080842090915290825290205481565b3480156107df575f5ffd5b506102e86107ee366004613a31565b611a1e565b3480156107fe575f5ffd5b506103157fb741ffdbc4b0522595a09d6e5ad9388f68e64c2ae68d00b0a174baba20f8c94d81565b348015610831575f5ffd5b506102e86108403660046137e5565b611f93565b348015610850575f5ffd5b506102e861085f36600461369e565b612384565b34801561086f575f5ffd5b506103157f3c63e605be3290ab6b04cfc46c6e1516e626d43236b034f09d7ede1d017beb0c81565b3480156108a2575f5ffd5b506102e86108b1366004613a9d565b6123c7565b3480156108c1575f5ffd5b506102e86108d036600461374f565b61245f565b3480156108e0575f5ffd5b505f546107249073ffffffffffffffffffffffffffffffffffffffff1681565b34801561090b575f5ffd5b506001546107249073ffffffffffffffffffffffffffffffffffffffff1681565b5f7fffffffff0000000000000000000000000000000000000000000000000000000082167f7965db0b0000000000000000000000000000000000000000000000000000000014806109be57507f01ffc9a7000000000000000000000000000000000000000000000000000000007fffffffff000000000000000000000000000000000000000000000000000000008316145b92915050565b5f6109ce816126c4565b8173ffffffffffffffffffffffffffffffffffffffff8116610a1c576040517fbf8d717500000000000000000000000000000000000000000000000000000000815260040160405180910390fd5b600180547fffffffffffffffffffffffff00000000000000000000000000000000000000001673ffffffffffffffffffffffffffffffffffffffff85169081179091556040517faf6cd135c2ebef948aa7b21587e2c9af90e943077ddce2329e3562ff4343853b905f90a2505050565b7fa49807205ce4d355092ef5a8a18f56e8913cf4a201fbe287825b095693c21775610ab6816126c4565b6040515f90339047908381818185875af1925050503d805f8114610af5576040519150601f19603f3d011682016040523d82523d5f602084013e610afa565b606091505b5050905080610b35576040517f2deb606a00000000000000000000000000000000000000000000000000000000815260040160405180910390fd5b5050565b5f8281527f02dd7bc7dec4dceedda775e58dd541e08a116c6c53815c0bd028192f7b6268006020526040902060010154610b72816126c4565b610b7c83836126d1565b50505050565b5f610b8c816126c4565b8373ffffffffffffffffffffffffffffffffffffffff8116610bda576040517fbf8d717500000000000000000000000000000000000000000000000000000000815260040160405180910390fd5b5f805473ffffffffffffffffffffffffffffffffffffffff16815b61ffff8116861115610d9e5786868261ffff16818110610c1757610c17613adb565b9050602002016020810190610c2c919061366c565b73ffffffffffffffffffffffffffffffffffffffff8082165f9081526002602052604090205491945016610c8c576040517fb047cbb900000000000000000000000000000000000000000000000000000000815260040160405180910390fd5b6040517fdd62ed3e00000000000000000000000000000000000000000000000000000000815230600482015273ffffffffffffffffffffffffffffffffffffffff83811660248301525f919085169063dd62ed3e90604401602060405180830381865afa158015610cff573d5f5f3e3d5ffd5b505050506040513d601f19601f82011682018060405250810190610d239190613b08565b90508015610d4c57610d4c73ffffffffffffffffffffffffffffffffffffffff851684836127f6565b610d8d73ffffffffffffffffffffffffffffffffffffffff85168a7fffffffffffffffffffffffffffffffffffffffffffffffffffffffffffffffff612901565b50610d9781613b4c565b9050610bf5565b505f80547fffffffffffffffffffffffff00000000000000000000000000000000000000001673ffffffffffffffffffffffffffffffffffffffff8916908117825560405190917f1304018cfe79741dcf02ba6b61d39cc4757d59395d03224d9925c7aa8300214691a250505050505050565b73ffffffffffffffffffffffffffffffffffffffff81163314610e60576040517f6697b23200000000000000000000000000000000000000000000000000000000815260040160405180910390fd5b610e6a82826129ae565b505050565b600180805474010000000000000000000000000000000000000000900460ff1690811115610e9f57610e9f613779565b03610ed6576040517fa7402fd500000000000000000000000000000000000000000000000000000000815260040160405180910390fd5b7fccc64574297998b6c3edf6078cc5e01268465ff116954e3af02ff3a70a730f46610f00816126c4565b73ffffffffffffffffffffffffffffffffffffffff83165f90815260056020526040902054821115610f5e576040517f7567545500000000000000000000000000000000000000000000000000000000815260040160405180910390fd5b73ffffffffffffffffffffffffffffffffffffffff83165f9081526005602052604081208054849290610f92908490613b6c565b90915550505f54604080517f375b74c300000000000000000000000000000000000000000000000000000000815290516110479273ffffffffffffffffffffffffffffffffffffffff169163375b74c39160048083019260209291908290030181865afa158015611005573d5f5f3e3d5ffd5b505050506040513d601f19601f820116820180604052508101906110299190613b7f565b73ffffffffffffffffffffffffffffffffffffffff85169084612a8a565b8273ffffffffffffffffffffffffffffffffffffffff167f4217d9fab39dbadacf1dad6c889aec1caa02e8a6cb59ddd4ce34f3e0ef158b558360405161108f91815260200190565b60405180910390a2505050565b6110a4612ae5565b600180805474010000000000000000000000000000000000000000900460ff16908111156110d4576110d4613779565b0361110b576040517fa7402fd500000000000000000000000000000000000000000000000000000000815260040160405180910390fd5b7f850d585eb7f024ccee5e68e55f2c26cc72e1e6ee456acf62135757a5eb9d4a10611135816126c4565b73ffffffffffffffffffffffffffffffffffffffff8084165f908152600260205260409020541680611193576040517fb047cbb900000000000000000000000000000000000000000000000000000000815260040160405180910390fd5b61119d8482612b1c565b6040517f6e553f650000000000000000000000000000000000000000000000000000000081526004810184905230602482015273ffffffffffffffffffffffffffffffffffffffff821690636e553f65906044016020604051808303815f875af115801561120d573d5f5f3e3d5ffd5b505050506040513d601f19601f820116820180604052508101906112319190613b08565b508073ffffffffffffffffffffffffffffffffffffffff166301e1d1146040518163ffffffff1660e01b8152600401602060405180830381865afa15801561127b573d5f5f3e3d5ffd5b505050506040513d601f19601f8201168201806040525081019061129f9190613b08565b73ffffffffffffffffffffffffffffffffffffffff85165f81815260046020526040908190209290925590517fe1fffcc4923d04b559f4d29a8bfc6cda04eb5b0d3c460751c2402c5c5cc9109c906112fa9086815260200190565b60405180910390a25050610b35612b6d565b5f611315612b97565b805490915060ff68010000000000000000820416159067ffffffffffffffff165f811580156113415750825b90505f8267ffffffffffffffff16600114801561135d5750303b155b90508115801561136b575080155b156113a2576040517ff92ee8a900000000000000000000000000000000000000000000000000000000815260040160405180910390fd5b84547fffffffffffffffffffffffffffffffffffffffffffffffff000000000000000016600117855583156114035784547fffffffffffffffffffffffffffffffffffffffffffffff00ffffffffffffffff16680100000000000000001785555b8673ffffffffffffffffffffffffffffffffffffffff8116611451576040517fbf8d717500000000000000000000000000000000000000000000000000000000815260040160405180910390fd5b5f80547fffffffffffffffffffffffff00000000000000000000000000000000000000001673ffffffffffffffffffffffffffffffffffffffff8a1617815561149a90886126d1565b505083156114fd5784547fffffffffffffffffffffffffffffffffffffffffffffff00ffffffffffffffff168555604051600181527fc7f505b2f371ae2175ee4913f4499e1f2633a7b5936321eed1cdaeb6115181d29060200160405180910390a15b50505050505050565b61150e612bbf565b61151782612cc3565b610b358282612ccd565b7f3c63e605be3290ab6b04cfc46c6e1516e626d43236b034f09d7ede1d017beb0c61154b816126c4565b600180548391907fffffffffffffffffffffff00ffffffffffffffffffffffffffffffffffffffff1674010000000000000000000000000000000000000000838381111561159b5761159b613779565b02179055507f88e43343d33e7b9e718881d5a6211cad20630d355feb746ae6bef8e2c12b0027826040516115cf91906137a6565b60405180910390a15050565b5f6115e4612e06565b507f360894a13ba1a3210667c828492db98dca3e2076cc3735a920a3ca505d382bbc90565b7fb741ffdbc4b0522595a09d6e5ad9388f68e64c2ae68d00b0a174baba20f8c94d611633816126c4565b73ffffffffffffffffffffffffffffffffffffffff83165f81815260066020908152604091829020859055815192835282018490527f17382d5ae8099e9eee16668c9a42caf5684e36b75145f8ea9111f36c9d1df8f9910160405180910390a1505050565b73ffffffffffffffffffffffffffffffffffffffff8082165f9081526002602052604081205490916116cc91849116612e75565b73ffffffffffffffffffffffffffffffffffffffff83165f908152600360205260409020546109be9190613b9a565b611703612ae5565b600180805474010000000000000000000000000000000000000000900460ff169081111561173357611733613779565b0361176a576040517fa7402fd500000000000000000000000000000000000000000000000000000000815260040160405180910390fd5b7f14cf45180c3fcf249a5a305e9657ea05c14fd4f4e1800ee0216a8213091711d2611794816126c4565b73ffffffffffffffffffffffffffffffffffffffff8084165f9081526002602052604090205416806117f2576040517fb047cbb900000000000000000000000000000000000000000000000000000000815260040160405180910390fd5b6117fc8482612b1c565b73ffffffffffffffffffffffffffffffffffffffff84165f908152600360205260409020548084111561185b576040517f9ea62f1300000000000000000000000000000000000000000000000000000000815260040160405180910390fd5b61187c73ffffffffffffffffffffffffffffffffffffffff86163386612a8a565b83810360035f8773ffffffffffffffffffffffffffffffffffffffff1673ffffffffffffffffffffffffffffffffffffffff1681526020019081526020015f20819055508173ffffffffffffffffffffffffffffffffffffffff166301e1d1146040518163ffffffff1660e01b8152600401602060405180830381865afa158015611909573d5f5f3e3d5ffd5b505050506040513d601f19601f8201168201806040525081019061192d9190613b08565b73ffffffffffffffffffffffffffffffffffffffff86165f81815260046020526040908190209290925590517f4c97839c0e37fc1b647e13a4441f168b593d2ed8180c3ca72025108d710e7acc906119889087815260200190565b60405180910390a2505050610b35612b6d565b7fb741ffdbc4b0522595a09d6e5ad9388f68e64c2ae68d00b0a174baba20f8c94d6119c5816126c4565b73ffffffffffffffffffffffffffffffffffffffff83165f8181526005602052604090819020849055517f692fd2d8bc6d9766260144de33ff0386d372a90cce1c4c1a58b7a8f0baddb6949061108f9085815260200190565b611a26612ae5565b600180805474010000000000000000000000000000000000000000900460ff1690811115611a5657611a56613779565b03611a8d576040517fa7402fd500000000000000000000000000000000000000000000000000000000815260040160405180910390fd5b7f850d585eb7f024ccee5e68e55f2c26cc72e1e6ee456acf62135757a5eb9d4a10611ab7816126c4565b5f611ac485870187613bad565b60408082015173ffffffffffffffffffffffffffffffffffffffff9081165f9081526002602052919091205491925016611b2a576040517fb047cbb900000000000000000000000000000000000000000000000000000000815260040160405180910390fd5b606081015173ffffffffffffffffffffffffffffffffffffffff9081165f9081526002602052604090205416611b8c576040517fb047cbb900000000000000000000000000000000000000000000000000000000815260040160405180910390fd5b60408082015173ffffffffffffffffffffffffffffffffffffffff9081165f9081526006602052828120546060850151909216815291909120546080830151821015611c04576040517fe346d81d00000000000000000000000000000000000000000000000000000000815260040160405180910390fd5b808360a001511115611c42576040517fe346d81d00000000000000000000000000000000000000000000000000000000815260040160405180910390fd5b611c4b83612f22565b60608301516040517f70a082310000000000000000000000000000000000000000000000000000000081523060048201525f9173ffffffffffffffffffffffffffffffffffffffff16906370a0823190602401602060405180830381865afa158015611cb9573d5f5f3e3d5ffd5b505050506040513d601f19601f82011682018060405250810190611cdd9190613b08565b60015460808601516040870151929350611d119273ffffffffffffffffffffffffffffffffffffffff908116921690612a8a565b6001546040517fc46b30bc00000000000000000000000000000000000000000000000000000000815273ffffffffffffffffffffffffffffffffffffffff9091169063c46b30bc90611d6d908c908c908c908c90600401613c7f565b5f604051808303815f87803b158015611d84575f5ffd5b505af1158015611d96573d5f5f3e3d5ffd5b5050505060608401516040517f70a082310000000000000000000000000000000000000000000000000000000081523060048201525f9173ffffffffffffffffffffffffffffffffffffffff16906370a0823190602401602060405180830381865afa158015611e08573d5f5f3e3d5ffd5b505050506040513d601f19601f82011682018060405250810190611e2c9190613b08565b60a0860151909150611e3e8383613b6c565b1015611e76576040517f910f341200000000000000000000000000000000000000000000000000000000815260040160405180910390fd5b6080850151611e859085613b6c565b60408087015173ffffffffffffffffffffffffffffffffffffffff165f90815260066020522055611eb68282613b6c565b611ec09084613b6c565b60065f876060015173ffffffffffffffffffffffffffffffffffffffff1673ffffffffffffffffffffffffffffffffffffffff1681526020019081526020015f2081905550846060015173ffffffffffffffffffffffffffffffffffffffff16856040015173ffffffffffffffffffffffffffffffffffffffff167ffa2dda1cc1b86e41239702756b13effbc1a092b5c57e3ad320fbe4f3b13fe23587608001518585611f6d9190613b6c565b6040805192835260208301919091520160405180910390a3505050505050610b7c612b6d565b600180805474010000000000000000000000000000000000000000900460ff1690811115611fc357611fc3613779565b03611ffa576040517fa7402fd500000000000000000000000000000000000000000000000000000000815260040160405180910390fd5b612002612ae5565b5f61200c816126c4565b8273ffffffffffffffffffffffffffffffffffffffff811661205a576040517fbf8d717500000000000000000000000000000000000000000000000000000000815260040160405180910390fd5b8273ffffffffffffffffffffffffffffffffffffffff81166120a8576040517fbf8d717500000000000000000000000000000000000000000000000000000000815260040160405180910390fd5b73ffffffffffffffffffffffffffffffffffffffff8581165f908152600260205260409020541615612106576040517ff1b53a2300000000000000000000000000000000000000000000000000000000815260040160405180910390fd5b8473ffffffffffffffffffffffffffffffffffffffff168473ffffffffffffffffffffffffffffffffffffffff166338d52e0f6040518163ffffffff1660e01b8152600401602060405180830381865afa158015612166573d5f5f3e3d5ffd5b505050506040513d601f19601f8201168201806040525081019061218a9190613b7f565b73ffffffffffffffffffffffffffffffffffffffff16146121d7576040517f8f5847e300000000000000000000000000000000000000000000000000000000815260040160405180910390fd5b5f5461221d9073ffffffffffffffffffffffffffffffffffffffff87811691167fffffffffffffffffffffffffffffffffffffffffffffffffffffffffffffffff612901565b61225e73ffffffffffffffffffffffffffffffffffffffff8616857fffffffffffffffffffffffffffffffffffffffffffffffffffffffffffffffff612901565b73ffffffffffffffffffffffffffffffffffffffff8581165f9081526002602090815260409182902080547fffffffffffffffffffffffff000000000000000000000000000000000000000016938816938417905581517f01e1d11400000000000000000000000000000000000000000000000000000000815291516301e1d1149260048082019392918290030181865afa1580156122ff573d5f5f3e3d5ffd5b505050506040513d601f19601f820116820180604052508101906123239190613b08565b73ffffffffffffffffffffffffffffffffffffffff8087165f818152600460205260408082209490945592519187169290917f63b5dc5e99047761794ba2b13700899319b3d9e518330e2eb21dd505d2f4b7339190a3505050610b35612b6d565b5f8281527f02dd7bc7dec4dceedda775e58dd541e08a116c6c53815c0bd028192f7b62680060205260409020600101546123bd816126c4565b610b7c83836129ae565b7fa49807205ce4d355092ef5a8a18f56e8913cf4a201fbe287825b095693c217756123f1816126c4565b73ffffffffffffffffffffffffffffffffffffffff8481165f8181526007602090815260408083209488168084529482529182902086905590518581527fb89fdadc07d973f07d54af42825efe3edb21a81dddfe2475abe675a02a996e5b910160405180910390a350505050565b612467612ae5565b600180805474010000000000000000000000000000000000000000900460ff169081111561249757612497613779565b036124ce576040517fa7402fd500000000000000000000000000000000000000000000000000000000815260040160405180910390fd5b7f850d585eb7f024ccee5e68e55f2c26cc72e1e6ee456acf62135757a5eb9d4a106124f8816126c4565b73ffffffffffffffffffffffffffffffffffffffff8084165f908152600260205260409020541680612556576040517fb047cbb900000000000000000000000000000000000000000000000000000000815260040160405180910390fd5b6125608482612b1c565b6040517fb460af94000000000000000000000000000000000000000000000000000000008152600481018490523060248201819052604482015273ffffffffffffffffffffffffffffffffffffffff82169063b460af94906064016020604051808303815f875af11580156125d7573d5f5f3e3d5ffd5b505050506040513d601f19601f820116820180604052508101906125fb9190613b08565b508073ffffffffffffffffffffffffffffffffffffffff166301e1d1146040518163ffffffff1660e01b8152600401602060405180830381865afa158015612645573d5f5f3e3d5ffd5b505050506040513d601f19601f820116820180604052508101906126699190613b08565b73ffffffffffffffffffffffffffffffffffffffff85165f81815260046020526040908190209290925590517f884edad9ce6fa2440d8a54cc123490eb96d2768479d49ff9c7366125a9424364906112fa9086815260200190565b6126ce8133613095565b50565b5f8281527f02dd7bc7dec4dceedda775e58dd541e08a116c6c53815c0bd028192f7b6268006020818152604080842073ffffffffffffffffffffffffffffffffffffffff8616855290915282205460ff166127e6575f8481526020828152604080832073ffffffffffffffffffffffffffffffffffffffff87168452909152902080547fffffffffffffffffffffffffffffffffffffffffffffffffffffffffffffff001660011790556127823390565b73ffffffffffffffffffffffffffffffffffffffff168373ffffffffffffffffffffffffffffffffffffffff16857f2f8788117e7eff1d82e926ec794901d17c78024a50270940304540a733656f0d60405160405180910390a460019150506109be565b5f9150506109be565b5092915050565b6040517fdd62ed3e00000000000000000000000000000000000000000000000000000000815230600482015273ffffffffffffffffffffffffffffffffffffffff83811660248301525f919085169063dd62ed3e90604401602060405180830381865afa158015612869573d5f5f3e3d5ffd5b505050506040513d601f19601f8201168201806040525081019061288d9190613b08565b9050818110156128f4576040517fe570110f00000000000000000000000000000000000000000000000000000000815273ffffffffffffffffffffffffffffffffffffffff8416600482015260248101829052604481018390526064015b60405180910390fd5b610b7c848484840361313b565b6040517fdd62ed3e00000000000000000000000000000000000000000000000000000000815230600482015273ffffffffffffffffffffffffffffffffffffffff83811660248301525f919085169063dd62ed3e90604401602060405180830381865afa158015612974573d5f5f3e3d5ffd5b505050506040513d601f19601f820116820180604052508101906129989190613b08565b9050610b7c84846129a98585613b9a565b61313b565b5f8281527f02dd7bc7dec4dceedda775e58dd541e08a116c6c53815c0bd028192f7b6268006020818152604080842073ffffffffffffffffffffffffffffffffffffffff8616855290915282205460ff16156127e6575f8481526020828152604080832073ffffffffffffffffffffffffffffffffffffffff8716808552925280832080547fffffffffffffffffffffffffffffffffffffffffffffffffffffffffffffff0016905551339287917ff6391f5c32d9c69d2a47ea670b442974b53935d1edc7fd64eb21e047a839171b9190a460019150506109be565b612a9783838360016131b3565b610e6a576040517f5274afe700000000000000000000000000000000000000000000000000000000815273ffffffffffffffffffffffffffffffffffffffff841660048201526024016128eb565b612aed61323b565b612b1a60017f9b779b17422d0df92223018b32b4d1fa46e071723d6817e2486d003becc55f005b90613294565b565b5f612b278383612e75565b90508015610e6a5773ffffffffffffffffffffffffffffffffffffffff83165f9081526003602052604081208054839290612b63908490613b9a565b9091555050505050565b612b1a5f7f9b779b17422d0df92223018b32b4d1fa46e071723d6817e2486d003becc55f00612b14565b5f807ff0c57e16840df040f15088dc2f81fe391c3923bec73e23a9662efc9c229c6a006109be565b3073ffffffffffffffffffffffffffffffffffffffff7f0000000000000000000000000000000000000000000000000000000000000000161480612c8c57507f000000000000000000000000000000000000000000000000000000000000000073ffffffffffffffffffffffffffffffffffffffff16612c737f360894a13ba1a3210667c828492db98dca3e2076cc3735a920a3ca505d382bbc5473ffffffffffffffffffffffffffffffffffffffff1690565b73ffffffffffffffffffffffffffffffffffffffff1614155b15612b1a576040517fe07c8dba00000000000000000000000000000000000000000000000000000000815260040160405180910390fd5b5f610b35816126c4565b8173ffffffffffffffffffffffffffffffffffffffff166352d1902d6040518163ffffffff1660e01b8152600401602060405180830381865afa925050508015612d52575060408051601f3d9081017fffffffffffffffffffffffffffffffffffffffffffffffffffffffffffffffe0168201909252612d4f91810190613b08565b60015b612da0576040517f4c9c8ce300000000000000000000000000000000000000000000000000000000815273ffffffffffffffffffffffffffffffffffffffff831660048201526024016128eb565b7f360894a13ba1a3210667c828492db98dca3e2076cc3735a920a3ca505d382bbc8114612dfc576040517faa1d49a4000000000000000000000000000000000000000000000000000000008152600481018290526024016128eb565b610e6a838361329b565b3073ffffffffffffffffffffffffffffffffffffffff7f00000000000000000000000000000000000000000000000000000000000000001614612b1a576040517fe07c8dba00000000000000000000000000000000000000000000000000000000815260040160405180910390fd5b5f5f8273ffffffffffffffffffffffffffffffffffffffff166301e1d1146040518163ffffffff1660e01b8152600401602060405180830381865afa158015612ec0573d5f5f3e3d5ffd5b505050506040513d601f19601f82011682018060405250810190612ee49190613b08565b73ffffffffffffffffffffffffffffffffffffffff85165f9081526004602052604090205490915080821115612f1a5780820392505b505092915050565b5f612fa18260800151836040015173ffffffffffffffffffffffffffffffffffffffff1663313ce5676040518163ffffffff1660e01b8152600401602060405180830381865afa158015612f78573d5f5f3e3d5ffd5b505050506040513d601f19601f82011682018060405250810190612f9c9190613cb0565b6132fd565b90505f612ff98360a00151846060015173ffffffffffffffffffffffffffffffffffffffff1663313ce5676040518163ffffffff1660e01b8152600401602060405180830381865afa158015612f78573d5f5f3e3d5ffd5b90505f826130078382613b6c565b61301390612710613cd0565b61301d9190613ce7565b60408086015173ffffffffffffffffffffffffffffffffffffffff9081165f9081526007602090815283822060608a01519093168252919091522054909150811115610b7c576040517f334ee9a100000000000000000000000000000000000000000000000000000000815260040160405180910390fd5b5f8281527f02dd7bc7dec4dceedda775e58dd541e08a116c6c53815c0bd028192f7b6268006020908152604080832073ffffffffffffffffffffffffffffffffffffffff8516845290915290205460ff16610b35576040517fe2517d3f00000000000000000000000000000000000000000000000000000000815273ffffffffffffffffffffffffffffffffffffffff82166004820152602481018390526044016128eb565b6131478383835f61336a565b610e6a5761315883835f600161336a565b6131a6576040517f5274afe700000000000000000000000000000000000000000000000000000000815273ffffffffffffffffffffffffffffffffffffffff841660048201526024016128eb565b612a97838383600161336a565b6040517fa9059cbb000000000000000000000000000000000000000000000000000000005f81815273ffffffffffffffffffffffffffffffffffffffff8616600452602485905291602083604481808b5af1925060015f5114831661322f578383151615613223573d5f823e3d81fd5b5f873b113d1516831692505b60405250949350505050565b7f9b779b17422d0df92223018b32b4d1fa46e071723d6817e2486d003becc55f005c15612b1a576040517f3ee5aeb500000000000000000000000000000000000000000000000000000000815260040160405180910390fd5b80825d5050565b6132a4826133da565b60405173ffffffffffffffffffffffffffffffffffffffff8316907fbc7cd75a20ee27fd9adebab32041f755214dbc6bffa90cc0225b39da2e5c2d3b905f90a28051156132f557610e6a82826134a8565b610b3561358d565b5f8160ff166012036133105750816109be565b60128260ff16101561334357613327826012613d1f565b61333290600a613e59565b61333c9084613cd0565b90506109be565b61334e601283613d1f565b61335990600a613e59565b6133639084613ce7565b9392505050565b6040517f095ea7b3000000000000000000000000000000000000000000000000000000005f81815273ffffffffffffffffffffffffffffffffffffffff8616600452602485905291602083604481808b5af1925060015f5114831661322f578383151615613223573d5f823e3d81fd5b8073ffffffffffffffffffffffffffffffffffffffff163b5f03613442576040517f4c9c8ce300000000000000000000000000000000000000000000000000000000815273ffffffffffffffffffffffffffffffffffffffff821660048201526024016128eb565b7f360894a13ba1a3210667c828492db98dca3e2076cc3735a920a3ca505d382bbc80547fffffffffffffffffffffffff00000000000000000000000000000000000000001673ffffffffffffffffffffffffffffffffffffffff92909216919091179055565b60605f6134b584846135c5565b90508080156134e357505f3d11806134e357505f8473ffffffffffffffffffffffffffffffffffffffff163b115b156134f8576134f06135d8565b9150506109be565b8015613548576040517f9996b31500000000000000000000000000000000000000000000000000000000815273ffffffffffffffffffffffffffffffffffffffff851660048201526024016128eb565b3d1561355b576135566135f1565b6127ef565b6040517fd6bda27500000000000000000000000000000000000000000000000000000000815260040160405180910390fd5b3415612b1a576040517fb398979f00000000000000000000000000000000000000000000000000000000815260040160405180910390fd5b5f5f5f835160208501865af49392505050565b6040513d81523d5f602083013e3d602001810160405290565b6040513d5f823e3d81fd5b5f6020828403121561360c575f5ffd5b81357fffffffff0000000000000000000000000000000000000000000000000000000081168114613363575f5ffd5b73ffffffffffffffffffffffffffffffffffffffff811681146126ce575f5ffd5b80356136678161363b565b919050565b5f6020828403121561367c575f5ffd5b81356133638161363b565b5f60208284031215613697575f5ffd5b5035919050565b5f5f604083850312156136af575f5ffd5b8235915060208301356136c18161363b565b809150509250929050565b5f5f5f604084860312156136de575f5ffd5b83356136e98161363b565b9250602084013567ffffffffffffffff811115613704575f5ffd5b8401601f81018613613714575f5ffd5b803567ffffffffffffffff81111561372a575f5ffd5b8660208260051b840101111561373e575f5ffd5b939660209190910195509293505050565b5f5f60408385031215613760575f5ffd5b823561376b8161363b565b946020939093013593505050565b7f4e487b71000000000000000000000000000000000000000000000000000000005f52602160045260245ffd5b60208101600283106137df577f4e487b71000000000000000000000000000000000000000000000000000000005f52602160045260245ffd5b91905290565b5f5f604083850312156137f6575f5ffd5b82356138018161363b565b915060208301356136c18161363b565b7f4e487b71000000000000000000000000000000000000000000000000000000005f52604160045260245ffd5b60405160c0810167ffffffffffffffff8111828210171561386157613861613811565b60405290565b604051601f82017fffffffffffffffffffffffffffffffffffffffffffffffffffffffffffffffe016810167ffffffffffffffff811182821017156138ae576138ae613811565b604052919050565b5f5f604083850312156138c7575f5ffd5b82356138d28161363b565b9150602083013567ffffffffffffffff8111156138ed575f5ffd5b8301601f810185136138fd575f5ffd5b803567ffffffffffffffff81111561391757613917613811565b61394860207fffffffffffffffffffffffffffffffffffffffffffffffffffffffffffffffe0601f84011601613867565b81815286602083850101111561395c575f5ffd5b816020840160208301375f602083830101528093505050509250929050565b5f6020828403121561398b575f5ffd5b813560028110613363575f5ffd5b602081525f82518060208401528060208501604085015e5f6040828501015260407fffffffffffffffffffffffffffffffffffffffffffffffffffffffffffffffe0601f83011684010191505092915050565b5f5f83601f8401126139fc575f5ffd5b50813567ffffffffffffffff811115613a13575f5ffd5b602083019150836020828501011115613a2a575f5ffd5b9250929050565b5f5f5f5f60408587031215613a44575f5ffd5b843567ffffffffffffffff811115613a5a575f5ffd5b613a66878288016139ec565b909550935050602085013567ffffffffffffffff811115613a85575f5ffd5b613a91878288016139ec565b95989497509550505050565b5f5f5f60608486031215613aaf575f5ffd5b8335613aba8161363b565b92506020840135613aca8161363b565b929592945050506040919091013590565b7f4e487b71000000000000000000000000000000000000000000000000000000005f52603260045260245ffd5b5f60208284031215613b18575f5ffd5b5051919050565b7f4e487b71000000000000000000000000000000000000000000000000000000005f52601160045260245ffd5b5f61ffff821661ffff8103613b6357613b63613b1f565b60010192915050565b818103818111156109be576109be613b1f565b5f60208284031215613b8f575f5ffd5b81516133638161363b565b808201808211156109be576109be613b1f565b5f60c0828403128015613bbe575f5ffd5b50613bc761383e565b82356bffffffffffffffffffffffff81168114613be2575f5ffd5b81526020830135613bf28161363b565b60208201526040830135613c058161363b565b6040820152613c166060840161365c565b60608201526080838101359082015260a0928301359281019290925250919050565b81835281816020850137505f602082840101525f60207fffffffffffffffffffffffffffffffffffffffffffffffffffffffffffffffe0601f840116840101905092915050565b604081525f613c92604083018688613c38565b8281036020840152613ca5818587613c38565b979650505050505050565b5f60208284031215613cc0575f5ffd5b815160ff81168114613363575f5ffd5b80820281158282048414176109be576109be613b1f565b5f82613d1a577f4e487b71000000000000000000000000000000000000000000000000000000005f52601260045260245ffd5b500490565b60ff82811682821603908111156109be576109be613b1f565b6001815b6001841115613d7357808504811115613d5757613d57613b1f565b6001841615613d6557908102905b60019390931c928002613d3c565b935093915050565b5f82613d89575060016109be565b81613d9557505f6109be565b8160018114613dab5760028114613db557613dd1565b60019150506109be565b60ff841115613dc657613dc6613b1f565b50506001821b6109be565b5060208310610133831016604e8410600b8410161715613df4575081810a6109be565b613e1f7fffffffffffffffffffffffffffffffffffffffffffffffffffffffffffffffff8484613d38565b807fffffffffffffffffffffffffffffffffffffffffffffffffffffffffffffffff04821115613e5157613e51613b1f565b029392505050565b5f61336360ff841683613d7b56fea2646970667358221220768f2c0bcd52c75c74b2407aad584e353aa8beb9b8ee0a2f395bf0e23f6837a364736f6c634300081e0033","linkReferences":{}},"methodIdentifiers":{"ADMIN_ROLE()":"75b238fc","CAP_ADJUSTER_ROLE()":"c5ad3b9f","COLLECTOR_ROLE()":"9ca39ae9","CURATOR_ROLE()":"4a2cfb54","DEFAULT_ADMIN_ROLE()":"a217fddf","GATEKEEPER_ROLE()":"d6fd3175","REBALANCER_ROLE()":"490b48f8","UPGRADE_INTERFACE_VERSION()":"ad3cb1cc","addCollateral(address,address)":"c6783af1","controller()":"f77c4791","deposit(address,uint256)":"47e7ef24","getRevenue(address)":"85b67095","getRoleAdmin(bytes32)":"248a9ca3","grantRole(bytes32,address)":"2f2ff15d","hasRole(bytes32,address)":"91d14854","initialize(address,address)":"485cc955","pauseStatus()":"466916ca","pendingRevenue(address)":"20b6b2fc","proxiableUUID()":"52d1902d","rebalance(address,uint256)":"3da9b9d0","rebalanceCap(address)":"1693252b","renounceRole(bytes32,address)":"36568abe","rescueEther()":"20969d07","revokeRole(bytes32,address)":"d547741f","setPauseStatus(uint8)":"50a48883","setRebalanceCap(address,uint256)":"a42670bf","setSwapCap(address,uint256)":"64aa91d8","setSwapModule(address)":"12f62498","setSwapTolerance(address,address,uint256)":"ded873dd","supportsInterface(bytes4)":"01ffc9a7","swap(bytes,bytes)":"c46b30bc","swapCap(address)":"8287786a","swapModule()":"fa716b3f","swapTolerance(address,address)":"b19488f3","updateController(address,address[])":"30a4c9ca","upgradeToAndCall(address,bytes)":"4f1ef286","vaults(address)":"a622ee7c","withdraw(address,uint256)":"f3fef3a3","withdrawRevenue(address,uint256)":"8b63c267"},"id":139}